:020000040800F2
:10000000600900209D010008A32B00084729000873
:10001000A12B0008E90200087F2E00080000000064
:10002000000000000000000000000000C72B0008D6
:100030003503000800000000C52B0008C92B00088C
:10004000B7010008B7010008B7010008B7010008B0
:10005000B7010008B7010008B7010008B7010008A0
:10006000B7010008B7010008B7010008B701000890
:10007000ED020008B7010008B7010008B701000849
:10008000B7010008B701000809020008B70100081D
:10009000B7010008B7010008B7010008B701000860
:1000A000B7010008B7010008B7010008B701000850
:1000B000A92C0008B7010008B7010008B701000823
:1000C000B7010008B7010008B7010008B701000830
:1000D000B7010008B7010008B7010008B701000820
:1000E000B7010008B7010008B7010008B701000810
:1000F000B7010008B7010008B7010008B701000800
:10010000000000000000000000000000B70100082F
:10011000B7010008B7010008B52C0008B7010008B6
:10012000B7010008B7010008B7010008B7010008CF
:10013000B7010008B701000800000000000000003F
:10014000B7010008B7010008B7010008000000006F
:10015000000000000000000000000000000000009F
:100160000000000000000000B7010008B70100080F
:10017000B7010008000000000000000000000000BF
:1001800000000000B7010008DFF80CD000F02AF8EA
:1001900000480047A12E000860090020064880475B
:1001A00006480047FEE7FEE7FEE7FEE7FEE7FEE75C
:1001B000FEE7FEE7FEE7FEE7412C000889010008A4
:1001C000D2B201E000F8012B491EFBD27047002299
:1001D000F6E710B513460A4604461946FFF7F0FF46
:1001E000204610BD064C074D06E0E06840F00103D4
:1001F00094E8070098471034AC42F6D3FFF7C8FFE5
:10020000942F0008B42F000810B5044800F0FCFA41
:10021000BDE81040024800F0F7BA00002C000020B2
:100220008000002070B504460068816801F0030179
:10023000012926D10168C90723D0816801F00D0189
:10024000012910D1816841F00201816021680320F9
:10025000086001F0FDF905460FE000BF01F0F8F974
:10026000401B022809D9606C40F010006064A06C4B
:1002700040F00100A064012070BD20688068C007C4
:10028000ECD1002070BD000070B5044600688168A4
:1002900001F00301012902D10168C90720D1816859
:1002A000104A11420DD1816841F00101816001F0D5
:1002B000CFF905460FE000BF01F0CAF9401B022844
:1002C00009D9606C40F010006064A06C40F001003F
:1002D000A064012070BD20680068C043C007EBD156
:1002E000002070BD3F000080FEE70000014801F0E3
:1002F0006AB800001C0500200B4B016814229942CB
:1003000007D20A4B1944B1FBF2F189000164084994
:1003100008E0054B5B421944B1FBF2F1890001642E
:1003200001490839C163704708040240F8FFFDBF66
:100330000000024070477047704770477047704731
:10034000F0B5002302684FF0A04C3D4C95B01F461D
:10035000624501D100940DE0A24202D1CDF800C067
:1003600008E0384D384EAA4201D1009602E0B24270
:1003700014D1009590F84050012D12D0012580F83D
:10038000405095686D0752D4009DAD686D074ED4FE
:10039000624501D0A24206D12C4A05E0012015B0E9
:1003A000F0BD0220FBE72A4A0D6840F61F741DB31A
:1003B0009568466B25F4604545EA46354E683543F9
:1003C00095600568AE6806F00306012E02D12D681F
:1003D000ED0731D1009DAD6805F00305012D03D176
:1003E000009D2D68ED0727D10D6889680D43916840
:1003F000A1430D4395601FE0916821F46041916035
:1004000001688D6805F00305012D02D10968C9074F
:1004100012D10099896801F00301012903D10099E3
:100420000968C90708D19168A143916004E0416C53
:1004300041F020014164012380F840701846AEE786
:10044000000100500004005000050050000300505F
:1004500000070050F0B595B00024009490F84020BB
:100460002546012A19D0012780F8407003689A6850
:1004700052077CD44A681F26052A11D2D3F830C00F
:1004800002EB4202520096402CEA060C0E6896409F
:100490004CEA060CC3F830C035E0022015B0F0BDC0
:1004A0000A2A0FD2D3F834C0521F02EB4202520084
:1004B00096402CEA060C0E6896404CEA060CC3F8EF
:1004C00034C020E00F2A0FD2D3F838C00A3A02EB2A
:1004D0004202520096402CEA060C0E6896404CEA06
:1004E000060CC3F838C00EE0D3F83CC00F3A02EB5C
:1004F0004202520096402CEA060C0E6896404CEAE6
:10050000060CC3F83CC00268936813F00C0F4FF060
:10051000070374D1D1F800E0BEF10A0F10D3966939
:10052000AEF10A0E0EEB4E0C03FA0CFE26EA0E0696
:10053000D1F808E00EFA0CFE46EA0E0696610FE0CE
:10054000D2F814C00EEB4E0603FA06FE2CEA0E0C8F
:10055000D1F808E00EFA06FE4CEA0E0CC2F814C000
:1005600002684E69D2F80CC0CCF3C10C00E0FDE08B
:100570004FEA4C0C06FA0CF6D1F810E0DFF848C24E
:10058000BEF1010F42D0BEF1020F4DD0BEF1030FFC
:1005900058D0BEF1040F63D0166E91F800C006F07B
:1005A000F846B6EB8C6F03D1166E26F00046166641
:1005B0000268566E91F800C006F0F846B6EB8C6FF4
:1005C00003D1566E26F0004656660268966E91F884
:1005D00000C006F0F846B6EB8C6F03D1966E26F09D
:1005E000004696660268D66E91F800C006F0F8469E
:1005F000B6EB8C6F03D1D66E26F00046D666026845
:10060000966806F00306012E3AD136E0D2F860E093
:100610000EEA0C0E91F800C046EA8C664EEA060E11
:100620004EF000461666EAE7D2F864E00EEA0C0ED9
:1006300091F800C046EA8C664EEA060E4EF000467F
:100640005666DCE7D2F868E00EEA0C0E91F800C0BE
:1006500046EA8C664EEA060E4EF000469666CEE7F7
:10066000D2F86CE00EEA0C0E91F800C046EA8C66F7
:100670004EEA060E4EF00046C0E71668F6077AD13D
:10068000CE68012E06D052F8B03F0E78B740BB437B
:10069000136021E052F8B06F91F800C007FA0CF730
:1006A0003E4316600A680A2A0BD30668B769093AFE
:1006B00002EB420293409F438B6893401F43B76114
:1006C0000AE007687E69521C02EB420293409E4397
:1006D0008B6893401E437E6103684FF0A0473B4EFA
:1006E000BB4201D0B34201D1394A00E0394A09681E
:1006F000102904D0112907D012290AD03BE0D2F8E2
:1007000008C04FEA0C2C08E0D2F808C04FEACC1C15
:1007100003E0D2F808C04FEA4C2CBCF1000F2ADBF2
:10072000BB420DD0B34201D100970CE02A4EDFF856
:10073000ACC0B34202D1CDF800C004E0634501D1A2
:10074000009600E000959E6806F00306012E02D197
:100750001E68F6070AD1009E8EB1B66806F0030641
:10076000012E0CD1009E3668F60708D0416C41F08E
:1007700020014164012480F8405020468EE6102973
:1007800008D011291AD01229F5D1916841F48001BD
:100790009160F0E7BB42EED1916841F400019160B5
:1007A0000F49104A0968B1FBF2F101EB81014900E0
:1007B00000E0491E00910029FBD1DCE7BB42DAD101
:1007C000916841F08071E3E700F0FF830001005081
:1007D00000030050000700500004005000050050C6
:1007E0002800002040420F0010B50168B1F1A04F71
:1007F00003D100F006F80149C86010BD00000020D8
:1008000070470068006C70472DE9F04104460068AD
:100810000168C34FC34DC44E49074FF0A04802D5ED
:100820004168490705D40168090761D5416809078E
:100830005ED5616CC90603D4616C41F400716164DA
:100840004146884201D0B04202D1D1F8082300E0ED
:100850003A6812F01F0F1BD0884201D0B04202D17B
:10086000D1F8082300E03A6802F01F02052A0FD0F1
:10087000884201D0B04202D1D1F8082300E03A68A2
:1008800002F01F02092A03D0884201D0A84201D1F8
:10089000C16803E0B04200D02946C968C26812F4BA
:1008A000406F1FD189041DD4016809071AD58168DA
:1008B00049070FD4416821F00C014160606C20F4BD
:1008C00080706064606CC0040CD4606C40F0010007
:1008D000606407E0606C40F010006064A06C40F061
:1008E0000100A0642046FFF77FFF21680C2008600C
:1008F00020680168890602D54168890605D4016827
:1009000049066ED5416849066BD5616C41F40051CA
:1009100061644246904201D0B04202D1D2F808133D
:1009200000E0396811F01F0F1CD0904201D0B04296
:1009300002D1D2F8081300E0396801F01F0105293F
:1009400010D04146884201D0B04202D1D1F80833DC
:1009500000E03B6803F01F03092B03D0884201D05D
:10096000A84201D1C16803E0B04200D02946C9685D
:10097000C36C13F0C00F07D08B0154D4C36813F4B9
:10098000406F50D189044ED4016849064BD51146B9
:10099000884201D0B04202D1D1F8082300E03A6881
:1009A00012F01F0F1BD0884201D0B04202D1D1F803
:1009B000082300E03A6802F01F02062A0FD088429E
:1009C00001D0B04202D1D1F8082300E03A6802F029
:1009D0001F02072A03D0884201D0A84202D1C16871
:1009E00004E026E0B04200D02946C96889021AD442
:1009F000816809070FD4416821F060014160606C93
:100A000020F480506064606CC0050CD4606C40F0D1
:100A10000100606407E0606C40F010006064A06C4E
:100A200040F00100A0642046FFF786FC21686020AA
:100A300008602068016809060CD54068000609D5E1
:100A4000606C40F480306064204600F095F92168C5
:100A50008020086020680168C9050DD54068C00580
:100A60000AD5606C40F4003060642046FFF766FCF5
:100A700021684FF4807008602068016889050DD5F1
:100A8000406880050AD5606C40F480206064204690
:100A9000FFF755FC21684FF400700860206801687A
:100AA000C90622D54168C9061FD5A16B01290ED000
:100AB000404501D0B04201D11C4901E01849083934
:100AC0008A68D20628D0886800F4404050B1606C33
:100AD00040F480606064A06C40F00200A064204696
:100AE000FFF78EFE21681020086020680168490524
:100AF00010D5416849050DD5616C41F480416164B0
:100B0000A16C41F00801A1644FF4806101602046AE
:100B1000FFF713FCBDE8F081C068C007D6E700000E
:100B2000080700500004005000010050000300506E
:100B3000F0B54FF0000695B00400374635460096F4
:100B400005D0606CC00648D4606C18B133E0012059
:100B500015B0F0BDA5642565E56484F840502046D5
:100B600000F00CF920688068C00024D42046FFF70C
:100B700059FB0646606CC0061DD4E6B9606C20F4D3
:100B8000885040F0020060642068816821F0405184
:100B900081602068816841F0805181606D486E49B4
:100BA0000068B0FBF1F000EB8000400000E0401E68
:100BB00000900028FBD120688168C90002D58068B8
:100BC00080000AD5606C20F0020040F010006064E4
:100BD000A06C40F00100A0640126606CC00675D4D2
:100BE000002E73D12068816849076FD4616C21F4AD
:100BF000807141F0020161644FF0A04E574B704587
:100C000001D0984201D1564A00E0564ADFF858C157
:100C10005649704501D100930EE0984202D1CDF8BB
:100C200000E009E0884202D1CDF800C004E0604550
:100C300001D1009100E00095836803F00303012BCC
:100C400002D10068C00710D1009840B1806800F060
:100C50000300012803D100980068C00705D19068FF
:100C6000636820F4403018439060D4E902201043B8
:100C7000A26B012A02D04FF4805300E00023E26906
:100C800043EA42331843636A3843012B0AD1F2B175
:100C9000626C22F0020242F020026264A26C42F016
:100CA0000102A264E26A012A21D023688B4201D0AA
:100CB000634518D14FF430774FF4E071BA4213D046
:100CC0004FF480739A420AD139460DE038E0228D04
:100CD000274B03EB4242024342F48030E2E78A4270
:100CE00001D1194600E011460143206B08432168F9
:100CF0008A6812F00C0F0AD1CA6844F202039A43C0
:100D0000CA60A169626B890341EA42010843226813
:100D1000D168184B19400143D1602069012820682F
:100D2000016B21F00F0102D1226A521E11430163AF
:100D3000A564606C20F0020040F00100606406E0F1
:100D4000606C20F0020040F0100060640126304624
:100D5000FEE600002800002040420F000001005085
:100D60000003005000070050000500500004005030
:100D70000000FEFF07C0F0FF70470000F0B587B02D
:100D8000044614216846FFF722FA254A2668002304
:100D90001168022403252348491CB6F1A04F06D050
:100DA000214FBE423AD11160012918D01FE01160D5
:100DB000012907D1416941F080514161416901F048
:100DC00080510591416941F40031416140690094CD
:100DD00000F40030059069464FF0904012E0416900
:100DE00041F080514161416901F0805105914169B3
:100DF00041F4002141614069009400F40020059015
:100E00000A486946CDE9015300F058FB002211461B
:100E1000122000F063FD122000F054FD07B0F0BD79
:100E20001800002000100240000100500008004897
:100E30002DE9F0470D46044641693F4A00684FF0EE
:100E400000084FF0A043082905D0984201D09042F5
:100E500003D13A4902E0082614E039498E68F606C3
:100E60000CD0896801F4404159B1606C40F0200019
:100E7000606484F840800120BDE8F087C168C9073C
:100E8000F2E70C26984201D0904202D1D3F8081321
:100E900002E02B490831096811F01F0F04D0984275
:100EA00002D02849884201D1C76803E0904200D1AE
:100EB0001946CF6800F0CCFB814610E0681C0ED0CC
:100EC0002DB100F0C5FBA0EB0900A84207D9606C6A
:100ED00040F00400606484F840800320CCE7206880
:100EE00000683042EAD0606C40F4007060642068B2
:100EF000C16811F4406F1AD1B90418D40168090708
:100F000015D581684907616C0AD421F48071616448
:100F1000616CC9040BD4616C41F00101616406E0AD
:100F200041F020016164A16C41F00101A1647904E8
:100F300000D4066000209FE700010050000300502D
:100F400000070050000400502DE9F04104460068FD
:100F50008068400770D494F8400001280CD001202C
:100F600084F840002046FFF78FF903004FF0000699
:100F700005D084F8406086E00220BDE8F081606C16
:100F800040F60161884340F48070606420684FF04F
:100F9000A0413E4A3E4D884201D0904202D1D1F854
:100FA000087300E02F6817F01F0F3A4F03D08842F4
:100FB00001D0B8420BD1D4F844C02CF4801CC4F842
:100FC00044C0D0F80CC05FEA8C1C14D41BE0D4F8E9
:100FD00044C04CF4801CC4F844C0904202D1D1F803
:100FE0000CC005E0DFF8ACC00CF10C0CDCF800C064
:100FF0001CF0007F07D0D4F844C02CF4005C4CF403
:10100000805CC4F844C0D4F844C05FEACC4C06D538
:10101000D4F848C02CF0060CC4F848C000E0A66420
:1010200084F840601C2606602068884201D0904207
:1010300003D1D1F8084301E024E02C6814F01F0F1D
:101040001BD0884201D0904202D1D1F8084300E081
:101050002C6804F01F04052C0FD0884201D0904268
:1010600002D1D1F8082300E02A6802F01F02092A01
:1010700003D0884201D0B84205D1816841F0040113
:10108000816000E00223184677E70000000100506D
:1010900008070050000400502DE9F04104460068A4
:1010A0008068400770D494F8400001280CD00120DB
:1010B00084F840002046FFF7E7F803004FF00006F1
:1010C00005D084F840609EE00220BDE8F081606CAD
:1010D00040F60161884340F48070606420684FF0FE
:1010E000A0414A4A4A4D884201D0904202D1D1F8EB
:1010F000087300E02F6817F01F0F464F03D0884297
:1011000001D0B8420BD1D4F844C02CF4801CC4F8F0
:1011100044C0D0F80CC05FEA8C1C14D41BE0D4F897
:1011200044C04CF4801CC4F844C0904202D1D1F8B1
:101130000CC005E0DFF8DCC00CF10C0CDCF800C0E2
:101140001CF0007F07D0D4F844C02CF4005C4CF4B1
:10115000805CC4F844C0D4F844C05FEACC4C06D5E7
:10116000D4F848C02CF0060CC4F848C000E0A664CF
:1011700084F840601C26066060690828206846687C
:1011800003D046F00C0607E03CE026F0040646607B
:101190002068466846F008064660A06B012804D126
:1011A0002068466826F0100646602068884201D014
:1011B000904202D1D1F8084300E02C6814F01F0FD0
:1011C0001BD0884201D0904202D1D1F8084300E000
:1011D0002C6804F01F04052C0FD0884201D09042E7
:1011E00002D1D1F8082300E02A6802F01F02092A80
:1011F00003D0884201D0B84205D1816841F0040192
:10120000816000E0022318465FE700000001005003
:101210000807005000040050704770B54379012B57
:101220001AD0012646710223037105682C6840F626
:10123000FE7393409C43D1E900310B439340234319
:101240002B6001680B68C0249440A3430B600671B7
:1012500000214171084670BD022070BD704770B515
:101260000446006801684FF00405890411D5416BFC
:1012700089040ED52571216941F001012161E9023E
:1012800041632068016821F4805101602046FFF726
:10129000E5FF20680168890012D5416B89000FD5F0
:1012A0002571216941F0020121614FF00051416334
:1012B0002068016821F0805101602046FFF7ACFFF3
:1012C00070BD70B5040003D02079002510B105E091
:1012D000012070BD6571204600F008F802202071E1
:1012E000256101202071002070BD000010B586B07E
:1012F000044614216846FEF76AFF154920688842B3
:1013000023D11448C16941F00051C161C16901F0A4
:1013100000510591416941F40031416140696946DC
:1013200000F4003005903020009003200190002050
:1013300002904FF0904000F0C1F800221146362094
:1013400000F0CCFA362000F0BDFA06B010BD000067
:10135000007400400010024018B504680094006852
:10136000104421B1143000900360002018BD0830F3
:10137000F9E730B54279012A12D0012242710223E5
:10138000037103681D6802FA01F425431D600029FA
:1013900001680B6806D0C3F383430F2B0AD00DE01E
:1013A000022030BDC3F383030F2B07D14B6843F0FA
:1013B000010302E04B6843F002034B60027100211D
:1013C0004171084630BDF0B4C16B0D6801680C680E
:1013D000066C042202FA06F32B420FD063070DD5E8
:1013E0000B689B0603D40B6823F004030B6090F892
:1013F00040108A40C16B4A60C16A1BE0022303FAB5
:1014000006F72F424FF0000C4FF0010216D0A7074D
:1014100014D50C68A40605D40C6824F00A040C60EA
:1014200080F8212090F840108B40C16B4B6080F811
:1014300020C0816A002918D0F0BC08470823B340B7
:101440002B4212D0230710D50B6823F00E030B603C
:1014500090F84010C36B02FA01F15960826380F882
:10146000212080F820C0016BE4E7F0BC704770B524
:10147000040021D0022084F821002268116843F67C
:10148000F0708143D4E901031843D4E903352B43B9
:10149000184363691843A3691843E3691843084371
:1014A00010602046FEF728FF0020A063012184F889
:1014B000211084F8200070BD012070BD2DE9F84F87
:1014C000DFF864B100234FF0010C4FF0030A4FF036
:1014D0000F090BF1040EA0E00CFA03F6324072D0B3
:1014E0004C68022C01D0122C0ED1DC0800EB8408D1
:1014F000D8F820405D07EF0E09FA07F5AC430D69F7
:10150000BD402543C8F8205007685D0091F804806D
:101510000AFA05F408F00308A74308FA05F848EAB0
:101520000708C0F800804F68012F05D0022F03D0B4
:10153000112F01D0122F11D18768D1F80C80A74349
:1015400008FA05F848EA0708C0F808804768B74372
:101550000E79C6F300169E403E434660C668A64319
:101560008C68AC403443C4604C68E40054D52F4CC4
:10157000A56945F00105A561A46923F0030504F000
:10158000010400942A4C2E19B4689D072F0F09FA04
:1015900007F5AC43B0F1904F04D0264DA84203D1DB
:1015A000012512E0002510E0234DA84201D10225BB
:1015B0000BE0224DA84201D1032506E0204DA842B0
:1015C00002D1042501E027E00525BD402543B56093
:1015D000DBF800405D464E689443F60300D51443A3
:1015E0002C60DEF8004075464E689443B60300D583
:1015F00014432C600C4D08352C684E689443F60259
:1016000000D514432C60084D0C352C684E6894436B
:10161000B60200D514432C605B1C0A6832FA03F44E
:101620007FF45AAFBDE8F88F00040140001002407B
:10163000000001400004004800080048000C004879
:10164000001000480AB18161704781627047000054
:1016500001488068704700001C00002090F841207D
:10166000202A24D190F84020012A20D0012280F89D
:101670004020242280F841200268136823F00103EF
:1016800013600268136823F48053136002681368C0
:101690000B43136001680A6842F001020A602021CE
:1016A00080F84110002180F8401008467047022061
:1016B000704790F84120202A22D190F84020012A3A
:1016C0001ED0012280F84020242280F841200268A8
:1016D000136823F0010313600268136823F4706336
:1016E00043EA0121116001680A6842F001020A60C0
:1016F000202180F84110002180F8401008467047F2
:101700000220704770B5040004D094F84100002511
:1017100010B106E0012070BD84F84050204600F072
:101720004DF8242084F841002068016821F001016F
:1017300001606068216820F070600861206881683D
:1017400021F400418160E0680128A06807D040F4DE
:10175000044021688860E068022803D006E040F475
:101760000040F6E721684FF4006048602068416857
:10177000114A114341602068C16821F40041C160F1
:10178000D4E904010843A16940EA01202168C86046
:10179000D4E907010843216808602068016841F026
:1017A000010101606564202084F84100256384F80C
:1017B0004250002070BD00000080000210B586B0CD
:1017C000044614216846FEF702FD1249206888424B
:1017D0001ED1114C606940F48020606160696946E7
:1017E00000F480200590C02000901220019001207C
:1017F000029003200390042004900848FFF75EFE47
:10180000E06940F40010E061E06900F40010059028
:1018100006B010BD00540040001002400004004813
:101820000248816802781144816070471C000020E2
:10183000074810B5016841F010010160032000F075
:101840006DF8002000F006F800F024F8002010BD2C
:101850000020024070B50D4D04464FF47A7128788F
:10186000B1FBF0F00A490968B1FBF0F000F096FD19
:1018700048B9102C07D200222146501E00F02EF845
:1018800000206C6070BD012070BD00001C000020B5
:10189000280000200A4882B0816941F0010181617D
:1018A000816901F001010091C16941F08051C1617C
:1018B000C06900F080500090072002B000F02EB800
:1018C0000010024000F01F020121914040098000F9
:1018D00000F1E020C0F8001170470000F0B40E4B9A
:1018E0001B680C46C3F30223C3F10705042D00D97E
:1018F0000425191D072901D2002300E0DB1E012663
:1019000006FA05F1491E214099409E40761E164078
:101910003143F0BC01F046B90CED00E0064900F09F
:10192000070208684FF6FF03184040EA0220034A06
:1019300010430860704700000CED00E00000FA055D
:1019400070B504004FF0000604D094F87103002530
:1019500010B106E0012070BD84F87053204600F0FD
:1019600043F8032084F8710301220CE0C6EBC600A3
:1019700004EB800080F8292000F8286F761CC570E1
:10198000C560056145616068B042EFD8002010E095
:10199000C0EBC00104EB810181F8CD5181F8CC018D
:1019A00081F8CF51C1F8D851C1F8DC51401CC1F8C1
:1019B000E05161688142EBD82068A0F8402020689F
:1019C000A0F840502068A0F844502068A0F850507B
:1019D00021684FF43F40A1F8400084F8245084F877
:1019E0007123002070BD000010B586B0044614219C
:1019F0006846FEF7ECFB13492068884220D1124C60
:101A0000606940F4003060616069694600F400304C
:101A100005904FF4C05000900220019000200290E9
:101A2000032003900E2004904FF09040FFF746FDF6
:101A3000E06940F40000E061E06900F40000059016
:101A400006B010BD005C0040001002402DE9F84FC8
:101A500004460068804DC0036FD5E8690026C000C9
:101A600008D4E86940F08050E861E869012600F098
:101A70008050009079480168C90512D401688046F9
:101A800041F480710160FFF7E3FD074605E000BF08
:101A9000FFF7DEFDC01B642835D8D8F80000C0056C
:101AA000F6D5286A10F4407053D0A18801F4407133
:101AB00081424ED0286A4FF4803191FAA1F2B2FAF5
:101AC00082F29700664A4FF00108174420F44070F4
:101AD000C7F8008491FAA1F1B1FA81F102EB81011A
:101AE0000023C1F800342862C00732D0FFF7B0FDF0
:101AF000074641F2883A4FF0020907E0FFF7A8FDD8
:101B0000C11B514502D90320BDE8F88F99FAA9F10C
:101B1000B1FA81F141F040014846B8EB511F01D1C3
:101B200029680CE090FAA0F1B1FA81F141F040018E
:101B3000B0EB511F02D1296A01E015E0696A99FAF8
:101B4000A9F0B0FA80F000F01F0008FA00F211428C
:101B5000D4D0286A616820F44070084328621EB11E
:101B6000E86920F08050E8612078C00705D0286B34
:101B7000A16820F00300084328632078800705D57A
:101B8000286BE16820F44030084328632078400740
:101B900005D5286B216920F440200843286320786C
:101BA000800605D5286BE16920F010000843286302
:101BB0002068800305D56868A16B20F48000084385
:101BC00068602078400605D5286B216A20F0200047
:101BD000084328632078000705D5286B616920F445
:101BE0004010084328632078C00605D5286BA169FA
:101BF00020F44000084328632088800505D56868E4
:101C0000E16A20F40000084368602078000605D5EA
:101C1000E86A616A20F4F8700843E8622088C00529
:101C200005D5E86AA16A20F478500843E862208864
:101C3000C00405D5286B216B20F48070084328630D
:101C40002088800405D5286B616B20F40070084360
:101C50002863002058E70000001002400070004098
:101C6000000042422DE9F0470F46050069D04A4E78
:101C7000306800F00700B84209D2306820F0070051
:101C800038433060306800F00700B84259D12878F6
:101C9000424C800705D56068A96820F0F000084331
:101CA00060602878C0073DD06968012001290DD007
:101CB000022923D05FF0020393FAA3F2B2FA82F270
:101CC00042F02002520904D0226803E04FF40033AE
:101CD000F2E7626A93FAA3F3B3FA83F303F01F0304
:101CE000984002422DD0606820F0030008436060F5
:101CF000FFF7AEFC804641F288390CE04FF00073EC
:101D0000DAE700BFFFF7A4FCA0EB0801494502D9C0
:101D10000320BDE8F0876068696800F00C00B0EB54
:101D2000810FEFD1306800F00700B8420BD930685E
:101D300020F0070038433060306800F00700B842F8
:101D400001D00120E5E72878400705D56068E968FB
:101D500020F4E060084360602878000706D56068DA
:101D6000296920F4605040EAC100606000F01CF86E
:101D70006168F02292FAA2F201F0F001B2FA82F266
:101D8000D140074A515CC840064908600020FFF76F
:101D900061FD0020BDE7000000200240001002406D
:101DA000842F000828000020144B10B55A681448EE
:101DB00002F00C0104291DD008291BD14FF4701426
:101DC00094FAA4F402F47011B4FA84F4E1400D4CD6
:101DD000DB6A615C0F2494FAA4F403F00F03B4FAF5
:101DE00084F4E340074C1034D203E35C03D5B0FB2A
:101DF000F3F0484310BD0448484310BD00100240B2
:101E000000127A00642F000800093D002DE9F84F08
:101E1000040071D02078FB4DC0074FF0010625D09B
:101E200068687704C0F38100012807D06868C0F3B0
:101E3000810002281BD16868C00318D597FAA7F063
:101E4000B0FA80F040F02000400901D0286800E09E
:101E5000686A97FAA7F1B1FA81F101F01F0106FA59
:101E600001F1084265D060680028D2D061E0606866
:101E7000B0F5803F0BD010B1B0F5A02F17D0286877
:101E800020F480302860286820F4802002E0286850
:101E900040F480302860E86AA16820F00F00084311
:101EA000E862606820B3FFF7D3FB80460AE0286849
:101EB00040F480202860EAE7FFF7CAFBA0EB0800A7
:101EC000642872D897FAA7F0B0FA80F040F02000AA
:101ED000400901D0286800E0686A97FAA7F1B1FAD2
:101EE00081F101F01F0106FA01F10842E4D020E07F
:101EF000FFF7AEFB804607E0C7E000BFFFF7A8FB97
:101F0000A0EB08006428DCD897FAA7F0B0FA80F0BC
:101F100040F02000400901D0286800E0686A97FA84
:101F2000A7F1B1FA81F101F01F0106FA01F10842AF
:101F3000E4D12078DFF8D08280074FF0000A4FF01C
:101F4000020759D568684FF0F80B10F00C0F07D056
:101F50006868C0F3810002281BD16868C00318D4E8
:101F600097FAA7F0B0FA80F040F02000400901D0C5
:101F7000286800E0686A97FAA7F1B1FA81F101F0E8
:101F80001F0106FA01F108422BD0206901287CD1FB
:101F900027E0206988B396FAA6F0B0FA80F048F8F6
:101FA0002060FFF755FB814606E055E1FFF750FB47
:101FB000A0EB0900022884D897FAA7F0B0FA80F0C5
:101FC00040F02000400901D0286800E0686A97FAD4
:101FD000A7F1B1FA81F101F01F0106FA01F10842FF
:101FE000E4D028689BFAABF26169B2FA82F220F081
:101FF000F80091400843286025E0FFE796FAA6F133
:10200000B1FA81F148F821A0FFF722FB814605E0F3
:10201000FFF71EFBA0EB09000228CCD897FAA7F027
:10202000B0FA80F040F02000400901D0286800E0BC
:10203000686A97FAA7F1B1FA81F101F01F0106FA77
:1020400001F10842E4D1207800076AD5A069A0B365
:1020500096FAA6F0B0FA80F008EB8000C0F8806431
:10206000FFF7F6FA814605E0FFF7F2FAA0EB090068
:102070000228A0D897FAA7F0B0FA80F040F06000EC
:10208000B6EB501F02D128680CE077E197FAA7F071
:10209000B0FA80F040F06000B7EB501F01D1286A21
:1020A00000E0686A97FAA7F1B1FA81F101F01F0127
:1020B00006FA01F21042D7D033E0FFE796FAA6F015
:1020C000B0FA80F008EB8000C0F880A4FFF7C0FAF7
:1020D000814605E0FFF7BCFAA0EB090002289CD876
:1020E00097FAA7F0B0FA80F040F06000B6EB501F0E
:1020F00001D128680BE097FAA7F0B0FA80F040F021
:102100006000B7EB501F01D1286A00E0686A97FAB7
:10211000A7F1B1FA81F101F01F0106FA01F21042B4
:10212000D8D12078400774D5E8694FF00009C00085
:1021300009D4E86940F08050E861E8694FF001098E
:1021400000F08050009031480168C90512D4016840
:1021500041F480710160FFF77BFA834606E000BF1F
:10216000FFF776FAA0EB0B00642875D827480068C3
:10217000C005F5D5E06801280AD008B1052811D0BE
:10218000286A20F001002862286A20F0040002E09A
:10219000286A40F001002862E068C8B3FFF758FAE7
:1021A00083460DE0286A40F004002862F0E700BF93
:1021B000FFF74EFAA0EB0B0141F2883081424BD879
:1021C00097FAA7F0B0FA80F040F04000B6EB501F4D
:1021D00001D128680BE097FAA7F0B0FA80F040F040
:1021E0004000B7EB501F01D1286A00E0686A97FAF7
:1021F000A7F1B1FA81F101F01F0106FA01F21042D4
:10220000D6D035E00010024000004242007000408D
:1022100000E034E0FFF71CFA834607E0FFF718FA06
:10222000A0EB0B0141F28830814215D897FAA7F054
:10223000B0FA80F040F04000B6EB501F01D12868A2
:102240000CE097FAA7F0B0FA80F040F04000B7EB4E
:10225000501F02D1286A01E083E0686A97FAA7F16B
:10226000B1FA81F101F01F0106FA01F21042D5D155
:10227000B9F1000F03D0E86920F08050E861E0690F
:1022800080B36968C1F38101022977D04FF0807172
:102290004F00022809D091FAA1F0B0FA80F048F876
:1022A00020A0FFF7D5F904465EE050468A4691FA31
:1022B000A1F1B1FA81F1C14648F82100FFF7C8F950
:1022C000804605E0FFF7C4F9A0EB0800022848D8D3
:1022D00097FAA7F0B0FA80F040F02000400902D051
:1022E000286801E056E0686A97FAA7F1B1FA81F12F
:1022F00001F01F0106FA01F10842E3D1D4E9081008
:102300000843696821F47411084368609AFAAAF0D6
:10231000B0FA80F049F82060FFF79AF9044604E02B
:10232000FFF796F9001B02281BD897FAA7F0B0FA1E
:1023300080F040F02000400901D0286800E0686A81
:1023400097FAA7F1B1FA81F101F01F0106FA01F144
:102350000842E5D01EE000BFFFF77AF9001B022813
:1023600002D90320BDE8F88F97FAA7F0B0FA80F001
:1023700040F02000400902D0286801E00CE0686AC3
:1023800097FAA7F1B1FA81F101F01F0106FA01F104
:102390000842E1D10020E5E70120E3E710B5401E47
:1023A000B0F1807F01D3012010BD4FF0E0246061C7
:1023B0000F21601700F0F6FB0020A06107202061CC
:1023C000002010BD704770477047000030B590F88E
:1023D0003C20012A1FD0012280F83C20026853686B
:1023E00094680E4DAA4202D00D4DAA4203D123F4A7
:1023F00070054B682B4323F070050B6889682B43ED
:1024000024F080042143536002689160002180F829
:102410003C10084630BD022030BD0000002C0140B9
:102420000034014010B5040003D094F83D0010B111
:1024300007E0012010BD002084F83C00204600F099
:102440000DF8022084F83D00211D206800F038FCC2
:10245000012084F83D00002010BD000038B505467D
:102460000068B0F1804F28D11448C16941F00101E2
:10247000C161C069134C00F0010000901048206059
:10248000002080216060C4E9020189002161890087
:10249000C4E90510E0612046FEF7E9FF08B1FDF749
:1024A0004AFF2C62002211461C206562FFF716FAD3
:1024B000BDE838401C20FFF705BA38BD00100240C7
:1024C0001C0002401C0500200168CA6842F001029D
:1024D000CA600068016841F0010101600020704796
:1024E00070B5044690F83C00012817D0012584F807
:1024F0003C50022084F83D0022689068364E3040FF
:1025000020F47F4090600868502839D00DDC2028E6
:102510005BD005DC98B3102843D153E0022070BD96
:10252000302855D040283CD141E0602830D0702878
:102530000CD0B0F5805F03D0B0F5005F31D112E070
:1025400020688168244A7032114016E0CB68D1E9D6
:102550000121206800F00CFC21688868304040F0C0
:10256000770088601DE0CB68D1E90121206800F088
:10257000FFFB2068816841F48041816011E01EE02A
:10258000CA684968206800F005FC5021206806E010
:10259000CA684968206800F045FC6021206800F0A6
:1025A000F1FB84F83D50002084F83C0070BDCA68FF
:1025B0004968206800F0EEFB40212068EFE7002129
:1025C0002068ECE710212068E9E720212068E6E791
:1025D00030212068E3E7000088FFFEFF704700001D
:1025E0002DE9F041044690F83C000D4601283DD00D
:1025F000012684F83C60022084F83D00AAB3042A36
:1026000046D02068082A55D0D5E90027E968036A32
:1026100023F480530362D0F81CC0036A2CF4407C7E
:102620004CEA07274FF6FF7C27F470470CEA01318C
:1026300039434FF4204723F4204307EA02321A4378
:10264000C16102622068C16921F44061C1612068F2
:10265000C169AA6841EA0221C0F81C1084F83D60F3
:10266000002084F83C00BDE8F08101E00220FAE798
:10267000D5E90012EB68206800F09EFB20688169B4
:1026800021F00C01816120688169AA6811430FE083
:10269000D5E90012EB68206800F0D6FB206881695C
:1026A00021F44061816120688169AA6841EA0221C0
:1026B0008161D3E7D5E9002C2F7B016A21F4807179
:1026C0000162C169036A21F0030141EA0C0121F0B2
:1026D000F00C39074FF420674CEA116123F42063B2
:1026E00007EA02221A43C16102622068C16921F02F
:1026F0000C01C1612068C169AA681143ACE710B53B
:10270000040003D094F83D0010B107E0012010BD93
:10271000002084F83C00204600F00CF8022084F8E9
:102720003D00211D206800F0CBFA012084F83D0017
:10273000002010BD704770B50446006801694FF075
:102740000005C943890715D4C168C943890711D455
:10275000E91E0161012020772068806980072046FA
:1027600002D0FFF73BFF04E000F0A7F8204600F09E
:10277000A5F8257720680169C943490717D4C168BE
:10278000C943490713D46FF0040101610220207787
:102790002068806910F4407F204602D0FFF71EFFBA
:1027A00004E000F08AF8204600F088F825772068D9
:1027B0000169C943090716D4C168C943090712D47E
:1027C0006FF008010161042020772068C06980074C
:1027D000204602D0FFF702FF04E000F06EF820462A
:1027E00000F06CF8257720680169C943C90617D441
:1027F000C168C943C90613D46FF0100101610820F4
:1028000020772068C06910F4407F204602D0FFF78F
:10281000E5FE04E000F051F8204600F04FF825777F
:1028200020680169C943C90708D1C168C943C907FC
:1028300004D1891E0161204600F042F82068016938
:10284000C943090609D4C168C943090605D46FF014
:10285000800101612046FFF7B6FD20680169C94388
:10286000C90509D4C168C943090605D46FF480714C
:1028700001612046FFF7A6FD20680169C9434906AA
:1028800009D4C168C943490605D46FF0400101610C
:10289000204600F057F820680169C94389060BD427
:1028A000C168C943890607D46FF020010161204641
:1028B000BDE87040FFF788BD70BD704770470000ED
:1028C00010B51E48FEF740FB0A211C48FEF7B0FA7F
:1028D0001A48FDF796FF1A4C6061216964290BD2F2
:1028E0006268904201D2101A00E0801A2268491CE6
:1028F00010442161206010BD30B1A1682068884279
:102900000BD940F6FF7309E000230C48BDE81040E6
:102910001A4619465430FEF71FBD0023074800220F
:1029200011465430FEF718FD044800215430FEF7DC
:1029300020FD00202061206010BD000080000020EC
:10294000000000207047FEE730B589B000240694EF
:102950000794182168460894FDF739FC13484FF096
:10296000A0410125C0E9001484600461C56144628E
:10297000C0E90B54C460056204214463C0E9051436
:102980008463FEF7D5F806A908480694FDF7D8FC3D
:102990000220CDE900050720CDE902040494694630
:1029A00002480594FDF756FD09B030BD2C0000200B
:1029B00030B587B018216846FDF709FC1148104969
:1029C0000024C0E90014846001250461C5614462EB
:1029D000C0E90B54C460056204214463C0E90514D6
:1029E0008463FEF7A5F8072000900394CDE9015415
:1029F0000494694603480594FDF72CFD07B030BDEB
:102A00000001005080000020F0B587B01421684616
:102A1000FDF7DDFB3148416941F400114161416935
:102A200001F400110591416941F4002141614169BE
:102A300001F400210591416941F48001416141693E
:102A400001F480010591416941F40031416141691E
:102A500001F400310591416941F4802141614069EF
:102A60001F4E00F480200590012208213046FEF719
:102A7000E9FD4FF09047002280213846FEF7E2FD45
:102A800000224FF47F413046FEF7DCFD37200090F6
:102A900014480024CDE9010469463046FEF70EFDD6
:102AA0004FF6087000900125CDE901546946304683
:102AB0000394FEF703FDCDE90054694638460294BD
:102AC000FEF7FCFC80200090CDE9015469463846B1
:102AD0000394FEF7F3FC07B0F0BD000000100240C5
:102AE00000100048000012100E4810B50C4901609B
:102AF0000D49416000210122C0E9021201614161DA
:102B00008161C1610162FEF7FDFD00210548FEF70C
:102B1000A5FDBDE8104000210248FEF7CABD000037
:102B200000540040E80000200E09002010B58CB0D1
:102B300000240594194804940694079408940A9470
:102B400009940094019402944FF080410394C0E9E9
:102B5000001442F6E061C0E9024104618461FFF7BC
:102B600061FC4FF48050049004A90C48FFF7B8FCB6
:102B70000A48FFF7C4FD089408A908480A94FFF71B
:102B800025FC0120CDE9004002940022694603485B
:102B90000394FFF725FD0CB010BD000034010020A8
:102BA000FEE770470907090E002806DA00F00F005B
:102BB00000F1E02080F8141D704700F1E02080F85B
:102BC0000014704770477047FEF72ABE30B59FB0BB
:102BD00028210FA8FDF7FBFA142119A8FDF7F7FA31
:102BE0003C216846FDF7F3FA03200F904FF4803044
:102BF0000024CDE9100402250121CDE916501391DE
:102C000000011021189014910FA8FFF7FFF80F2072
:102C1000CDE919056802CDE91B40012119A81D94D1
:102C2000FFF720F8054800904012099080030E90AD
:102C300007946846FEF70AFF1FB030BDA0000200EF
:102C40001448016841F4700101601348016841F0C3
:102C5000010101604168114A114041600168104A58
:102C600011400160016821F480210160416821F474
:102C7000FE014160C16A21F00F01C162016B094A86
:102C800011400163002181600249C003803908605E
:102C90007047000088ED00E0001002400CC07FF893
:102CA000FFFFF6FECCFC00FF0148FFF744BD00002B
:102CB000340100200148FEF7D2BA0000D400002001
:102CC0002DE9F0430268234B234D244E244C4FF052
:102CD0008049984207D0484505D0A84203D0B04269
:102CE00001D0A04203D122F070074A683A431D4F39
:102CF000DFF874C0DFF8748098420DD048450BD0DF
:102D0000A84209D0B04207D0A04205D0B84203D0B3
:102D1000604501D0404503D122F44075CA682A437A
:102D20004D6922F080022A4302608A68C2620A6802
:102D30008262984207D0A04205D0B84203D06045D5
:102D400001D0404501D10969016301214161BDE81C
:102D5000F0830000002C0140000400400008004007
:102D6000003401400040014000440140004801405F
:102D700010B5846842EA032224F47F440A432243C4
:102D8000826010BD826822F070020A4342F007019F
:102D90008160704710B5036A046A24F0010404627C
:102DA000846924F0F00444EA021423F00A020A437E
:102DB0008461026210BD000070B5046A24F0010451
:102DC00004628469056A124EB0420ED0B0F1804FA1
:102DD0000BD0104EB04208D00F4EB04205D00F4E6F
:102DE000B04202D00E4EB04203D124F0030414438B
:102DF00001E044F001041A0724F0F00444EA1262EE
:102E000025F00A0301F00A0119438261016270BDD5
:102E1000002C014000040040000800400034014044
:102E20000040014010B5036A23F010030362836978
:102E3000046A23F4704343EA023224F0A00343EA15
:102E400001118261016210BD30B5046A24F01004E2
:102E500004628469056A24F4407444EA022222F47C
:102E600070444FF6FF7202EA03322243A02425F099
:102E7000A00304EA011119438261016230BDFEE73B
:102E800002E008C8121F08C1002AFAD17047704733
:102E9000002001E001C1121F002AFBD17047000091
:102EA0000EB5FEF7C5FCFFF791FEFFF7ADFD284814
:102EB000416941F0010141614069002200F00100D7
:102EC000009011460C20FEF709FD0C20FEF7FAFCDD
:102ED000FFF76EFD00242049009401941D480294E0
:102EE00008600846FEF7EDF90094002269461A488A
:102EF0000194FEF792F9102269461748FEF78DF902
:102F0000FFF7F2FDFFF712FE13481449A0300160ED
:102F10000821416002218160846104620161FEF741
:102F20000FFDFFF711FD0C48A838FEF7B5F80A4869
:102F30006030FFF7C9FA0A4C10210748FEF719FA6A
:102F4000002210210448E368FEF706FAF4E70000C7
:102F50000010024000740040D4000020005C0040DB
:102F60000000002002030405060708090A0B0C0DE7
:102F70000E0F10100102030405060708090A0B0CC6
:102F80000D0E0F10000000000000000001020304FD
:102F900006070809B42F0008000000202C000000DC
:102FA000802E0008E02F00082C00002034090000CB
:102FB000902E0008000000000F00000000F000004C
:102FC0000000000000000000000000000000000001
:102FD00001000000100000000000000000127A0054
:040000050800018965
:00000001FF
