:100000000C9434000C9451000C9451000C94510049
:100010000C9451000C9451000C9451000C9451001C
:100020000C9451000C9451000C9451000C9451000C
:100030000C9451000C9451000C9451000C945100FC
:100040000C9451000C9451000C9451000C945100EC
:100050000C9451000C9451000C9451000C945100DC
:100060000C9451000C94510011241FBECFEFD8E026
:10007000DEBFCDBF12E0A0E0B1E0EEE1FCE002C0E7
:1000800005900D92AE30B107D9F722E0AEE0B2E0B4
:1000900001C01D92AC37B207E1F70E9453000C94E7
:1000A0000D060C940000CF93DF93CDB7DEB7A79772
:1000B0000FB6F894DEBF0FBECDBF24E2CE0101968D
:1000C000FC01322F11923A95E9F71DA2CE0101965B
:1000D0009FA38EA30E947C00CE0185960E94000102
:1000E0008EA19FA1FC01808191810197A9F780E0F9
:1000F00091E00E94D300F0CFCF93DF93CDB7DEB76E
:1001000085EC90E0FC01108284EC90E027E6FC0195
:10011000208381EC90E028E1FC01208382EC90E0D8
:1001200026E0FC01208380E0DF91CF910895CF93FA
:10013000DF9300D0CDB7DEB79A83898380EC90E05F
:10014000FC01808188234CF486EC90E0FC01208146
:1001500089819A81FC01208305C089819A812AE2E4
:10016000FC01208300000F900F90DF91CF91089544
:10017000CF93DF931F92CDB7DEB78983000080EC69
:1001800090E0FC018081882F90E080729927892B74
:10019000B1F386EC90E02981FC01208300000F90F0
:1001A000DF91CF9108950F931F93CF93DF9300D0EA
:1001B0001F92CDB7DEB79B838A8319820EC08981D7
:1001C000882F90E02A813B81820F931FFC01808160
:1001D0000E94B80089818F5F89838981082F10E090
:1001E0008A819B810E941E030817190740F30000B3
:1001F0000F900F900F90DF91CF911F910F91089565
:10020000CF93DF9300D0CDB7DEB79A8389838091F7
:10021000740290917502880F991F880F991F82535D
:100220009E4FFC012081318189819A81F9010995D4
:1002300000000F900F90DF91CF910895CF93DF933F
:1002400000D01F92CDB7DEB79B838A838AE2898371
:10025000CE0101960E94970089818A3289F18981B5
:100260008D30E9F480910F02882F90E02981805F22
:100270009D4FFC01208380910F028F5F80930F02BE
:1002800080910F02882F90E0805F9D4FFC011082CB
:1002900081E090E0909375028093740211C089818F
:1002A0000E94B80080910F02882F90E02981805F22
:1002B0009D4FFC01208380910F028F5F80930F027E
:1002C00000000F900F900F90DF91CF910895CF9382
:1002D000DF9300D0CDB7DEB79A83898389819A8175
:1002E0000E948F01882321F488ED91E00E94D300C1
:1002F00080E192E00E941E03AC0160E070E080E1CA
:1003000092E00E940E0310920F021092750210925A
:10031000740200000F900F90DF91CF910895CF935A
:10032000DF93CDB7DEB7C856D1090FB6F894DEBF5C
:100330000FBECDBF9E0129593F4FF90191838083A4
:1003400019821A821B821E8281E08C838CC08B8171
:10035000882F90E0805F9D4FFC0180818E838E818D
:10036000082E000C990B8032910531F08A339105EB
:1003700009F10D97E9F157C08981282F30E0C901B3
:10038000880F991F820F931F880F991F880F991F3D
:100390009C018A81882F90E0820F931F9E01295F24
:1003A0003F4F820F931FFC01108289818F5F8983E9
:1003B0001A8256C08981282F30E0C901880F991F01
:1003C000820F931F880F991F880F991F9C018A81A4
:1003D000882F90E0820F931F9E01295F3F4F820F6D
:1003E000931FFC01108289818F5F89831A8238C034
:1003F0008981282F30E0C901880F991F820F931F30
:10040000880F991F880F991F9C018A81882F90E07F
:10041000820F931F9E01295F3F4F820F931FFC01A4
:1004200010821C821DC08981282F30E0C901880FED
:10043000991F820F931F880F991F880F991F9C0186
:100440008A81882F90E0820F931F9E01295F3F4F82
:10045000820F931F2E81FC0120838A818F5F8A8304
:100460008B818F5F8B838C81882309F070CF1D82F5
:1004700047C08D81082E000C990B880F991F880F9B
:10048000991F805A9E4FFC0120813181CE01079631
:10049000B9010E941503892B81F58D81082E000C6E
:1004A000990B880F991F880F991F8E599E4FFC0139
:1004B00020813181CE0189599F4FFC01808191813A
:1004C000FC0141815281CE0107966981F9010995AC
:1004D0008DEE91E00E94D3008D81082E000C990BC7
:1004E000880F991F880F991F805A9E4FFC018081A9
:1004F00091810E94D30081E008C08D818F5F8D8340
:100500008D818B310CF4B5CF80E0C859DF4F0FB629
:10051000F894DEBF0FBECDBFDF91CF910895CF938A
:10052000DF9300D0CDB7DEB79A83898300000F90A8
:100530000F90DF91CF910895CF93DF9300D000D03B
:100540001F92CDB7DEB79A8389836B835D834C831B
:1005500083EF91E0892F8F9383EF91E08F930E9437
:100560002F030F900F9000000F900F900F900F909F
:100570000F90DF91CF910895CF93DF9300D000D0FB
:1005800000D0CDB7DEB79B838A836C835E834D83B7
:1005900081E089838C81813091F48A819B810296EC
:1005A000FC01808191810E94F00289838981282F3A
:1005B00030E08D819E81FC013183208307C08D81D5
:1005C0009E8121E030E0FC013183208300002696EB
:1005D0000FB6F894DEBF0FBECDBFDF91CF91089567
:1005E000FC0188279927E89421912032E9F32930EA
:1005F00010F02E30C8F32B3241F02D3239F46894CC
:1006000004C00E942703820F911D219120532A309C
:10061000C0F31EF4909581959F4F0895DC0101C0B1
:100620006D9341505040E0F70895FB01DC018D913E
:10063000019080190110D9F3990B0895FC010190E4
:100640000020E9F7809590958E0F9F1F08957AE01E
:10065000979F902D879F802D910D11240895A0E0E4
:10066000B0E0E5E3F3E00C94E605AE014B5F5F4FCD
:10067000FA0161917191AF018091780290917902B4
:100680000E944503E2E00C940206ABE0B0E0EBE42C
:10069000F3E00C94D6056C017B018A01FC01178202
:1006A0001682838181FFCCC1CE0101963C01F60107
:1006B0009381F70193FD859193FF81917F018823B9
:1006C00009F4BAC1853239F493FD859193FF819184
:1006D0007F01853229F4B60190E00E943C05E7CF06
:1006E000912C212C312CFFE1F315D8F08B3279F0CD
:1006F00038F4803279F08332A1F4232D20611DC0BB
:100700008D3261F0803369F4232D216016C0832D72
:100710008260382EE32DE4603E2E2AC0F32DF8606F
:100720001DC037FC2DC020ED280F2A3040F08E323E
:10073000B9F436FC81C1232D2064322E19C036FE57
:1007400006C08AE0989E200D1124922E11C0EAE086
:100750002E9E200D1124222EF32DF0623F2E08C074
:100760008C3621F4832D8068382E02C0883641F4FF
:10077000F70193FD859193FF81917F018111B3CFA3
:10078000982F9F7D9554933028F40C5F1F4F9FE363
:1007900099830DC0833631F0833771F0833509F0CA
:1007A00059C021C0F801808189830E5F1F4F8824C2
:1007B0008394912C530113C02801F2E04F0E511C79
:1007C000F801A080B18036FE03C0692D70E002C040
:1007D0006FEF7FEFC5010E9431054C018201F32DBF
:1007E000FF773F2E16C0280122E0420E511CF8016F
:1007F000A080B18036FE03C0692D70E002C06FEFAB
:100800007FEFC5010E9426054C01F32DF0683F2EB5
:10081000820133FC1BC0822D90E088169906B0F44B
:10082000B60180E290E00E943C052A94F4CFF501E5
:1008300037FC859137FE81915F01B60190E00E94FF
:100840003C0521102A9421E0821A91088114910418
:1008500071F7E8C0843611F0893641F5F80137FEAA
:1008600007C060817181828193810C5F1F4F08C036
:1008700060817181072E000C880B990B0E5F1F4F52
:10088000F32DFF763F2E97FF09C0909580957095C8
:1008900061957F4F8F4F9F4FF0683F2E2AE030E0E9
:1008A000A3010E947805882E861845C0853731F44B
:1008B000232D2F7EB22E2AE030E025C0932D997F84
:1008C000B92E8F36C1F018F4883579F0B5C080376D
:1008D00019F0883721F0B0C0E92FE061BE2EB4FED8
:1008E0000DC0FB2DF460BF2E09C034FE0AC0292FB5
:1008F0002660B22E06C028E030E005C020E130E0DE
:1009000002C020E132E0F801B7FE07C060817181CA
:10091000828193810C5F1F4F06C06081718180E0EE
:1009200090E00E5F1F4FA3010E947805882E861865
:10093000FB2DFF773F2E36FE0DC0232D2E7FA22EDE
:10094000891458F434FE0BC032FC09C0832D8E7E0E
:10095000A82E05C0B82CA32C03C0B82C01C0B92CFC
:10096000A4FE0FC0FE01E80DF11D8081803321F44B
:100970009A2D997EA92E09C0A2FE06C0B394B39405
:1009800004C08A2D867809F0B394A3FC11C0A0FEA0
:1009900006C0B21488F4280C922C9B180EC0B21416
:1009A00060F4B60180E290E00E943C05B394F7CF7A
:1009B000B21418F42B1802C0982C212CA4FE10C0DD
:1009C000B60180E390E00E943C05A2FE17C0A1FCA6
:1009D00003C088E790E002C088E590E0B6010CC053
:1009E0008A2D867859F0A1FE02C08BE201C080E218
:1009F000A7FC8DE2B60190E00E943C05891438F412
:100A0000B60180E390E00E943C059A94F7CF8A9467
:100A1000F301E80DF11D8081B60190E00E943C05D4
:100A20008110F5CF222009F442CEB60180E290E099
:100A30000E943C052A94F6CFF6018681978102C078
:100A40008FEF9FEF2B96E2E10C94F205FC010590ED
:100A5000615070400110D8F7809590958E0F9F1FC0
:100A60000895FC016150704001900110D8F7809505
:100A700090958E0F9F1F08950F931F93CF93DF9331
:100A8000FB01238121FD03C08FEF9FEF2CC022FFCC
:100A900016C046815781248135814217530744F49B
:100AA000A081B1819D012F5F3F4F318320838C93C3
:100AB000268137812F5F3F4F3783268314C08B01F8
:100AC000EC01FB010084F185E02D0995892BE1F60D
:100AD000D80116968D919C911797019617969C9325
:100AE0008E931697CE01DF91CF911F910F910895AC
:100AF000FA01AA27283051F1203181F1E8946F934F
:100B00006E7F6E5F7F4F8F4F9F4FAF4FB1E03ED0F4
:100B1000B4E03CD0670F781F891F9A1FA11D680F92
:100B2000791F8A1F911DA11D6A0F711D811D911DC5
:100B3000A11D20D009F468943F912AE0269F11243A
:100B40003019305D3193DEF6CF010895462F47709E
:100B5000405D4193B3E00FD0C9F7F6CF462F4F70F9
:100B6000405D4A3318F0495D31FD4052419302D057
:100B7000A9F7EACFB4E0A6959795879577956795FD
:100B8000BA95C9F700976105710508959B01AC01FD
:100B90000A2E06945795479537952795BA95C9F724
:100BA000620F731F841F951FA01D08952F923F92FF
:100BB0004F925F926F927F928F929F92AF92BF926D
:100BC000CF92DF92EF92FF920F931F93CF93DF9319
:100BD000CDB7DEB7CA1BDB0B0FB6F894DEBF0FBE76
:100BE000CDBF09942A88398848885F846E847D84C3
:100BF0008C849B84AA84B984C884DF80EE80FD80C5
:100C00000C811B81AA81B981CE0FD11D0FB6F8943A
:0E0C1000DEBF0FBECDBFED010895F894FFCFFB
:100C1E0045707265757665203120212121004400D2
:100C2E00450051005456004100420053005244000A
:100C3E005247005243005241004700415353004D6A
:100C4E0049004D450049504F00504F53004D4F55F0
:100C5E00004D4F42004D4F53005344004C004C5337
:100C6E00004353005050480053504800415558001F
:100C7E000E01BC0210019C0212019C0214019C0286
:100C8E0017019C0219019C021B019C021D019C0272
:100C9E0020019C0223019C0226019C0229019C0238
:100CAE002B019C022F019C0232019C0235019C02F9
:100CBE0039019C023D019C0241019C0245019C02AE
:100CCE0049019C024C019C024E019C0251019C0266
:100CDE0054019C0258019C025C019C0200001E0102
:100CEE000100670102001E014572726F7220646579
:100CFE00636F64696E6720636D6420210046696EC0
:100D0E006420004E6F6E2D696D706C656D656E742E
:0E0D1E00656420636F6D6D616E64202121009D
:00000001FF
