:020000040800F2
:10000000180900209D010008EF260008F1240008CF
:10001000ED260008D90200084B2900080000000066
:10002000000000000000000000000000132700088E
:1000300065030008000000001127000815270008CC
:10004000B7010008B7010008B7010008B7010008B0
:10005000B7010008B7010008B7010008B7010008A0
:10006000B7010008B7010008B7010008B701000890
:10007000B7010008B7010008B7010008B701000880
:10008000B7010008B701000809020008B70100081D
:10009000B7010008B7010008B7010008B701000860
:1000A000B7010008B7010008B7010008B701000850
:1000B000B7010008B7010008B7010008B701000840
:1000C000B7010008B7010008B7010008B701000830
:1000D000B7010008B7010008B7010008B701000820
:1000E000B7010008B7010008B7010008B701000810
:1000F000B7010008B7010008B7010008B701000800
:10010000000000000000000000000000B70100082F
:10011000B7010008B7010008B7010008B7010008DF
:10012000B7010008B7010008B7010008B7010008CF
:10013000B7010008B701000800000000000000003F
:10014000B7010008B7010008B7010008000000006F
:10015000000000000000000000000000000000009F
:100160000000000000000000B7010008B70100080F
:10017000B7010008000000000000000000000000BF
:1001800000000000B7010008DFF80CD000F02AF8EA
:10019000004800476D2900081809002006488047DC
:1001A00006480047FEE7FEE7FEE7FEE7FEE7FEE75C
:1001B000FEE7FEE7FEE7FEE7912700088901000859
:1001C000D2B201E000F8012B491EFBD27047002299
:1001D000F6E710B513460A4604461946FFF7F0FF46
:1001E000204610BD064C074D06E0E06840F00103D4
:1001F00094E8070098471034AC42F6D3FFF7C8FFE5
:10020000402A0008602A0008014800F05DBB000099
:100210001800002070B504460068816801F00301F1
:10022000012926D10168C90723D0816801F00D0199
:10023000012910D1816841F0020181602168032009
:10024000086001F0F7F805460FE000BF01F0F2F892
:10025000401B022809D9606C40F010006064A06C5B
:1002600040F00100A064012070BD20688068C007D4
:10027000ECD1002070BD000070B5044600688168B4
:1002800001F00301012902D10168C90720D1816869
:10029000104A11420DD1816841F00101816001F0E5
:1002A000C9F805460FE000BF01F0C4F8401B022862
:1002B00009D9606C40F010006064A06C40F001004F
:1002C000A064012070BD20680068C043C007EBD166
:1002D000002070BD3F000080FEE710B5446A204654
:1002E00000F0C4FE0120207110BD10B5446A204604
:1002F00000F098FE0120207110BD10B5446A2069FD
:1003000040F004002061204600F0BBFE0120207177
:1003100010BD10B5446A206940F0040020612046F9
:1003200000F082FE0120207110BD406A00F0A8BEDE
:1003300010B5406A00F077FE10BD30B590F840501F
:100340000124AC40C56B6C60046863604368102B8B
:10035000036803D099600068C26030BD9A6000688D
:10036000C16030BD704700002DE9F041044690F8AF
:100370004000884601280AD0012584F840502046D4
:10038000FFF748FF06004FF0000703D033E00220DC
:10039000BDE8F08165642068816821F0804181605A
:1003A000B8F1010F04D12068816841F0804181607B
:1003B0002068816841F00041816001F03BF805460A
:1003C0000FE000BF01F036F8401B0A2809D9606C25
:1003D00020F0020040F01000606484F840700120BA
:1003E000D6E7206880680028ECDB606C20F0020013
:1003F00040F00100606484F840703046C8E7704700
:100400007047704770470000F0B5002302684FF056
:10041000A04C3D4C95B01F46624501D100940DE0C3
:10042000A24202D1CDF800C008E0384D384EAA42B1
:1004300001D1009602E0B24214D1009590F84050EC
:10044000012D12D0012580F8405095686D0752D4D7
:10045000009DAD686D074ED4624501D0A24206D121
:100460002C4A05E0012015B0F0BD0220FBE72A4A26
:100470000D6840F61F741DB39568466B25F4604502
:1004800045EA46354E68354395600568AE6806F026
:100490000306012E02D12D68ED0731D1009DAD6814
:1004A00005F00305012D03D1009D2D68ED0727D12F
:1004B0000D6889680D439168A1430D4395601FE065
:1004C000916821F46041916001688D6805F0030531
:1004D000012D02D10968C90712D10099896801F07C
:1004E0000301012903D100990968C90708D191685E
:1004F000A143916004E0416C41F02001416401237B
:1005000080F840701846AEE700010050000400502B
:10051000000500500003005000070050F0B595B0F2
:100520000024009490F840202546012A19D0012784
:1005300080F8407003689A6852077CD44A681F2686
:10054000052A11D2D3F830C002EB42025200964085
:100550002CEA060C0E6896404CEA060CC3F830C034
:1005600035E0022015B0F0BD0A2A0FD2D3F834C00E
:10057000521F02EB4202520096402CEA060C0E6813
:1005800096404CEA060CC3F834C020E00F2A0FD284
:10059000D3F838C00A3A02EB4202520096402CEAE5
:1005A000060C0E6896404CEA060CC3F838C00EE004
:1005B000D3F83CC00F3A02EB4202520096402CEABC
:1005C000060C0E6896404CEA060CC3F83CC0026864
:1005D000936813F00C0F4FF0070374D1D1F800E0CB
:1005E000BEF10A0F10D39669AEF10A0E0EEB4E0C57
:1005F00003FA0CFE26EA0E06D1F808E00EFA0CFE0D
:1006000046EA0E0696610FE0D2F814C00EEB4E06D5
:1006100003FA06FE2CEA0E0CD1F808E00EFA06FEEC
:100620004CEA0E0CC2F814C002684E69D2F80CC035
:10063000CCF3C10C00E0FDE04FEA4C0C06FA0CF6DE
:10064000D1F810E0DFF848C2BEF1010F42D0BEF190
:10065000020F4DD0BEF1030F58D0BEF1040F63D08E
:10066000166E91F800C006F0F846B6EB8C6F03D119
:10067000166E26F0004616660268566E91F800C0A7
:1006800006F0F846B6EB8C6F03D1566E26F00046A6
:1006900056660268966E91F800C006F0F846B6EB12
:1006A0008C6F03D1966E26F0004696660268D66E71
:1006B00091F800C006F0F846B6EB8C6F03D1D66E09
:1006C00026F00046D6660268966806F00306012EFC
:1006D0003AD136E0D2F860E00EEA0C0E91F800C094
:1006E00046EA8C664EEA060E4EF000461666EAE7CB
:1006F000D2F864E00EEA0C0E91F800C046EA8C666F
:100700004EEA060E4EF000465666DCE7D2F868E088
:100710000EEA0C0E91F800C046EA8C664EEA060E10
:100720004EF000469666CEE7D2F86CE00EEA0C0E6C
:1007300091F800C046EA8C664EEA060E4EF000467E
:10074000C0E71668F6077AD1CE68012E06D052F8B7
:10075000B03F0E78B740BB43136021E052F8B06F52
:1007600091F800C007FA0CF73E4316600A680A2A9F
:100770000BD30668B769093A02EB420293409F43E4
:100780008B6893401F43B7610AE007687E69521C7B
:1007900002EB420293409E438B6893401E437E616E
:1007A00003684FF0A0473B4EBB4201D0B34201D19A
:1007B000394A00E0394A0968102904D0112907D0C4
:1007C00012290AD03BE0D2F808C04FEA0C2C08E00E
:1007D000D2F808C04FEACC1C03E0D2F808C04FEAB8
:1007E0004C2CBCF1000F2ADBBB420DD0B34201D12F
:1007F00000970CE02A4EDFF8ACC0B34202D1CDF82E
:1008000000C004E0634501D1009600E000959E68B9
:1008100006F00306012E02D11E68F6070AD1009EDB
:100820008EB1B66806F00306012E0CD1009E366824
:10083000F60708D0416C41F020014164012480F8A2
:10084000405020468EE6102908D011291AD01229CE
:10085000F5D1916841F480019160F0E7BB42EED19F
:10086000916841F4000191600F49104A0968B1FB99
:10087000F2F101EB8101490000E0491E00910029DD
:10088000FBD1DCE7BB42DAD1916841F08071E3E74C
:1008900000F0FF83000100500003005000070050EB
:1008A00000040050000500501400002040420F00DA
:1008B00010B500F006F80149086010BD00000020E6
:1008C00070470068006C70472DE9F04104460068ED
:1008D0000168C34FC34DC44E49074FF0A04802D52D
:1008E0004168490705D40168090761D541680907CE
:1008F0005ED5616CC90603D4616C41F4007161641A
:100900004146884201D0B04202D1D1F8082300E02C
:100910003A6812F01F0F1BD0884201D0B04202D1BA
:10092000D1F8082300E03A6802F01F02052A0FD030
:10093000884201D0B04202D1D1F8082300E03A68E1
:1009400002F01F02092A03D0884201D0A84201D137
:10095000C16803E0B04200D02946C968C26812F4F9
:10096000406F1FD189041DD4016809071AD5816819
:1009700049070FD4416821F00C014160606C20F4FC
:1009800080706064606CC0040CD4606C40F0010046
:10099000606407E0606C40F010006064A06C40F0A0
:1009A0000100A0642046FFF783FF21680C20086047
:1009B00020680168890602D54168890605D4016866
:1009C00049066ED5416849066BD5616C41F400510A
:1009D00061644246904201D0B04202D1D2F808137D
:1009E00000E0396811F01F0F1CD0904201D0B042D6
:1009F00002D1D2F8081300E0396801F01F0105297F
:100A000010D04146884201D0B04202D1D1F808331B
:100A100000E03B6803F01F03092B03D0884201D09C
:100A2000A84201D1C16803E0B04200D02946C9689C
:100A3000C36C13F0C00F07D08B0154D4C36813F4F8
:100A4000406F50D189044ED4016849064BD51146F8
:100A5000884201D0B04202D1D1F8082300E03A68C0
:100A600012F01F0F1BD0884201D0B04202D1D1F842
:100A7000082300E03A6802F01F02062A0FD08842DD
:100A800001D0B04202D1D1F8082300E03A6802F068
:100A90001F02072A03D0884201D0A84202D1C168B0
:100AA00004E026E0B04200D02946C96889021AD481
:100AB000816809070FD4416821F060014160606CD2
:100AC00020F480506064606CC0050CD4606C40F011
:100AD0000100606407E0606C40F010006064A06C8E
:100AE00040F00100A0642046FFF789FC21686020E7
:100AF00008602068016809060CD54068000609D521
:100B0000606C40F480306064204600F095F9216804
:100B10008020086020680168C9050DD54068C005BF
:100B20000AD5606C40F4003060642046FFF769FC31
:100B300021684FF4807008602068016889050DD530
:100B4000406880050AD5606C40F4802060642046CF
:100B5000FFF758FC21684FF40070086020680168B6
:100B6000C90622D54168C9061FD5A16B01290ED03F
:100B7000404501D0B04201D11C4901E01849083973
:100B80008A68D20628D0886800F4404050B1606C72
:100B900040F480606064A06C40F00200A0642046D5
:100BA000FFF78EFE21681020086020680168490563
:100BB00010D5416849050DD5616C41F480416164EF
:100BC000A16C41F00801A1644FF4806101602046EE
:100BD000FFF716FCBDE8F081C068C007D6E700004B
:100BE00008070050000400500001005000030050AE
:100BF000F0B54FF0000695B0040037463546009634
:100C000005D0606CC00648D4606C18B133E0012098
:100C100015B0F0BDA5642565E56484F84050204614
:100C200000F00CF920688068C00024D42046FFF74B
:100C3000F1FA0646606CC0061DD4E6B9606C20F47B
:100C4000885040F0020060642068816821F04051C3
:100C500081602068816841F0805181606D486E49F3
:100C60000068B0FBF1F000EB8000400000E0401EA7
:100C700000900028FBD120688168C90002D58068F7
:100C800080000AD5606C20F0020040F01000606423
:100C9000A06C40F00100A0640126606CC00675D411
:100CA000002E73D12068816849076FD4616C21F4EC
:100CB000807141F0020161644FF0A04E574B7045C6
:100CC00001D0984201D1564A00E0564ADFF858C197
:100CD0005649704501D100930EE0984202D1CDF8FB
:100CE00000E009E0884202D1CDF800C004E0604590
:100CF00001D1009100E00095836803F00303012B0C
:100D000002D10068C00710D1009840B1806800F09F
:100D10000300012803D100980068C00705D190683E
:100D2000636820F4403018439060D4E902201043F7
:100D3000A26B012A02D04FF4805300E00023E26945
:100D400043EA42331843636A3843012B0AD1F2B1B4
:100D5000626C22F0020242F020026264A26C42F055
:100D60000102A264E26A012A21D023688B4201D0E9
:100D7000634518D14FF430774FF4E071BA4213D085
:100D80004FF480739A420AD139460DE038E0228D43
:100D9000274B03EB4242024342F48030E2E78A42AF
:100DA00001D1194600E011460143206B0843216838
:100DB0008A6812F00C0F0AD1CA6844F202039A43FF
:100DC000CA60A169626B890341EA42010843226853
:100DD000D168184B19400143D1602069012820686F
:100DE000016B21F00F0102D1226A521E11430163EF
:100DF000A564606C20F0020040F00100606406E031
:100E0000606C20F0020040F0100060640126304663
:100E1000FEE600001400002040420F0000010050D8
:100E2000000300500007005000050050000400506F
:100E30000000FEFF07C0F0FF7047000010B586B04D
:100E4000044614216846FFF7C2F92068B0F1A04FAC
:100E500022D11248416941F080514161416901F05C
:100E600080510591416941F4002141614069694621
:100E700000F4002005900220009003200190002043
:100E80000290074800F00CFA00221146122000F0F0
:100E900017FC122000F008FC06B010BD0010024044
:100EA000000800482DE9F0410446006880684007CA
:100EB00070D494F8400001280CD0012084F8400040
:100EC0002046FFF7D9F903004FF0000605D084F85B
:100ED00040609EE00220BDE8F081606C40F6016158
:100EE000884340F48070606420684FF0A0414A4A13
:100EF0004A4D884201D0904202D1D1F8087300E0F7
:100F00002F6817F01F0F464F03D0884201D0B84218
:100F10000BD1D4F844C02CF4801CC4F844C0D0F8E1
:100F20000CC05FEA8C1C14D41BE0D4F844C04CF411
:100F3000801CC4F844C0904202D1D1F80CC005E036
:100F4000DFF8DCC00CF10C0CDCF800C01CF0007FFA
:100F500007D0D4F844C02CF4005C4CF4805CC4F896
:100F600044C0D4F844C05FEACC4C06D5D4F848C09D
:100F70002CF0060CC4F848C000E0A66484F8406079
:100F80001C260660606908282068466803D046F081
:100F90000C0607E03CE026F0040646602068466840
:100FA00046F008064660A06B012804D12068466818
:100FB00026F0100646602068884201D0904202D197
:100FC000D1F8084300E02C6814F01F0F1BD08842B2
:100FD00001D0904202D1D1F8084300E02C6804F01F
:100FE0001F04052C0FD0884201D0904202D1D1F8C5
:100FF000082300E02A6802F01F02092A03D0884271
:1010000001D0B84205D1816841F00401816000E05F
:10101000022318465FE70000000100500807005057
:101020000004005070477047704770B54379012B3A
:101030001AD0012646710223037105682C6840F618
:10104000FE7393409C43D1E900310B43934023430B
:101050002B6001680B68C0249440A3430B600671A9
:1010600000214171084670BD022070BD10B50021FD
:1010700000F008F80149486010BD000000000020A1
:1010800070477047006809B1006B7047C06A7047CD
:1010900070B5040003D02079002510B105E00120CF
:1010A00070BD6571204600F007F8022020712561AF
:1010B00001202071002070BD10B586B004461421B7
:1010C0006846FFF784F81149206888421BD1104810
:1010D000C16941F00051C161C16901F00051059140
:1010E000416941F4003141614069694600F40030D2
:1010F00005901020009003200190002002904FF0F6
:10110000904000F0CDF806B010BD00000074004023
:101110000010024018B5046800940068104421B122
:10112000143000900360002018BD0830F9E700007B
:101130002DE9F04104460D461746617900220698D4
:10114000012920D00126667102212171F5B1D4F860
:101150000CC03149CCF82810D4F80CC02F49CCF879
:101160002C10D4F80CC02E49CCF830102168D1F8DE
:1011700000C04CF0805CC1F800C090B3042834D0AB
:10118000082837D134E00220BDE8F081D4F808C047
:101190002449CCF82810D4F808C02349CCF82C10E6
:1011A000D4F808C02149CCF830102168D1F800C02B
:1011B0004CF4805CC1F800C020B1042805D0082898
:1011C00008D105E02268083204E022680C3201E010
:1011D000226810322068016841F400510160A06863
:1011E0000EE0FFE72268143204E02268183201E0C2
:1011F00022681C322068016841F000510160E068FB
:10120000394600F015F80020607120680168AE4092
:10121000314301600020B7E7EB020008310300080A
:1012200013030008DB0200082B030008FB02000880
:1012300070B5044690F82000002501280CD001204C
:1012400084F8200094F821600020012E06D084F854
:1012500020000225284670BD022070BD022684F8B9
:101260002160A0632068066826F00106066020461B
:10127000FFF763F8E06A00282068016802D041F0B7
:101280000E0106E041F00A0101602068016821F0CA
:10129000040101602068016841F001010160D9E7A3
:1012A0002DE9F84FDFF864B100234FF0010C4FF047
:1012B000030A4FF00F090BF1040EA0E00CFA03F63D
:1012C000324072D04C68022C01D0122C0ED1DC08B6
:1012D00000EB8408D8F820405D07EF0E09FA07F507
:1012E000AC430D69BD402543C8F8205007685D0038
:1012F00091F804800AFA05F408F00308A74308FAF5
:1013000005F848EA0708C0F800804F68012F05D0AB
:10131000022F03D0112F01D0122F11D18768D1F8DD
:101320000C80A74308FA05F848EA0708C0F80880C7
:101330004768B7430E79C6F300169E403E434660A9
:10134000C668A6438C68AC403443C4604C68E40073
:1013500054D52F4CA56945F00105A561A46923F07A
:10136000030504F0010400942A4C2E19B4689D076B
:101370002F0F09FA07F5AC43B0F1904F04D0264D7A
:10138000A84203D1012512E0002510E0234DA84218
:1013900001D102250BE0224DA84201D1032506E030
:1013A000204DA84202D1042501E027E00525BD40DB
:1013B0002543B560DBF800405D464E689443F60374
:1013C00000D514432C60DEF8004075464E68944307
:1013D000B60300D514432C600C4D08352C684E68BC
:1013E0009443F60200D514432C60084D0C352C684C
:1013F0004E689443B60200D514432C605B1C0A6807
:1014000032FA03F47FF45AAFBDE8F88F00040140CC
:10141000001002400000014000040048000800489D
:10142000000C0048001000480AB1816170478162D9
:1014300070470000014880687047000008000020E5
:1014400090F84120202A24D190F84020012A20D071
:10145000012280F84020242280F84120026813688D
:1014600023F0010313600268136823F480531360B0
:10147000026813680B43136001680A6842F00102B6
:101480000A60202180F84110002180F840100846B1
:1014900070470220704790F84120202A22D190F80E
:1014A0004020012A1ED0012280F84020242280F80A
:1014B00041200268136823F0010313600268136877
:1014C00023F4706343EA0121116001680A6842F065
:1014D00001020A60202180F84110002180F84010AC
:1014E000084670470220704770B5040004D094F895
:1014F0004100002510B106E0012070BD84F8405085
:10150000204600F04DF8242084F84100206801684E
:1015100021F0010101606068216820F070600861BD
:101520002068816821F400418160E0680128A0689A
:1015300007D040F4044021688860E068022803D0A6
:1015400006E040F40040F6E721684FF40060486090
:1015500020684168114A114341602068C16821F444
:101560000041C160D4E904010843A16940EA0120B7
:101570002168C860D4E90701084321680860206831
:10158000016841F0010101606564202084F8410098
:10159000256384F84250002070BD000000800002E6
:1015A00010B586B0044614216846FEF710FE1249B5
:1015B000206888421ED1114C606940F4802060612F
:1015C0006069694600F480200590C02000901220D8
:1015D0000190012002900320039004200490084809
:1015E000FFF75EFEE06940F40010E061E06900F49E
:1015F0000010059006B010BD0054004000100240DD
:1016000000040048024881680278114481607047F4
:1016100008000020074810B5016841F01001016082
:10162000032000F06DF8002000F006F800F024F828
:10163000002010BD0020024070B50D4D04464FF44F
:101640007A712878B1FBF0F00A490968B1FBF0F033
:1016500000F024FE48B9102C07D200222146501E6B
:1016600000F02EF800206C6070BD012070BD0000FD
:1016700008000020140000200A4882B0816941F06F
:1016800001018161816901F001010091C16941F0AD
:101690008051C161C06900F080500090072002B005
:1016A00000F02EB80010024000F01F02012191400E
:1016B0004009800000F1E020C0F8001170470000F0
:1016C000F0B40E4B1B680C46C3F30223C3F10705AD
:1016D000042D00D90425191D072901D2002300E09B
:1016E000DB1E012606FA05F1491E214099409E4065
:1016F000761E16403143F0BC00F0FABF0CED00E05E
:10170000064900F0070208684FF6FF03184040EA58
:101710000220034A10430860704700000CED00E00F
:101720000000FA0570B504004FF0000604D094F8EC
:101730007103002510B106E0012070BD84F87053DC
:10174000204600F043F8032084F8710301220CE0E6
:10175000C6EBC60004EB800080F8292000F8286F53
:10176000761CC570C560056145616068B042EFD800
:10177000002010E0C0EBC00104EB810181F8CD51E5
:1017800081F8CC0181F8CF51C1F8D851C1F8DC51B2
:10179000401CC1F8E05161688142EBD82068A0F894
:1017A00040202068A0F840502068A0F844502068ED
:1017B000A0F8505021684FF43F40A1F8400084F851
:1017C000245084F87123002070BD000010B586B04D
:1017D000044614216846FEF7FAFC13492068884243
:1017E00020D1124C606940F4003060616069694644
:1017F00000F4003005904FF4C0500090022001909A
:1018000000200290032003900E2004904FF090409F
:10181000FFF746FDE06940F40000E061E06900F494
:101820000000059006B010BD005C004000100240B2
:101830002DE9F84F04460068804DC0036FD5E86974
:101840000026C00008D4E86940F08050E861E869EB
:10185000012600F08050009079480168C90512D433
:101860000168804641F480710160FFF7E3FD07469F
:1018700005E000BFFFF7DEFDC01B642835D8D8F8AF
:101880000000C005F6D5286A10F4407053D0A18836
:1018900001F4407181424ED0286A4FF4803191FAB0
:1018A000A1F2B2FA82F29700664A4FF0010817449B
:1018B00020F44070C7F8008491FAA1F1B1FA81F1E7
:1018C00002EB81010023C1F800342862C00732D046
:1018D000FFF7B0FD074641F2883A4FF0020907E0F2
:1018E000FFF7A8FDC11B514502D90320BDE8F88FC1
:1018F00099FAA9F1B1FA81F141F040014846B8EBFB
:10190000511F01D129680CE090FAA0F1B1FA81F1E0
:1019100041F04001B0EB511F02D1296A01E015E00E
:10192000696A99FAA9F0B0FA80F000F01F0008FA8D
:1019300000F21142D4D0286A616820F44070084354
:1019400028621EB1E86920F08050E8612078C00765
:1019500005D0286BA16820F0030008432863207895
:10196000800705D5286BE16820F4403008432863E0
:101970002078400705D5286B216920F440200843D2
:1019800028632078800605D5286BE16920F01000D7
:10199000084328632068800305D56868A16B20F49C
:1019A0008000084368602078400605D5286B216ACE
:1019B00020F02000084328632078000705D5286B15
:1019C000616920F44010084328632078C00605D5DB
:1019D000286BA16920F44000084328632088800513
:1019E00005D56868E16A20F4000008436860207843
:1019F000000605D5E86A616A20F4F8700843E862D9
:101A00002088C00505D5E86AA16A20F4785008430B
:101A1000E8622088C00405D5286B216B20F4807013
:101A2000084328632088800405D5286B616B20F467
:101A3000007008432863002058E7000000100240AF
:101A400000700040000042422DE9F0470F460500BB
:101A500069D04A4E306800F00700B84209D23068B9
:101A600020F0070038433060306800F00700B842CB
:101A700059D12878424C800705D56068A96820F0C4
:101A8000F000084360602878C0073DD069680120F5
:101A900001290DD0022923D05FF0020393FAA3F2AB
:101AA000B2FA82F242F02002520904D0226803E026
:101AB0004FF40033F2E7626A93FAA3F3B3FA83F3C5
:101AC00003F01F03984002422DD0606820F003000D
:101AD00008436060FFF7AEFC804641F288390CE0B5
:101AE0004FF00073DAE700BFFFF7A4FCA0EB08019A
:101AF000494502D90320BDE8F0876068696800F0B5
:101B00000C00B0EB810FEFD1306800F00700B84255
:101B10000BD9306820F0070038433060306800F09F
:101B20000700B84201D00120E5E72878400705D535
:101B30006068E96820F4E060084360602878000786
:101B400006D56068296920F4605040EAC1006060F1
:101B500000F01CF86168F02292FAA2F201F0F001A4
:101B6000B2FA82F2D140074A515CC8400649086087
:101B70000020FFF761FD0020BDE7000000200240CB
:101B800000100240302A000814000020144B10B549
:101B90005A68144802F00C0104291DD008291BD1F1
:101BA0004FF4701494FAA4F402F47011B4FA84F4AB
:101BB000E1400D4CDB6A615C0F2494FAA4F403F05D
:101BC0000F03B4FA84F4E340074C1034D203E35C0F
:101BD00003D5B0FBF3F0484310BD0448484310BDA3
:101BE0000010024000127A00102A000800093D008F
:101BF0002DE9F84F040071D02078FB4DC0074FF05D
:101C0000010625D068687704C0F38100012807D059
:101C10006868C0F3810002281BD16868C00318D52A
:101C200097FAA7F0B0FA80F040F02000400901D008
:101C3000286800E0686A97FAA7F1B1FA81F101F02B
:101C40001F0106FA01F1084265D060680028D2D071
:101C500061E06068B0F5803F0BD010B1B0F5A02F07
:101C600017D0286820F480302860286820F480206D
:101C700002E0286840F480302860E86AA16820F01B
:101C80000F000843E862606820B3FFF7D3FB80468B
:101C90000AE0286840F480202860EAE7FFF7CAFBE2
:101CA000A0EB0800642872D897FAA7F0B0FA80F089
:101CB00040F02000400901D0286800E0686A97FAE7
:101CC000A7F1B1FA81F101F01F0106FA01F1084212
:101CD000E4D020E0FFF7AEFB804607E0C7E000BF9E
:101CE000FFF7A8FBA0EB08006428DCD897FAA7F060
:101CF000B0FA80F040F02000400901D0286800E0F0
:101D0000686A97FAA7F1B1FA81F101F01F0106FAAA
:101D100001F10842E4D12078DFF8D08280074FF04B
:101D2000000A4FF0020759D568684FF0F80B10F021
:101D30000C0F07D06868C0F3810002281BD16868C7
:101D4000C00318D497FAA7F0B0FA80F040F0200052
:101D5000400901D0286800E0686A97FAA7F1B1FA53
:101D600081F101F01F0106FA01F108422BD0206930
:101D700001287CD127E0206988B396FAA6F0B0FA52
:101D800080F048F82060FFF755FB814606E055E1FA
:101D9000FFF750FBA0EB0900022884D897FAA7F0C0
:101DA000B0FA80F040F02000400901D0286800E03F
:101DB000686A97FAA7F1B1FA81F101F01F0106FAFA
:101DC00001F10842E4D028689BFAABF26169B2FAEB
:101DD00082F220F0F80091400843286025E0FFE7F8
:101DE00096FAA6F1B1FA81F148F821A0FFF722FB9B
:101DF000814605E0FFF71EFBA0EB09000228CCD8C6
:101E000097FAA7F0B0FA80F040F02000400901D026
:101E1000286800E0686A97FAA7F1B1FA81F101F049
:101E20001F0106FA01F10842E4D1207800076AD5C3
:101E3000A069A0B396FAA6F0B0FA80F008EB800093
:101E4000C0F88064FFF7F6FA814605E0FFF7F2FA82
:101E5000A0EB09000228A0D897FAA7F0B0FA80F00A
:101E600040F06000B6EB501F02D128680CE077E12B
:101E700097FAA7F0B0FA80F040F06000B7EB501F7F
:101E800001D1286A00E0686A97FAA7F1B1FA81F1F6
:101E900001F01F0106FA01F21042D7D033E0FFE74C
:101EA00096FAA6F0B0FA80F008EB8000C0F880A4A3
:101EB000FFF7C0FA814605E0FFF7BCFAA0EB090086
:101EC00002289CD897FAA7F0B0FA80F040F06000A2
:101ED000B6EB501F01D128680BE097FAA7F0B0FAD3
:101EE00080F040F06000B7EB501F01D1286A00E09D
:101EF000686A97FAA7F1B1FA81F101F01F0106FAB9
:101F000001F21042D8D12078400774D5E8694FF02B
:101F10000009C00009D4E86940F08050E861E86930
:101F20004FF0010900F08050009031480168C90568
:101F300012D4016841F480710160FFF77BFA834697
:101F400006E000BFFFF776FAA0EB0B00642875D817
:101F500027480068C005F5D5E06801280AD008B117
:101F6000052811D0286A20F001002862286A20F094
:101F7000040002E0286A40F001002862E068C8B36B
:101F8000FFF758FA83460DE0286A40F00400286203
:101F9000F0E700BFFFF74EFAA0EB0B0141F28830EB
:101FA00081424BD897FAA7F0B0FA80F040F0400099
:101FB000B6EB501F01D128680BE097FAA7F0B0FAF2
:101FC00080F040F04000B7EB501F01D1286A00E0DC
:101FD000686A97FAA7F1B1FA81F101F01F0106FAD8
:101FE00001F21042D6D035E000100240000042421B
:101FF0000070004000E034E0FFF71CFA834607E081
:10200000FFF718FAA0EB0B0141F28830814215D896
:1020100097FAA7F0B0FA80F040F04000B6EB501FFE
:1020200001D128680CE097FAA7F0B0FA80F040F0F0
:102030004000B7EB501F02D1286A01E083E0686AD4
:1020400097FAA7F1B1FA81F101F01F0106FA01F246
:102050001042D5D1B9F1000F03D0E86920F08050CB
:10206000E861E06980B36968C1F38101022977D032
:102070004FF080714F00022809D091FAA1F0B0FA18
:1020800080F048F820A0FFF7D5F904465EE05046FE
:102090008A4691FAA1F1B1FA81F1C14648F82100CE
:1020A000FFF7C8F9804605E0FFF7C4F9A0EB080088
:1020B000022848D897FAA7F0B0FA80F040F0200044
:1020C000400902D0286801E056E0686A97FAA7F153
:1020D000B1FA81F101F01F0106FA01F10842E3D1E2
:1020E000D4E908100843696821F474110843686052
:1020F0009AFAAAF0B0FA80F049F82060FFF79AF94E
:10210000044604E0FFF796F9001B02281BD897FA53
:10211000A7F0B0FA80F040F02000400901D0286814
:1021200000E0686A97FAA7F1B1FA81F101F01F01A6
:1021300006FA01F10842E5D01EE000BFFFF77AF988
:10214000001B022802D90320BDE8F88F97FAA7F0F8
:10215000B0FA80F040F02000400902D0286801E089
:102160000CE0686A97FAA7F1B1FA81F101F01F015A
:1021700006FA01F10842E1D10020E5E70120E3E79A
:102180002DE9F041040005D00025A56294F85D001A
:1021900018B107E00120BDE8F08184F85C502046CA
:1021A00000F04AF8022384F85D302068016821F0CD
:1021B00040010160E0684FF4E066B04201D90021BF
:1021C00001E04FF48051B0F5706F02D0B04200D002
:1021D000A562276B012227B9B04201D9236300E031
:1021E0002263D4E901031843D4E904363343184386
:1021F000238B03F400731843E3691843236A1843DD
:10220000A36A184323681860636B606AA669184361
:102210000427E36807EA1646334318430843216856
:1022200048602068C16921F40061C161256684F8B5
:102230005D200020AFE7000010B586B004461421F1
:102240006846FDF7C4FF1349206888421FD1124831
:10225000816941F480518161816901F48051059166
:10226000416941F4003141614069694600F4003040
:102270000590E020009002200190002002900320B1
:102280000390052004904FF09040FFF709F806B046
:1022900010BD0000003001400010024010B5401E8B
:1022A000B0F1807F01D3012010BD4FF0E0246061C8
:1022B0000F21601700F01CFA0020A06107202061A8
:1022C000002010BD30B590F83C20012A1FD001221B
:1022D00080F83C200268536894680E4DAA4202D0F0
:1022E0000D4DAA4203D123F470054B682B4323F014
:1022F00070050B6889682B4324F0800421435360E8
:1023000002689160002180F83C10084630BD022030
:1023100030BD0000002C014000340140022180F853
:102320003D1001680A6842F001020A60012180F84C
:102330003D100020704700002DE9F041044690F860
:102340003C000D4601283DD0012684F83C60022067
:1023500084F83D00AAB3042A46D02068082A55D044
:10236000D5E90027E968036A23F480530362D0F8B3
:102370001CC0036A2CF4407C4CEA07274FF6FF7C14
:1023800027F470470CEA013139434FF4204723F416
:10239000204307EA02321A43C16102622068C16920
:1023A00021F44061C1612068C169AA6841EA022143
:1023B000C0F81C1084F83D60002084F83C00BDE8A3
:1023C000F08101E00220FAE7D5E90012EB6820680D
:1023D00000F06AFA2068816921F00C0181612068AF
:1023E0008169AA6811430FE0D5E90012EB68206803
:1023F00000F090FA2068816921F4406181612068D1
:102400008169AA6841EA02218161D3E7D5E9002CFC
:102410002F7B016A21F480710162C169036A21F096
:10242000030141EA0C0121F0F00C39074FF4206759
:102430004CEA116123F4206307EA02221A43C161C6
:1024400002622068C16921F00C01C1612068C16984
:10245000AA681143ACE710B5040003D094F83D001E
:1024600010B107E0012010BD002084F83C00204698
:1024700000F00CF8022084F83D00211D206800F0D7
:10248000BBF9012084F83D00002010BD10B586B0D6
:10249000044614216846FDF79AFE134920688842D5
:1024A0001FD11248816941F400618161816901F4A1
:1024B00000610591416941F400314161406969461B
:1024C00000F4003005904FF48070009002200190DD
:1024D000002002900390062004904FF09040FEF7F9
:1024E000DFFE06B010BD0000002C014000100240CD
:1024F000FEE7000070B58AB0002406940794182106
:1025000068460894FDF763FE13484FF0A04101258B
:10251000C0E9001484600461C5614462C0E90B54E1
:10252000C460056204264463C0E905648463FEF761
:102530005FFB06A908480694FDF766FF072005948F
:10254000CDE90005CDE90264049469460248FDF72F
:10255000E5FF0AB070BD00001800002070B586B01D
:1025600014216846FDF733FE2648416941F4001105
:102570004161416901F400110591416941F4002173
:102580004161416901F400210591416941F48001F3
:102590004161416901F480010591416941F40031D3
:1025A0004161416901F400310591416941F48021A3
:1025B00041614069144E00F480204FF60875059083
:1025C000002229463046FEF72FFF372000900F48A3
:1025D0000024CDE9010469463046FEF761FE00950E
:1025E0000125CDE90154694630460394FEF758FEB3
:1025F000CDE9005469464FF090400294FEF750FE3A
:1026000006B070BD0010024000100048000012101B
:102610000E4810B50C4901600D49416000210122AE
:10262000C0E90212016141618161C1610162FEF78D
:102630005BFF00210548FEF703FFBDE810400021C5
:102640000248FEF728BF0000005400408000002030
:102650000E0900200E480D494FF4407201604FF4FE
:10266000827141600021C0E902124FF400720161E1
:10267000C0E905120822C0E9072107234162C0E929
:102680000A13C0E90C12FFF77BBD000000300140C7
:10269000CC00002010B588B000241348059406949F
:1026A00004940094019402940E490394C0E9001428
:1026B0008460C460046144618461FFF7CCFE0494CB
:1026C000059404A908480694FFF7FCFD0120CDE914
:1026D000004002940022694603480394FFF72CFE51
:1026E00008B010BD002C014030010020FEE770470B
:1026F0000907090E002806DA00F00F0000F1E020BB
:1027000080F8141D704700F1E02080F80014704735
:1027100070477047FEF776BF30B59FB028210FA8ED
:10272000FDF755FD142119A8FDF751FD3C21684620
:10273000FDF74DFD03200F904FF4A0200024CDE9BC
:102740001004012013901020149002250003CDE9FD
:102750001650000118900FA8FFF74AFA0F20CDE994
:1027600019056802CDE91B40012119A81D94FFF746
:102770006BF906480090E8010990800307940E90D9
:102780000C946846FFF754F81FB030BDA01002004B
:102790001448016841F4700101601348016841F078
:1027A000010101604168114A114041600168104A0D
:1027B00011400160016821F480210160416821F429
:1027C000FE014160C16A21F00F01C162016B094A3B
:1027D00011400163002181600249C0038039086013
:1027E0007047000088ED00E0001002400CC07FF848
:1027F000FFFFF6FECCFC00FF2DE9F0430268234BFF
:10280000234D244E244C4FF08049984207D0484530
:1028100005D0A84203D0B04201D0A04203D122F09B
:1028200070074A683A431D4FDFF874C0DFF87480C0
:1028300098420DD048450BD0A84209D0B04207D0ED
:10284000A04205D0B84203D0604501D0404503D135
:1028500022F44075CA682A434D6922F080022A4357
:1028600002608A68C2620A688262984207D0A04207
:1028700005D0B84203D0604501D0404501D1096977
:10288000016301214161BDE8F0830000002C01409B
:1028900000040040000800400034014000400140B6
:1028A000004401400048014070B5046A24F001046E
:1028B00004628469056A124EB0420ED0B0F1804FB6
:1028C0000BD0104EB04208D00F4EB04205D00F4E84
:1028D000B04202D00E4EB04203D124F003041443A0
:1028E00001E044F001041A0724F0F00444EA126203
:1028F00025F00A0301F00A0119438261016270BDEB
:10290000002C014000040040000800400034014059
:102910000040014030B5046A24F010040462846968
:10292000056A24F4407444EA022222F470444FF60B
:10293000FF7202EA03322243A02425F0A00304EA36
:10294000011119438261016230BDFEE702E008C84F
:10295000121F08C1002AFAD170477047002001E019
:1029600001C1121F002AFBD1704700000EB5FEF70F
:1029700051FEFFF7D1FEFFF7F1FDFFF749FEFFF72C
:1029800069FE1F481D4900240160082141600221A1
:102990008160846104620161FEF7C4FEFFF7AAFD55
:1029A000FFF778FE184900940194164802940860D5
:1029B0000846FEF76DFB0094002269461248019418
:1029C000FEF733FB114D002211460F482B68FEF72E
:1029D000A1FB0D4800215438FDF7C6FC0A485438C5
:1029E000FEF760FA00942023002107482A68FEF7CA
:1029F0009FFB03484038FFF791FCFEE7005C004076
:102A000070010020007400406C00002000000020D5
:102A100002030405060708090A0B0C0D0E0F10101F
:102A20000102030405060708090A0B0C0D0E0F101E
:102A3000000000000000000001020304060708096E
:102A4000602A000800000020180000004C2900083F
:102A5000782A000818000020000900005C290008FE
:102A60000000000000000000010000001000000055
:082A70000000000000127A00D2
:040000050800018965
:00000001FF
