:020000040800F2
:10000000500B00209D010008D1440008993F0008D2
:10001000CD440008990800087D5200080000000047
:100020000000000000000000000000000F45000874
:10003000ED080008000000000D450008114500080B
:10004000B7010008B7010008B7010008B7010008B0
:10005000B7010008B7010008B7010008B7010008A0
:10006000B7010008B7010008B7010008B701000890
:10007000B70100089D080008B7010008B701000893
:10008000B7010008B7010008B7010008B701000870
:10009000B7010008B7010008B7010008B701000860
:1000A000B7010008B7010008B7010008B701000850
:1000B000B70100082D460008B7010008B701000885
:1000C000B7010008B7010008B7010008B701000830
:1000D000B70100086D520008B7010008B701000819
:1000E000B7010008B7010008B7010008B701000810
:1000F000B7010008B7010008B7010008B701000800
:10010000000000000000000000000000B70100082F
:10011000B7010008B70100083D460008B701000814
:10012000B7010008B7010008B7010008B7010008CF
:10013000B7010008B701000800000000000000003F
:10014000B7010008B7010008B7010008000000006F
:10015000000000000000000000000000000000009F
:100160000000000000000000B7010008B70100080F
:10017000B7010008000000000000000000000000BF
:1001800000000000B7010008DFF80CD000F02EF9E5
:1001900000480047C9520008500B0020064880471D
:1001A00006480047FEE7FEE7FEE7FEE7FEE7FEE75C
:1001B000FEE7FEE7FEE7FEE7B1450008890100081B
:1001C000D2B201E000F8012B491EFBD27047002299
:1001D000F6E710B513460A4604461946FFF7F0FF46
:1001E000204610BD0FB400B58DB010A909900B903A
:1001F00000914FF0FF300A9000200C9005480690C7
:10020000054807906A4609A80F9900F0C1F80DB09B
:100210005DF814FBAD030008CB0300082DE9FF5F78
:100220001D464FF0FF3BD5E9014691465F464FF032
:100230000008A9697F1C01988847296A8246884777
:100240000028F6D1BAF1FF3F0CD024F4C064002E90
:1002500019DD600614D5BAF12B0F09D0BAF12D0FB4
:100260000ED103E0584604B0BDE8F09F44F480642A
:10027000A9697F1C01988847761E8246002E02DD00
:10028000BAF1300F03D0B9F1000F26D032E0A969DE
:10029000761E44F400747F1C019888478246002E25
:1002A00005DDBAF1780F06D0BAF1580F03D0B9F1D5
:1002B000000F10D01EE0B9F1000F02D0B9F1100FFD
:1002C00018D1A969761E24F400747F1C0198884710
:1002D0008246102002E0082000E00A20814609E062
:1002E00008FB0908A969761E44F400747F1C019874
:1002F00088478246002E05DD4946504600F034F816
:100300000028EDDAE96901988847A00502D46FF06A
:100310000100A8E7E00725D1600613D5600502D5E6
:10032000C8F1000000E0404629680A1D2A600968FB
:10033000220501D5087015E0220701D5088011E0DB
:1003400008600FE02868011D29600068210502D5BA
:1003500080F8008006E0210702D5A0F8008001E0C7
:10036000C0F8008038467EE73A2800D2303820F0C6
:100370002002412A01D3A2F13700884201D34FF075
:10038000FF307047026811441378016018467047C7
:10039000D160044951610449116200211161114683
:1003A00000F03CB88503000811040008426842B11F
:1003B000016811F8013B23B1521EC0E90012184632
:1003C00070470121C160881E704742685AB1C368F6
:1003D000016843B983688B4205D0491E521CC0E9AD
:1003E0000012002070474FF0FF307047064C074D59
:1003F00006E0E06840F0010394E8070098471034F5
:10040000AC42F6D3FFF7C4FE5454000874540008FD
:10041000C0B24FF4F05100F097B900002DE9F34F4E
:100420008BB04FF0000801F10C000C464FF0010BAF
:1004300046460DF1080A0190626901210198904732
:10044000051E2DD0252D2CD0216A8847C0B16269A8
:10045000012101989047216A88470028F7D1411E61
:1004600062690198904700E0761CA1690B98884763
:10047000216A88470028F7D1E1690B988847DBE7B4
:10048000A1690B9888470746A84201D1761CD3E79B
:10049000E1690B9888477F1C02D1B8F1000F6FD03B
:1004A00046E1002762693D463946019890472A286F
:1004B00004D162690121019890470125DFF88492F7
:1004C0006269012101989047A0F130010A290AD2FE
:1004D0004F45E5DC07EB870100EB4107303FDFD4F8
:1004E00045F01005ECE7E90601D46FF000476C28F1
:1004F0000AD04C2814D0682815D06A280DD074284A
:100500001CD07A281AD01DE0626901210198904719
:100510006C2802D045F0040514E045F002050DE01A
:1005200045F020050AE0626901210198904768289A
:1005300002D045F0080505E045F400656269012137
:1005400001989047C4E9015765283DD019DC582827
:100550007AD00CDC452837D004DC252826D0412869
:1005600031D131E046282FD047282CD12CE05B2810
:1005700077D0612828D063287CD0642823D15AE022
:10058000D0E06F2848D008DC66281DD067281BD033
:10059000692821D06E2816D127E0702845D073280D
:1005A00068D0752847D078280DD14DE0A1690B9807
:1005B0008847054625283FF469AFE1690B988847CD
:1005C0006D1C3FF46AAFB3E023466A466FF001004A
:1005D0000B99AFF300809EE045F040006060A807F3
:1005E00023464FF0000236D43EE0E8077FF447AFE1
:1005F0002068011D21600068290501D506701BE7F0
:10060000290701D5068017E7A90703D5F117C0E927
:10061000006111E706600FE745F040006060A80741
:1006200023464FF0080216D41EE040F60E0125EADC
:100630000100606016E045F040006060A8072346B6
:100640004FF00A0207D40FE045F040006060A807B1
:1006500008D5234610226FF001000B99AFF30080FC
:1006600059E007E0234610226FF001000B99FFF7D5
:10067000D5FD50E04FF000094F464B46632802D0AD
:100680005B2806D040E0E80601D40120A0600127E5
:100690003AE062690121019890475E2805D14FF048
:1006A00001096269494601989047216939B90021D9
:1006B0000A46534643F82120491C0829FADBB0B307
:1006C000216969B9C11700EBD16253110AEB8301AB
:1006D00022F01F02821A01200B68904003430B6036
:1006E00062690121019890475D28E8D1B9F1000FB6
:1006F00009D00020514651F82020D24341F8202053
:10070000401C0828F7DB02AB224600976FF001007F
:100710000B99AFF3008000280CDA401C08D1BBF124
:10072000000F05D04FF0FF300DB0BDE8F08FFFE7B0
:100730004046F9E7E90701D108F1010806444FF006
:10074000000B79E6CCCCCC0C7F2801D9002208E044
:10075000064A02EB5002C007127800D1120902F0DB
:100760000F02012090400840704700001454000818
:1007700070B5044600252068806800F00300012859
:1007800006D12068006800F0010008B1012000E0F7
:10079000002080B32068806800F00D00012800D19F
:1007A00000E0002050B100BF2068806840F00200E7
:1007B0002168886003202168086009E0606C40F0CF
:1007C00010006064A06C40F00100A064012070BDC6
:1007D00001F088F905460FE001F084F9401B02287A
:1007E0000AD9606C40F010006064A06C40F0010019
:1007F000A0640120EBE705E02068806800F00100BC
:100800000028E9D10020E2E770B504460025206801
:10081000806800F00300012806D12068006800F01D
:10082000010008B1012000E0002088BB206880683A
:100830001849084008B9012000E0002048B9606C60
:1008400040F010006064A06C40F00100A064012042
:1008500070BD2068806840F001002168886001F068
:1008600041F905460EE001F03DF9401B022809D987
:10087000606C40F010006064A06C40F00100A06467
:100880000120E5E72068006800F001000028EAD0B8
:100890000020DDE73F00008000BFFEE710B5024802
:1008A00000F096FF10BD0000840000200D4A016892
:1008B00091420BD20C4A0168891A1422B1FBF2F161
:1008C0008900016408490839C1630AE0054A0168E2
:1008D000891A1422B1FBF2F1890001640149083937
:1008E000C163704708040240080002407047704727
:1008F00070B595B002460B460024186800B100BFE1
:100900001068B0F1A04F02D15548009017E0544D47
:100910001068A84203D14FF0A04000900FE0514D65
:100920001068A84202D15048009008E04E4D10686F
:10093000A84202D14B48009001E0002000900098AE
:1009400010B9012015B070BD00BF92F84000012819
:1009500001D10220F6E7012082F8400000BF1068B4
:100960008068C0F3800000286ED100988068C0F3D2
:100970008000002868D11068B0F1A04F03D0384D36
:100980001068A84201D1394800E03948014618688A
:1009900080B35D68506B45EA40308D6825F4604552
:1009A000284388601068806800F00300012806D1A1
:1009B0001068006800F0010008B1012000E000208C
:1009C000C8BB0098806800F00300012806D1009899
:1009D000006800F0010008B1012000E0002050BBD9
:1009E0009D68186828438D6840F61F76B5432843F4
:1009F00088602EE0FFE7886820F460408860106817
:100A0000806800F00300012806D11068006800F03B
:100A1000010008B1012000E0002060B90098806862
:100A200000F00300012807D10098006800F00100E1
:100A300010B1012001E00CE0002050B9886840F6B8
:100A40001F75A843886004E0506C40F0200050649B
:100A5000012400BF002082F8400000BF204671E75B
:100A60000001005000040050000500500003005039
:100A700000070050F0B596B0024600250020009017
:100A8000C868012800D000E000BF00BF92F8400015
:100A9000012802D1022016B0F0BD012082F84000EA
:100AA00000BF10688068C0F38000002879D14868D2
:100AB000052812D21068006B0E7906EB4606770007
:100AC0001F26BE40B0430F7907EB47077F000E6833
:100AD000BE4030431668306343E048680A2814D2A9
:100AE0001068406B0E79761F06EB460677001F26CE
:100AF000BE40B0430F797F1F07EB47077F000E68AA
:100B0000BE403043166870632BE048680F2814D24B
:100B10001068806B0E790A3E06EB460677001F26AA
:100B2000BE40B0430F790A3F07EB47077F000E68CE
:100B3000BE4030431668B06313E01068C06B0E7996
:100B40000F3E06EB460677001F26BE40B0430F79E6
:100B50000F3F07EB47077F000E68BE403043166823
:100B6000F0631068806800F00C0008B1012000E01C
:100B70000020002870D108680A2813D31068806903
:100B80000E780A3E06EB46070726BE40B0430F78B4
:100B90000A3F07EB47078E68BE4030431668B061D6
:100BA00010E07EE1106840690E7806EB46070726E4
:100BB000BE40B0430F7807EB47078E68BE40304316
:100BC0001668706148691668F668C6F3C106760053
:100BD00000FA06F40869012806D0022812D003287A
:100BE0001ED0042839D129E01068006EB34E304081
:100BF0000E784FF0004747EA866626433043166872
:100C0000306663E01068406EAC4E30400E784FF0B6
:100C1000004747EA8666264330431668706655E00B
:100C20001068806EA54E30400E784FF0004747EABE
:100C30008666264330431668B06647E01068C06E8B
:100C40009E4E30400E784FF0004747EA86662643B6
:100C500030431668F06639E039E01068006E00F045
:100C6000F8400E78B0EB866F05D11068006E20F06A
:100C70000040166830661068406E00F0F8400E784C
:100C8000B0EB866F05D11068406E20F0004016680A
:100C900070661068806E00F0F8400E78B0EB866FDA
:100CA00005D11068806E20F000401668B0661068AC
:100CB000C06E00F0F8400E78B0EB866F05D110687A
:100CC000C06E20F000401668F06600BF00BF1068DC
:100CD000806800F00300012806D11068006800F069
:100CE000010008B1012000E00020002871D1C8688F
:100CF00001280AD01068D0F8B0000F780126BE4055
:100D0000B0431668C6F8B00032E01068D0F8B00002
:100D10000F780126BE4030431668C6F8B000086858
:100D20000A2813D3106886690878093800EB400751
:100D30000720B84026EA00000E78093E06EB46067A
:100D40008F68B74038431668B06111E01068406999
:100D50000E78761C06EB46070726BE40B0430F7898
:100D60007F1C07EB47078E68BE40304316687061F2
:100D70001068B0F1A04F03D0514E1068B04201D1BD
:100D8000504800E0504803460868102803D198688E
:100D900000F4000070B10868112803D1986800F0D1
:100DA000807038B10868122813D1986800F4800068
:100DB00000287BD11068B0F1A04F02D140480190CB
:100DC00018E03F4E1068B04204D14FF0A0400190AF
:100DD00010E05FE03D4E1068B04202D13C48019007
:100DE00008E03B4E1068B04202D13848019001E063
:100DF000002001901068806800F00300012806D1EF
:100E00001068006800F0010008B1012000E0002037
:100E1000C0BB019870B10198806800F00300012800
:100E200006D10198006800F0010008B1012000E03F
:100E3000002038BB0868102818D11068B0F1A04F06
:100E400014D1986840F40000986022480068224E4F
:100E5000B0FBF6F000EB80004000009002E000984C
:100E6000401E009000980028F9D11FE00868112862
:100E700009D11068B0F1A04F05D1986840F080709A
:100E8000986013E007E0086812280FD1986840F4D2
:100E9000800098600AE0506C40F02000506401250A
:100EA00004E0506C40F020005064012500BF002099
:100EB00082F8400000BF2846EDE5000000F0FF8307
:100EC00000010050000300500007005000040050D3
:100ED000000500506C00002040420F0001460868E9
:100EE000006C7047F0B597B004460026002500203E
:100EF000019014B9012017B0F0BD206910B1606AEB
:100F000000B100BF606C00F01000002853D1606C8D
:100F100098BB0020A06400212165E06484F84000B3
:100F2000204600F04BF92068806800F0805020BB1C
:100F30002046FFF71DFC0646606C00F01000E0B98B
:100F4000DEB9606C20F4885040F0020060642068D4
:100F5000806820F04050216888602068806840F0F8
:100F60008050216888608D4800688D49B0FBF1F0A1
:100F700000EB80004000019003E005E00198401E76
:100F8000019001980028F9D12068806800F0805015
:100F900030B12068806800F00050B0F1005F0AD1E5
:100FA000606C20F0020040F010006064A06C40F023
:100FB0000100A0640126606C00F0100000287AD1C6
:100FC000002EFCD120688068C0F380000028F6D194
:100FD000606C20F4807040F0020060642068B0F122
:100FE000A04F03D06F492068884201D16E4800E0CD
:100FF0006E4807462068B0F1A04F02D169480290C0
:1010000017E068492068884203D14FF0A040029061
:101010000FE067492068884202D16648029008E0E4
:1010200064492068884202D16148029001E00020B2
:1010300002902068806800F00300012806D1206833
:10104000006800F0010008B1012000E00020B0B904
:10105000029870B10298806800F00300012806D160
:101060000298006800F0010008B1012000E00020B3
:1010700028B9B86820F4403061680843B860A06BB4
:10108000012802D04FF4805100E00021E06941EADC
:101090004030E1680843A16808430543606A0128BD
:1010A00014D1E06940B9208D401E4FF4803141EAEF
:1010B000404005430AE068E0606C20F0020040F028
:1010C00020006064A06C40F00100A064E06A012888
:1010D00022D037492068884203D0364920688842A8
:1010E00016D1E06AB0F5307F02D14FF4E07010E025
:1010F000E06AB0F5807F02D14FF4307009E0E06A19
:10110000B0F5E07F02D14FF4807002E0E06A00E0C9
:10111000E06A216B084305432068806800F00C00FA
:1011200008B1012000E0002060B92068C06844F2E6
:10113000020188432168C860A0698103606B41EAAD
:10114000400005432068C0681B49084028432168C7
:10115000C8602069012809D12068006B20F00F00C9
:10116000216A491E08432168086305E02068006B76
:1011700020F00F00216808630020A064606C20F05C
:10118000020040F00100606406E0606C20F00200A4
:1011900040F01000606401263046ACE66C00002090
:1011A00040420F00000100500003005000070050B3
:1011B000000400500005005007C0F0FF7047000019
:1011C0002DE9F04704460D464FF0000960690828F4
:1011D00001D1082632E02068B0F1A04F03D0564973
:1011E0002068884201D1554800E055488046D8F82B
:1011F000080000F01F0080B92068C06800F00100FE
:10120000D8B1606C40F02000606400BF002084F81A
:10121000400000BF0120BDE8F087D8F8080000F4C6
:10122000404050B1606C40F02000606400BF00207E
:1012300084F8400000BF0120EDE70C262068B0F1E3
:10124000A04F03D03C492068884205D13B48083074
:10125000006800F01F0004E039480830006800F022
:101260001F0038B12068B0F1A04F03D03549206885
:10127000884203D12068D0F80C900DE02068B0F1CE
:10128000A04F03D02C492068884202D14FF0A040E3
:1012900000E02C48D0F80C9000F024FC074612E047
:1012A000681C80B125B100F01DFCC01BA8420AD902
:1012B000606C40F00400606400BF002084F84000CF
:1012C00000BF0320A7E72068006830400028E7D06F
:1012D000606C40F4007060642068C06800F4406096
:1012E00010BB09F40050F8B92068006800F008004D
:1012F000082819D120688068C0F3800060B9606C4C
:1013000020F480706064606C00F4805060B9606CA0
:1013100040F00100606407E0606C40F02000606411
:10132000A06C40F00100A06409F4804008B9206876
:10133000066000206FE7000000010050000300502D
:10134000000700500004005070B5044600252068D6
:101350008068C0F3800000287ED100BF94F8400070
:10136000012801D1022070BD012084F8400000BF97
:101370002046FFF749FA0546002D6ED1606C40F615
:101380000161884340F4807060642068B0F1A04F30
:1013900003D056492068884204D15548006800F0BF
:1013A0001F0003E05348006800F01F0040B12068B0
:1013B000B0F1A04F04D04E49F831206888420FD1D7
:1013C000606C20F4801060642068C06800F00070D9
:1013D00018B3606C20F4005040F4805060641CE04E
:1013E000606C40F4801060642068B0F1A04F03D0BE
:1013F0003E492068884205D14FF0A040C06800F007
:10140000007003E03C48006800F0007028B1606C98
:1014100020F4005040F480506064606C00F4805010
:10142000B0F5805F04D1A06C20F00600A06401E05C
:101430000020A06400BF002084F8400000BF1C20F2
:10144000216808602068B0F1A04F03D027492068C8
:10145000884207D1264801E044E03EE0006800F001
:101460001F0003E02348006800F01F0070B32068ED
:10147000B0F1A04F03D01D492068884204D11C4818
:10148000006800F01F0003E01A48006800F01F0029
:1014900005281BD02068B0F1A04F03D01349206865
:1014A000884204D11248006800F01F0003E0114890
:1014B000006800F01F00092808D02068B0F1A04F94
:1014C00004D00D490C39206888420CD1206880680E
:1014D00040F004002168886005E000BF002084F827
:1014E000400000E0022528463DE7000000010050D2
:1014F00008030050080700500C040050704770B5F6
:1015000003460024002500BF5879012801D102209C
:1015100070BD0120587100BF02201871186804685E
:1015200040F6FE7090408443D1E9000640EA06058B
:1015300005FA02F004431868046018680668C020C1
:1015400090408643186806600120187100BF002093
:10155000587100BF00BFDBE7704710B50446206834
:10156000006800F40050B0F5005F19D12068406BAE
:1015700000F40050B0F5005F12D104202071206902
:1015800040F0010020614FF400502168486320685A
:10159000006820F48050216808602046FFF7DCFFD7
:1015A0002068006800F00050B0F1005F19D1206899
:1015B000406B00F00050B0F1005F12D104202071A8
:1015C000206940F0020020614FF00050216848631C
:1015D0002068006820F08050216808602046FFF7EE
:1015E0008DFF10BD10B504460CB9012010BD207947
:1015F00020B900206071204600F008F80220207118
:1016000000202061012020710020EFE710B586B096
:101610000446142101A8FEF7DAFD2C49206888420F
:1016200051D100BF2A48C06940F000502849C86124
:101630000846C06900F00050009000BF00BF00BF26
:101640000846406940F4003048610846406900F4AB
:101650000030009000BF00BF1020019003200290D6
:101660000020039001A94FF0904000F04FF9194875
:1016700019490860102048600021174881608021C6
:10168000C16049000161890041612021816100211F
:10169000C16100F010F908B1FFF729F900BF0F4848
:1016A000006840F400500D49086000BF00BF0A48C0
:1016B000A060446200BF00221146362000F097FB74
:1016C000362000F087FB06B010BD0000007400401B
:1016D0000010024030000240840000200000014061
:1016E00038B50446002000902068009029B902F126
:1016F0000800009D2844009004E002F11400009DC1
:101700002844009000980360002038BD024600BFC6
:101710005079012801D1022070470120507100BF8B
:10172000022010711068006801238B401843136871
:10173000186061B91068006800F03C003C2813D1C3
:101740001068406840F00100136858600CE01068B1
:10175000006800F47010B0F5701F05D11068406883
:1017600040F00200136858600120107100BF002093
:10177000507100BF00BFCFE770B50446002594F854
:101780002100022803D00420A06301251EE0206868
:10179000006820F00E00216808602068006820F0D2
:1017A00001002168086094F8401001208840E16B36
:1017B0004860012084F8210000BF002084F8200048
:1017C00000BF606B10B12046616B8847284670BD32
:1017D00070B50446E06B05682068066894F8401010
:1017E000042088402840D0B106F00400B8B1206839
:1017F000006800F0200028B92068006820F004008C
:101800002168086094F8401004208840E16B48602B
:10181000E06A00284ED02046E16A88474AE094F802
:10182000401002208840284008B306F00200F0B1C2
:101830002068006800F0200040B92068006820F0AF
:101840000A0021680860012084F8210094F8401003
:1018500002208840E16B486000BF002084F820002F
:1018600000BFA06A30B32046A16A884722E094F8FE
:101870004010082088402840E0B106F00800C8B1B8
:101880002068006820F00E002168086094F840107D
:1018900001208840E16B48600120A06384F82100AA
:1018A00000BF002084F8200000BF206B10B120464C
:1018B000216B884770BD70B5044600250CB9012026
:1018C00070BD022084F821002068056843F6F0709E
:1018D0008543D4E901010843E168084321690843CD
:1018E00061690843A1690843E16908430543206829
:1018F00005602046FEF7DAFF0020A063012084F88F
:101900002100002084F8200000BFD9E778B5034605
:10191000002200240020CBE0012696400D6805EA55
:101920000604002C72D04D68022D02D04D68122D95
:1019300013D1D60803F1200555F826005507EE0E01
:101940000F25B540A8435607F60E0D69B54028434C
:10195000D60803F1200545F826001868560003252F
:10196000B540A8430D7905F003055600B54028435E
:1019700018604D68012D08D04D68022D05D04D68C6
:10198000112D02D04D68122D13D1986856000325F1
:10199000B540A8435600CD68B540284398605868C4
:1019A00001259540A8430D79C5F3001595402843BE
:1019B0005860D86856000325B540A84356008D6886
:1019C000B5402843D8604D6805F08055B5F1805F7B
:1019D0006DD100BF394DAD6945F00105374EB56198
:1019E0003546AD6905F00105009500BF00BF4FEA1F
:1019F000B635960855F8260095072E0F0F25B540E9
:101A0000A843B3F1904F02D1002515E04FE02C4DD3
:101A1000AB4201D101250FE02A4DAB4201D1022595
:101A20000AE0294DAB4201D1032505E0274DAB4229
:101A300001D1042500E005259607360FB54028435F
:101A4000234D960845F82600224D2868A0434D688E
:101A500005F48035B5F5803F00D120431D4D286049
:101A60002D1D2868A0434D6805F40035B5F5003FED
:101A700000D12043174D2D1D28602D1D2868A0433F
:101A80004D6805F48015B5F5801F00D12043114D38
:101A9000083528602D1D2868A0434D6805F4001501
:101AA000B5F5001F00D120430A4D0C352860521CAB
:101AB0000D68D540002D7FF42FAF78BD0010024097
:101AC0000004004800080048000C004800100048CE
:101AD00008000140000401400AB1816100E0816218
:101AE0007047000001480068704700006000002057
:101AF000024692F8410020282DD100BF92F8400004
:101B0000012801D102207047012082F8400000BF67
:101B1000242082F841001068006820F0010013685A
:101B200018601068006820F480501368186010680E
:101B300000680843136818601068006840F00100EE
:101B400013681860202082F8410000BF002082F84E
:101B5000400000BFD7E70220D5E710B502460B468C
:101B6000002192F8410020282AD100BF92F84000BD
:101B7000012801D1022010BD012082F8400000BFE1
:101B8000242082F841001068006820F001001468E9
:101B900020601068016821F4706141EA0321106837
:101BA00001601068006840F0010014682060202087
:101BB00082F8410000BF002082F8400000BFDAE751
:101BC0000220D8E710B504460CB9012010BD94F8E6
:101BD000410028B9002084F84000204600F054F865
:101BE000242084F841002068006820F0010021686A
:101BF0000860606820F07060216808612068806873
:101C000020F4004021688860E068012805D1A068C0
:101C100040F400402168886004E0A06840F404407B
:101C200021688860E068022802D18002216848604B
:101C30002068406813490843216848602068C068EC
:101C400020F400402168C860D4E904010843A16978
:101C500040EA01202168C860D4E9070108432168EF
:101C600008602068006840F00100216808600020DA
:101C70006064202084F841000020206384F8420042
:101C800000BFA3E70080000210B586B0044614210F
:101C900001A8FEF79CFA18492068884229D100BFA4
:101CA0001648406940F4802014494861084640695C
:101CB00000F48020009000BF00BFC02001901220DF
:101CC000029001200390032004900420059001A9B4
:101CD0000B48FFF71BFE00BF0848C06940F4001026
:101CE0000649C8610846C06900F40010009000BFB2
:101CF00000BF06B010BD00000054004000100240BC
:101D00000004004803480068034909780844014971
:101D100008607047600000206800002010B5084887
:101D2000006840F0100006490860032000F09EF8AB
:101D3000002000F007F800F02BF8002010BD000094
:101D40000020024070B504460E4800784FF47A71C6
:101D5000B1FBF0F00C490968B1FBF0F5284601F041
:101D600047FA08B1012070BD102C07D2002221468D
:101D7000501E00F03CF80548046001E00120F2E745
:101D80000020F0E7680000206C00002064000020C4
:101D900008B500BF0E48806940F001000C49886119
:101DA0000846806900F00100009000BF00BF00BF3E
:101DB0000846C06940F08050C8610846C06900F01C
:101DC0008050009000BF00BF072000F04FF808BD12
:101DD0000010024000BF00F01F02012191404209A3
:101DE000920002F1E022C2F8001100BF70472DE915
:101DF000F05F80460D461646002702F06BFB074653
:101E000039462A46334601F00700C0F1070ABAF105
:101E1000040F02D94FF0040A01E0C0F1070AD146CD
:101E200000F1040ABAF1070F02D24FF0000A01E0F4
:101E3000A0F1030AD4464FF0010A0AFA09FAAAF1FE
:101E4000010A0AEA020A0AFA0CFA4FF0010B0BFA2D
:101E50000CFBABF1010B0BEA030B4AEA0B04214626
:101E6000404602F03FFBBDE8F09F000000BF00F0DD
:101E70000702064B19684FF6FF031940044B0B434A
:101E800043EA0221014B196000BF70470CED00E0EE
:101E90000000FA0570B50446002500260CB90120A3
:101EA00070BD94F8710328B9002084F870032046AF
:101EB00000F07CF8032084F87103002529E001215B
:101EC000C5EBC50204F1280000EB82004170C5EBB0
:101ED000C50204F1280000F822500021C5EBC5021C
:101EE00000EB8200C170C5EBC50204F1280000EBD5
:101EF0008200C160C5EBC50204F1280000EB82003E
:101F00000161C5EBC50204F1280000EB82004161CC
:101F10006D1C6068A842D2D8002528E00021C5EBDE
:101F2000C50204F5E67000EB82004170C5EBC50206
:101F300004F5E67000F82250C5EBC50200EB820004
:101F4000C170C5EBC50204F5E67000EB8200C1600C
:101F5000C5EBC50204F5E67000EB82000161C5EB3C
:101F6000C50204F5E67000EB820041616D1C6068FB
:101F7000A842D3D801202168A1F8400000202168A0
:101F8000A1F840002168A1F844002168A1F85000A0
:101F90004FF43F462068A0F84060002084F82400F9
:101FA000012084F8710300207AE7000010B586B0A4
:101FB0000446142101A8FEF70AF91949206888424D
:101FC0002BD100BF1748406940F4003015494861E3
:101FD0000846406900F40030009000BF00BF4FF495
:101FE000C050019002200290002003900320049032
:101FF0000E20059001A94FF09040FFF787FC00BF2D
:102000000848C06940F400000649C8610846C06934
:1020100000F40000009000BF00BF06B010BD00003B
:10202000005C004000100240F8B504460026002580
:10203000206800F48030B0F5803F75D10027B148AA
:10204000C06900F0805070B900BFAE48C06940F070
:102050008050AC49C8610846C06900F080500090CB
:1020600000BF00BF0127A848006800F48070B0B925
:10207000A548006840F48070A3490860FFF732FD6E
:10208000064606E0FFF72EFD801B642801D90320D9
:10209000F8BD9D48006800F480700028F2D099488F
:1020A000006A00F44075002D6CD0A08800F44070E8
:1020B000A84267D09348006A20F4407501200104CB
:1020C00091FAA1F1B1FA81F1904A02EB8101C1F8D4
:1020D000000400204FF4803191FAA1F1B1FA81F1AE
:1020E00002EB8101C1F800048648056205F0010099
:1020F000B8B3FFF7F7FC064608E0FFF7F3FC801BD8
:1021000041F28831884201D90320C1E740200221F1
:1021100091FAA1F1B1FA81F108430121B1EB601FFD
:1021200003D1784800681FE03CE04020022191FA8A
:10213000A1F1B1FA81F108430221B1EB601F02D194
:102140007048006A10E04020022191FAA1F1B1FA32
:1021500081F108430421B1EB601F03D16948406855
:1021600002E00FE06748406A4021022292FAA2F2A0
:10217000B2FA82F2114301F01F020121914008409E
:102180000028BAD05F48006A20F4407061680843B4
:102190005C490862012F04D10846C06920F08050D4
:1021A000C86100BF207800F0010038B15548006BCD
:1021B00020F00300A168084352490863207800F02A
:1021C0000200022807D14F48006B20F44030E1683C
:1021D00008434C490863207800F00400042807D124
:1021E0004848006B20F440202169084345490863B2
:1021F000207800F02000202807D14248006B20F012
:102200001000E16908433F490863206800F400308A
:10221000B0F5003F07D13B48406820F48000A16B37
:10222000084338494860207800F04000402807D132
:102230003448006B20F02000216A084331490863CC
:10224000207800F00800082807D12E48006B20F401
:102250004010616908432B490863207800F01000A2
:10226000102807D12748006B20F44000A1690843DB
:1022700024490863208800F40070B0F5007F07D17E
:102280002048406820F40000E16A08431D49486086
:10229000207800F08000802807D11A48C06A20F416
:1022A000F870616A08431749C862208800F480709A
:1022B000B0F5807F07D11348C06A20F47850A16A36
:1022C00008431049C862208800F48050B0F5805F50
:1022D00007D10C48006B20F48070216B084309493A
:1022E0000863208800F40050B0F5005F07D105486E
:1022F000006B20F40070616B084302490863002002
:10230000C6E600000010024000700040000042429B
:1023100070B504460D4600260CB9012070BDA248D8
:10232000006800F00700A8420ED29F48006820F025
:10233000070028439C4908600846006800F0070031
:10234000A84201D00120E9E7207800F0020002282D
:1023500007D19648406820F0F000A16808439349EF
:102360004860207800F0010000287CD060680128D7
:102370003BD12020010391FAA1F1B1FA81F1084388
:102380000121B1EB601F02D1884800681DE02020C8
:10239000010391FAA1F1B1FA81F108430221B1EBF5
:1023A000601F02D18148006A0FE02020010391FAEA
:1023B000A1F1B1FA81F108430421B1EB601F02D110
:1023C0007A48406801E07948406A20210A0392FA7D
:1023D000A2F2B2FA82F2114301F01F0201219140F0
:1023E000084000287CD1012098E7606802283BD192
:1023F0002020010591FAA1F1B1FA81F108430121F0
:10240000B1EB601F02D1694800681DE02020010582
:1024100091FAA1F1B1FA81F108430221B1EB601FF9
:1024200002D16248006A0FE02020010591FAA1F173
:10243000B1FA81F108430421B1EB601F02D15B487E
:10244000406801E05948406A20210A0592FAA2F248
:10245000B2FA82F2114301F01F02012191400840BB
:10246000E8BB01205AE758E02020022191FAA1F1AF
:10247000B1FA81F108430121B1EB601F02D14B4851
:1024800000681DE02020022191FAA1F1B1FA81F14A
:1024900008430221B1EB601F02D14448006A0FE0FB
:1024A0002020022191FAA1F1B1FA81F1084304211F
:1024B000B1EB601F02D13D48406801E03B48406AF3
:1024C0002021022292FAA2F2B2FA82F2114301F022
:1024D0001F0201219140084008B901201EE7FFE7D3
:1024E0003248406820F00300616808432F49486083
:1024F000FFF7F8FA064608E0FFF7F4FA801B41F20E
:102500008831884201D9032008E72848406800F054
:102510000C006168B0EB810FEED12348006800F039
:102520000700A8420ED92048006820F00700284381
:102530001D4908600846006800F00700A84201D065
:102540000120EBE6207800F00400042807D11748AA
:10255000406820F4E060E16808431449486020784E
:1025600000F00800082808D11048406820F46050A6
:10257000216940EAC1000D49486000F04FF80B495D
:10258000496801F0F001F02292FAA2F2B2FA82F266
:10259000D140074A515CC840064908600020FFF757
:1025A000D1FB0020BAE600000020024000100240EB
:1025B000FC5300086C0000200148006870470000D0
:1025C0006C00002000B5FFF7F7FF0749496801F4E8
:1025D000E0614FF4E06292FAA2F2B2FA82F2D140E4
:1025E000024A515CC84000BD001002400C54000873
:1025F00000B5FFF7E1FF0749496801F460514FF466
:10260000605292FAA2F2B2FA82F2D140024A515CCE
:10261000C84000BD001002400C54000870B50021F5
:1026200000240022002300201A4D696801F00C05E7
:1026300065B3042D02D0082D27D101E0164827E00C
:1026400001F470154FF4701696FAA6F6B6FA86F6EF
:10265000F540124E735D0F4DED6A05F00F050F2624
:1026600096FAA6F6B6FA86F6F5400D4E745D01F4BC
:1026700080352DB1084DB5FBF4F505FB03F202E002
:10268000084D03FB05F2104602E000BF024800BF00
:1026900000BF70BD0010024000127A00DC53000839
:1026A000EC53000800093D00F8B504460CB90120C0
:1026B000F8BD207800F0010000287BD0FA4840687F
:1026C00000F00C0004280CD0F748406800F00C0023
:1026D000082845D1F448406800F48030B0F5803FC8
:1026E0003ED12020010391FAA1F1B1FA81F1084312
:1026F0000121B1EB601F02D1EB4800681DE02020F2
:10270000010391FAA1F1B1FA81F108430221B1EB81
:10271000601F02D1E448006A0FE02020010391FA13
:10272000A1F1B1FA81F108430421B1EB601F02D19C
:10273000DD48406801E0DC48406A20210A0392FA43
:10274000A2F2B2FA82F2114301F01F02012191407C
:1027500008400028B1D0606800282BD10120A7E7ED
:1027600000BF6068B0F5803F06D1CF48006840F4F4
:102770008030CD49086029E0606858B9CA480068CF
:1027800020F48030C84908600846006820F48020A2
:1027900008601BE06068B0F5A02F0CD1C24800684B
:1027A00040F48020C04908600846006840F480304A
:1027B00008600BE0A1E0BC48006820F48030BA4912
:1027C00008600846006820F48020086000BFB64812
:1027D000C06A20F00F00A1680843B349C86260686E
:1027E000A0B3FFF77FF9054606E0FFF77BF9401B32
:1027F000642801D903205BE72020010391FAA1F1AD
:10280000B1FA81F108430121B1EB601F02D1A64862
:1028100000681EE02020010391FAA1F1B1FA81F1D4
:1028200008430221B1EB601F02D19F48006A10E00B
:102830002020010391FAA1F1B1FA81F108430421AA
:10284000B1EB601F03D19848406802E010E0964861
:10285000406A20210A0392FAA2F2B2FA82F21143EC
:1028600001F01F020121914008400028BDD044E042
:10287000FFF738F9054606E0FFF734F9401B6428F6
:1028800001D9032014E72020010391FAA1F1B1FA44
:1028900081F108430121B1EB601F02D18248006839
:1028A0001DE02020010391FAA1F1B1FA81F1084362
:1028B0000221B1EB601F02D17B48006A0FE02020AB
:1028C000010391FAA1F1B1FA81F108430421B1EBBE
:1028D000601F02D17448406801E07348406A2021BB
:1028E0000A0392FAA2F2B2FA82F2114301F01F0235
:1028F0000121914008400028BED1207800F002005C
:1029000002285CD16848406800F00C0050B166486D
:10291000406800F00C00082852D16348406800F479
:102920008030E8BB2020022191FAA1F1B1FA81F1B7
:1029300008430121B1EB601F02D15B4800681DE034
:102940002020022191FAA1F1B1FA81F1084302217C
:10295000B1EB601F02D15448006A0FE02020022131
:1029600091FAA1F1B1FA81F108430421B1EB601FA2
:1029700002D14D48406801E04B48406A20210222C4
:1029800092FAA2F2B2FA82F2114301F01F0201217F
:102990009140084028B12069012802D0012087E633
:1029A0000EE04148006820F0F800F82292FAA2F206
:1029B000B2FA82F26169914008433B490860B1E094
:1029C000206970B3012191FAA1F0B0FA80F0374A82
:1029D00042F82010FFF786F8054606E0FFF782F878
:1029E000401B022801D9032062E62020022191FA2F
:1029F000A1F1B1FA81F108430121B1EB601F02D1CD
:102A0000294800681EE02020022191FAA1F1B1FAC4
:102A100081F108430221B1EB601F03D12248006A13
:102A200010E02CE02020022191FAA1F1B1FA81F10D
:102A300008430421B1EB601F02D11B48406801E04C
:102A40001948406A2021022292FAA2F2B2FA82F2D6
:102A5000114301F01F020121914008400028BDD020
:102A60001148006820F0F800F82292FAA2F2B2FAB7
:102A700082F26169914008430B49086052E00020EE
:102A8000012191FAA1F1B1FA81F1084A42F821003D
:102A9000FFF728F805460BE0FFF724F8401B022853
:102AA00006D9032004E60000001002400000424264
:102AB0002020022191FAA1F1B1FA81F1084301210C
:102AC000B1EB601F02D1FB4800681DE0202002210D
:102AD00091FAA1F1B1FA81F108430221B1EB601F33
:102AE00002D1F448006A0FE02020022191FAA1F1FE
:102AF000B1FA81F108430421B1EB601F02D1ED4826
:102B0000406801E0EB48406A2021022292FAA2F2DA
:102B1000B2FA82F2114301F01F02012191400840F4
:102B20000028B9D1207800F00800082851D1A06908
:102B300080B3012090FAA0F1B1FA81F1DE4A02EBF4
:102B40008101C1F88004FEF7CDFF054606E0FEF7DF
:102B5000C9FF401B022801D90320A9E560200221FA
:102B600091FAA1F1B1FA81F108430121B1EB601FA3
:102B700002D1D04800681EE06020022191FAA1F144
:102B8000B1FA81F108430221B1EB601F03D1C948BA
:102B9000006A10E01EE06020022191FAA1F1B1FA72
:102BA00081F108430421B1EB601F02D1C1484068A4
:102BB00001E0C048406A6021022292FAA2F2B2FA11
:102BC00082F2114301F01F020121914008400028C8
:102BD000BDD04FE00020012191FAA1F1B1FA81F1BD
:102BE000B54A02EB8101C1F88004FEF77BFF054680
:102BF00006E0FEF777FF401B022801D9032057E5C6
:102C00006020022191FAA1F1B1FA81F1084301217A
:102C1000B1EB601F02D1A74800681DE060200221CF
:102C200091FAA1F1B1FA81F108430221B1EB601FE1
:102C300002D1A048006A0FE06020022191FAA1F1C0
:102C4000B1FA81F108430421B1EB601F02D1994828
:102C5000406801E09748406A6021022292FAA2F29D
:102C6000B2FA82F2114301F01F02012191400840A3
:102C70000028BED1207800F00400042873D100267B
:102C80008C48C06900F0805070B900BF8948C069A5
:102C900040F080508749C8610846C06900F0805004
:102CA000009000BF00BF01268448006800F48070D7
:102CB000B0B98248006840F4807080490860FEF72F
:102CC00011FF054606E0FEF70DFF401B642801D901
:102CD0000320EDE47948006800F480700028F2D009
:102CE00000BFE068012806D17248006A40F0010088
:102CF0007049086227E0E06858B96E48006A20F021
:102D000001006C4908620846006A20F0040008626D
:102D100019E0E06805280BD16648006A40F004001D
:102D2000644908620846006A40F0010008620AE04F
:102D30006048006A20F001005E4908620846006AA7
:102D400020F00400086200BFE068B8B3FEF7CAFED6
:102D5000054609E0FEF7C6FE401B41F28831884275
:102D600002D90320A4E48BE04020022191FAA1F1D2
:102D7000B1FA81F108430121B1EB601F02D14D4846
:102D800000681EE04020022191FAA1F1B1FA81F120
:102D900008430221B1EB601F02D14648006A10E0EF
:102DA0004020022191FAA1F1B1FA81F108430421F6
:102DB000B1EB601F03D13F48406802E010E03D489E
:102DC000406A4021022292FAA2F2B2FA82F2114340
:102DD00001F01F020121914008400028BAD046E0CE
:102DE000FEF780FE054608E0FEF77CFE401B41F240
:102DF0008831884201D903205AE44020022191FA07
:102E0000A1F1B1FA81F108430121B1EB601F02D1B8
:102E1000284800681DE04020022191FAA1F1B1FA92
:102E200081F108430221B1EB601F02D12148006A01
:102E30000FE04020022191FAA1F1B1FA81F108439B
:102E40000421B1EB601F02D11A48406801E0194823
:102E5000406A4021022292FAA2F2B2FA82F21143AF
:102E600001F01F020121914008400028BCD1012E31
:102E700005D11048C06920F080500E49C86100BFDC
:102E8000E069002874D00B48406800F00C00082866
:102E90006FD0E06902286DD100204FF0807191FA67
:102EA000A1F1B1FA81F1044A42F82100FEF71AFEBD
:102EB00005460CE000100240000042420070004055
:102EC000FEF710FE401B022801D9032047E4202012
:102ED000010591FAA1F1B1FA81F108430121B1EBA9
:102EE000601F02D16F4800681DE02020010591FAA3
:102EF000A1F1B1FA81F108430221B1EB601F02D1C7
:102F00006848006A0FE02020010591FAA1F1B1FAAA
:102F100081F108430421B1EB601F02D16148406890
:102F200001E06048406A20210A0592FAA2F2B2FA52
:102F300082F2114301F01F02012191400840002854
:102F4000BED1D4E9081008435649496821F47411E8
:102F50000843544948600121080690FAA0F0B0FAED
:102F600080F0514A42F82010FEF7BCFD054609E00A
:102F700095E092E041E0FEF7B5FD401B022801D943
:102F8000032038E42020010591FAA1F1B1FA81F182
:102F900008430121B1EB601F02D1424800681DE0E7
:102FA0002020010591FAA1F1B1FA81F10843022133
:102FB000B1EB601F02D13B48006A0FE02020010501
:102FC00091FAA1F1B1FA81F108430421B1EB601F3C
:102FD00002D13448406801E03248406A20210A05A5
:102FE00092FAA2F2B2FA82F2114301F01F02012119
:102FF000914008400028BED051E000214FF0807081
:1030000090FAA0F0B0FA80F0274A42F82010FEF7BC
:1030100069FD054606E0FEF765FD401B022801D963
:1030200003202FE42020010591FAA1F1B1FA81F1EA
:1030300008430121B1EB601F02D11A4800681DE06E
:103040002020010591FAA1F1B1FA81F10843022192
:10305000B1EB601F02D11348006A0FE02020010588
:1030600091FAA1F1B1FA81F108430421B1EB601F9B
:1030700002D10C48406801E00A48406A20210A0554
:1030800092FAA2F2B2FA82F2114301F01F02012178
:10309000914008400028BED101E001207FE40020DB
:1030A0007DE40000001002400000424270B504467A
:1030B0000CB9012070BD606A00B900BF0021A16297
:1030C00094F85D0028B9002084F85C00204600F0E8
:1030D00053F8022084F85D002068006820F040006A
:1030E00021680860E068B0F5E06F01D9002501E0D3
:1030F0004FF48055E068B0F5706F05D0E068B0F52A
:10310000E06F01D00021A162206B40B9E068B0F50A
:10311000E06F02D90221216301E001212163D4E99A
:10312000010108432169084361690843218B01F4C7
:1031300000710843E1690843216A0843A16A084312
:10314000216808600421A06901EA1040616A08430F
:10315000616B0843E16808432843216848602068A0
:10316000C06920F400602168C86100202066012049
:1031700084F85D0000209DE710B586B00446142158
:1031800001A8FDF724F818492068884229D100BF1A
:103190001648806940F48050144988610846806967
:1031A00000F48050009000BF00BF00BF0846406997
:1031B00040F4003048610846406900F40030009057
:1031C00000BF00BFE0200190022002900020039089
:1031D000032004900520059001A94FF09040FEF7D0
:1031E00095FB06B010BD0000003001400010024009
:1031F00070B504462546681EB0F1807F01D30120DA
:103200000FE0681E4FF0E02148610F214FF0FF30C2
:1032100001F068F900204FF0E02188610720086183
:10322000002070BD704770477047000030B50246FF
:103230000B4600BF92F83C00012801D1022030BDAE
:10324000012082F83C0000BF106841681068846863
:103250000F4D1068A84203D00E4D1068A84203D14C
:1032600021F470015868014321F07001186801438E
:1032700024F08004986804431068416010688460FA
:1032800000BF002082F83C0000BF00BFD7E700006D
:10329000002C01400034014010B504460CB9012057
:1032A00010BD94F83D0028B9002084F83C00204669
:1032B00000F00CF8022084F83D00211D206801F088
:1032C000C9F9012084F83D000020E9E738B504463B
:1032D0001A492068884216D100BF1948C06940F0D9
:1032E00002001749C8610846C06900F0020000905A
:1032F00000BF00BF002211461D20FEF778FD1D20F3
:10330000FEF768FD19E00F492068884215D100BF1B
:103310000B48C06940F010000949C8610846C069FF
:1033200000F01000009000BF00BF002211463620C0
:10333000FEF75DFD3620FEF74DFD38BD0004004070
:10334000001002400010004001460868C06820F0EC
:1033500001000A68D06000BF0868006A41F21112DB
:10336000104050B90868006A9210104028B90868E7
:10337000006820F001000A68106000BF002070475C
:103380002DE9F04104460D46002600BF94F83C00AC
:10339000012802D10220BDE8F081012084F83C0020
:1033A00000BF022084F83D0020688668414806403E
:1033B00026F47F4620688660286850283CD00CDCC4
:1033C000202861D004DC002854D0102866D156E0B3
:1033D00030285ED0402861D142E0602836D0702885
:1033E0000ED0B0F5805F03D0B0F5005F56D116E087
:1033F000206880682F4970310840216888604EE05D
:10340000D5E902136A68206801F082F920688668AD
:103410002848064046F07706206886603FE0D5E9F8
:1034200002136A68206801F073F92068806840F42C
:1034300080402168886032E0EA686968206801F0AD
:1034400043FB5021206801F06FF928E0EA686968C1
:10345000206801F08FFB6021206801F065F91EE013
:10346000EA686968206801F02FFB4021206801F0BC
:103470005BF914E00021206801F056F90FE01021FB
:10348000206801F051F90AE02021206801F04CF990
:1034900005E03021206801F047F900E000BF00BFDF
:1034A000012084F83D0000BF002084F83C0000BFEC
:1034B00000BF70E788FFFEFF70472DE9F04104462A
:1034C0000D46164600BF94F83C00012802D10220A8
:1034D000BDE8F081012084F83C0000BF022084F8A0
:1034E0003D0096B9EB68D5E90012206801F002FBB7
:1034F0002068806920F00C0021688861206880695C
:10350000A9680843216888613DE0042E13D1EB6867
:10351000D5E90012206801F043FB2068806920F49F
:1035200040602168886120688069A96840EA0120BC
:103530002168886127E0082E12D1EB68D5E90012D6
:10354000206801F04CFB2068C06920F00C00216865
:10355000C8612068C069A96808432168C86112E091
:10356000EB68D5E90012206801F057FB2068C069BC
:1035700020F440602168C8612068C069A96840EAF9
:1035800001202168C861012084F83D0000BF0020AF
:1035900084F83C0000BF00BF9AE710B504460CB9A0
:1035A000012010BD94F83D0028B9002084F83C00AB
:1035B000204600F00CF8022084F83D00211D206810
:1035C00001F048F8012084F83D000020E9E7704749
:1035D00010B5044620680069C0F34000D8B12068E7
:1035E000C068C0F34000B0B16FF00200216808610C
:1035F000012020772068806900F0030018B1204680
:10360000FFF75AFF05E0204600F0ECF8204600F0F6
:10361000BFF90020207720680069C0F38000D8B18E
:103620002068C068C0F38000B0B16FF0040021686A
:103630000861022020772068806900F4407018B18A
:103640002046FFF739FF05E0204600F0CBF8204682
:1036500000F09EF90020207720680069C0F3C000C8
:10366000D8B12068C068C0F3C000B0B16FF00800E6
:1036700021680861042020772068C06900F00300F9
:1036800018B12046FFF718FF05E0204600F0AAF821
:10369000204600F07DF90020207720680069C0F303
:1036A0000010D8B12068C068C0F30010B0B16FF04E
:1036B000100021680861082020772068C06900F4A4
:1036C000407018B12046FFF7F7FE05E0204600F0F5
:1036D00089F8204600F05CF9002020772068006916
:1036E00000F0010058B12068C06800F0010030B15E
:1036F0006FF0010021680861204600F04BF9206856
:103700000069C0F3C01058B12068C068C0F3C01091
:1037100030B16FF08000216808612046FFF783FD1B
:1037200020680069C0F3002058B12068C068C0F369
:10373000C01030B16FF48070216808612046FFF737
:1037400071FD20680069C0F3801058B12068C0681E
:10375000C0F3801030B16FF040002168086120464E
:1037600000F0E4F920680069C0F3401058B1206807
:10377000C068C0F3401030B16FF0200021680861CC
:103780002046FFF751FD10BD10B586B00446142148
:1037900001A8FCF71CFD1049206888421AD100BF1F
:1037A0000E48406940F480200C4948610846406951
:1037B00000F48020009000BF00BF01200190022093
:1037C00002900020039004900220059001A9044873
:1037D000FEF79CF806B010BD000400400010024047
:1037E00000040048704770B504460D46164600BFF9
:1037F00094F83C00012801D1022070BD012084F81A
:103800003C0000BF022084F83D000C2E51D005DCA6
:103810004EB1042E1ED0082E7AD133E0102E60D087
:10382000142EF9D175E02946206800F087FF206842
:10383000806940F00800216888612068806920F074
:10384000040021688861206880692969084321682B
:10385000886177E02946206800F0C8FF2068806909
:1038600040F40060216888612068806920F48060ED
:103870002168886120688069296940EA01202168FF
:1038800088615FE02946206801F00EF82068C06971
:1038900040F008002168C8612068C06920F0040079
:1038A0002168C8612068C069296908432168C86126
:1038B00048E02946206801F053F82068C06940F4C8
:1038C00000602168C8612068C06920F480602168B8
:1038D000C8612068C069296940EA01202168C8617F
:1038E00030E02946206801F079F82068406D40F00A
:1038F0000800216848652068406D20F004002168B8
:1039000048652068406D296908432168486519E0C9
:1039100017E02946206801F09BF82068406D40F4CC
:103920000060216848652068406D20F4806021684F
:1039300048652068406D296940EA01202168486592
:1039400000E000BF00BF012084F83D0000BF002060
:1039500084F83C0000BF00BF4FE710B504460CB927
:10396000012010BD94F83D0028B9002084F83C00E7
:10397000204600F00CF8022084F83D00211D20684C
:1039800000F068FE012084F83D000020E9E7704760
:103990007047000010B5044658492068884247D156
:1039A0005748007801282ED156480078012815D1B3
:1039B0005548008855490988884209DB002051494B
:1039C000087001205249087000204F49088093E098
:1039D0004D480088401C4C4908808DE04A480088CA
:1039E0004C490988884208DB01204649087048494B
:1039F00008700020444908807EE043480088401C4D
:103A00004149088078E04048008843490988884255
:103A100005DA3D480088401C3B4908806CE00020E6
:103A200037490870384908802046FFF78DFC63E06D
:103A30002068B0F1804F5FD1384909684869FDF7C7
:103A400083FC3649096848690A21FDF7B9FB334907
:103A500009684869FDF742FA314908603148006851
:103A600064281BD2084600680F2809D2084600685F
:103A7000C0F10F002C49096808442B49086007E091
:103A8000274800680F382849096808442649086013
:103A900024480068401C234908602DE02048006845
:103AA00040B91E49096800231A46C8681021FDF76D
:103AB00017FE21E01C480068B0F5704F09D917497E
:103AC000096840F6FF730022C8681021FDF708FE60
:103AD00007E01249096800231A46C8681021FDF75B
:103AE000FFFD0E490968C8681021FDF70FFE002090
:103AF0000C4908600C49086010BD0000000400403B
:103B00005C0000204900002046000020400000200A
:103B10004800002042000020440000203C0000201B
:103B200058000020500000205400002070477047CB
:103B3000704700002DE9F04104462068C5692068FF
:103B4000066805F00F08B8F1000F0AD105F0200053
:103B500038B106F0200020B1204601F060F9BDE840
:103B6000F08120688768B8F1000F7DD007F0010070
:103B700018B906F49070002876D005F0010048B11D
:103B800006F4807030B1012021680862E06E40F0D8
:103B90000100E06605F0020048B107F0010030B115
:103BA000022021680862E06E40F00400E06605F043
:103BB000040048B107F0010030B104202168086218
:103BC000E06E40F00200E06605F0080060B106F02B
:103BD000200010B907F0010030B108202168086208
:103BE000E06E40F00800E066E06E68B305F020008B
:103BF00028B106F0200010B1204601F010F9E06E67
:103C000000F0080028B92068806800F040004028D3
:103C100024D1204601F0E3F82068806800F04000DD
:103C2000402817D12068806820F040002168886013
:103C3000606E58B12148616E4863606EFDF79CFD6F
:103C400010B1606E416B88470DE00DE02046FFF734
:103C50006FFF08E02046FFF76BFF04E02046FFF708
:103C600067FF0020E0667AE705F4801078B107F47A
:103C7000800060B14FF4801021680862202084F831
:103C8000690084F86A002046FFF751FF67E705F0F6
:103C9000800030B106F0800018B1204601F07AFAB9
:103CA0005DE705F0400030B106F0400018B1204655
:103CB00001F0A5F853E700BF51E70000C74D000829
:103CC00010B504460CB9012010BDA06900B100E098
:103CD00000BF94F8690028B9002084F868002046E5
:103CE00000F02AF8242084F869002068006820F099
:103CF000010021680860204601F0D6F8012800D1B3
:103D0000E2E7606A10B1204600F0A7FF2068406833
:103D100020F49040216848602068806820F02A00E4
:103D2000216888602068006840F001002168086010
:103D3000204601F00EF8C7E710B586B004461421FE
:103D400001A8FCF744FA1B492068884230D100BF23
:103D50001948806940F480401749886108468069A5
:103D600000F48040009000BF00BF00BF08464069DB
:103D700040F4002048610846406900F400200090AB
:103D800000BF00BF3020019002200290002003906D
:103D9000032004900720059001A90848FDF7B6FD0F
:103DA000002211462520FEF722F82520FEF712F802
:103DB00006B010BD00380140001002400008004865
:103DC00010B5034693F86A00202847D101B10AB91B
:103DD000012010BD00BF93F86800012801D1022026
:103DE000F7E7012083F8680000BF5965A3F8582061
:103DF000A3F85A2000BF9868B0F5805F0AD118690F
:103E000020B940F2FF10A3F85C000EE0FF20A3F8F9
:103E10005C000AE0986840B9186918B9FF20A3F857
:103E20005C0002E07F20A3F85C0000BF0020D866A1
:103E3000222083F86A0000BF002083F8680000BFDA
:103E40001868806840F001001C68A060186800686D
:103E500040F490701C6820600020BAE70220B8E7A8
:103E600010B504461548007810BB154920688842F3
:103E700023D1642301221349204600F029F8114878
:103E800000780D280BD00F4800780F490F4A128890
:103E900088540E480088401C0C49088002E001202C
:103EA00006490870012207492046FFF789FF04E010
:103EB000012204492046FFF783FF10BD3A0000208D
:103EC000003801403B0000203C0700203800002063
:103ED0002DE9F84304460D4616461F464FF00009EB
:103EE00094F86900202854D105B116B90120BDE825
:103EF000F88300BF94F86800012801D10220F6E79A
:103F0000012084F8680000BF00205034E0612120C7
:103F10006076FDF7E7FD814626806680503C21E013
:103F2000B4F85200401EA4F852004B4600228021F3
:103F30002046009701F063F908B10320D7E7A06895
:103F4000B0F5805F0AD1206940B9A846B8F80000F2
:103F5000C0F3080021680885AD1C03E015F8010BCB
:103F600021680885B4F852000028D9D14B460022B8
:103F700040212046009701F042F908B10320B6E73E
:103F8000202084F8690000BF002084F8680000BF8A
:103F9000ADE70220ABE7704700BFFEE700B589B090
:103FA000002006900790089018216846FCF70FF94A
:103FB0004FF0A0401D4908600020486000211B48C8
:103FC000816001610121C161002141620163012120
:103FD000C1620021C160012101620021416304210D
:103FE0004161002181618163FCF77CFF08B1FCF72E
:103FF0007EFC0020069006A90C48FCF779FC08B16D
:10400000FCF775FC02200090012001900020039035
:104010000720029000200490059069460348FCF7B1
:1040200029FD08B1FCF763FC09B000BDC800002001
:1040300000B587B0182101A8FCF7C9F8184819493C
:10404000086000204860002116488160016101215C
:10405000C1610021416201630121C1620021C1608F
:10406000012101620021416304214161002181613C
:104070008163FCF737FF08B1FCF739FC072001909A
:10408000012002900020049003900590069001A961
:104090000448FCF7EFFC08B1FCF729FC07B000BDB1
:1040A000000100501C0100200EB50020009001907E
:1040B00002900B480B4908600846FDF793FA08B1D7
:1040C000FCF715FC042000900020019000226946B6
:1040D0000448FDF714FA08B1FCF709FC0EBD000016
:1040E000007400407000002008B500BF0A48406915
:1040F00040F00100084948610846406900F00100AD
:10410000009000BF00BF002211460D20FDF76FFE9A
:104110000D20FDF75FFE08BD0010024000B587B01E
:10412000142102A8FCF753F800BF3948406940F455
:104130000010374948610846406900F400100190BA
:1041400000BF00BF00BF0846406940F4002048613E
:104150000846406900F40020019000BF00BF00BF86
:104160000846406940F4800048610846406900F410
:104170008000019000BF00BF00BF0846406940F4C6
:10418000003048610846406900F40030019000BFEB
:1041900000BF00BF0846406940F4802048610846DF
:1041A000406900F48020019000BF00BF00224FF65C
:1041B00008711848FDF790FC3720029016480390CC
:1041C0000020049002A91348FDF7A0FB4FF60870E9
:1041D00002900120039000200490059002A90D4850
:1041E000FDF794FB0120029000200390049002A9A7
:1041F0004FF09040FDF78AFB0220029001200390CF
:104200000020049002A90548FDF780FB07B000BD1F
:104210000010024000100048000012100004004886
:1042200010B5124812490860124848600021104831
:1042300081600121C1600021016141618161C16131
:104240000162FDF7BFFC08B1FCF751FB00210848F3
:10425000FDF74EFC08B1FCF74AFB00210448FDF7CE
:104260007CFC08B1FCF743FB10BD0000005400408B
:10427000700100200E09002010B511481149086096
:104280004FF48270486000210E4881604FF4E06175
:10429000C160022101610121416149028161002166
:1042A000C1610162416281620721C1620021016333
:1042B00008214163FEF7FAFE08B1FCF718FB10BDB8
:1042C00000300140BC01002000B58BB000200790F9
:1042D000089009900A900490059006900090019033
:1042E000029003904FF080401E4908600020486013
:1042F00000211C48816042F6E061C160002101613B
:104300008161FEF7C9FF08B1FCF7F1FA4FF4805064
:10431000079007A91348FFF733F808B1FCF7E7FA4D
:104320001048FFF73AF908B1FCF7E1FA00200490D1
:10433000069004A90B48FEF779FF08B1FCF7D7FAFD
:1043400000200090012001900020029003900022A4
:1043500069460448FFF7B1F808B1FCF7C8FA0BB09A
:1043600000BD00006002002000B58FB000200B905F
:104370000C900D900E90089009900A901C2101A8B5
:10438000FBF725FF1F4820490860072048600021EF
:104390001D48816040F6B731C16000210161816133
:1043A000FEF77AFF08B1FCF7A2FA4FF480500B90A9
:1043B0000BA91548FEF7E4FF08B1FCF798FA12487C
:1043C000FFF7CBFA08B1FCF792FA002008900A90A8
:1043D00008A90D48FEF72AFF08B1FCF788FA60200B
:1043E00001900020029003900590082201A9064840
:1043F000FFF7F9F908B1FCF77AFA0348FFF7C4F9B7
:104400000FB000BD00040040200200200EB50020C7
:104410000090019002900E480E490860012048600B
:1044200000210C488160D221C16000218161FEF72A
:1044300033FF08B1FCF75BFA2020009000200290C7
:1044400069460448FEF7F2FE08B1FCF750FA0EBDCB
:1044500000100040E402002010B50D480D4908602E
:104460004FF49640486000210A488160C1600161B4
:104470000C21416100218161C16101620020054977
:1044800048620846FFF71CFC08B1FCF730FA10BD83
:10449000003801402403002010B50A480A4908608A
:1044A000082048600221084881600021C160022183
:1044B0000161002181610162FDF7ECFC08B1FCF7AC
:1044C00016FA10BD005C00409403002000BFFEE718
:1044D0007047000002480068C0F3022070470000E7
:1044E0000CED00E010B5002807DA0A07140E054AA3
:1044F00000F00F031B1FD45403E00A07130E024AF7
:10450000135410BD18ED00E000E400E07047704760
:1045100010B5FDF7F7FB10BD00B59FB0282115A819
:10452000FBF755FE142110A8FBF751FE3C2101A812
:10453000FBF74DFE032015904FF4A02016900020AD
:1045400017900120199010201A9002201C90C1038E
:104550001D91C1041E9115A8FEF7A6F808B1FCF73D
:10456000C6F90F20109002201190002012904FF4F5
:104570008060139000201490012110A8FDF7C8FE60
:1045800008B1FCF7B4F909480190002003900890A5
:104590004FF480000F9080130A9001A8FDF744FDAE
:1045A00008B1FCF7A4F91FB000BD0000A100020093
:1045B0001948006840F470001749086017480068FF
:1045C00040F0010015490860084640681449084059
:1045D0001249486008460068124908400F490860BF
:1045E0000846006820F4802008600846406820F4EF
:1045F000FE0048600846C06A20F00F00C862084606
:10460000006B094908400549086300208860C80319
:10461000014980390860704788ED00E000100240D1
:104620000CC07FF8FFFFF6FECCFC00FF10B502487F
:10463000FEF7CEFF10BD00002002002010B5034899
:10464000FEF7C6FF0248FCF788FF10BDE402002019
:104650007000002010B500220268264B98420BD053
:10466000B0F1804F08D0244B984205D0234B98429C
:1046700002D0234B984203D122F070024B681A43B8
:104680001C4B984214D0B0F1804F11D01A4B984275
:104690000ED01A4B98420BD0194B984208D0194BA8
:1046A000984205D0184B984202D0184B984203D13B
:1046B00022F44072CB681A4322F080034C6943EA2B
:1046C000040202608B68C3620B688362094B9842E4
:1046D0000BD00B4B984208D00A4B984205D00A4B9E
:1046E000984202D0094B984201D10B690363012320
:1046F000436110BD002C0140000400400008004050
:1047000000340140004001400044014000480140A5
:1047100030B50C460021816821F47F4142EA03252F
:1047200025432943816030BD0A460021816821F07C
:10473000700142F0070319438160704730B50024CF
:1047400000220023056A25F001050562026A43681C
:104750008469204D2C4024F003040D682C4322F082
:1047600002028D682A431C4DA84200D10FE01B4D68
:10477000A84200D10BE01A4DA84200D107E0194D24
:10478000A84200D103E0184DA84206D100BF22F094
:104790000802CD682A4322F004020F4DA8420BD034
:1047A0000E4DA84208D00E4DA84205D00D4DA8428E
:1047B00002D00D4DA84207D123F4807323F4007377
:1047C0004D692B438D692B43436084614D6845637C
:1047D000026230BD8FFFFEFF002C0140003401401B
:1047E00000400140004401400048014030B5002431
:1047F00000220023056A25F010050562026A43685D
:104800008469234D2C4024F440740D6844EA052447
:1048100022F020028D6842EA05121E4DA84200D106
:104820000FE01D4DA84200D10BE01C4DA84200D165
:1048300000BF1B4DA84200D100BF1A4DA84207D1AE
:1048400006E022F08002CD6842EA051222F0400222
:10485000104DA8420BD0104DA84208D00F4DA842D1
:1048600005D00F4DA84202D00E4DA84209D123F425
:10487000806323F400634D6943EA85038D6943EA4D
:104880008503436084614D688563026230BD00002A
:10489000FF8FFFFE002C014000340140004001402A
:1048A000004401400048014030B5002400220023AC
:1048B000056A25F480750562026A4368C469224D61
:1048C0002C4024F003040D682C4322F400728D6800
:1048D00042EA05221D4DA84200D10FE01C4DA8421E
:1048E00000D10BE01B4DA84200D100BF1A4DA842D9
:1048F00000D100BF194DA84207D106E022F40062A2
:10490000CD6842EA052222F48062104DA8420BD005
:104910000F4DA84208D00F4DA84205D00E4DA84219
:1049200002D00E4DA84209D123F4805323F4005342
:104930004D6943EA05138D6943EA05134360C46179
:104940004D68C563026230BD8FFFFEFF002C014041
:104950000034014000400140004401400048014053
:1049600030B5002200230024056A25F48055056235
:10497000036A4468C269134D2A4022F440720D68EC
:1049800042EA052223F400538D6843EA05330E4DB5
:10499000A8420BD00D4DA84208D00D4DA84205D01D
:1049A0000C4DA84202D00C4DA84204D124F48044FE
:1049B0004D6944EA85144460C2614D680564036230
:1049C00030BD0000FF8FFFFE002C0140003401408D
:1049D00000400140004401400048014030B500243F
:1049E00000220023056A25F480350562026A4368C7
:1049F000446D114D2C400D682C4322F400320D897A
:104A000042EA05420D4DA8420BD00D4DA84208D0F8
:104A10000C4DA84205D00C4DA84202D00B4DA84227
:104A200004D123F480334D6943EA05234360446590
:104A30004D688565026230BD8FFFFEFF002C01408E
:104A40000034014000400140004401400048014062
:104A500030B5002400220023056A25F48015056284
:104A6000026A4368446D124D2C400D6844EA0524E7
:104A700022F400120D8942EA05520E4DA8420BD0D5
:104A80000D4DA84208D00D4DA84205D00C4DA842AE
:104A900002D00C4DA84204D123F480234D6943EA8F
:104AA0008523436044654D68C565026230BD0000E2
:104AB000FF8FFFFE002C0140003401400040014008
:104AC000004401400048014030B50B461446002127
:104AD0000022026A056A25F001050562816921F05C
:104AE000F00141EA041122F00A021A4381610262D4
:104AF00030BD000070B50C46154600210022066A44
:104B000026F0010606628169026A154EB0420ED097
:104B1000B0F1804F0BD0134EB04208D0124EB042CD
:104B200005D0124EB04202D0114EB04201D1012642
:104B300000E000261EB121F00301294301E041F00D
:104B4000010121F0F001F02606EA0316314322F0BC
:104B50000A0204F00A0632438161026270BD00005D
:104B6000002C0140000400400008004000340140D7
:104B70000040014030B50B46144600210022056A72
:104B800025F0100505628169026A21F4704141EA4D
:104B9000043122F0A00242EA03128161026230BDB8
:104BA00070B50C46154600210022066A26F0100654
:104BB00006628169026A21F4407141EA052121F40B
:104BC00070414FF4704606EA0336314322F0A002EA
:104BD000A02606EA041632438161026270BD70B5F8
:104BE0000C46154600210022066A26F480760662ED
:104BF000C169026A21F00301294321F0F001F02686
:104C000006EA0316314322F420624FF4206606EAD6
:104C100004263243C161026270BD70B50C46154670
:104C200000210022066A26F480560662C169026AE3
:104C300021F4407141EA052121F470414FF470469E
:104C400006EA0336314322F420424FF4204606EAB6
:104C500004363243C161026270BD90F8241001F045
:104C6000010139B10168496821F40031826A1143B8
:104C70000268516090F8241001F00201022907D166
:104C80000168496821F48031C26A114302685160A9
:104C900090F8241001F00401042907D10168496843
:104CA00021F48021026B11430268516090F82410B6
:104CB00001F00801082907D10168496821F4004181
:104CC000426B11430268516090F8241001F010010A
:104CD000102907D10168896821F48051826B114342
:104CE0000268916090F8241001F02001202907D17A
:104CF0000168896821F40051C26B11430268916018
:104D000090F8241001F04001402913D1016849684E
:104D100021F48011026C114302685160016CB1F5FD
:104D2000801F07D10168496821F4C001426C11431A
:104D30000268516090F8241001F08001802907D1A9
:104D40000168496821F40021826C114302685160B6
:104D5000704738B5044600250020E066FCF7C2FE27
:104D600005462068006800F0080008280CD16FF0A4
:104D70007E402B4600224FF400110090204600F0A8
:104D80003EFA08B1032038BD2068006800F0040036
:104D900004280CD16FF07E402B4600224FF4800196
:104DA0000090204600F02BFA08B10320EBE720200A
:104DB00084F8690084F86A0000BF002084F8680065
:104DC00000BF00BFDFE770B505466C6A0020A4F89D
:104DD0005A00A4F852002046FEF7AAFE70BD0168F2
:104DE000096821F49071026811600168896821F0F6
:104DF000010102689160202180F86A10704710B5A7
:104E000004462068006820F04000216808602020E7
:104E100084F869002046FFF7BEF8002010BD2DE998
:104E2000F0410446B4F85C7094F86A00222833D14B
:104E30002068858CA068B0F5805F09D1206938B9F9
:104E4000666D05EA07003080606D801C606505E0D6
:104E5000F8B22840626D511C61651070B4F85A00B8
:104E6000401E80B2A4F85A00A0B92068006820F45F
:104E70009070216808602068806820F00100216837
:104E80008860202084F86A002046FEF7E9FF0020B1
:104E9000BDE8F0810020FBE72068806940F0080051
:104EA000216888610220F3E72DE9F04704460025D8
:104EB00010260027A846A9462169A0680843616911
:104EC0000843E16940EA01052068006849F20C6185
:104ED00088432843216808602068406820F44050D7
:104EE000E168084321684860216AA06940EA010539
:104EF0002068806820F4306028432168886000BF03
:104F00009C492068884216D19B48006B00F0030042
:104F100030B1012808D0022808D0032808D101E0C8
:104F2000012607E0022605E0042603E0082601E04A
:104F3000102600BF78E091492068884219D18E4838
:104F4000006B00F4403048B1B0F5803F0AD0B0F5B6
:104F5000003F09D0B0F5403F08D101E0002607E04E
:104F6000022605E0042603E0082601E0102600BF23
:104F70005AE083492068884219D17F48006B00F4C9
:104F8000402048B1B0F5802F0AD0B0F5002F09D0ED
:104F9000B0F5402F08D101E0002607E0022605E029
:104FA000042603E0082601E0102600BF3CE0754916
:104FB0002068884219D17048006B00F4401048B155
:104FC000B0F5801F0AD0B0F5001F09D0B0F5401F22
:104FD00008D101E0002607E0022605E0042603E0F0
:104FE000082601E0102600BF1EE0674920688842BD
:104FF00019D16148006B00F4400048B1B0F5800F52
:105000000AD0B0F5000F09D0B0F5400F08D101E08B
:10501000002607E0022605E0042603E0082601E05A
:10502000102600BF00E0102600BFE069B0F5004F79
:1050300052D1042E2BD005DC4EB1012E12D0022EFF
:105040003BD11AE0082E2DD0102E36D136E0FDF7D8
:10505000B9FA4000616800EB5100B0FBF1F01FFAB3
:1050600080F82EE0FDF7C4FA4000616800EB5100C3
:10507000B0FBF1F01FFA80F823E04449606801EBCF
:1050800050006168B0FBF1F01FFA80F819E0FDF7FD
:10509000C5FA4000616800EB5100B0FBF1F01FFA67
:1050A00080F80EE04FF48031606801EB50006168D9
:1050B000B0FBF1F01FFA80F803E000BF4FF00109E8
:1050C00000BF00BF4FF6F07008EA0007C8F34200C7
:1050D00007432068C7604AE0042E2CD005DC4EB19F
:1050E000012E12D0022E3DD11AE0082E2ED0102E05
:1050F00038D138E0FDF766FA616800EB5100B0FB8B
:10510000F1F080B22168C86030E0FDF771FA6168A3
:1051100000EB5100B0FBF1F080B22168C86025E0DF
:105120001B49606801EB50006168B0FBF1F080B290
:105130002168C8601AE0FDF771FA616800EB510060
:10514000B0FBF1F080B22168C8600FE04FF400417D
:10515000606801EB50006168B0FBF1F080B221683B
:10516000C86003E000BF4FF0010900BF00BF484620
:10517000BDE8F087003801400010024000440040C4
:1051800000480040004C0040005000400024F40063
:1051900000127A00014691F8690021282DD1B1F85A
:1051A000520068B90868006820F080000B68186039
:1051B0000868006840F040000B68186000207047E5
:1051C0008868B0F5805F0BD1086948B9CA6C10884F
:1051D000C0F308000B681885C86C801CC86405E023
:1051E000CB6C581CC86418780B681885B1F852004D
:1051F000401EA1F852000020E1E70220DFE72DE980
:10520000F04104460D4617469846069E21E0701C64
:10521000F8B12EB1FCF766FCA0EB0800B04218D93B
:105220002068006820F4D0702168086020688068D9
:1052300020F0010021688860202084F8690084F84B
:105240006A0000BF002084F8680000BF0320BDE8AA
:10525000F0812068C0692840A84201D1012000E007
:105260000020B842D3D00020F1E7000010B502487A
:10527000FEF760FC10BD00002403002000BFFEE725
:1052800002E008C8121F08C1002AFAD1704770470F
:10529000002001E001C1121F002AFBD1704700006D
:1052A000002000BF04E00021034A1154411CC8B291
:1052B0001028F8DB704700003C0700200149086017
:1052C000704700003C000020FCF728FDFFF724F9A0
:1052D000FEF724FFFEF708FFFEF7A2FFFEF7CCFF64
:1052E000FFF7DAF8FEF7E0FEFEF7A2FEFEF756FE45
:1052F000FFF78CF8FFF738F8FEF7E6FFFFF7ACF89A
:10530000064800F061F80648FFF7D8FF04E00548BA
:1053100000F020F800F008F8F9E70000240300206E
:105320001C0000200000002010B508490968C8686A
:105330000021FCF7EBF905490968C8680449002217
:105340000B681146FCF7CCF910BD00003C000020B2
:105350004C0000201CB504461348007810B31348D5
:10536000007841280FD0472816D10120207004F181
:105370001000011F0B1F221DCDE900100CA10B48CE
:10538000FAF730FF08E00120207504F118020CA1A3
:105390000648FAF727FF00BF00BFFFF781FF002094
:1053A000014908701CBD00003A0000203C070020A5
:1053B0004720256420256420256420256400000002
:1053C000412025640000000010B504460122024976
:1053D0002046FEF7F5FC10BD3B000020020304054B
:1053E000060708090A0B0C0D0E0F1010010203042A
:1053F00005060708090A0B0C0D0E0F10000000002F
:105400000000000001020304060708090000000074
:1054100001020304DDDDDDDDDCBBBBDDDDDDDDDD6B
:10542000DDDDDDDD988888888888888877777777DC
:1054300077888888855555566666666666666666A8
:105440006668888883333332222222222222222253
:105450002228888D7454000800000020700000008D
:1054600080520008E454000870000020E00A0000A8
:1054700090520008000000002C00000019000000FD
:105480003200000003000000000000000A000000DD
:105490002002002060020020E402002070000020B2
:1054A000C80000201C0100200000002000000000B7
:1054B00000000000F401E803E80300000100000020
:1054C00000000000000000000000000000000000DC
:1054D00000000202000000001000000001000000B7
:0454E00000127A003C
:040000050800018965
:00000001FF
