:100000000C9434000C9451000C9451000C94510049
:100010000C9451000C9451000C9451000C9451001C
:100020000C9451000C9451000C9451000C9451000C
:100030000C9451000C9451000C9451000C945100FC
:100040000C9451000C9451000C9451000C945100EC
:100050000C9451000C9451000C9451000C945100DC
:100060000C9451000C94510011241FBECFEFD8E026
:10007000DEBFCDBF12E0A0E0B1E0E6E4FBE002C0ED
:1000800005900D92A230B107D9F722E0A2E0B2E0CC
:1000900001C01D92A631B207E1F70E9453000C94F3
:1000A000A1050C940000CF93DF93CDB7DEB7A797DF
:1000B0000FB6F894DEBF0FBECDBF24E2CE0101968D
:1000C000FC01322F11923A95E9F71DA2CE0101965B
:1000D0009FA38EA30E9476000E94FA00FC01228159
:1000E0003381CE018596F9010995F6CFCF93DF9341
:1000F000CDB7DEB785EC90E0FC01108284EC90E097
:1001000027E6FC01208381EC90E028E1FC012083BC
:1001100082EC90E026E0FC01208380E0DF91CF912B
:100120000895CF93DF9300D0CDB7DEB79A8389834C
:1001300080EC90E0FC01808188234CF486EC90E018
:10014000FC01208189819A81FC01208305C089817D
:100150009A812AE2FC01208300000F900F90DF912A
:10016000CF910895CF93DF931F92CDB7DEB78983E8
:10017000000080EC90E0FC018081882F90E080728C
:100180009927892BB1F386EC90E02981FC0120832B
:1001900000000F90DF91CF9108950F931F93CF939D
:1001A000DF9300D01F92CDB7DEB79B838A8319827D
:1001B0000EC08981882F90E02A813B81820F931F96
:1001C000FC0180810E94B20089818F5F89838981CF
:1001D000082F10E08A819B810E94BA020817190734
:1001E00040F300000F900F900F90DF91CF911F917F
:1001F0000F910895CF93DF93CDB7DEB780910E02B4
:1002000090910F02880F991F880F991F82549E4F5B
:10021000DF91CF910895CF93DF9300D01F92CDB798
:10022000DEB79B838A838AE28983CE0101960E948E
:10023000910089818A3289F189818D30E9F4809138
:100240000302882F90E029818C5F9D4FFC01208361
:10025000809103028F5F8093030280910302882FB5
:1002600090E08C5F9D4FFC01108281E090E09093C4
:100270000F0280930E0211C089810E94B20080910A
:100280000302882F90E029818C5F9D4FFC01208321
:10029000809103028F5F8093030200000F900F9004
:1002A0000F90DF91CF910895CF93DF9300D0CDB71A
:1002B000DEB79A83898389819A810E948D01882380
:1002C00021F48AEC91E00E94CD0082EE91E00E9440
:1002D000CD0084E092E00E94BA02AC0160E370E0DD
:1002E00084E092E00E94AA021092030210920F0290
:1002F00010920E0200000F900F90DF91CF910895A1
:10030000CF93DF9300D0CDB7DEB79A838983000007
:100310000F900F90DF91CF910895CF93DF93CDB7DA
:10032000DEB7C354D1090FB6F894DEBF0FBECDBF00
:100330009E012E5B3F4FF9019183808319821A82BF
:100340001D8281E08B83A7C08A81082E000C990B47
:100350008C5F9D4FFC0180818D838D81082E000C68
:10036000990B8032910539F08A33910521F10D976F
:1003700009F441C071C08981282F880F330B8A810D
:10038000482F880F550BC901880F991F820F931FA3
:10039000880F991F880F991F9E012F5F3F4F820F73
:1003A000931F840F951F0596FC01108289818F5F32
:1003B00089831A8270C08981282F880F330BC90165
:1003C000880F991F820F931F880F991F880F991FFD
:1003D0009C018A81082E000C990B820F931F9E01AD
:1003E0002A5F3F4F820F931FFC01108289818F5F2C
:1003F00089831A8250C08981282F880F330B8A8104
:10040000482F880F550BC901880F991F820F931F22
:10041000880F991F880F991F9E012F5F3F4F820FF2
:10042000931F840F951F0596FC0110828981282F48
:10043000880F330BAE014A5F5F4FC901880F991FC8
:10044000820F931F880F991F880F991F840F951F84
:100450000E94CD001B821FC08981282F880F330B7B
:100460008A81482F880F550BC901880F991F820F69
:10047000931F880F991F880F991F9E012F5F3F4F71
:10048000820F931F840F951F05962D81FC012083F9
:100490008A818F5F8A838B81882309F055CF1C82E4
:1004A00019C08C81082E000C990B880F991F880F9A
:1004B000991F8E5A9E4FFC0120813181CE010696F4
:1004C000B9010E94B102892B11F081E007C08C8133
:1004D0008F5F8C838C818B3124F380E0CD5BDF4F89
:1004E0000FB6F894DEBF0FBECDBFDF91CF91089558
:1004F000CF93DF9300D000D0CDB7DEB79A83898346
:100500007C836B8386EE91E0892F8F9386EE91E05A
:100510008F930E94C3020F900F9000000F900F90D6
:100520000F900F90DF91CF910895CF93DF9300D07C
:1005300000D01F92CDB7DEB79B838A837D836C8307
:10054000198200000F900F900F900F900F90DF9185
:10055000CF910895DC0101C06D9341505040E0F708
:100560000895FB01DC018D91019080190110D9F3F0
:10057000990B0895FC0101900020E9F78095909572
:100580008E0F9F1F0895A0E0B0E0E9ECF2E00C941C
:100590007A05AE014B5F5F4FFA0161917191AF0136
:1005A00080911202909113020E94D902E2E00C9411
:1005B0009605ABE0B0E0EFEDF2E00C946A056C015B
:1005C0007B018A01FC0117821682838181FFCCC1E5
:1005D000CE0101963C01F6019381F70193FD8591CF
:1005E00093FF81917F01882309F4BAC1853239F4E0
:1005F00093FD859193FF81917F01853229F4B601A6
:1006000090E00E94D004E7CF912C212C312CFFE107
:10061000F315D8F08B3279F038F4803279F08332E8
:10062000A1F4232D20611DC08D3261F0803369F467
:10063000232D216016C0832D8260382EE32DE460C7
:100640003E2E2AC0F32DF8601DC037FC2DC020EDD2
:10065000280F2A3040F08E32B9F436FC81C1232DA8
:100660002064322E19C036FE06C08AE0989E200D06
:100670001124922E11C0EAE02E9E200D1124222E6C
:10068000F32DF0623F2E08C08C3621F4832D806854
:10069000382E02C0883641F4F70193FD859193FF0F
:1006A00081917F018111B3CF982F9F7D9554933015
:1006B00028F40C5F1F4F9FE399830DC0833631F000
:1006C000833771F0833509F059C021C0F80180816A
:1006D00089830E5F1F4F88248394912C530113C08C
:1006E0002801F2E04F0E511CF801A080B18036FEC7
:1006F00003C0692D70E002C06FEF7FEFC5010E945B
:10070000C5044C018201F32DFF773F2E16C028014E
:1007100022E0420E511CF801A080B18036FE03C0D9
:10072000692D70E002C06FEF7FEFC5010E94BA042F
:100730004C01F32DF0683F2E820133FC1BC0822D4B
:1007400090E088169906B0F4B60180E290E00E942D
:10075000D0042A94F4CFF50137FC859137FE8191BE
:100760005F01B60190E00E94D00421102A9421E09C
:10077000821A91088114910471F7E8C0843611F04F
:10078000893641F5F80137FE07C0608171818281A9
:1007900093810C5F1F4F08C060817181072E000C90
:1007A000880B990B0E5F1F4FF32DFF763F2E97FF9F
:1007B00009C090958095709561957F4F8F4F9F4FA1
:1007C000F0683F2E2AE030E0A3010E940C05882E3D
:1007D000861845C0853731F4232D2F7EB22E2AE0AE
:1007E00030E025C0932D997FB92E8F36C1F018F4D3
:1007F000883579F0B5C0803719F0883721F0B0C05E
:10080000E92FE061BE2EB4FE0DC0FB2DF460BF2EBB
:1008100009C034FE0AC0292F2660B22E06C028E087
:1008200030E005C020E130E002C020E132E0F80114
:10083000B7FE07C060817181828193810C5F1F4F79
:1008400006C06081718180E090E00E5F1F4FA301C0
:100850000E940C05882E8618FB2DFF773F2E36FE52
:100860000DC0232D2E7FA22E891458F434FE0BC008
:1008700032FC09C0832D8E7EA82E05C0B82CA32C77
:1008800003C0B82C01C0B92CA4FE0FC0FE01E80DB6
:10089000F11D8081803321F49A2D997EA92E09C003
:1008A000A2FE06C0B394B39404C08A2D867809F0E2
:1008B000B394A3FC11C0A0FE06C0B21488F4280CA7
:1008C000922C9B180EC0B21460F4B60180E290E046
:1008D0000E94D004B394F7CFB21418F42B1802C0BE
:1008E000982C212CA4FE10C0B60180E390E00E9459
:1008F000D004A2FE17C0A1FC03C088E790E002C0AC
:1009000088E590E0B6010CC08A2D867859F0A1FEEA
:1009100002C08BE201C080E2A7FC8DE2B60190E04C
:100920000E94D004891438F4B60180E390E00E945C
:10093000D0049A94F7CF8A94F301E80DF11D8081D9
:10094000B60190E00E94D0048110F5CF222009F476
:1009500042CEB60180E290E00E94D0042A94F6CF05
:10096000F6018681978102C08FEF9FEF2B96E2E11F
:100970000C948605FC010590615070400110D8F779
:10098000809590958E0F9F1F0895FC0161507040D7
:1009900001900110D8F7809590958E0F9F1F0895B4
:1009A0000F931F93CF93DF93FB01238121FD03C09E
:1009B0008FEF9FEF2CC022FF16C046815781248104
:1009C00035814217530744F4A081B1819D012F5F07
:1009D0003F4F318320838C93268137812F5F3F4F98
:1009E0003783268314C08B01EC01FB010084F18561
:1009F000E02D0995892BE1F6D80116968D919C91F1
:100A00001797019617969C938E931697CE01DF91B8
:100A1000CF911F910F910895FA01AA27283051F123
:100A2000203181F1E8946F936E7F6E5F7F4F8F4F1F
:100A30009F4FAF4FB1E03ED0B4E03CD0670F781F7E
:100A4000891F9A1FA11D680F791F8A1F911DA11D63
:100A50006A0F711D811D911DA11D20D009F468949C
:100A60003F912AE0269F11243019305D3193DEF644
:100A7000CF010895462F4770405D4193B3E00FD0FA
:100A8000C9F7F6CF462F4F70405D4A3318F0495DE5
:100A900031FD4052419302D0A9F7EACFB4E0A695C8
:100AA0009795879577956795BA95C9F700976105EA
:100AB000710508959B01AC010A2E06945795479540
:100AC00037952795BA95C9F7620F731F841F951F35
:100AD000A01D08952F923F924F925F926F927F9246
:100AE0008F929F92AF92BF92CF92DF92EF92FF923E
:100AF0000F931F93CF93DF93CDB7DEB7CA1BDB0BEA
:100B00000FB6F894DEBF0FBECDBF09942A8839888E
:100B100048885F846E847D848C849B84AA84B98495
:100B2000C884DF80EE80FD800C811B81AA81B981A1
:100B3000CE0FD11D0FB6F894DEBF0FBECDBFED01B5
:060B40000895F894FFCFB8
:100B460044004500510054560041004200530052F3
:100B5600440052470052430052410047004153535C
:100B6600004D49004D450049504F00504F53004D30
:100B76004F55004D4F42004D4F53005344004C001B
:100B86004C530043530050504800535048004155C1
:100B9600580000019502020178020401780206015C
:100BA6007802090178020B0178020D0178020F0123
:100BB60078021201780215017802180178021B01E9
:100BC60078021D01780221017802240178022701AA
:100BD60078022B0178022F0178023301780237015F
:100BE60078023B0178023E01780240017802430117
:100BF6007802460178024A0178024E017802000026
:100C06000B010100540102000B014572726F722044
:100C1600696E206465636F64696E6720636D642026
:100C2600210046696E004E6F6E2D696D706C656DA4
:100C3600656E74656420636F6D6D616E642021213D
:020C46000000AC
:00000001FF
