:020000040800F2
:10000000780B00209D010008AB3E0008673B00080C
:10001000A93E0008410E0008C94800080000000081
:10002000000000000000000000000000CF3E0008BB
:10003000170F000800000000CD3E0008D13E000868
:10004000B7010008B7010008B7010008B7010008B0
:10005000B7010008B7010008B7010008B7010008A0
:10006000B7010008B7010008B7010008B701000890
:10007000B7010008A50E0008B7010008B701000885
:10008000B7010008B7010008A50C0008B701000877
:10009000B7010008B7010008B7010008B701000860
:1000A000B7010008B7010008B7010008B701000850
:1000B000B7010008B13F0008B7010008B701000808
:1000C000B7010008B7010008B7010008B701000830
:1000D000B701000891480008B7010008B7010008FF
:1000E000B7010008B7010008B7010008B701000810
:1000F000B7010008B7010008B7010008B701000800
:10010000000000000000000000000000B70100082F
:1001100005440008B7010008BD3F0008B70100080A
:10012000B7010008B7010008B7010008B7010008CF
:10013000B7010008B701000800000000000000003F
:10014000B7010008B7010008B7010008000000006F
:10015000000000000000000000000000000000009F
:100160000000000000000000B7010008B70100080F
:10017000B7010008000000000000000000000000BF
:1001800000000000B7010008DFF80CD000F0A8FB69
:100190000048004749530008780B00200648804774
:1001A00006480047FEE7FEE7FEE7FEE7FEE7FEE75C
:1001B000FEE7FEE7FEE7FEE7493F00088901000889
:1001C000202A04DB203A21FA02F00021704721FAAC
:1001D00002F3D040C2F12002914008431946704713
:1001E000D2B201E000F8012B491EFBD27047002279
:1001F000F6E710B513460A4604461946FFF7F0FF26
:10020000204610BD0FB400B58DB010A909900B9019
:1002100000914FF0FF300A9000200C9005480690A6
:10022000054807906A4609A80F9900F087F90DB0B4
:100230005DF814FB59050008770500082DE9FF5FFC
:100240001D464FF0FF3BD5E9014691465F464FF012
:100250000008A9697F1C01988847296A8246884757
:100260000028F6D1BAF1FF3F0CD024F4C064002E70
:1002700019DD600614D5BAF12B0F09D0BAF12D0F94
:100280000ED103E0584604B0BDE8F09F44F480640A
:10029000A9697F1C01988847761E8246002E02DDE0
:1002A000BAF1300F03D0B9F1000F26D032E0A969BE
:1002B000761E44F400747F1C019888478246002E05
:1002C00005DDBAF1780F06D0BAF1580F03D0B9F1B5
:1002D000000F10D01EE0B9F1000F02D0B9F1100FDD
:1002E00018D1A969761E24F400747F1C01988847F0
:1002F0008246102002E0082000E00A20814609E042
:1003000008FB0908A969761E44F400747F1C019853
:1003100088478246002E05DD4946504600F0FAF82F
:100320000028EDDAE96901988847A00502D46FF04A
:100330000100A8E7E00725D1600613D5600502D5C6
:10034000C8F1000000E0404629680A1D2A600968DB
:10035000220501D5087015E0220701D5088011E0BB
:1003600008600FE02868011D29600068210502D59A
:1003700080F8008006E0210702D5A0F8008001E0A7
:10038000C0F8008038467EE72DE9FE4F81EA03047D
:1003900004F0004421F0004100944FF0000B23F0E2
:1003A000004350EA01045ED052EA03045BD0C3F379
:1003B0000A54C1F30A552C44A4F2F3340194A0FB6F
:1003C0000254C1F3130141F48011C3F3130343F446
:1003D000801301FB024400FB034E840A970A44EA9F
:1003E000815447EA8357A4FB076802958D0A05FBF1
:1003F00007854FEA932C04FB0C542705029D4FEA16
:10040000065847EA1637B5EB08056EEB070C870E62
:10041000920E47EA811742EA8312A7FB0201B6EB6C
:100420000B0164EB00042B0D43EA0C335E1844EB24
:100430001C50DA465146E7FB0201C5F313044FEAAC
:100440000B3343EA14534FEA0432019C43EA060398
:10045000A4F10C040294009CCDE900B400F0ABF8C8
:1004600003B0BDE8F08F00200146F9E70EB540F279
:10047000334102910021CDE900110A460B4600F0FC
:100480009AF803B000BD30B50B460146002020228B
:10049000012409E021FA02F59D4205D303FA02F591
:1004A000491B04FA02F52844151EA2F10102F1DCF1
:1004B00030BD2DE9F05F0546002092469B468846F8
:1004C0000646814640241BE02846414647462246D0
:1004D000FFF776FE53465A46C01A914110D3114693
:1004E0001846224600F00EFA2D1A67EB01084F4617
:1004F00022460120002100F005FA17EB00094E41C9
:10050000201EA4F10104DFDC484631462A4643465A
:10051000BDE8F09F3A2800D2303820F02002412A6E
:1005200001D3A2F13700884201D34FF0FF3070476A
:10053000026811441378016018467047D16004497D
:1005400051610449116200211161114600F000BAA5
:100550003105000847090008426842B1016811F8F6
:10056000013B23B1521EC0E9001218467047012119
:10057000C160881E704742685AB1C368016843B9B8
:1005800083688B4205D0491E521CC0E9001200202E
:1005900070474FF0FF30704710B5141E73F1000420
:1005A00008DA401C41F1000192185B411A4301D165
:1005B00020F0010010BD2DE9F04D92469B4611B18F
:1005C000B1FA81F202E0B0FA80F22032904600F0F7
:1005D00099F904460F4640EA0A0041EA0B015346E6
:1005E0005A46084313D0114653EA010019D0C8F106
:1005F00040025046FFF7E4FD05460E465046594678
:10060000424600F07FF9084305D0012004E020466F
:100610003946BDE8F08D0020054346EAE0762C43DC
:1006200037430A986305E40AA0EB08000022FD0A9C
:1006300044EA47540A3002D500200146E9E70105A3
:1006400010196941DDE9084500196941BDE8F04D1F
:10065000A2E72DE9FE4F804681EA0300C00F0C4659
:10066000009021F0004123F00045B8EB0200A941C1
:1006700005D24046214690461C460B46024623F0D2
:100680000040104347D0270DC7F30A00C3F30A51B7
:100690000290401A019040286BDAC3F3130040F433
:1006A000801B0098924620B10023D2EB030A63EB33
:1006B0000B0B01985946C0F14002504600F022F958
:1006C00006460D4650465946019A00F02AF910EBAD
:1006D00008006141002487EA115284EAE7731A4353
:1006E00040D0009A62B3019A012A4FEA075215DC02
:1006F000001B61EB02014FF0004202EA0752CDE914
:100700000042001C41F5801132462B46FFF753FF93
:1007100003B0BDE8F08F40462146F9E7001B61EBCE
:100720000201001C41F5801300185B412018A2F55E
:10073000001747EB030140EAD570B6196D4111E08F
:100740006D084FEA360645EAC0754FEA0752001BAE
:1007500061EB0201001C41F5801149084FEA3000AD
:100760000019514132462B4603B0BDE8F04FFFF768
:1007700013BF0098012240000023D0EB020263EB7C
:10078000E073009821464FEAE074B8EB000061EB9B
:100790000401E9E783F000435BE781F0004158E79B
:1007A0002DE9F04D81EA030404F0004B21F00045EF
:1007B00014464FF0000A23F0004150EA050220D011
:1007C00054EA01021DD0C5F30A570246C5F31303CC
:1007D000C1F31300C1F30A5640F4801543F48013AB
:1007E000A7EB0608101BD64608F2FD3873EB050090
:1007F00002D308F1010801E092185B41B8F1000F43
:1008000003DA00200146BDE8F08D00204FF480118E
:10081000064684460EE0171B73EB050705D3121B33
:1008200063EB050306434CEA010C49084FEA30002C
:1008300092185B4150EA0107EDD152EA030012D051
:1008400082EA040083EA0501084305D0101BAB418E
:1008500006D20122002306E000224FF0004302E00E
:100860006FF0010253101AEB06004CEB085110EB2D
:100870000A0041EB0B01BDE8F04DFFF78DBEC1F35F
:100880000A52C1F3130140F2FF3341F480119A423E
:1008900002DA00200146704740F233439A42A2F246
:1008A000334202DC5242FFF78BBC00F02BB8000051
:1008B00030B5041E71F1000404DB4FF000444042E7
:1008C00064EB0101141E73F1000405DB1C464FF0BC
:1008D0000043524263EB0403994208BF904230BD8B
:1008E000064C074D06E0E06840F0010394E807007D
:1008F00098471034AC42F6D3FFF74AFC685800081A
:1009000088580008202A04DB203A00FA02F100206F
:1009100070479140C2F1200320FA03F3194390403D
:100920007047202A06DBCB17203A41FA02F043EA4F
:10093000E07306E041FA02F3D040C2F12002914098
:10094000084319467047C0B24FF4F05100F096B911
:100950002DE9F34F8BB04FF0000801F10C000C466D
:100960004FF0010B46460DF1080A01906269012122
:1009700001989047051E2DD0252D2CD0216A88473F
:10098000C0B16269012101989047216A8847002817
:10099000F7D1411E62690198904700E0761CA16979
:1009A0000B988847216A88470028F7D1E1690B989E
:1009B0008847DBE7A1690B9888470746A84201D121
:1009C000761CD3E7E1690B9888477F1C02D1B8F108
:1009D000000F6FD046E1002762693D463946019815
:1009E00090472A2804D16269012101989047012586
:1009F000DFF884926269012101989047A0F13001EB
:100A00000A290AD24F45E5DC07EB870100EB4107D5
:100A1000303FDFD445F01005ECE7E90601D46FF074
:100A200000476C280AD04C2814D0682815D06A28B2
:100A30000DD074281CD07A281AD01DE062690121DB
:100A4000019890476C2802D045F0040514E045F069
:100A500002050DE045F020050AE0626901210198D8
:100A60009047682802D045F0080505E045F4006588
:100A70006269012101989047C4E9015765283DD07A
:100A800019DC58287AD00CDC452837D004DC25281E
:100A900026D0412831D131E046282FD047282CD10B
:100AA0002CE05B2877D0612828D063287CD064288C
:100AB00023D15AE0D0E06F2848D008DC66281DD04A
:100AC00067281BD0692821D06E2816D127E070280E
:100AD00045D0732868D0752847D078280DD14DE0CF
:100AE000A1690B988847054625283FF469AFE1695D
:100AF0000B9888476D1C3FF46AAFB3E023466A4603
:100B00006FF001000B99AFF300809EE045F04000CC
:100B10006060A80723464FF0000236D43EE0E807A5
:100B20007FF447AF2068011D21600068290501D5C9
:100B300006701BE7290701D5068017E7A90703D52B
:100B4000F117C0E9006111E706600FE745F04000CA
:100B50006060A80723464FF0080216D41EE040F656
:100B60000E0125EA0100606016E045F0400060607B
:100B7000A80723464FF00A0207D40FE045F04000D3
:100B80006060A80708D5234610226FF001000B997A
:100B9000AFF3008059E007E0234610226FF0010018
:100BA0000B99FFF74BFB50E04FF000094F464B46C7
:100BB000632802D05B2806D040E0E80601D401207B
:100BC000A06001273AE062690121019890475E2800
:100BD00005D14FF0010962694946019890472169A2
:100BE00039B900210A46534643F82120491C0829F7
:100BF000FADBB0B3216969B9C11700EBD1625311B7
:100C00000AEB830122F01F02821A01200B68904038
:100C100003430B6062690121019890475D28E8D188
:100C2000B9F1000F09D00020514651F82020D243DD
:100C300041F82020401C0828F7DB02AB2246009731
:100C40006FF001000B99AFF3008000280CDA401C14
:100C500008D1BBF1000F05D04FF0FF300DB0BDE85B
:100C6000F08FFFE74046F9E7E90701D108F10108F5
:100C700006444FF0000B79E6CCCCCC0C7F2801D990
:100C8000002208E0064A02EB5002C007127800D1A9
:100C9000120902F00F020120904008407047000046
:100CA0002858000810B5044800F0F2FBBDE81040D9
:100CB000024800F0EDBB00009C000020F000002086
:100CC00070B5044600680022836813F00C0F50D002
:100CD000C3689B0105D5E369012B02D1A369012BF0
:100CE00022D060290CD020688268520706D582681D
:100CF000920703D4826842F0100282600C290ED061
:100D000020688268120706D58268920703D4826839
:100D100042F020028260602915D06C2911D0042590
:100D200001F06EFB064620E00C21134B02E09A42D4
:100D300011D2521C0568ED436D06F8D440220260C2
:100D4000D1E70C25ECE70825EAE700BF01F058FBE6
:100D5000801B0B2809D9606C40F010006064A06C07
:100D600040F00100A064012070BD20688068284226
:100D7000ECD1002070BD00000094090070B504465D
:100D80000068816801F00301012926D10168C907C3
:100D900023D0816801F00D01012910D1816841F053
:100DA0000201816021680320086001F029FB0546EB
:100DB0000FE000BF01F024FB401B022809D9606C42
:100DC00040F010006064A06C40F00100A0640120BD
:100DD00070BD20688068C007ECD1002070BD0000A5
:100DE00070B504460068816801F00301012902D151
:100DF0000168C90720D18168104A11420DD181686C
:100E000041F00101816001F0FBFA05460FE000BFEF
:100E100001F0F6FA401B022809D9606C40F010007E
:100E20006064A06C40F00100A064012070BD2068E7
:100E30000068C043C007EBD1002070BD3F000080B8
:100E4000FEE710B5446A204600F0E2FF0120207161
:100E500010BD10B5446A204600F0B5FF0120207196
:100E600010BD10B5446A206940F00400206120469E
:100E700000F0D1FF0120207110BD10B5446A206937
:100E800040F004002061204600F0A0FF0120207106
:100E900010BD406A00F0BDBF10B5406A00F094FF7D
:100EA00010BD0000014801F02DB90000040700202A
:100EB0000B4B01681422994207D20A4B1944B1FB2B
:100EC000F2F189000164084908E0054B5B421944CE
:100ED000B1FBF2F18900016401490839C16370472F
:100EE00008040240F8FFFDBF0000024030B590F852
:100EF00040500124AC40C56B6C600468636043687B
:100F0000102B036803D099600068C26030BD9A60FE
:100F10000068C16030BD704770470022AFF30080A9
:100F200030B50E4B054601205C7A012C15D8587A55
:100F300000241C54587A03EB800045605D7A03F16D
:100F400008002A54587A421C5A72303008703A20ED
:100F500048702F208870CC70002030BD6C070020B6
:100F60007047704770477047F0B5002302684FF034
:100F7000A04C3D4C95B01F46624501D100940DE058
:100F8000A24202D1CDF800C008E0384D384EAA4246
:100F900001D1009602E0B24214D1009590F8405081
:100FA000012D12D0012580F8405095686D0752D46C
:100FB000009DAD686D074ED4624501D0A24206D1B6
:100FC0002C4A05E0012015B0F0BD0220FBE72A4ABB
:100FD0000D6840F61F741DB39568466B25F4604597
:100FE00045EA46354E68354395600568AE6806F0BB
:100FF0000306012E02D12D68ED0731D1009DAD68A9
:1010000005F00305012D03D1009D2D68ED0727D1C3
:101010000D6889680D439168A1430D4395601FE0F9
:10102000916821F46041916001688D6805F00305C5
:10103000012D02D10968C90712D10099896801F010
:101040000301012903D100990968C90708D19168F2
:10105000A143916004E0416C41F02001416401230F
:1010600080F840701846AEE70001005000040050C0
:10107000000500500003005000070050F0B595B087
:101080000024009490F840202546012A19D0012719
:1010900080F8407003689A6852077CD44A681F261B
:1010A000052A11D2D3F830C002EB4202520096401A
:1010B0002CEA060C0E6896404CEA060CC3F830C0C9
:1010C00035E0022015B0F0BD0A2A0FD2D3F834C0A3
:1010D000521F02EB4202520096402CEA060C0E68A8
:1010E00096404CEA060CC3F834C020E00F2A0FD219
:1010F000D3F838C00A3A02EB4202520096402CEA7A
:10110000060C0E6896404CEA060CC3F838C00EE098
:10111000D3F83CC00F3A02EB4202520096402CEA50
:10112000060C0E6896404CEA060CC3F83CC00268F8
:10113000936813F00C0F4FF0070374D1D1F800E05F
:10114000BEF10A0F10D39669AEF10A0E0EEB4E0CEB
:1011500003FA0CFE26EA0E06D1F808E00EFA0CFEA1
:1011600046EA0E0696610FE0D2F814C00EEB4E066A
:1011700003FA06FE2CEA0E0CD1F808E00EFA06FE81
:101180004CEA0E0CC2F814C002684E69D2F80CC0CA
:10119000CCF3C10C00E0FDE04FEA4C0C06FA0CF673
:1011A000D1F810E0DFF848C2BEF1010F42D0BEF125
:1011B000020F4DD0BEF1030F58D0BEF1040F63D023
:1011C000166E91F800C006F0F846B6EB8C6F03D1AE
:1011D000166E26F0004616660268566E91F800C03C
:1011E00006F0F846B6EB8C6F03D1566E26F000463B
:1011F00056660268966E91F800C006F0F846B6EBA7
:101200008C6F03D1966E26F0004696660268D66E05
:1012100091F800C006F0F846B6EB8C6F03D1D66E9D
:1012200026F00046D6660268966806F00306012E90
:101230003AD136E0D2F860E00EEA0C0E91F800C028
:1012400046EA8C664EEA060E4EF000461666EAE75F
:10125000D2F864E00EEA0C0E91F800C046EA8C6603
:101260004EEA060E4EF000465666DCE7D2F868E01D
:101270000EEA0C0E91F800C046EA8C664EEA060EA5
:101280004EF000469666CEE7D2F86CE00EEA0C0E01
:1012900091F800C046EA8C664EEA060E4EF0004613
:1012A000C0E71668F6077AD1CE68012E06D052F84C
:1012B000B03F0E78B740BB43136021E052F8B06FE7
:1012C00091F800C007FA0CF73E4316600A680A2A34
:1012D0000BD30668B769093A02EB420293409F4379
:1012E0008B6893401F43B7610AE007687E69521C10
:1012F00002EB420293409E438B6893401E437E6103
:1013000003684FF0A0473B4EBB4201D0B34201D12E
:10131000394A00E0394A0968102904D0112907D058
:1013200012290AD03BE0D2F808C04FEA0C2C08E0A2
:10133000D2F808C04FEACC1C03E0D2F808C04FEA4C
:101340004C2CBCF1000F2ADBBB420DD0B34201D1C3
:1013500000970CE02A4EDFF8ACC0B34202D1CDF8C2
:1013600000C004E0634501D1009600E000959E684E
:1013700006F00306012E02D11E68F6070AD1009E70
:101380008EB1B66806F00306012E0CD1009E3668B9
:10139000F60708D0416C41F020014164012480F837
:1013A000405020468EE6102908D011291AD0122963
:1013B000F5D1916841F480019160F0E7BB42EED134
:1013C000916841F4000191600F49104A0968B1FB2E
:1013D000F2F101EB8101490000E0491E0091002972
:1013E000FBD1DCE7BB42DAD1916841F08071E3E7E1
:1013F00000F0FF8300010050000300500007005080
:1014000000040050000500509800002040420F00EA
:101410007CB50168B1F1A04F28D1154CE1780229C3
:1014200003D0BDE87C4000F0AFBC00F02EF80546CC
:10143000A0616069FFF71AF89FED0E1B53EC112BAA
:10144000FEF7A2FFCDE900012A460CA10D4803F0EA
:101450003DFA60690523401C606120691422094936
:10146000806902B0BDE8704002F022BB7CBD000084
:1014700060000020000000000010494025643A256B
:10148000660A00004807002070470068006C70473B
:101490002DE9F041044600680168C34FC34DC44EB6
:1014A00049074FF0A04802D54168490705D40168B3
:1014B000090761D5416809075ED5616CC90603D487
:1014C000616C41F4007161644146884201D0B042D0
:1014D00002D1D1F8082300E03A6812F01F0F1BD0A8
:1014E000884201D0B04202D1D1F8082300E03A6826
:1014F00002F01F02052A0FD0884201D0B04202D16B
:10150000D1F8082300E03A6802F01F02092A03D04C
:10151000884201D0A84201D1C16803E0B04200D0A6
:101520002946C968C26812F4406F1FD189041DD4CE
:10153000016809071AD5816849070FD4416821F06D
:101540000C014160606C20F480706064606CC004C9
:101550000CD4606C40F00100606407E0606C40F007
:1015600010006064A06C40F00100A0642046FFF70A
:101570004FFF21680C20086020680168890602D5A9
:101580004168890605D4016849066ED54168490657
:101590006BD5616C41F4005161644246904201D0C8
:1015A000B04202D1D2F8081300E0396811F01F0FE1
:1015B0001CD0904201D0B04202D1D2F8081300E012
:1015C000396801F01F01052910D04146884201D039
:1015D000B04202D1D1F8083300E03B6803F01F03AA
:1015E000092B03D0884201D0A84201D1C16803E091
:1015F000B04200D02946C968C36C13F0C00F07D0B1
:101600008B0154D4C36813F4406F50D189044ED475
:10161000016849064BD51146884201D0B04202D13B
:10162000D1F8082300E03A6812F01F0F1BD088425F
:1016300001D0B04202D1D1F8082300E03A6802F0AC
:101640001F02062A0FD0884201D0B04202D1D1F841
:10165000082300E03A6802F01F02072A03D08842FC
:1016600001D0A84202D1C16804E026E0B04200D017
:101670002946C96889021AD4816809070FD44168CC
:1016800021F060014160606C20F480506064606C07
:10169000C0050CD4606C40F00100606407E0606C31
:1016A00040F010006064A06C40F00100A06420468F
:1016B000FFF756FC21686020086020680168090671
:1016C0000CD54068000609D5606C40F48030606439
:1016D000204600F095F921688020086020680168A4
:1016E000C9050DD54068C0050AD5606C40F40030CE
:1016F00060642046FFF736FC21684FF48070086074
:101700002068016889050DD5406880050AD5606CA0
:1017100040F4802060642046FFF725FC21684FF4E8
:101720000070086020680168C90622D54168C906B2
:101730001FD5A16B01290ED0404501D0B04201D187
:101740001C4901E0184908398A68D20628D08868FF
:1017500000F4404050B1606C40F480606064A06C64
:1017600040F00200A0642046FFF78EFE21681020A2
:10177000086020680168490510D5416849050DD504
:10178000616C41F480416164A16C41F00801A16485
:101790004FF4806101602046FFF7E3FBBDE8F08174
:1017A000C068C007D6E700000807005000040050DA
:1017B0000001005000030050F0B54FF0000695B056
:1017C000040037463546009605D0606CC00648D404
:1017D000606C18B133E0012015B0F0BDA56425653B
:1017E000E56484F84050204600F00CF920688068D9
:1017F000C00024D42046FFF7C1FA0646606CC0063C
:101800001DD4E6B9606C20F4885040F0020060649A
:101810002068816821F0405181602068816841F032
:10182000805181606D486E490068B0FBF1F000EBBB
:101830008000400000E0401E00900028FBD120689E
:101840008168C90002D5806880000AD5606C20F0EC
:10185000020040F010006064A06C40F00100A06441
:101860000126606CC00675D4002E73D12068816893
:1018700049076FD4616C21F4807141F00201616409
:101880004FF0A04E574B704501D0984201D1564AB7
:1018900000E0564ADFF858C15649704501D100931F
:1018A0000EE0984202D1CDF800E009E0884202D172
:1018B000CDF800C004E0604501D1009100E0009542
:1018C000836803F00303012B02D10068C00710D125
:1018D000009840B1806800F00300012803D100980F
:1018E0000068C00705D19068636820F44030184351
:1018F0009060D4E902201043A26B012A02D04FF479
:10190000805300E00023E26943EA42331843636AEC
:101910003843012B0AD1F2B1626C22F0020242F08C
:1019200020026264A26C42F00102A264E26A012A0F
:1019300021D023688B4201D0634518D14FF4307712
:101940004FF4E071BA4213D04FF480739A420AD137
:1019500039460DE038E0228D274B03EB424202432B
:1019600042F48030E2E78A4201D1194600E0114694
:101970000143206B084321688A6812F00C0F0AD1DA
:10198000CA6844F202039A43CA60A169626B890380
:1019900041EA420108432268D168184B19400143CB
:1019A000D160206901282068016B21F00F0102D16C
:1019B000226A521E11430163A564606C20F002008C
:1019C00040F00100606406E0606C20F0020040F02E
:1019D0001000606401263046FEE6000098000020FA
:1019E00040420F000001005000030050000700506B
:1019F00000050050000400500000FEFF07C0F0FF8B
:101A000070470000F0B587B0044614216846FEF721
:101A1000EEFB254A2668002311680224032523488B
:101A2000491CB6F1A04F06D0214FBE423AD11160F9
:101A3000012918D01FE01160012907D1416941F047
:101A400080514161416901F080510591416941F442
:101A5000003141614069009400F40030059069460E
:101A60004FF0904012E0416941F08051416141697D
:101A700001F080510591416941F4002141614069C3
:101A8000009400F4002005900A486946CDE901530E
:101A900000F0ECFB00221146122000F015FD122090
:101AA00000F006FD07B0F0BD5C0000200010024011
:101AB00000010050000800482DE9F041044600688C
:101AC0008068400770D494F8400001280CD00120B1
:101AD00084F840002046FFF783F903004FF000062A
:101AE00005D084F8406086E00220BDE8F081606C9B
:101AF00040F60161884340F48070606420684FF0D4
:101B0000A0413E4A3E4D884201D0904202D1D1F8D8
:101B1000087300E02F6817F01F0F3A4F03D0884278
:101B200001D0B8420BD1D4F844C02CF4801CC4F8C6
:101B300044C0D0F80CC05FEA8C1C14D41BE0D4F86D
:101B400044C04CF4801CC4F844C0904202D1D1F887
:101B50000CC005E0DFF8ACC00CF10C0CDCF800C0E8
:101B60001CF0007F07D0D4F844C02CF4005C4CF487
:101B7000805CC4F844C0D4F844C05FEACC4C06D5BD
:101B8000D4F848C02CF0060CC4F848C000E0A664A5
:101B900084F840601C2606602068884201D090428C
:101BA00003D1D1F8084301E024E02C6814F01F0FA2
:101BB0001BD0884201D0904202D1D1F8084300E006
:101BC0002C6804F01F04052C0FD0884201D09042ED
:101BD00002D1D1F8082300E02A6802F01F02092A86
:101BE00003D0884201D0B84205D1816841F0040198
:101BF000816000E00223184677E7000000010050F2
:101C000008070050000400502DE9F0410446006828
:101C10008068400770D494F8400001280CD001205F
:101C200084F840002046FFF7DBF803004FF0000681
:101C300005D084F840609EE00220BDE8F081606C31
:101C400040F60161884340F48070606420684FF082
:101C5000A0414A4A4A4D884201D0904202D1D1F86F
:101C6000087300E02F6817F01F0F464F03D088421B
:101C700001D0B8420BD1D4F844C02CF4801CC4F875
:101C800044C0D0F80CC05FEA8C1C14D41BE0D4F81C
:101C900044C04CF4801CC4F844C0904202D1D1F836
:101CA0000CC005E0DFF8DCC00CF10C0CDCF800C067
:101CB0001CF0007F07D0D4F844C02CF4005C4CF436
:101CC000805CC4F844C0D4F844C05FEACC4C06D56C
:101CD000D4F848C02CF0060CC4F848C000E0A66454
:101CE00084F840601C260660606908282068466801
:101CF00003D046F00C0607E03CE026F00406466000
:101D00002068466846F008064660A06B012804D1AA
:101D10002068466826F0100646602068884201D098
:101D2000904202D1D1F8084300E02C6814F01F0F54
:101D30001BD0884201D0904202D1D1F8084300E084
:101D40002C6804F01F04052C0FD0884201D090426B
:101D500002D1D1F8082300E02A6802F01F02092A04
:101D600003D0884201D0B84205D1816841F0040116
:101D7000816000E0022318465FE700000001005088
:101D8000080700500004005010B5044690F84000C9
:101D9000012808D0012084F840006C212046FEF77D
:101DA0008FFF10B10BE0022010BD2046FEF7E6FFCA
:101DB00028B9616C21F4885141F00101616400216E
:101DC00084F8401010BD704770477047704770B579
:101DD0004379012B1AD0012646710223037105684D
:101DE0002C6840F6FE7393409C43D1E900310B43CD
:101DF000934023432B6001680B68C0249440A343A5
:101E00000B60067100214171084670BD022070BD53
:101E1000704770477047704770B5044600680168A6
:101E20004FF00405890411D5416B89040ED5257145
:101E3000216941F001012161E902416320680168E3
:101E400021F4805101602046FFF7E4FF206801681B
:101E5000890012D5416B89000FD52571216941F0A8
:101E6000020121614FF0005141632068016821F0B7
:101E7000805101602046FFF7A8FF70BD70B50400D7
:101E800003D02079002510B105E0012070BD6571F7
:101E9000204600F007F80220207125610120207102
:101EA000002070BDF0B587B0054614216846FEF7E6
:101EB0009EF92249286888423ED12149C86940F0EC
:101EC0000050C861C86900F000500590486940F4AE
:101ED000003048614869102700F4003000970590F1
:101EE00003200026CDE9010669464FF0904000F03E
:101EF000BDF9154C1348C4E900078020C4E902600D
:101F000040002061800060612020C4E90606204670
:101F100000F04CF908B1FEF7FFFF0C48016841F4EE
:101F200000510160AC60002211463620656200F06D
:101F3000CBFA362000F0BCFA07B0F0BD00740040C8
:101F40000010024030000240040700200000014061
:101F500030B54279012A12D0012242710223037165
:101F600003681D6802FA01F425431D600029016819
:101F70000B6806D0C3F383430F2B0AD00DE0022079
:101F800030BDC3F383030F2B07D14B6843F001032C
:101F900002E04B6843F002034B6002710021417183
:101FA000084630BD2DE9F04104460D4617466179DB
:101FB00000220698012920D0012666710221217194
:101FC000F5B1D4F80CC03149CCF82810D4F80CC0C5
:101FD0002F49CCF82C10D4F80CC02E49CCF8301076
:101FE0002168D1F800C04CF0805CC1F800C090B30B
:101FF000042834D0082837D134E00220BDE8F0812D
:10200000D4F808C02449CCF82810D4F808C02349D3
:10201000CCF82C10D4F808C02149CCF83010216835
:10202000D1F800C04CF4805CC1F800C020B1042895
:1020300005D0082808D105E02268083204E02268AB
:102040000C3201E0226810322068016841F400512E
:102050000160A0680EE0FFE72268143204E0226805
:10206000183201E022681C322068016841F00051FA
:102070000160E068394600F0C0F800206071206817
:102080000168AE40314301600020B7E7530E0008FD
:10209000990E00087B0E0008430E0008930E0008FE
:1020A000630E000810B502681468012303FA01F1F9
:1020B0008C4314600371002010BD10B590F82110FE
:1020C0000024022903D004218163012418E001685F
:1020D0000A6822F00E020A6001680A6822F0010212
:1020E0000A6090F84020C36B012101FA02F25A60A5
:1020F00080F82110002180F82010416B01B1884741
:10210000204610BDF0B4C16B0D6801680C68066C08
:10211000042202FA06F32B420FD063070DD50B6899
:102120009B0603D40B6823F004030B6090F8401067
:102130008A40C16B4A60C16A1BE0022303FA06F7BA
:102140002F424FF0000C4FF0010216D0A70714D514
:102150000C68A40605D40C6824F00A040C6080F80E
:10216000212090F840108B40C16B4B6080F820C05C
:10217000816A002918D0F0BC08470823B3402B42DD
:1021800012D0230710D50B6823F00E030B6090F8D4
:102190004010C36B02FA01F15960826380F821207C
:1021A00080F820C0016BE4E7F0BC704770B5040014
:1021B00021D0022084F821002268116843F6F070D3
:1021C0008143D4E901031843D4E903352B43184371
:1021D00063691843A3691843E3691843084310600F
:1021E0002046FEF765FE0020A063012184F821103F
:1021F00084F8200070BD012070BD70B5044690F8D1
:102200002000002501280CD0012084F8200094F83B
:1022100021600020012E06D084F8200002252846E7
:1022200070BD022070BD022684F82160A063206882
:10223000066826F0010606602046FEF757FEE06AB3
:1022400000282068016802D041F00E0106E041F04C
:102250000A0101602068016821F004010160206822
:10226000016841F001010160D9E700002DE9F84F54
:10227000DFF864B100234FF0010C4FF0030A4FF078
:102280000F090BF1040EA0E00CFA03F6324072D0F5
:102290004C68022C01D0122C0ED1DC0800EB840813
:1022A000D8F820405D07EF0E09FA07F5AC430D6939
:1022B000BD402543C8F8205007685D0091F80480B0
:1022C0000AFA05F408F00308A74308FA05F848EAF3
:1022D0000708C0F800804F68012F05D0022F03D0F7
:1022E000112F01D0122F11D18768D1F80C80A7438C
:1022F00008FA05F848EA0708C0F808804768B743B5
:102300000E79C6F300169E403E434660C668A6435B
:102310008C68AC403443C4604C68E40054D52F4C06
:10232000A56945F00105A561A46923F0030504F042
:10233000010400942A4C2E19B4689D072F0F09FA46
:1023400007F5AC43B0F1904F04D0264DA84203D11D
:10235000012512E0002510E0234DA84201D10225FD
:102360000BE0224DA84201D1032506E0204DA842F2
:1023700002D1042501E027E00525BD402543B560D5
:10238000DBF800405D464E689443F60300D51443E5
:102390002C60DEF8004075464E689443B60300D5C5
:1023A00014432C600C4D08352C684E689443F6029B
:1023B00000D514432C60084D0C352C684E689443AE
:1023C000B60200D514432C605B1C0A6832FA03F491
:1023D0007FF45AAFBDE8F88F0004014000100240BE
:1023E000000001400004004800080048000C0048BC
:1023F000001000480AB18161704781627047000097
:1024000001488068704700008C0000200248816805
:1024100002781144816070478C000020074810B595
:10242000016841F010010160032000F06DF8002008
:1024300000F006F800F024F8002010BD0020024053
:1024400070B50D4D04464FF47A712878B1FBF0F069
:102450000A490968B1FBF0F000F052FE48B9102CAF
:1024600007D200222146501E00F02EF800206C609A
:1024700070BD012070BD00008C000020980000207D
:102480000A4882B0816941F001018161816901F0EE
:1024900001010091C16941F08051C161C06900F042
:1024A00080500090072002B000F02EB800100240CB
:1024B00000F01F02012191404009800000F1E0205E
:1024C000C0F8001170470000F0B40E4B1B680C46BA
:1024D000C3F30223C3F10705042D00D90425191DF8
:1024E000072901D2002300E0DB1E012606FA05F1D0
:1024F000491E214099409E40761E16403143F0BC53
:1025000001F0D4BC0CED00E0064900F007020868B9
:102510004FF6FF03184040EA0220034A10430860C8
:10252000704700000CED00E00000FA0570B50400F3
:102530004FF0000604D094F87103002510B106E0B6
:10254000012070BD84F87053204600F043F803204A
:1025500084F8710301220CE0C6EBC60004EB800096
:1025600080F8292000F8286F761CC570C5600561C9
:1025700045616068B042EFD8002010E0C0EBC001B8
:1025800004EB810181F8CD5181F8CC0181F8CF5164
:10259000C1F8D851C1F8DC51401CC1F8E051616864
:1025A0008142EBD82068A0F840202068A0F8405075
:1025B0002068A0F844502068A0F8505021684FF4DB
:1025C0003F40A1F8400084F8245084F87123002093
:1025D00070BD000010B586B0044614216846FDF7B2
:1025E00006FE13492068884220D1124C606940F4ED
:1025F000003060616069694600F4003005904FF476
:10260000C05000900220019000200290032003900F
:102610000E2004904FF09040FFF728FEE06940F450
:102620000000E061E06900F40000059006B010BD14
:10263000005C0040001002402DE9F84F044600689D
:10264000804DC0036FD5E8690026C00008D4E86952
:1026500040F08050E861E869012600F08050009069
:1026600079480168C90512D40168804641F4807137
:102670000160FFF7C5FE074605E000BFFFF7C0FE9B
:10268000C01B642835D8D8F80000C005F6D5286AE4
:1026900010F4407053D0A18801F4407181424ED0B3
:1026A000286A4FF4803191FAA1F2B2FA82F29700CF
:1026B000664A4FF00108174420F44070C7F80084C0
:1026C00091FAA1F1B1FA81F102EB81010023C1F885
:1026D00000342862C00732D0FFF792FE074641F26D
:1026E000883A4FF0020907E0FFF78AFEC11B514507
:1026F00002D90320BDE8F88F99FAA9F1B1FA81F166
:1027000041F040014846B8EB511F01D129680CE067
:1027100090FAA0F1B1FA81F141F04001B0EB511F04
:1027200002D1296A01E015E0696A99FAA9F0B0FAC4
:1027300080F000F01F0008FA00F21142D4D0286A9D
:10274000616820F44070084328621EB1E86920F0F7
:102750008050E8612078C00705D0286BA16820F080
:102760000300084328632078800705D5286BE168BB
:1027700020F44030084328632078400705D5286BB3
:10278000216920F44020084328632078800605D57D
:10279000286BE16920F0100008432863206880035B
:1027A00005D56868A16B20F4800008436860207834
:1027B000400605D5286B216A20F0200008432863D5
:1027C0002078000705D5286B616920F44010084384
:1027D00028632078C00605D5286BA16920F4400045
:1027E000084328632088800505D56868E16A20F4DD
:1027F0000000084368602078000605D5E86A616A31
:1028000020F4F8700843E8622088C00505D5E86A1E
:10281000A16A20F478500843E8622088C00405D5F6
:10282000286B216B20F48070084328632088800483
:1028300005D5286B616B20F40070084328630020E5
:1028400058E70000001002400070004000004242C3
:102850002DE9F0470F46050069D04A4E306800F078
:102860000700B84209D2306820F0070038433060D2
:10287000306800F00700B84259D12878424C8007F0
:1028800005D56068A96820F0F000084360602878EA
:10289000C0073DD06968012001290DD0022923D04D
:1028A0005FF0020393FAA3F2B2FA82F242F020023E
:1028B000520904D0226803E04FF40033F2E7626A61
:1028C00093FAA3F3B3FA83F303F01F039840024291
:1028D0002DD0606820F0030008436060FFF790FD92
:1028E000804641F288390CE04FF00073DAE700BF10
:1028F000FFF786FDA0EB0801494502D90320BDE89A
:10290000F0876068696800F00C00B0EB810FEFD1D0
:10291000306800F00700B8420BD9306820F007009B
:1029200038433060306800F00700B84201D0012021
:10293000E5E72878400705D56068E96820F4E0609D
:10294000084360602878000706D56068296920F48C
:10295000605040EAC100606000F04CF86168F0220D
:1029600092FAA2F201F0F001B2FA82F2D140074AE3
:10297000515CC840064908600020FFF761FD002057
:10298000BDE700000020024000100240105800087F
:102990009800002008480949006849684FF4E0623F
:1029A00092FAA2F201F4E061B2FA82F2D140044A52
:1029B000515CC840704700009800002000100240A1
:1029C0002058000808480949006849684FF46052D7
:1029D00092FAA2F201F46051B2FA82F2D140044AB2
:1029E000515CC84070470000980000200010024071
:1029F00020580008144B10B55A68144802F00C0116
:102A000004291DD008291BD14FF4701494FAA4F4A2
:102A100002F47011B4FA84F4E1400D4CDB6A615C9D
:102A20000F2494FAA4F403F00F03B4FA84F4E340FF
:102A3000074C1034D203E35C03D5B0FBF3F04843FA
:102A400010BD0448484310BD0010024000127A0037
:102A5000F057000800093D002DE9F84F040071D03F
:102A60002078FB4DC0074FF0010625D06868770439
:102A7000C0F38100012807D06868C0F381000228F4
:102A80001BD16868C00318D597FAA7F0B0FA80F098
:102A900040F02000400901D0286800E0686A97FAF9
:102AA000A7F1B1FA81F101F01F0106FA01F1084224
:102AB00065D060680028D2D061E06068B0F5803FE2
:102AC0000BD010B1B0F5A02F17D0286820F48030BB
:102AD0002860286820F4802002E0286840F48030D4
:102AE0002860E86AA16820F00F000843E862606887
:102AF00020B3FFF785FC80460AE0286840F4802078
:102B00002860EAE7FFF77CFCA0EB0800642872D895
:102B100097FAA7F0B0FA80F040F02000400901D009
:102B2000286800E0686A97FAA7F1B1FA81F101F02C
:102B30001F0106FA01F10842E4D020E0FFF760FC33
:102B4000804607E0C7E000BFFFF75AFCA0EB080093
:102B50006428DCD897FAA7F0B0FA80F040F02000A3
:102B6000400901D0286800E0686A97FAA7F1B1FA35
:102B700081F101F01F0106FA01F10842E4D1207849
:102B8000DFF8D08280074FF0000A4FF0020759D5D6
:102B900068684FF0F80B10F00C0F07D06868C0F3AE
:102BA000810002281BD16868C00318D497FAA7F0E7
:102BB000B0FA80F040F02000400901D0286800E021
:102BC000686A97FAA7F1B1FA81F101F01F0106FADC
:102BD00001F108422BD0206901287CD127E020692F
:102BE00088B396FAA6F0B0FA80F048F82060FFF7B4
:102BF00007FC814606E055E1FFF702FCA0EB090067
:102C0000022884D897FAA7F0B0FA80F040F02000AC
:102C1000400901D0286800E0686A97FAA7F1B1FA84
:102C200081F101F01F0106FA01F10842E4D02868A1
:102C30009BFAABF26169B2FA82F220F0F80091409F
:102C40000843286025E0FFE796FAA6F1B1FA81F182
:102C500048F821A0FFF7D4FB814605E0FFF7D0FB41
:102C6000A0EB09000228CCD897FAA7F0B0FA80F0C0
:102C700040F02000400901D0286800E0686A97FA17
:102C8000A7F1B1FA81F101F01F0106FA01F1084242
:102C9000E4D1207800076AD5A069A0B396FAA6F01F
:102CA000B0FA80F008EB8000C0F88064FFF7A8FB62
:102CB000814605E0FFF7A4FBA0EB09000228A0D89D
:102CC00097FAA7F0B0FA80F040F06000B6EB501F22
:102CD00002D128680CE077E197FAA7F0B0FA80F00B
:102CE00040F06000B7EB501F01D1286A00E0686A2D
:102CF00097FAA7F1B1FA81F101F01F0106FA01F28A
:102D00001042D7D033E0FFE796FAA6F0B0FA80F091
:102D100008EB8000C0F880A4FFF772FB814605E055
:102D2000FFF76EFBA0EB090002289CD897FAA7F0EA
:102D3000B0FA80F040F06000B6EB501F01D1286877
:102D40000BE097FAA7F0B0FA80F040F06000B7EB24
:102D5000501F01D1286A00E0686A97FAA7F1B1FA1A
:102D600081F101F01F0106FA01F21042D8D120785A
:102D7000400774D5E8694FF00009C00009D4E8693C
:102D800040F08050E861E8694FF0010900F08050A0
:102D9000009031480168C90512D4016841F480717E
:102DA0000160FFF72DFB834606E000BFFFF728FB1D
:102DB000A0EB0B00642875D827480068C005F5D53E
:102DC000E06801280AD008B1052811D0286A20F04F
:102DD00001002862286A20F0040002E0286A40F01E
:102DE00001002862E068C8B3FFF70AFB83460DE0E4
:102DF000286A40F004002862F0E700BFFFF700FBFC
:102E0000A0EB0B0141F2883081424BD897FAA7F032
:102E1000B0FA80F040F04000B6EB501F01D12868B6
:102E20000BE097FAA7F0B0FA80F040F04000B7EB63
:102E3000501F01D1286A00E0686A97FAA7F1B1FA39
:102E400081F101F01F0106FA01F21042D6D035E0FF
:102E500000100240000042420070004000E034E0F8
:102E6000FFF7CEFA834607E0FFF7CAFAA0EB0B01A3
:102E700041F28830814215D897FAA7F0B0FA80F075
:102E800040F04000B6EB501F01D128680CE097FAE3
:102E9000A7F0B0FA80F040F04000B7EB501F02D12D
:102EA000286A01E083E0686A97FAA7F1B1FA81F134
:102EB00001F01F0106FA01F21042D5D1B9F1000F5D
:102EC00003D0E86920F08050E861E06980B3696868
:102ED000C1F38101022977D04FF080714F000228A1
:102EE00009D091FAA1F0B0FA80F048F820A0FFF7DD
:102EF00087FA04465EE050468A4691FAA1F1B1FA9B
:102F000081F1C14648F82100FFF77AFA804605E0D2
:102F1000FFF776FAA0EB0800022848D897FAA7F046
:102F2000B0FA80F040F02000400902D0286801E0AB
:102F300056E0686A97FAA7F1B1FA81F101F01F0132
:102F400006FA01F10842E3D1D4E9081008436968A0
:102F500021F47411084368609AFAAAF0B0FA80F07C
:102F600049F82060FFF74CFA044604E0FFF748FAFE
:102F7000001B02281BD897FAA7F0B0FA80F040F0A7
:102F80002000400901D0286800E0686A97FAA7F19C
:102F9000B1FA81F101F01F0106FA01F10842E5D012
:102FA0001EE000BFFFF72CFA001B022802D9032005
:102FB000BDE8F88F97FAA7F0B0FA80F040F0200053
:102FC000400902D0286801E00CE0686A97FAA7F18E
:102FD000B1FA81F101F01F0106FA01F10842E1D1D5
:102FE0000020E5E70120E3E72DE9F041040005D0EA
:102FF0000025A56294F85D0018B107E00120BDE846
:10300000F08184F85C50204600F04AF8022384F8EE
:103010005D302068016821F040010160E0684FF4F4
:10302000E066B04201D9002101E04FF48051B0F5D3
:10303000706F02D0B04200D0A562276B012227B981
:10304000B04201D9236300E02263D4E901031843AD
:10305000D4E9043633431843238B03F40073184335
:10306000E3691843236A1843A36A18432368186066
:10307000636B606AA66918430427E36807EA16468B
:10308000334318430843216848602068C16921F42C
:103090000061C161256684F85D200020AFE7000073
:1030A00010B586B0044614216846FDF7A0F8124911
:1030B000206888421ED11148816941F480518161A4
:1030C000816901F480510591416941F40031416108
:1030D0004069694600F400300590E020009002202D
:1030E0000190002002900390052004904FF0904042
:1030F000FFF7BCF806B010BD0030014000100240E0
:1031000010B5401EB0F1807F01D3012010BD4FF0FB
:10311000E02460610F21601700F0C8FE0020A0616C
:1031200007202061002010BD7047704770470000E5
:1031300030B590F83C20012A1FD0012280F83C20B5
:103140000268536894680E4DAA4202D00D4DAA42FF
:1031500003D123F470054B682B4323F070050B68F3
:1031600089682B4324F080042143536002689160F6
:10317000002180F83C10084630BD022030BD000020
:10318000002C01400034014010B5040003D094F835
:103190003D0010B107E0012010BD002084F83C0084
:1031A000204600F00DF8022084F83D00211D206823
:1031B00000F012FF012084F83D00002010BD000047
:1031C00008B501681948B1F1804F11D0184A9142F1
:1031D00017D1C16941F00201C161C069002200F04C
:1031E0000200009011461D20FFF76EF91D2019E026
:1031F000C16941F00101C161C06900F001000090A6
:1032000008BD0C4A9142FBD1C16941F01001C16176
:10321000C069002200F01000009011463620FFF730
:1032200053F93620BDE80840FFF742B900100240CC
:103230000004004000100040022180F83D100168A9
:103240000A6842F001020A60012180F83D10002066
:1032500070470168CA6842F00102CA6000680168EC
:1032600041F00101016000207047022180F83D100B
:1032700001680A6A41F211131A4207D10A6A9B10C7
:103280001A4203D10A6822F001020A60012180F883
:103290003D10002070470168CA6822F00102CA6030
:1032A0000068016A41F21112114207D1016A9210BD
:1032B000114203D1016821F0010101600020704733
:1032C00070B5044690F83C00012817D0012584F819
:1032D0003C50022084F83D0022689068364E304011
:1032E00020F47F4090600868502839D00DDC2028F9
:1032F0005BD005DC98B3102843D153E0022070BDA9
:10330000302855D040283CD141E0602830D070288A
:103310000CD0B0F5805F03D0B0F5005F31D112E082
:1033200020688168244A7032114016E0CB68D1E9E8
:103330000121206800F0A8FE21688868304040F034
:10334000770088601DE0CB68D1E90121206800F09A
:103350009BFE2068816841F48041816011E01EE09D
:10336000CA684968206801F029F85021206806E001
:10337000CA684968206801F032F86021206800F0CE
:103380008DFE84F83D50002084F83C0070BDCA6872
:103390004968206801F012F840212068EFE7002119
:1033A0002068ECE710212068E9E720212068E6E7A3
:1033B00030212068E3E7000088FFFEFF704770B50A
:1033C0000446006801694FF00005C943890715D418
:1033D000C168C943890711D4E91E01610120207722
:1033E000206880698007204602D0FFF7E7FF04E0ED
:1033F00000F0D0F8204600F07EF9257720680169BA
:10340000C943490717D4C168C943490713D46FF0AA
:1034100004010161022020772068806910F4407F58
:10342000204602D0FFF7CAFF04E000F0B3F82046C0
:1034300000F061F9257720680169C943090716D4AE
:10344000C168C943090712D46FF008010161042063
:1034500020772068C0698007204602D0FFF7AEFFC2
:1034600004E000F097F8204600F045F92577206841
:103470000169C943C90617D4C168C943C90613D431
:103480006FF010010161082020772068C06910F4F6
:10349000407F204602D0FFF791FF04E000F07AF869
:1034A000204600F028F9257720680169C943C9073B
:1034B00008D1C168C943C90704D1891E01612046EA
:1034C00000F01AF920680169C943090609D4C168E6
:1034D000C943090605D46FF0800101612046FFF75A
:1034E00024FE20680169C943C90509D4C168C943DC
:1034F000090605D46FF4807101612046FFF714FEC0
:1035000020680169C943490609D4C168C94349060D
:1035100005D46FF040010161204600F025F92068D4
:103520000169C94389060BD4C168C943890607D418
:103530006FF0200101612046BDE87040FFF7F6BD45
:1035400070BD000010B586B0044614216846FCF733
:103550004EFE0D492068884214D10C48416941F45F
:10356000802141614069002100F480200590012004
:1035700000900220CDE90101CDE90310694604481D
:10358000FEF774FE06B010BD0004004000100240BB
:1035900000040048704770B5044690F83C000D46A2
:1035A00001280ED0012684F83C60022084F83D00FA
:1035B0000C2A45D007DC5AB1042A1BD0082A78D13E
:1035C0002CE0022070BD102A4ED0142A71D15DE08B
:1035D000206800F06BFD2068816941F0080181617D
:1035E0002068816921F004018161206881692A696C
:1035F000114311E0206800F0A7FD2068816941F4C3
:10360000006181612068816921F4806181612068A5
:1036100081692A6941EA022181614AE0206800F05B
:10362000DBFD2068C16941F00801C1612068C16902
:1036300021F00401C1612068C1692A69114311E0C8
:10364000206800F011FE2068C16941F40061C16189
:103650002068C16921F48061C1612068C1692A695B
:1036600041EA0221C16124E0206800F037FE2068B1
:10367000416D41F0080141652068416D21F0040170
:1036800041652068416D2A69114311E0206800F00E
:103690005DFE2068416D41F4006141652068416D27
:1036A00021F4806141652068416D2A6941EA022167
:1036B000416584F83D60002084F83C0070BD10B581
:1036C000040003D094F83D0010B107E0012010BDC4
:1036D000002084F83C00204600F00CF8022084F81A
:1036E0003D00211D206800F077FC012084F83D009A
:1036F000002010BD7047704770B5194A01689142AB
:1037000016D1184C00212246E5789289531C9BB2B1
:10371000012D03D06589AA4210D311E065780120FC
:10372000012D06D02589AA4208D360702070A1819E
:1037300070BDE588AA4201D36170F7E7A38170BD2F
:10374000E170A181A170FFF7A6FD206905490A2358
:103750008069BDE8704005221C3100F0A9B9000065
:103760000004004060000020704770477047000070
:1037700070B503680446D869196810F00F0508D1C0
:10378000820606D58A0604D52046BDE8704000F0C2
:10379000F6BE9A68002D66D002F0010501F490761D
:1037A0002E4360D0C60707D0CE0505D501261E6280
:1037B000E36E43F00103E366830708D5D30706D021
:1037C000266802233362E36E43F00403E366430793
:1037D00008D5D20706D0236804221A62E26E42F0AE
:1037E0000202E26602070AD501F020022A4306D04F
:1037F000236808221A62E26E42F00802E266E26E74
:10380000002A29D0800604D5880602D5204600F07B
:10381000B6FEE06E000703D42068806840061CD521
:10382000204600F091FE20688168490611D5816824
:1038300021F040018160606E58B11C494163606EA7
:10384000FEF73BFC002807D0606E416BBDE870407E
:1038500008472046FFF78AFF70BD2046FFF786FF26
:103860000020E06670BDC5020ED552020CD54FF4A3
:1038700080101862202084F8690084F86A002046CD
:10388000BDE87040FFF771BF020606D50A0604D5F1
:103890002046BDE8704000F097BF4006E2D54806DC
:1038A000E0D52046BDE8704000F05CBE354500081C
:1038B00010B5040003D094F8690010B107E00120AE
:1038C00010BD002084F86800204600F027F824206E
:1038D00084F869002068016821F001010160204638
:1038E00000F088FE0128EBD0606A10B1204600F09D
:1038F0008FFD2068416821F4904141602068816813
:1039000021F02A0181602068016841F00101016015
:103910002046BDE8104000F0DFBD000070B586B065
:10392000044614216846FCF762FC284E25680022F4
:103930002749022303242748B54220D1CD6945F405
:103940000025CD61CD6905F4002505954D6945F447
:1039500000254D614969029201F400210591A102FF
:10396000CDE900130521CDE903416946FEF77EFC50
:10397000002211463420FEF7A7FD342022E0164E27
:10398000B54221D18D6945F480458D618D6905F47D
:10399000804505954D6945F400254D6149690292C0
:1039A00001F4002105913021CDE900130721CDE973
:1039B00003416946FEF75AFC002211462520FEF716
:1039C00083FD2520FEF774FD06B070BD004C00405D
:1039D00000100240000800480038014090F86A30AA
:1039E000202B36D199B192B190F86830012B30D0AC
:1039F000012380F868304165A0F85820A0F85A20CB
:103A00008168FF22B1F5805F03D039B10BE001205E
:103A100070470169D1B940F2FF1102E00169A9B113
:103A20007F21A0F85C100021C166222280F86A2064
:103A300080F8681001688A6842F001028A600068B4
:103A4000016841F49071016000207047A0F85C208B
:103A5000E9E702207047000070B50546006811498B
:103A600088421DD1104C207890B964230122611C3A
:103A7000284600F01DF860780D2805D00B4A6188B3
:103A80005054491C618003E00120207000206080B8
:103A90002846BDE8704004490122491CFFF79EBF3B
:103AA00070BD000000380140880000205C07002045
:103AB0002DE9F843044690F869001F4616460D4666
:103AC00020284DD1CDB1C6B194F86800012847D067
:103AD000012084F868004FF00008C4F86C802120B1
:103AE00084F869005034FEF78BFC24F8026B8146A1
:103AF00024F852694FF4805618E00120BDE8F8839D
:103B0000B4F85200401EA4F852004B460022802117
:103B10002046009700F08AFEA0B9A068B04201D10B
:103B2000206988B115F8010B21680885B4F85200A6
:103B30000028E5D14B46002240212046009700F0A6
:103B400075FE30B10320D9E735F8020BC0F3080049
:103B5000EAE7202084F8690084F868800020CDE737
:103B60000220CBE77047FEE730B589B00024069409
:103B70000794182168460894FCF739FB14484FF065
:103B8000A041012501604FF44031C0E901140461F6
:103B9000C5614462C0E90B54C460056204214463FA
:103BA000C0E905148463FDF707FE06A908480694DA
:103BB000FDF7DAF90220CDE900050720CDE902047E
:103BC0000494694602480594FDF758FA09B030BDDF
:103BD0009C00002030B587B018216846FCF707FB31
:103BE000114810490024C0E90014846001250461D3
:103BF000C5614462C0E90B54C4600562042144639A
:103C0000C0E905148463FDF7D7FD072000900394F5
:103C1000CDE901540494694603480594FDF72EFA52
:103C200007B030BD00010050F000002010B504497D
:103C30000448FDF772F90249491E087010BD0000E2
:103C400055000020400000202DE9F04186B01421ED
:103C50006846FCF7CCFA3548416941F400114161EE
:103C6000416901F400110591416941F4002141616C
:103C7000416901F400210591416941F480014161EC
:103C8000416901F480010591416941F400314161CC
:103C9000416901F400310591416941F4802141619C
:103CA0004069234F00F480204FF6087505900022EC
:103CB00029463846FEF79EFB0122DFF8788056033E
:103CC00031464046FEF796FB372000901A48002404
:103CD000CDE9010469463846FEF7C8FA009501258A
:103CE000CDE90154694638460394FEF7BFFACDE9A1
:103CF000005469464FF090400294FEF7B7FA0096E0
:103D0000CDE90154694640460394FEF7AFFAC0205E
:103D100000901220CDE901050420CDE90340694659
:103D20004046FEF7A3FA06B0BDE8F081001002405D
:103D30000010004800040048000012100E480D4911
:103D40004FF4E06201604FF4827141600021C0E9EC
:103D500002124FF400720161C0E905122822C0E985
:103D6000072107224162C0E90A1201630821416369
:103D7000FFF73AB9003001405801002010B588B073
:103D8000002412480094019402940394049405942E
:103D90004FF08041069401606421C0E901140321C1
:103DA000C0E903148461FFF7EFF94FF480500090ED
:103DB00069460648FFF784FA2020049004A9069477
:103DC0000248FFF7B5F908B010BD0000BC010020A3
:103DD00010B58EB000240794089409940A940B94AB
:103DE0000C941C2168460D94FCF701FA17481649FB
:103DF00001604BF68031C0E9011440F2F311C0E9D3
:103E000003148461FFF7C0F94FF48050079007A9AD
:103E10000E48FFF755FA0D48FFF751FC0B940BA91C
:103E20000A480D94FFF784F96020CDE9000402945C
:103E30000822694605480494FFF7ADFB0348FFF7E5
:103E400081FB0EB010BD000000040040FC0100200A
:103E50000948084901604FF4E13141600021816067
:103E60000C22C160C0E904128161C161016241623A
:103E7000FFF71EBD004C00407C02002009480849A5
:103E800001604FF496414160002181600C22C160C5
:103E9000C0E904128161C16101624162FFF708BD9E
:103EA00000380140EC020020FEE770470907090EC8
:103EB000002806DA00F00F0000F1E02080F8141D61
:103EC000704700F1E02080F8001470477047704799
:103ED000FEF79CBA30B59FB028210FA8FCF787F9F0
:103EE000142119A8FCF783F93C216846FCF77FF9F7
:103EF0000FAA01204FF4A021002482E813001390A0
:103F000002250004CDE91650000118900FA8FEF715
:103F1000A3FD0F20CDE919056802CDE91B401D90D6
:103F2000012119A8FEF794FC064805940090401260
:103F3000099080030E9002946846FEF77DFB1FB047
:103F400030BD0000890002001448016841F470018E
:103F500001601348016841F0010101604168114AA4
:103F6000114041600168104A11400160016821F46C
:103F700080210160416821F4FE014160C16A21F0A5
:103F80000F01C162016B094A114001630021816088
:103F90000249C003803908607047000088ED00E0E6
:103FA000001002400CC07FF8FFFFF6FECCFC00FFC3
:103FB0000148FFF704BA0000FC01002010B50448D6
:103FC000FFF7FDF9BDE810400248FDF725BF0000EE
:103FD0003C020020440100202DE9F0430268234BFD
:103FE000234D244E244C4FF08049984207D0484539
:103FF00005D0A84203D0B04201D0A04203D122F0A4
:1040000070074A683A431D4FDFF874C0DFF87480C8
:1040100098420DD048450BD0A84209D0B04207D0F5
:10402000A04205D0B84203D0604501D0404503D13D
:1040300022F44075CA682A434D6922F080022A435F
:1040400002608A68C2620A688262984207D0A0420F
:1040500005D0B84203D0604501D0404501D109697F
:10406000016301214161BDE8F0830000002C0140A3
:1040700000040040000800400034014000400140BE
:10408000004401400048014010B5846842EA032220
:1040900024F47F440A432243826010BD826822F0E8
:1040A00070020A4342F00701816070472DE9F04336
:1040B000026A22F001020262056A436882691C4CAE
:1040C00025F0020522400C6822F0030214438A689E
:1040D000194E2A43174D194FDFF864C0DFF864907A
:1040E000A84207D0B04205D0B84203D0604501D005
:1040F000484506D122F00808CA6842EA080222F0C0
:104100000402A84207D0B04205D0B84203D06045AF
:1041100001D0484505D14D6923F440731D438B6997
:104120002B4343608461496841630262BDE8F083C8
:104130008FFFFEFF002C0140003401400040014091
:104140000044014000480140F0B5026A22F010022C
:104150000262056A42688369194C1B4E23400C6851
:1041600023F4407343EA042425F020038D6843EAD6
:104170000513144DA84201D0B04206D1CF6823F0F8
:10418000800343EA071323F04003A8420AD0B04259
:1041900008D00E4DA84205D00D4DA84202D00D4DBD
:1041A000A84207D14D6922F4406242EA85028D6936
:1041B00042EA850242608461496881630362F0BD1E
:1041C000FF8FFFFE002C0140003401400040014001
:1041D0000044014000480140F0B5026A22F48072B8
:1041E0000262056A4368C269194C1B4E22400C6882
:1041F00022F00302144325F400728D6842EA05227E
:10420000144DA84201D0B04206D1CF6822F400621A
:1042100042EA072222F48062A8420AD0B04208D0C3
:104220000E4DA84205D00E4DA84202D00D4DA84219
:1042300007D14D6923F4405343EA05138D6943EADE
:1042400005134360C4614968C1630262F0BD0000A8
:104250008FFFFEFF002C0140003401400040014070
:10426000004401400048014030B5026A22F4805207
:104270000262046A4268C369124D24F400542B4060
:104280000D6823F4407343EA05238D6844EA05343E
:104290000D4DA8420BD00D4DA84208D00C4DA842A0
:1042A00005D00C4DA84202D00B4DA84204D14D6957
:1042B00022F4804242EA85124260C3614968016487
:1042C000046230BDFF8FFFFE002C0140003401402E
:1042D00000400140004401400048014030B5026AFE
:1042E00022F480320262046A4268436D114D2B4011
:1042F0000D681D4324F400330C8943EA04430E4C3B
:10430000A0420BD00D4CA04208D00D4CA04205D0CD
:104310000C4CA04202D00C4CA04204D14C6922F4B7
:10432000803242EA04224260456549688165036241
:1043300030BD00008FFFFEFF002C01400034014023
:1043400000400140004401400048014030B5026A8D
:1043500022F480120262046A4268436D114D24F413
:1043600000142B400D6843EA05230D8944EA0554E7
:104370000D4DA8420BD00D4DA84208D00C4DA842BF
:1043800005D00C4DA84202D00B4DA84204D14D6976
:1043900022F4802242EA8522426043654968C16571
:1043A000046230BDFF8FFFFE002C0140003401404D
:1043B00000400140004401400048014010B5036A3C
:1043C000046A24F001040462846924F0F00444EADD
:1043D000021423F00A020A438461026210BD10B580
:1043E000036A23F0100303628369046A23F47043B1
:1043F00043EA023224F0A00343EA01118261016220
:1044000010BD00000148FFF7B3B900007C02002096
:1044100090F82410C90706D001684A68836A22F41C
:1044200000321A434A6090F82410890706D50168C3
:104430004A68C36A22F480321A434A6090F8241012
:10444000490706D501684A68036B22F480221A43A3
:104450004A6090F82410090706D501684A68436B42
:1044600022F400421A434A6090F82410C90606D587
:1044700001688A68836B22F480521A438A6090F83C
:104480002410890606D501688A68C36B22F400529D
:104490001A438A6090F82410490611D501684A68C9
:1044A000036C22F480121A434A60016CB1F5801F3C
:1044B00006D101684A68436C22F4C0021A434A607C
:1044C00090F82410090606D501684A68806C22F429
:1044D000002202434A607047F8B500260446C666CB
:1044E000FDF78EFF0546206800686FF07E470007E5
:1044F00008D52B4600224FF400112046009700F00B
:1045000095F960B92068006840070AD52B4600225B
:104510004FF480012046009700F088F908B103208D
:10452000F8BD202084F8690084F86A0084F8686087
:104530000020F8BD10B5406A0021A0F85A10A0F87C
:104540005210FFF713F910BD01680A6822F4907247
:104550000A6001688A6822F001028A60202180F8DE
:104560006A10704710B501680A6822F040020A60BC
:10457000202180F86910FFF7F5FA002010BD10B572
:10458000B0F85C2090F86A300168222B05D0886969
:1045900040F008008861022010BD898C8368B3F563
:1045A000805F01D103696BB11140426D531C4365BB
:1045B0001170B0F85A10491E0904090CA0F85A10DD
:1045C00007D015E0436D11401980416D891C41658C
:1045D000EFE701680A6822F490720A6001688A684D
:1045E00022F001028A60202180F86A10FFF734FA75
:1045F000002010BD2DE9F041044610202369A26877
:10460000E6691A436369002133431A4323680D4660
:104610001E6849F20C67BE4316431E602268536849
:10462000E66823F4405333435360236AA2691A4374
:1046300023689E6826F4306616439E605A4F2268AF
:104640005A4B0603BA420CD11B6B13F0030306D07E
:10465000012B4DD0022B4DD0032B4CD146E0012035
:1046600049E0534FBA420CD11B6B13F440333BD09B
:10467000B3423DD0B3F5003F3CD0B3F5403F3AD113
:1046800034E04C4FBA420DD11B6B13F440232BD0B6
:10469000B3F5802F2CD0B3F5002F2BD0B3F5402FDE
:1046A00029D123E0444FBA420DD11B6B13F44013C0
:1046B0001AD0B3F5801F1BD0B3F5001F1AD0B3F585
:1046C000401F18D112E03D4FBA4214D11B6B13F4B6
:1046D000400309D0B3F5800F0AD0B3F5000F09D01D
:1046E000B3F5400F07D101E0002004E0022002E012
:1046F000042000E00820E7694FF400439F4226D1E0
:1047000009281DD2DFE800F00508121C151C1C1C2E
:104710001800FEF73FF901E0FEF754F94100606828
:1047200001EB5001B1FBF0F081B20AE0244960686E
:10473000F6E7FEF75FF9F1E7606806EB5001F1E795
:10474000012521F00F00C1F3420108431CE00928B4
:1047500025D2DFE800F005080B24102424241C00D7
:10476000FEF718F909E0FEF72DF906E01549606833
:1047700001EB50010EE0FEF73DF90146606801EBE8
:104780005001B1FBF0F080B22168C86008E06068B9
:1047900003EB5001B1FBF0F080B2D06000E00125E6
:1047A0002846BDE8F08100000038014000100240BA
:1047B0000044004000480040004C004000500040D1
:1047C0000024F40000127A0090F86910212901D029
:1047D00002207047B0F8521021B18168B1F5805FB6
:1047E0000BD00CE001680A6822F080020A600068C1
:1047F000016841F0400101600CE0016961B1C16CE8
:104800004A1CC26402680978A2F8281030F8521FC6
:10481000491E018000207047C16C02680988C1F3FD
:1048200008011185C16C891CC164EFE72DE9F041D5
:10483000984617460E460446069D1DE0681C1BD090
:104840002DB1FDF7DDFDA0EB0800A84214D92068CA
:10485000016821F4D07101602068816821F00101B4
:104860008160202084F8690084F86A00002084F8C0
:1048700068000320BDE8F0812068C06936EA0000C6
:1048800004D00020B842D9D00020F3E70120F9E796
:104890000148FEF76DBF0000EC0200200248012134
:1048A00001700078704700003C0000200120704734
:1048B0000020704702480121017000787047000015
:1048C0003C00002000207047FEE700000FB4084BBA
:1048D00010B504A902AA039800F0DEF8044602A964
:1048E000002000F070FC204610BC5DF814FB0000B6
:1048F000C751000802E008C8121F08C1002AFAD1F7
:1049000070477047002001E001C1121F002AFBD14F
:10491000704700002DE9FF5F82B00021DDE904301F
:10492000020DDDF840B0034318D044F61050A2F257
:10493000FF3242431514119801281FD0A5EB0B003C
:10494000401C5FEA000A4FF000064E4FDFF8389136
:10495000B046504615D5CAF1000413E01198012461
:104960004AA3012801D16FEA0B010298119AC0E90C
:104970000031C0E9024206B0BDE8F09FCBF1000073
:10498000DFE704460021404A491842EB0450CDE9D4
:10499000001012E0E00707D032463B464046494649
:1049A000FBF7F2FC8046894632463B4610461946E4
:1049B000FBF7EAFC06460F466410002CEAD1DDE95D
:1049C0000401DDE90023BAF1000F06DAFBF7DCFC95
:1049D00042464B46FBF7D8FC05E0FBF7E1FE4246BA
:1049E0004B46FBF7DDFE04460E460022284BFBF744
:1049F0005FFF03D84FF0FF30014607E00022254B50
:104A000020463146FBF725FEFBF739FF102409E06D
:104A1000002C0ADB0A220023FBF74BFD039B3032FC
:104A20001A55641E50EA0102F2D1641C039AC4F1C3
:104A300011031444119A012A03D0012208430DD115
:104A40000AE0084304D000204FF0110B119072E7E8
:104A5000A3EB0B056D1E0DE05B4504DD4FF000027E
:104A600005F1010504E003DA4FF00002A5F10105AC
:104A7000002AECD002981199C0E90231C0E9004542
:104A800079E70000000014400000F03F3000000013
:104A90000000F0430000E03F2DE9FF4F95B09B463A
:104AA0008946064600250FE2252877D100242746AF
:104AB000F84A0121059400E0044316F8013F203B29
:104AC00001FA03F01042F7D130782A2811D06FF0A4
:104AD0002F033078A0F13002092A16D8059A44F045
:104AE000020402EB820203EB42021044761C0590A2
:104AF000EFE759F8042B0592002A03DA504244F4F8
:104B00000054059044F00204761C30782E2816D10B
:104B100016F8010F44F004042A280DD06FF02F027C
:104B20003078A0F13003092B09D807EB870302EB9B
:104B30004303C718761CF3E759F8047B761C3078DA
:104B40006C280FD006DC4C2817D068280DD06A28B6
:104B500014D104E0742810D07A280FD10DE044F469
:104B600000140AE044F4801401E044F44014727824
:104B7000824202D104F58014761C761C30786628B7
:104B80000BD013DC582877D009DC002875D04528D5
:104B9000F6D04628F4D047281AD19DE118E06328C2
:104BA00035D0642879D0652812D195E1702873D06A
:104BB00008DC6728F1D069286FD06E280DD06F28E7
:104BC00006D1B5E073282CD0752875D0782874D01C
:104BD0005A46179990476D1C75E1C4F3025002289C
:104BE00009D003280DD0D9F8001004280DD00D608D
:104BF00009F1040967E1D9F80010EA17C1E9005288
:104C0000F6E7D9F800100D80F2E70D70F0E719F81B
:104C1000041B8DF8001000208DF80100EA460120E9
:104C200003E059F804AB4FF0FF3061074FF000018B
:104C300002D40DE008F101018846B9420FDA80453F
:104C4000F8DB1AF808100029F4D108E008F1010196
:104C500088468142FADB1AF808100029F6D1059837
:104C60005B46A0EB080721463846179A00F094FAF5
:104C7000284400EB080507E04DE029E10DE01AF8B3
:104C8000010B5A4617999047B8F10108F7D25B46D5
:104C900021463846179A13E142E00A220092C4F3F3
:104CA00002524FF0000A022A08D059F804CB032A16
:104CB0004FEAEC710AD00DE029E02AE009F1070182
:104CC00021F00702F2E802C1914609E00FFA8CFCDC
:104CD0004FEAEC71042A03D14FFA8CFC4FEAEC71D5
:104CE000002907DA0A460021DCF1000C61EB020121
:104CF0002D2202E0220504D52B228DF8042001226A
:104D000003E0E20701D02022F7E7904659E00A21AC
:104D100002E010220DE010214FF0000A00910BE09C
:104D200010224FF0000A44F004040827009203E028
:104D300008224FF0000A0092C4F30252022A05D062
:104D400059F804CB0021032A08D009E009F1070132
:104D500021F00702F2E802C1914605E01FFA8CFC3F
:104D6000042A01D10CF0FF0C4FF00008220728D5CF
:104D7000702806D0009B83F0100353EA0A0305D085
:104D80000EE040228DF80420012208E05CEA0102D6
:104D900006D030228DF804208DF8050002229046BE
:104DA000009B83F0080353EA0A030AD15CEA01027C
:104DB00001D1620705D530228DF804204FF001089B
:104DC0007F1E582804D034A003900EA802900DE056
:104DD00036A0F9E753466046009AFBF76AFB844623
:104DE0000398825C0298401E029002705CEA010007
:104DF000F0D1029806A9081A00F1200A600702D52E
:104E000024F4803400E00127574502DDA7EB0A00B7
:104E100000E0002000EB0A01009005984144401A90
:104E20000590E00306D45B462146179A059800F0EA
:104E3000B3F90544002706E001A85A46C05D17995A
:104E400090476D1C7F1C4745F6DBE0030CD55B46A5
:104E50002146179A059800F09FF9054404E0302098
:104E60005A46179990476D1C0099481E00900029DA
:104E7000F5DC08E0029802995A460078491C029134
:104E8000179990476D1CBAF10001AAF1010AF1DCF3
:104E900065E10000092801003031323334353637FE
:104EA0003839616263646566000000003031323376
:104EB0003435363738394142434445460000000016
:104EC00000F058F90544761C307800287FF4ECADEA
:104ED00019B02846BDE8F08F620700D4062709F113
:104EE000070222F0070CFCE80223E14603F0004829
:104EF0005FEA080C02D00FF2702C0DE05FEA045C50
:104F000002D50FF2682C07E05FEAC47C02D00FF2F2
:104F1000602C01E0AFF2700C4FF0FF3823F000433B
:104F2000CDF850C065280CD006DC452809D04628AD
:104F30001DD047283DD13DE0662818D067287ED196
:104F400038E00021112F01DB112000E0781CCDE9B1
:104F5000000106A90EA8FFF7DDFCDDE90F010E9A9E
:104F600003910021009207F1010A04914DE04FF0F6
:104F700000400097CDE9011006A90EA8FFF7CAFC72
:104F8000DDE90F0203920E9B11990022DDF80CA0BF
:104F90000093049211B9791C00EB010AB7EB0A00E7
:104FA00004D4C0F1FF3007F1010A0490AAEB070016
:104FB000019044E0012F00DA01270021112F01DDCB
:104FC000112000E03846CDE9000106A90EA8FFF740
:104FD000A1FCDDE90F010E9A0391002104910092DA
:104FE000BA4621070CD40399514500DA8A46BAF132
:104FF000010F05DD009AAAF10101515C302908D0AA
:10500000B84202DA10F1040F06DA0121CDE90110ED
:1050100015E0AAF10101E9E7002805DC0499014443
:105020000491AAEB000102E0411C514500DD8A46D3
:105030000499401A401C01904FF000400290200754
:1050400004D40198504501DBCDF8048000208DF890
:105050004F0002980DF14F07B0F1004F25D02B20E3
:105060000E9002984FF0020800280CDA404202909D
:105070002D200E9007E00A210298FBF704FA303148
:10508000029007F8011DB8F10001A8F10108F2DC57
:1050900002980028EFD1791E0E980870307800F041
:1050A000200040F0450007F8020D12A8C01B00F1D7
:1050B00007081498007800B1012000EB0A0101985C
:1050C00001EBE07105984144401A401E0590E00351
:1050D00006D45B462146179A059800F05DF8054412
:1050E0001498007818B15A46179990476D1CE00340
:1050F00024D55B462146179A059800F04DF80544E3
:105100001CE00498002807DBDDE90301884203DD89
:105110000098405C179901E0179930205A46904753
:10512000049805F10105401C04900198401E01906F
:1051300004D12E205A46179990476D1CBAF10001F0
:10514000AAF1010ADDDC05E017F8010B5A461799B0
:1051500090476D1CB8F10001A8F10108F4DC5B4632
:105160002146179A0598ABE62D0000002B000000A1
:10517000200000002DE9F041044600251E46174698
:10518000880404D405E039462020B0476D1C641E15
:10519000F9D52846BDE8F0812DE9F0410446002507
:1051A0001E469046C80301D5302700E0202788041A
:1051B00004D505E041463846B0476D1C641EF9D55C
:1051C0002846BDE8F0810A68531C0B6010707047D8
:1051D0000020044902460A54401CC0B21028FAD3E9
:1051E000704700005C070020C16980684A68D221CE
:1051F000162A40D2DFE802F03F0B0D0F11133F15C6
:1052000017191C1F2225282B2E3134373A3D7D21BA
:1052100031E08C212FE09D212DE0A7212BE0BB2147
:1052200029E0EC2127E0FA2125E04FF48C7122E0FF
:1052300040F23B111FE040F24D111CE04FF4BB71F6
:1052400019E04FF4D27116E040F2D71113E040F2AA
:10525000F31110E04FF40C710DE040F275210AE0FB
:1052600040F29B2107E04FF43B7104E04FF4527190
:1052700001E040F2AF31C1607047000030B5C26953
:1052800004464FF6FF70118987B000EA41032949AF
:10529000CB80928900EA42000881A1680120486021
:1052A0002046FFF7A1FFA068FDF7DFFF0021E068BF
:1052B000FCF7F8FE0025019502950395A068FDF71F
:1052C00063FF08B1FBF728FE20200395019001A998
:1052D000A068FDF72DFF08B1FBF71EFE04950595AC
:1052E0000695E068FCF7CAFD08B1FBF715FE04203F
:1052F000CDE90405002204A9E068FCF768FD08B1C7
:10530000FBF70AFEA068FDF797FF0021E068FCF7B5
:105310001FFE00954FF48073074A0021E068FCF7F8
:1053200041FE2068FDF795FF0021E068FCF7BAFE1A
:1053300007B030BD60000020F05500080149086149
:1053400070470000600000200EB5FDF767F8FEF71B
:10535000C1FDFEF779FC3448416941F0010141612A
:105360004069002200F00100009011460D20FDF779
:10537000ABF80D20FDF79CF8FEF758FCFEF77EFD1C
:10538000FEF766FDFEF724FD0024294800940194F1
:105390002649029401600121C0E90114D2218461EF
:1053A000C160FDF7F1FE202000906946029420487C
:1053B000FDF7BEFE1E490094F83901941D48029481
:1053C00008600846FCF75AFD0420CDE9000418489F
:1053D00000226946F838FCF7FAFC184816490160C3
:1053E0000821416002218160846104620161FDF74E
:1053F0009DF8FEF7B9FBFEF7EDFBFEF79FFCFEF70D
:10540000BDFC0E48703800F0EDF80D48FFF796FF30
:105410000C48FCF7F9FB0A481C3800F0ADF80848C6
:1054200000F08AF8F7E7000000100240001000408A
:105430003C02002000740040005C00405C0300203F
:105440001C0000209C0000202DE9F0410546C069A9
:105450001C4C002600692179DFF86C804FF48077BE
:1054600088421DDB2078012817D16078314600285A
:10547000E8680AD0FCF76CFD012239464046FCF78B
:10548000B9FF2079401C207106E0FCF70BFE0022DA
:1054900039464046FCF7AEFF26700120BDE8F0819A
:1054A0000021E868FCF7FEFD002239464046FCF783
:1054B000A1FF2868FDF7EFFE267126706670A681B1
:1054C0000020EBE7600000200010004870B5084C99
:1054D0000025617919B1FFF7D1FE657170BDFFF745
:1054E000B3FF0028FAD1E5700120607170BD0000A3
:1054F0006000002070B50F4C0546A078002818D138
:10550000E8694FF6FF710A23008B062200EB80004A
:1055100001EA40006081206904F121018069FEF701
:10552000C7FA2869FCF7C8FA2868FDF792FE01203F
:10553000A07070BD600000200E49CA782AB1012A0F
:1055400015D0022A0AD1FFF7D5BFC069002203781F
:10555000012B04D0037D012B05D0CA7070470123B5
:10556000CB70027070470223CB7002757047FFF753
:10557000ADBF0000600000201CB5124C217800294E
:105580001ED011490A780121412A0ED0472A13D191
:10559000017000F11002111FCDE900120B1F021D56
:1055A0000AA10948FAF72EFE06E0017500F118027B
:1055B0000AA10548FAF726FEFFF70AFE0020207030
:1055C0001CBD0000880000205C07002047202564E7
:1055D00020256420256420256400000041202564E6
:1055E0000000000001220149FEF7F8B989000020FF
:1055F0000008320864089608C808FA082C095E09F1
:105600008F09C009F109220A520A820AB10AE10A85
:105610000F0B3D0B6B0B980BC50BF10B1C0C470CC8
:10562000710C9B0CC30CEB0C130D390D5F0D840D2D
:10563000A80DCB0DED0D0E0E2F0E4E0E6C0E8A0E1C
:10564000A60EC20EDC0EF50E0E0F250F3B0F500FEF
:10565000640F760F880F980FA70FB50FC20FCE0FEC
:10566000D80FE10FE90FF00FF60FFA0FFD0FFF0F44
:10567000FF0FFF0FFD0FFA0FF60FF00FE90FE10F0D
:10568000D80FCE0FC20FB50FA70F980F880F760F48
:10569000640F500F3B0F250F0E0FF50EDC0EC20EE0
:1056A000A60E8A0E6C0E4E0E2F0E0E0EED0DCB0DAD
:1056B000A80D840D5F0D390D130DEB0CC30C9B0C65
:1056C000710C470C1C0CF10BC50B980B6B0B3D0BB5
:1056D0000F0BE10AB10A820A520A220AF109C00933
:1056E0008F095E092C09FA08C80896086408320870
:1056F0000008CD079B07690737070507D306A106F2
:1057000070063F060E06DD05AD057D054E051E053E
:10571000F004C204940467043A040E04E303B803DB
:105720008E0364033C031403EC02C602A0027B0256
:10573000570234021202F101D001B1019301750147
:1057400059013D0123010A01F100DA00C400AF0054
:105750009B0089007700670058004A003D00310037
:1057600027001E0016000F000900050002000000BF
:10577000000000000200050009000F0016001E00D6
:10578000270031003D004A0058006700770089007B
:105790009B00AF00C400DA00F1000A0123013D01C3
:1057A000590175019301B101D001F10112023402D6
:1057B00057027B02A002C602EC0214033C036403FE
:1057C0008E03B803E3030E043A0467049404C2048E
:1057D000F0041E054E057D05AD05DD050E063F06F0
:1057E0007006A106D3060507370769079B07CD0793
:1057F00002030405060708090A0B0C0D0E0F101012
:105800000102030405060708090A0B0C0D0E0F1010
:105810000000000000000000010203040607080960
:105820000000000001020304DDDDDDDDDCBBBBDDCB
:10583000DDDDDDDDDDDDDDDD988888888888888830
:105840007777777777888888855555566666666650
:10585000666666666668888883333332222222222F
:10586000222222222228888D885800080000002049
:105870009C000000F4480008245900089C00002007
:10588000DC0A0000044900080000000012000000CB
:1058900019000000320000001E000000000000009F
:1058A0000A000000FC010020BC0100203C02002096
:1058B000440100209C000020F00000207C02002019
:1058C00000000020010000009D480008B5480008C5
:1058D000B1480008C5480008AD48000800000000B5
:1058E0000000000000000000010000000002F401C0
:1058F000E803640000000000000000000000000059
:105900000000000053544F500A53544152540A00AF
:105910000000000001000000100000000000000076
:0459200000127A00F7
:040000050800018965
:00000001FF
