:020000040800F2
:10000000482300209D010008AB3400082F31000870
:10001000A9340008A5030008D53E00080000000030
:10002000000000000000000000000000CF340008C5
:100030007B04000800000000CD340008D134000823
:10004000B7010008B7010008B7010008B7010008B0
:10005000B7010008B7010008B7010008B7010008A0
:10006000B7010008B7010008B7010008B701000890
:10007000B701000809040008B7010008B70100082B
:10008000B7010008B701000809020008B70100081D
:10009000B7010008B7010008B7010008B701000860
:1000A000B7010008B7010008B7010008B701000850
:1000B000B7010008B1350008B7010008B701000812
:1000C000B7010008B7010008B7010008B701000830
:1000D000B70100089D3E0008B7010008B7010008FD
:1000E000B7010008B7010008B7010008B701000810
:1000F000B7010008B7010008B7010008B701000800
:10010000000000000000000000000000B70100082F
:10011000053A0008113A0008BD350008B70100088B
:10012000B7010008B7010008B7010008B7010008CF
:10013000B7010008B701000800000000000000003F
:10014000B7010008B7010008B7010008000000006F
:10015000000000000000000000000000000000009F
:100160000000000000000000B7010008B70100080F
:10017000B7010008000000000000000000000000BF
:1001800000000000B7010008DFF80CD000F02AF8EA
:10019000004800476D40000848230020064880477B
:1001A00006480047FEE7FEE7FEE7FEE7FEE7FEE75C
:1001B000FEE7FEE7FEE7FEE7493500088901000893
:1001C000D2B201E000F8012B491EFBD27047002299
:1001D000F6E710B513460A4604461946FFF7F0FF46
:1001E000204610BD064C074D06E0E06840F00103D4
:1001F00094E8070098471034AC42F6D3FFF7C8FFE5
:10020000244500084445000810B5044800F0F6FBFA
:10021000BDE81040024800F0F1BB00001C180020AF
:100220007018002070B5044600680022836813F03F
:100230000C0F50D0C3689B0105D5E369012B02D197
:10024000A369012B22D060290CD020688268520754
:1002500006D58268920703D4826842F01002826059
:100260000C290ED020688268120706D58268920792
:1002700003D4826842F020028260602915D06C2984
:1002800011D0042501F072FB064620E00C21134B2F
:1002900002E09A4211D2521C0568ED436D06F8D473
:1002A00040220260D1E70C25ECE70825EAE700BF11
:1002B00001F05CFB801B0B2809D9606C40F010003A
:1002C0006064A06C40F00100A064012070BD206853
:1002D00080682842ECD1002070BD00000094090025
:1002E00070B504460068816801F00301012926D138
:1002F0000168C90723D0816801F00D01012910D1DF
:10030000816841F00201816021680320086001F0EA
:100310002DFB05460FE000BF01F028FB401B022823
:1003200009D9606C40F010006064A06C40F00100DE
:10033000A064012070BD20688068C007ECD1002057
:1003400070BD000070B504460068816801F00301CB
:10035000012902D10168C90720D18168104A1142E0
:100360000DD1816841F00101816001F0FFFA05467D
:100370000FE000BF01F0FAFA401B022809D9606CB7
:1003800040F010006064A06C40F00100A064012007
:1003900070BD20680068C043C007EBD1002070BD6D
:1003A0003F000080FEE710B5446A204600F0E6FFFB
:1003B0000120207110BD10B5446A204600F0B9FF3D
:1003C0000120207110BD10B5446A206940F004007E
:1003D0002061204600F0D5FF0120207110BD10B52E
:1003E000446A206940F004002061204600F0A4FF28
:1003F0000120207110BD406A00F0C1BF10B5406AF5
:1004000000F098FF10BD0000014801F031B9000074
:10041000F41E00200B4B01681422994207D20A4BAC
:100420001944B1FBF2F189000164084908E0054B69
:100430005B421944B1FBF2F18900016401490839BA
:10044000C163704708040240F8FFFDBF000002408E
:1004500030B590F840500124AC40C56B6C60046826
:1004600063604368102B036803D099600068C26022
:1004700030BD9A600068C16030BD7047704700228F
:10048000AFF3008030B50E4B054601205C7A012C9D
:1004900015D8587A00241C54587A03EB8000456024
:1004A0005D7A03F108002A54587A421C5A7230309F
:1004B00008703A2048702F208870CC70002030BD22
:1004C000381F00207047704770477047F0B5002311
:1004D00002684FF0A04C3D4C95B01F46624501D1DB
:1004E00000940DE0A24202D1CDF800C008E0384DE2
:1004F000384EAA4201D1009602E0B24214D10095D2
:1005000090F84050012D12D0012580F84050956898
:100510006D0752D4009DAD686D074ED4624501D081
:10052000A24206D12C4A05E0012015B0F0BD022000
:10053000FBE72A4A0D6840F61F741DB39568466BA9
:1005400025F4604545EA46354E68354395600568B3
:10055000AE6806F00306012E02D12D68ED0731D1F9
:10056000009DAD6805F00305012D03D1009D2D68A8
:10057000ED0727D10D6889680D439168A1430D43AC
:1005800095601FE0916821F46041916001688D6879
:1005900005F00305012D02D10968C90712D10099A0
:1005A000896801F00301012903D100990968C9078D
:1005B00008D19168A143916004E0416C41F02001B1
:1005C0004164012380F840701846AEE700010050F6
:1005D00000040050000500500003005000070050C8
:1005E000F0B595B00024009490F840202546012AEB
:1005F00019D0012780F8407003689A6852077CD4AC
:100600004A681F26052A11D2D3F830C002EB4202F5
:10061000520096402CEA060C0E6896404CEA060CF6
:10062000C3F830C035E0022015B0F0BD0A2A0FD261
:10063000D3F834C0521F02EB4202520096402CEA1B
:10064000060C0E6896404CEA060CC3F834C020E055
:100650000F2A0FD2D3F838C00A3A02EB42025200F6
:1006600096402CEA060C0E6896404CEA060CC3F83D
:1006700038C00EE0D3F83CC00F3A02EB4202520001
:1006800096402CEA060C0E6896404CEA060CC3F81D
:100690003CC00268936813F00C0F4FF0070374D14D
:1006A000D1F800E0BEF10A0F10D39669AEF10A0E40
:1006B0000EEB4E0C03FA0CFE26EA0E06D1F808E00B
:1006C0000EFA0CFE46EA0E0696610FE0D2F814C050
:1006D0000EEB4E0603FA06FE2CEA0E0CD1F808E0EB
:1006E0000EFA06FE4CEA0E0CC2F814C002684E69FF
:1006F000D2F80CC0CCF3C10C00E0FDE04FEA4C0C8A
:1007000006FA0CF6D1F810E0DFF848C2BEF1010F8E
:1007100042D0BEF1020F4DD0BEF1030F58D0BEF152
:10072000040F63D0166E91F800C006F0F846B6EBE1
:100730008C6F03D1166E26F0004616660268566E60
:1007400091F800C006F0F846B6EB8C6F03D1566EF8
:1007500026F0004656660268966E91F800C006F0D4
:10076000F846B6EB8C6F03D1966E26F0004696667F
:100770000268D66E91F800C006F0F846B6EB8C6FB2
:1007800003D1D66E26F00046D6660268966806F05B
:100790000306012E3AD136E0D2F860E00EEA0C0EE4
:1007A00091F800C046EA8C664EEA060E4EF000460E
:1007B0001666EAE7D2F864E00EEA0C0E91F800C083
:1007C00046EA8C664EEA060E4EF000465666DCE7B8
:1007D000D2F868E00EEA0C0E91F800C046EA8C668A
:1007E0004EEA060E4EF000469666CEE7D2F86CE072
:1007F0000EEA0C0E91F800C046EA8C664EEA060E30
:100800004EF00046C0E71668F6077AD1CE68012E92
:1008100006D052F8B03F0E78B740BB43136021E0DA
:1008200052F8B06F91F800C007FA0CF73E4316601B
:100830000A680A2A0BD30668B769093A02EB420232
:1008400093409F438B6893401F43B7610AE007685A
:100850007E69521C02EB420293409E438B68934098
:100860001E437E6103684FF0A0473B4EBB4201D060
:10087000B34201D1394A00E0394A0968102904D04D
:10088000112907D012290AD03BE0D2F808C04FEA5C
:100890000C2C08E0D2F808C04FEACC1C03E0D2F8D8
:1008A00008C04FEA4C2CBCF1000F2ADBBB420DD034
:1008B000B34201D100970CE02A4EDFF8ACC0B3423E
:1008C00002D1CDF800C004E0634501D1009600E0FC
:1008D00000959E6806F00306012E02D11E68F607F9
:1008E0000AD1009E8EB1B66806F00306012E0CD127
:1008F000009E3668F60708D0416C41F02001416443
:10090000012480F8405020468EE6102908D0112995
:100910001AD01229F5D1916841F480019160F0E775
:10092000BB42EED1916841F4000191600F49104A39
:100930000968B1FBF2F101EB8101490000E0491EB9
:1009400000910029FBD1DCE7BB42DAD1916841F08C
:100950008071E3E700F0FF830001005000030050C6
:1009600000070050000400500005005098000020CF
:1009700040420F0070B50168B1F1A04F2AD11B4C65
:100980001B4D6179022905D0032916D0BDE87040BE
:1009900000F0B0BC00F02FF86082218A020A012327
:1009A0006A54491C21822071E0781049401CE07093
:1009B00060691A46091D806914E00C48218A406963
:1009C00049B10123294480691A4602F055FB208A67
:1009D000401E208270BD00216171044980690A2394
:1009E00005221D31BDE8704002F046BB000000202A
:1009F0009C00002070470068006C70472DE9F041B2
:100A0000044600680168C34FC34DC44E49074FF008
:100A1000A04802D54168490705D40168090761D596
:100A2000416809075ED5616CC90603D4616C41F465
:100A3000007161644146884201D0B04202D1D1F8D0
:100A4000082300E03A6812F01F0F1BD0884201D043
:100A5000B04202D1D1F8082300E03A6802F01F0248
:100A6000052A0FD0884201D0B04202D1D1F8082324
:100A700000E03A6802F01F02092A03D0884201D040
:100A8000A84201D1C16803E0B04200D02946C9683C
:100A9000C26812F4406F1FD189041DD40168090790
:100AA0001AD5816849070FD4416821F00C014160D3
:100AB000606C20F480706064606CC0040CD4606C66
:100AC00040F00100606407E0606C40F0100060647A
:100AD000A06C40F00100A0642046FFF74BFF2168A6
:100AE0000C20086020680168890602D541688906E3
:100AF00005D4016849066ED5416849066BD5616C1D
:100B000041F4005161644246904201D0B04202D1AA
:100B1000D2F8081300E0396811F01F0F1CD0904282
:100B200001D0B04202D1D2F8081300E0396801F0D8
:100B30001F01052910D04146884201D0B04202D1A0
:100B4000D1F8083300E03B6803F01F03092B03D002
:100B5000884201D0A84201D1C16803E0B04200D070
:100B60002946C968C36C13F0C00F07D08B0154D459
:100B7000C36813F4406F50D189044ED4016849060C
:100B80004BD51146884201D0B04202D1D1F808239A
:100B900000E03A6812F01F0F1BD0884201D0B0422B
:100BA00002D1D1F8082300E03A6802F01F02062AB9
:100BB0000FD0884201D0B04202D1D1F8082300E022
:100BC0003A6802F01F02072A03D0884201D0A842E7
:100BD00002D1C16804E026E0B04200D02946C968CD
:100BE00089021AD4816809070FD4416821F0600195
:100BF0004160606C20F480506064606CC0050CD46F
:100C0000606C40F00100606407E0606C40F0100030
:100C10006064A06C40F00100A0642046FFF752FC25
:100C20002168602008602068016809060CD54068CA
:100C3000000609D5606C40F480306064204600F006
:100C400095F921688020086020680168C9050DD5E4
:100C50004068C0050AD5606C40F4003060642046EE
:100C6000FFF732FC21684FF480700860206801684B
:100C700089050DD5406880050AD5606C40F4802058
:100C800060642046FFF721FC21684FF40070086083
:100C900020680168C90622D54168C9061FD5A16B25
:100CA00001290ED0404501D0B04201D11C4901E0DC
:100CB000184908398A68D20628D0886800F440406C
:100CC00050B1606C40F480606064A06C40F0020041
:100CD000A0642046FFF78EFE21681020086020687F
:100CE0000168490510D5416849050DD5616C41F48D
:100CF00080416164A16C41F00801A1644FF48061FE
:100D000001602046FFF7DFFBBDE8F081C068C00747
:100D1000D6E7000008070050000400500001005012
:100D200000030050F0B54FF0000695B004003746C0
:100D30003546009605D0606CC00648D4606C18B18A
:100D400033E0012015B0F0BDA5642565E56484F8A5
:100D50004050204600F00CF920688068C00024D480
:100D60002046FFF7BDFA0646606CC0061DD4E6B902
:100D7000606C20F4885040F0020060642068816854
:100D800021F0405181602068816841F0805181608C
:100D90006D486E490068B0FBF1F000EB8000400048
:100DA00000E0401E00900028FBD120688168C90047
:100DB00002D5806880000AD5606C20F0020040F007
:100DC00010006064A06C40F00100A0640126606C1B
:100DD000C00675D4002E73D12068816849076FD48E
:100DE000616C21F4807141F0020161644FF0A04E0A
:100DF000574B704501D0984201D1564A00E0564AFF
:100E0000DFF858C15649704501D100930EE0984271
:100E100002D1CDF800E009E0884202D1CDF800C04F
:100E200004E0604501D1009100E00095836803F083
:100E30000303012B02D10068C00710D1009840B114
:100E4000806800F00300012803D100980068C00703
:100E500005D19068636820F4403018439060D4E96D
:100E600002201043A26B012A02D04FF4805300E00D
:100E70000023E26943EA42331843636A3843012B93
:100E80000AD1F2B1626C22F0020242F020026264E6
:100E9000A26C42F00102A264E26A012A21D0236816
:100EA0008B4201D0634518D14FF430774FF4E07195
:100EB000BA4213D04FF480739A420AD139460DE0FA
:100EC00038E0228D274B03EB4242024342F480304C
:100ED000E2E78A4201D1194600E011460143206B46
:100EE000084321688A6812F00C0F0AD1CA6844F2DC
:100EF00002039A43CA60A169626B890341EA420115
:100F000008432268D168184B19400143D160206919
:100F100001282068016B21F00F0102D1226A521EC4
:100F200011430163A564606C20F0020040F00100F1
:100F3000606406E0606C20F0020040F01000606425
:100F400001263046FEE600009800002040420F00D7
:100F50000001005000030050000700500005005041
:100F6000000400500000FEFF07C0F0FF70470000C3
:100F7000F0B587B0044614216846FFF728F9254AE2
:100F8000266800231168022403252348491CB6F172
:100F9000A04F06D0214FBE423AD11160012918D08E
:100FA0001FE01160012907D1416941F08051416181
:100FB000416901F080510591416941F4003141617D
:100FC0004069009400F40030059069464FF090406D
:100FD00012E0416941F080514161416901F0805165
:100FE0000591416941F4002141614069009400F498
:100FF000002005900A486946CDE9015300F0ECFB5A
:1010000000221146122000F015FD122000F006FD0E
:1010100007B0F0BD88000020001002400001005021
:10102000000800482DE9F041044600688068400748
:1010300070D494F8400001280CD0012084F84000BE
:101040002046FFF77FF903004FF0000605D084F833
:10105000406086E00220BDE8F081606C40F60161EE
:10106000884340F48070606420684FF0A0413E4A9D
:101070003E4D884201D0904202D1D1F8087300E081
:101080002F6817F01F0F3A4F03D0884201D0B842A3
:101090000BD1D4F844C02CF4801CC4F844C0D0F860
:1010A0000CC05FEA8C1C14D41BE0D4F844C04CF490
:1010B000801CC4F844C0904202D1D1F80CC005E0B5
:1010C000DFF8ACC00CF10C0CDCF800C01CF0007FA9
:1010D00007D0D4F844C02CF4005C4CF4805CC4F815
:1010E00044C0D4F844C05FEACC4C06D5D4F848C01C
:1010F0002CF0060CC4F848C000E0A66484F84060F8
:101100001C2606602068884201D0904203D1D1F8A5
:10111000084301E024E02C6814F01F0F1BD0884224
:1011200001D0904202D1D1F8084300E02C6804F0CD
:101130001F04052C0FD0884201D0904202D1D1F873
:10114000082300E02A6802F01F02092A03D088421F
:1011500001D0B84205D1816841F00401816000E00E
:101160000223184677E700000001005008070050EE
:10117000000400502DE9F0410446006880684007F3
:1011800070D494F8400001280CD0012084F840006D
:101190002046FFF7D7F803004FF0000605D084F88B
:1011A00040609EE00220BDE8F081606C40F6016185
:1011B000884340F48070606420684FF0A0414A4A40
:1011C0004A4D884201D0904202D1D1F8087300E024
:1011D0002F6817F01F0F464F03D0884201D0B84246
:1011E0000BD1D4F844C02CF4801CC4F844C0D0F80F
:1011F0000CC05FEA8C1C14D41BE0D4F844C04CF43F
:10120000801CC4F844C0904202D1D1F80CC005E063
:10121000DFF8DCC00CF10C0CDCF800C01CF0007F27
:1012200007D0D4F844C02CF4005C4CF4805CC4F8C3
:1012300044C0D4F844C05FEACC4C06D5D4F848C0CA
:101240002CF0060CC4F848C000E0A66484F84060A6
:101250001C260660606908282068466803D046F0AE
:101260000C0607E03CE026F004064660206846686D
:1012700046F008064660A06B012804D12068466845
:1012800026F0100646602068884201D0904202D1C4
:10129000D1F8084300E02C6814F01F0F1BD08842DF
:1012A00001D0904202D1D1F8084300E02C6804F04C
:1012B0001F04052C0FD0884201D0904202D1D1F8F2
:1012C000082300E02A6802F01F02092A03D088429E
:1012D00001D0B84205D1816841F00401816000E08D
:1012E000022318465FE70000000100500807005085
:1012F0000004005010B5044690F84000012808D0C2
:10130000012084F840006C212046FEF78BFF10B1CD
:101310000BE0022010BD2046FEF7E2FF28B9616C09
:1013200021F4885141F001016164002184F84010EA
:1013300010BD704770477047704770B54379012BF7
:101340001AD0012646710223037105682C6840F605
:10135000FE7393409C43D1E900310B4393402343F8
:101360002B6001680B68C0249440A3430B60067196
:1013700000214171084670BD022070BD7047704762
:101380007047704770B50446006801684FF0040567
:10139000890411D5416B89040ED52571216941F06D
:1013A00001012161E90241632068016821F4805153
:1013B00001602046FFF7E4FF20680168890012D52C
:1013C000416B89000FD52571216941F0020121612E
:1013D0004FF0005141632068016821F080510160A5
:1013E0002046FFF7A8FF70BD70B5040003D0207938
:1013F000002510B105E0012070BD6571204600F0A8
:1014000007F802202071256101202071002070BDA5
:10141000F0B587B0054614216846FEF7D8FE22498C
:10142000286888423ED12149C86940F00050C8610F
:10143000C86900F000500590486940F400304861E8
:101440004869102700F4003000970590032000261B
:10145000CDE9010669464FF0904000F0BDF9154C0A
:101460001348C4E900078020C4E9026040002061FD
:10147000800060612020C4E90606204600F04CF997
:1014800008B1FEF7FBFF0C48016841F40051016010
:10149000AC60002211463620656200F0CBFA36209F
:1014A00000F0BCFA07B0F0BD00740040001002402C
:1014B00030000240F41E00200000014030B54279A7
:1014C000012A12D0012242710223037103681D68B0
:1014D00002FA01F425431D60002901680B6806D05B
:1014E000C3F383430F2B0AD00DE0022030BDC3F3BA
:1014F00083030F2B07D14B6843F0010302E04B68D5
:1015000043F002034B60027100214171084630BD77
:101510002DE9F04104460D461746617900220698F0
:10152000012920D00126667102212171F5B1D4F87C
:101530000CC03149CCF82810D4F80CC02F49CCF895
:101540002C10D4F80CC02E49CCF830102168D1F8FA
:1015500000C04CF0805CC1F800C090B3042834D0C7
:10156000082837D134E00220BDE8F081D4F808C063
:101570002449CCF82810D4F808C02349CCF82C1002
:10158000D4F808C02149CCF830102168D1F800C047
:101590004CF4805CC1F800C020B1042805D00828B4
:1015A00008D105E02268083204E022680C3201E02C
:1015B000226810322068016841F400510160A0687F
:1015C0000EE0FFE72268143204E02268183201E0DE
:1015D00022681C322068016841F000510160E06817
:1015E000394600F0C0F80020607120680168AE4004
:1015F000314301600020B7E7B7030008FD0300088E
:10160000DF030008A7030008F7030008C70300086A
:1016100010B502681468012303FA01F18C431460C9
:101620000371002010BD10B590F82110002402298C
:1016300003D004218163012418E001680A6822F0C4
:101640000E020A6001680A6822F001020A6090F83E
:101650004020C36B012101FA02F25A6080F8211088
:10166000002180F82010416B01B18847204610BD51
:10167000F0B4C16B0D6801680C68066C042202FAB4
:1016800006F32B420FD063070DD50B689B0603D4DE
:101690000B6823F004030B6090F840108A40C16B84
:1016A0004A60C16A1BE0022303FA06F72F424FF09B
:1016B000000C4FF0010216D0A70714D50C68A40641
:1016C00005D40C6824F00A040C6080F8212090F8FE
:1016D00040108B40C16B4B6080F820C0816A0029AC
:1016E00018D0F0BC08470823B3402B4212D0230780
:1016F00010D50B6823F00E030B6090F84010C36BFD
:1017000002FA01F15960826380F8212080F820C03C
:10171000016BE4E7F0BC704770B5040021D00220F3
:1017200084F821002268116843F6F0708143D4E9FF
:1017300001031843D4E903352B4318436369184365
:10174000A3691843E3691843084310602046FEF775
:1017500061FE0020A063012184F8211084F820009C
:1017600070BD012070BD70B5044690F820000025C2
:1017700001280CD0012084F8200094F8216000207A
:10178000012E06D084F820000225284670BD0220D4
:1017900070BD022684F82160A0632068066826F0E8
:1017A000010606602046FEF753FEE06A0028206826
:1017B000016802D041F00E0106E041F00A0101602B
:1017C0002068016821F0040101602068016841F08F
:1017D00001010160D9E700002DE9F84FDFF864B19D
:1017E00000234FF0010C4FF0030A4FF00F090BF1EB
:1017F000040EA0E00CFA03F6324072D04C68022CC2
:1018000001D0122C0ED1DC0800EB8408D8F820405F
:101810005D07EF0E09FA07F5AC430D69BD4025439E
:10182000C8F8205007685D0091F804800AFA05F4B2
:1018300008F00308A74308FA05F848EA0708C0F8C3
:1018400000804F68012F05D0022F03D0112F01D047
:10185000122F11D18768D1F80C80A74308FA05F838
:1018600048EA0708C0F808804768B7430E79C6F30E
:1018700000169E403E434660C668A6438C68AC4056
:101880003443C4604C68E40054D52F4CA56945F03E
:101890000105A561A46923F0030504F00104009487
:1018A0002A4C2E19B4689D072F0F09FA07F5AC438F
:1018B000B0F1904F04D0264DA84203D1012512E08B
:1018C000002510E0234DA84201D102250BE0224D56
:1018D000A84201D1032506E0204DA84202D10425EB
:1018E00001E027E00525BD402543B560DBF8004059
:1018F0005D464E689443F60300D514432C60DEF831
:10190000004075464E689443B60300D514432C60DE
:101910000C4D08352C684E689443F60200D51443EC
:101920002C60084D0C352C684E689443B60200D5E7
:1019300014432C605B1C0A6832FA03F47FF45AAF3C
:10194000BDE8F88F00040140001002400000014093
:101950000004004800080048000C0048001000483F
:101960000AB1816170478162704700000148806858
:10197000704700008C000020024881680278114402
:10198000816070478C000020074810B5016841F065
:1019900010010160032000F06DF8002000F006F84F
:1019A00000F024F8002010BD0020024070B50D4D5D
:1019B00004464FF47A712878B1FBF0F00A490968BF
:1019C000B1FBF0F000F052FE48B9102C07D2002213
:1019D0002146501E00F02EF800206C6070BD0120E2
:1019E00070BD00008C000020980000200A4882B0E2
:1019F000816941F001018161816901F0010100917A
:101A0000C16941F08051C161C06900F0805000900F
:101A1000072002B000F02EB80010024000F01F02B4
:101A2000012191404009800000F1E020C0F8001140
:101A300070470000F0B40E4B1B680C46C3F3022342
:101A4000C3F10705042D00D90425191D072901D26A
:101A5000002300E0DB1E012606FA05F1491E2140A5
:101A600099409E40761E16403143F0BC01F01EBDE9
:101A70000CED00E0064900F0070208684FF6FF038E
:101A8000184040EA0220034A1043086070470000F3
:101A90000CED00E00000FA0570B504004FF0000600
:101AA00004D094F87103002510B106E0012070BD48
:101AB00084F87053204600F043F8032084F8710343
:101AC00001220CE0C6EBC60004EB800080F8292060
:101AD00000F8286F761CC570C560056145616068B7
:101AE000B042EFD8002010E0C0EBC00104EB810150
:101AF00081F8CD5181F8CC0181F8CF51C1F8D8518E
:101B0000C1F8DC51401CC1F8E05161688142EBD85A
:101B10002068A0F840202068A0F840502068A0F875
:101B200044502068A0F8505021684FF43F40A1F87D
:101B3000400084F8245084F87123002070BD000018
:101B400010B586B0044614216846FEF740FB1349E1
:101B50002068884220D1124C606940F400306061F6
:101B60006069694600F4003005904FF4C050009061
:101B70000220019000200290032003900E20049088
:101B80004FF09040FFF728FEE06940F40000E0616C
:101B9000E06900F40000059006B010BD005C004054
:101BA000001002402DE9F84F04460068804DC00344
:101BB0006FD5E8690026C00008D4E86940F080507D
:101BC000E861E869012600F08050009079480168DA
:101BD000C90512D40168804641F480710160FFF7A5
:101BE000C5FE074605E000BFFFF7C0FEC01B642826
:101BF00035D8D8F80000C005F6D5286A10F4407032
:101C000053D0A18801F4407181424ED0286A4FF42C
:101C1000803191FAA1F2B2FA82F29700664A4FF04F
:101C20000108174420F44070C7F8008491FAA1F12C
:101C3000B1FA81F102EB81010023C1F8003428627E
:101C4000C00732D0FFF792FE074641F2883A4FF0C4
:101C5000020907E0FFF78AFEC11B514502D90320A4
:101C6000BDE8F88F99FAA9F1B1FA81F141F040018C
:101C70004846B8EB511F01D129680CE090FAA0F159
:101C8000B1FA81F141F04001B0EB511F02D1296A54
:101C900001E015E0696A99FAA9F0B0FA80F000F065
:101CA0001F0008FA00F21142D4D0286A616820F4BB
:101CB0004070084328621EB1E86920F08050E86156
:101CC0002078C00705D0286BA16820F003000843E6
:101CD00028632078800705D5286BE16820F4403020
:101CE000084328632078400705D5286B216920F434
:101CF0004020084328632078800605D5286BE169D9
:101D000020F01000084328632068800305D5686828
:101D1000A16B20F48000084368602078400605D558
:101D2000286B216A20F020000843286320780007F0
:101D300005D5286B616920F440100843286320789A
:101D4000C00605D5286BA16920F44000084328632C
:101D50002088800505D56868E16A20F40000084302
:101D600068602078000605D5E86A616A20F4F8709A
:101D70000843E8622088C00505D5E86AA16A20F416
:101D800078500843E8622088C00405D5286B216B91
:101D900020F48070084328632088800405D5286BD0
:101DA000616B20F4007008432863002058E70000AE
:101DB0000010024000700040000042422DE9F04750
:101DC0000F46050069D04A4E306800F00700B8425F
:101DD00009D2306820F0070038433060306800F0E6
:101DE0000700B84259D12878424C800705D5606871
:101DF000A96820F0F000084360602878C0073DD053
:101E00006968012001290DD0022923D05FF0020367
:101E100093FAA3F2B2FA82F242F02002520904D0FD
:101E2000226803E04FF40033F2E7626A93FAA3F307
:101E3000B3FA83F303F01F03984002422DD0606889
:101E400020F0030008436060FFF790FD804641F2F8
:101E500088390CE04FF00073DAE700BFFFF786FD2A
:101E6000A0EB0801494502D90320BDE8F08760686E
:101E7000696800F00C00B0EB810FEFD1306800F022
:101E80000700B8420BD9306820F0070038433060B3
:101E9000306800F00700B84201D00120E5E728785B
:101EA000400705D56068E96820F4E0600843606099
:101EB0002878000706D56068296920F4605040EA58
:101EC000C100606000F04CF86168F02292FAA2F262
:101ED00001F0F001B2FA82F2D140074A515CC840E9
:101EE000064908600020FFF761FD0020BDE7000003
:101EF00000200240001002400C450008980000201D
:101F000008480949006849684FF4E06292FAA2F271
:101F100001F4E061B2FA82F2D140044A515CC84057
:101F20007047000098000020001002401C45000887
:101F300008480949006849684FF4605292FAA2F2D1
:101F400001F46051B2FA82F2D140044A515CC840B7
:101F50007047000098000020001002401C45000857
:101F6000144B10B55A68144802F00C0104291DD016
:101F700008291BD14FF4701494FAA4F402F47011E0
:101F8000B4FA84F4E1400D4CDB6A615C0F2494FAEE
:101F9000A4F403F00F03B4FA84F4E340074C1034C4
:101FA000D203E35C03D5B0FBF3F0484310BD044813
:101FB000484310BD0010024000127A00EC440008B3
:101FC00000093D002DE9F84F040071D02078FB4D49
:101FD000C0074FF0010625D068687704C0F3810080
:101FE000012807D06868C0F3810002281BD1686807
:101FF000C00318D597FAA7F0B0FA80F040F020009F
:10200000400901D0286800E0686A97FAA7F1B1FAA0
:1020100081F101F01F0106FA01F1084265D0606804
:102020000028D2D061E06068B0F5803F0BD010B1DD
:10203000B0F5A02F17D0286820F4803028602868D9
:1020400020F4802002E0286840F480302860E86AAC
:10205000A16820F00F000843E862606820B3FFF732
:1020600085FC80460AE0286840F480202860EAE782
:10207000FFF77CFCA0EB0800642872D897FAA7F061
:10208000B0FA80F040F02000400901D0286800E05C
:10209000686A97FAA7F1B1FA81F101F01F0106FA17
:1020A00001F10842E4D020E0FFF760FC804607E041
:1020B000C7E000BFFFF75AFCA0EB08006428DCD89B
:1020C00097FAA7F0B0FA80F040F02000400901D064
:1020D000286800E0686A97FAA7F1B1FA81F101F087
:1020E0001F0106FA01F10842E4D12078DFF8D0821E
:1020F00080074FF0000A4FF0020759D568684FF08B
:10210000F80B10F00C0F07D06868C0F381000228AC
:102110001BD16868C00318D497FAA7F0B0FA80F012
:1021200040F02000400901D0286800E0686A97FA72
:10213000A7F1B1FA81F101F01F0106FA01F108429D
:102140002BD0206901287CD127E0206988B396FA3A
:10215000A6F0B0FA80F048F82060FFF707FC81464F
:1021600006E055E1FFF702FCA0EB0900022884D845
:1021700097FAA7F0B0FA80F040F02000400901D0B3
:10218000286800E0686A97FAA7F1B1FA81F101F0D6
:102190001F0106FA01F10842E4D028689BFAABF26D
:1021A0006169B2FA82F220F0F80091400843286099
:1021B00025E0FFE796FAA6F1B1FA81F148F821A0EF
:1021C000FFF7D4FB814605E0FFF7D0FBA0EB090049
:1021D0000228CCD897FAA7F0B0FA80F040F020009F
:1021E000400901D0286800E0686A97FAA7F1B1FABF
:1021F00081F101F01F0106FA01F10842E4D12078D3
:1022000000076AD5A069A0B396FAA6F0B0FA80F0EC
:1022100008EB8000C0F88064FFF7A8FB814605E06A
:10222000FFF7A4FBA0EB09000228A0D897FAA7F0BB
:10223000B0FA80F040F06000B6EB501F02D1286881
:102240000CE077E197FAA7F0B0FA80F040F0600078
:10225000B7EB501F01D1286A00E0686A97FAA7F12E
:10226000B1FA81F101F01F0106FA01F21042D7D054
:1022700033E0FFE796FAA6F0B0FA80F008EB8000B2
:10228000C0F880A4FFF772FB814605E0FFF76EFB04
:10229000A0EB090002289CD897FAA7F0B0FA80F0CA
:1022A00040F06000B6EB501F01D128680BE097FAB0
:1022B000A7F0B0FA80F040F06000B7EB501F01D1FA
:1022C000286A00E0686A97FAA7F1B1FA81F101F093
:1022D0001F0106FA01F21042D8D12078400774D5C8
:1022E000E8694FF00009C00009D4E86940F0805067
:1022F000E861E8694FF0010900F080500090314832
:102300000168C90512D4016841F480710160FFF7CA
:102310002DFB834606E000BFFFF728FBA0EB0B0078
:10232000642875D827480068C005F5D5E0680128FD
:102330000AD008B1052811D0286A20F001002862CF
:10234000286A20F0040002E0286A40F001002862B8
:10235000E068C8B3FFF70AFB83460DE0286A40F047
:1023600004002862F0E700BFFFF700FBA0EB0B01C1
:1023700041F2883081424BD897FAA7F0B0FA80F04A
:1023800040F04000B6EB501F01D128680BE097FAEF
:10239000A7F0B0FA80F040F04000B7EB501F01D139
:1023A000286A00E0686A97FAA7F1B1FA81F101F0B2
:1023B0001F0106FA01F21042D6D035E000100240AB
:1023C000000042420070004000E034E0FFF7CEFA27
:1023D000834607E0FFF7CAFAA0EB0B0141F2883011
:1023E000814215D897FAA7F0B0FA80F040F040008B
:1023F000B6EB501F01D128680CE097FAA7F0B0FAAD
:1024000080F040F04000B7EB501F02D1286A01E095
:1024100083E0686A97FAA7F1B1FA81F101F01F0130
:1024200006FA01F21042D5D1B9F1000F03D0E869E4
:1024300020F08050E861E06980B36968C1F38101F0
:10244000022977D04FF080714F00022809D091FA0D
:10245000A1F0B0FA80F048F820A0FFF787FA044610
:102460005EE050468A4691FAA1F1B1FA81F1C14687
:1024700048F82100FFF77AFA804605E0FFF776FA80
:10248000A0EB0800022848D897FAA7F0B0FA80F02D
:1024900040F02000400902D0286801E056E0686A58
:1024A00097FAA7F1B1FA81F101F01F0106FA01F1E3
:1024B0000842E3D1D4E908100843696821F4741193
:1024C000084368609AFAAAF0B0FA80F049F82060F0
:1024D000FFF74CFA044604E0FFF748FA001B022815
:1024E0001BD897FAA7F0B0FA80F040F0200040091E
:1024F00001D0286800E0686A97FAA7F1B1FA81F183
:1025000001F01F0106FA01F10842E5D01EE000BF0C
:10251000FFF72CFA001B022802D90320BDE8F88F30
:1025200097FAA7F0B0FA80F040F02000400902D0FE
:10253000286801E00CE0686A97FAA7F1B1FA81F126
:1025400001F01F0106FA01F10842E1D10020E5E7A0
:102550000120E3E72DE9F041040005D00025A56244
:1025600094F85D0018B107E00120BDE8F08184F81F
:102570005C50204600F04AF8022384F85D30206861
:10258000016821F040010160E0684FF4E066B0426C
:1025900001D9002101E04FF48051B0F5706F02D0F5
:1025A000B04200D0A562276B012227B9B04201D901
:1025B000236300E02263D4E901031843D4E904361D
:1025C00033431843238B03F400731843E369184320
:1025D000236A1843A36A184323681860636B606A10
:1025E000A66918430427E36807EA164633431843ED
:1025F0000843216848602068C16921F40061C16115
:10260000256684F85D200020AFE7000010B586B095
:10261000044614216846FDF7DAFD12492068884215
:102620001ED11148816941F480518161816901F4B1
:1026300080510591416941F4003141614069694629
:1026400000F400300590E02000900220019000206E
:1026500002900390052004904FF09040FFF7BCF8E3
:1026600006B010BD003001400010024010B5401E01
:10267000B0F1807F01D3012010BD4FF0E0246061F4
:102680000F21601700F012FF0020A06107202061D9
:10269000002010BD704770477047000030B590F8BB
:1026A0003C20012A1FD0012280F83C200268536898
:1026B00094680E4DAA4202D00D4DAA4203D123F4D4
:1026C00070054B682B4323F070050B6889682B431A
:1026D00024F080042143536002689160002180F857
:1026E0003C10084630BD022030BD0000002C0140E7
:1026F0000034014010B5040003D094F83D0010B13F
:1027000007E0012010BD002084F83C00204600F0C6
:102710000DF8022084F83D00211D206800F05CFFC8
:10272000012084F83D00002010BD000008B50168BC
:102730001948B1F1804F11D0184A914217D1C1699F
:1027400041F00201C161C069002200F00200009066
:1027500011461D20FFF76EF91D2019E0C16941F0F7
:102760000101C161C06900F00100009008BD0C4A80
:102770009142FBD1C16941F01001C161C0690022E1
:1027800000F01000009011463620FFF753F9362074
:10279000BDE80840FFF742B90010024000040040C5
:1027A00000100040022180F83D1001680A6842F0E4
:1027B00001020A60012180F83D1000207047016885
:1027C000CA6842F00102CA600068016841F0010174
:1027D000016000207047022180F83D1001680A6AFC
:1027E00041F211131A4207D10A6A9B101A4203D10F
:1027F0000A6822F001020A60012180F83D100020E1
:1028000070470168CA6822F00102CA600068016A64
:1028100041F21112114207D1016A9210114203D103
:10282000016821F0010101600020704770B5044685
:1028300090F83C00012817D0012584F83C50022074
:1028400084F83D0022689068364E304020F47F4086
:1028500090600868502839D00DDC20285BD005DC5A
:1028600098B3102843D153E0022070BD302855D0D2
:1028700040283CD141E0602830D070280CD0B0F521
:10288000805F03D0B0F5005F31D112E0206881682D
:10289000244A7032114016E0CB68D1E9012120684A
:1028A00000F0F2FE21688868304040F077008860D0
:1028B0001DE0CB68D1E90121206800F0E5FE206829
:1028C000816841F48041816011E01EE0CA68496876
:1028D000206801F073F85021206806E0CA68496852
:1028E000206801F07CF86021206800F0D7FE84F8B1
:1028F0003D50002084F83C0070BDCA6849682068DB
:1029000001F05CF840212068EFE700212068ECE747
:1029100010212068E9E720212068E6E730212068BF
:10292000E3E7000088FFFEFF704770B504460068CB
:1029300001694FF00005C943890715D4C168C9432F
:10294000890711D4E91E0161012020772068806980
:102950008007204602D0FFF7E7FF04E000F0D0F840
:10296000204600F07EF9257720680169C9434907B0
:1029700017D4C168C943490713D46FF0040101613A
:10298000022020772068806910F4407F204602D022
:10299000FFF7CAFF04E000F0B3F8204600F061F949
:1029A000257720680169C943090716D4C168C9435E
:1029B000090712D46FF00801016104202077206814
:1029C000C0698007204602D0FFF7AEFF04E000F0A8
:1029D00097F8204600F045F9257720680169C9433A
:1029E000C90617D4C168C943C90613D46FF01001D2
:1029F0000161082020772068C06910F4407F2046DC
:102A000002D0FFF791FF04E000F07AF8204600F0D2
:102A100028F9257720680169C943C90708D1C16829
:102A2000C943C90704D1891E0161204600F01AF983
:102A300020680169C943090609D4C168C943090668
:102A400005D46FF0800101612046FFF724FE206865
:102A50000169C943C90509D4C168C943090605D438
:102A60006FF4807101612046FFF714FE2068016950
:102A7000C943490609D4C168C943490605D46FF062
:102A800040010161204600F025F920680169C94331
:102A900089060BD4C168C943890607D46FF02001A9
:102AA00001612046BDE87040FFF7F6BD70BD000033
:102AB00010B586B0044614216846FDF788FB0D4921
:102AC0002068884214D10C48416941F48021416159
:102AD0004069002100F48020059001200090022030
:102AE000CDE90101CDE9031069460448FEF774FE03
:102AF00006B010BD00040040001002400004004871
:102B0000704770B5044690F83C000D4601280ED081
:102B1000012684F83C60022084F83D000C2A45D050
:102B200007DC5AB1042A1BD0082A78D12CE00220F5
:102B300070BD102A4ED0142A71D15DE0206800F0DB
:102B4000B5FD2068816941F00801816120688169D3
:102B500021F004018161206881692A69114311E033
:102B6000206800F0F1FD2068816941F40061816115
:102B70002068816921F480618161206881692A6906
:102B800041EA022181614AE0206800F025FE2068C8
:102B9000C16941F00801C1612068C16921F00401E7
:102BA000C1612068C1692A69114311E0206800F001
:102BB0005BFE2068C16941F40061C1612068C169A0
:102BC00021F48061C1612068C1692A6941EA02215A
:102BD000C16124E0206800F081FE2068416D41F071
:102BE000080141652068416D21F0040141652068BC
:102BF000416D2A69114311E0206800F0A7FE2068AA
:102C0000416D41F4006141652068416D21F48061AE
:102C100041652068416D2A6941EA0221416584F8D5
:102C20003D60002084F83C0070BD10B5040003D066
:102C300094F83D0010B107E0012010BD002084F899
:102C40003C00204600F00CF8022084F83D00211DD5
:102C5000206800F0C1FC012084F83D00002010BD78
:102C60007047704770B5194A0168914216D1184CE7
:102C7000002221466579CB89591C89B2012D03D0E8
:102C8000A589AB4210D311E065780120012D06D053
:102C90006589AB4208D360702070E28170BD2589E0
:102CA000AB4201D36270F7E7E18170BD032161712E
:102CB000E281A270FFF7A5FD606905490A238069DA
:102CC000BDE870400522183100F0D6B9000400407C
:102CD00000000020704770477047000070B503681F
:102CE0000446D869196810F00F0508D1820606D588
:102CF0008A0604D52046BDE8704000F046BF9A68B9
:102D0000002D66D002F0010501F490762E4360D0CC
:102D1000C60707D0CE0505D501261E62E36E43F037
:102D20000103E366830708D5D30706D0266802238C
:102D30003362E36E43F00403E366430708D5D2072A
:102D400006D0236804221A62E26E42F00202E266B2
:102D500002070AD501F020022A4306D02368082280
:102D60001A62E26E42F00802E266E26E002A29D0A0
:102D7000800604D5880602D5204600F006FFE06EE6
:102D8000000703D42068806840061CD5204600F068
:102D9000E1FE20688168490611D5816821F0400173
:102DA0008160606E58B11C494163606EFEF73BFC68
:102DB000002807D0606E416BBDE870400847204690
:102DC000FFF78AFF70BD2046FFF786FF0020E06610
:102DD00070BDC5020ED552020CD54FF4801018629A
:102DE000202084F8690084F86A002046BDE870401D
:102DF000FFF771BF020606D50A0604D52046BDE8D6
:102E0000704000F0E7BF4006E2D54806E0D5204616
:102E1000BDE8704000F0ACBE413B000810B50400B6
:102E200003D094F8690010B107E0012010BD002024
:102E300084F86800204600F027F8242084F8690010
:102E40002068016821F001010160204600F0D8FEF1
:102E50000128EBD0606A10B1204600F0DFFD206849
:102E6000416821F4904141602068816821F02A0185
:102E700081602068016841F0010101602046BDE8E1
:102E8000104000F02FBE0000F0B587B004461421BA
:102E90006846FDF79CF93D4B226800253C49022419
:102EA000032605273B489A421CD1CA6942F40022F6
:102EB000CA61CA6902F4002205924A6942F40022FA
:102EC0004A61496901F400210591B1028DE8F200DF
:102ED0006946FEF781FC002211463420FEF7AAFD68
:102EE00034202DE02C4B9A422ED1CA6942F4801234
:102EF000CA61CA6902F4801205924A6942F400224A
:102F00004A614A6902F4002205924A6942F4801239
:102F10004A61496901F48011059199148DE8F20024
:102F20006946FEF759FC04208DE8F10069461B480C
:102F3000FEF752FC002211463520FEF77BFD3520BE
:102F4000FEF76CFD07B0F0BD154B9A42FAD18A69C5
:102F500042F480428A618A6902F4804205924A6999
:102F600042F400224A61496901F4002105913021AF
:102F70008DE87200072104916946FEF72DFC0022BE
:102F800011462520FEF756FD2520D9E7004C0040CC
:102F9000001002400008004800500040000C0048AB
:102FA0000038014090F86A30202B36D199B192B1A7
:102FB00090F86830012B30D0012380F868304165EB
:102FC000A0F85820A0F85A208168FF22B1F5805F50
:102FD00003D039B10BE0012070470169D1B940F24B
:102FE000FF1102E00169A9B17F21A0F85C10002166
:102FF000C166222280F86A2080F8681001688A6819
:1030000042F001028A600068016841F49071016039
:1030100000207047A0F85C20E9E70220704700001C
:1030200070B505460068114988421DD1104C2078C2
:1030300090B964230122611C284600F01DF86078D5
:103040000D2805D00B4A61885054491C618003E06B
:1030500001202070002060802846BDE870400449AF
:103060000122491CFFF79EBF70BD000000500040C8
:10307000280000200C1800202DE9F843044690F8A1
:1030800069001F4616460D4620284DD1CDB1C6B168
:1030900094F86800012847D0012084F868004FF0B8
:1030A0000008C4F86C80212084F869005034FEF7D1
:1030B0005DFC24F8026B814624F852694FF4805677
:1030C00018E00120BDE8F883B4F85200401EA4F8CF
:1030D00052004B46002280212046009700F0ACFEB3
:1030E000A0B9A068B04201D1206988B115F8010BE0
:1030F00021680885B4F852000028E5D14B4600222B
:1031000040212046009700F097FE30B10320D9E718
:1031100035F8020BC0F30800EAE7202084F86900C4
:1031200084F868800020CDE70220CBE77047FEE7F7
:1031300030B589B000240694079418216846089495
:10314000FDF745F813484FF0A0410125C0E90014F0
:1031500084600461C5614462C0E90B54C4600562C7
:1031600004214463C0E905148463FDF7DBFD06A96F
:1031700008480694FDF7AAF9022000900394CDE9CF
:1031800001540494694603480594FDF729FA09B0EF
:1031900030BD00001C18002030B587B018216846EB
:1031A000FDF715F8114810490024C0E900148460A7
:1031B0000461C46101254462C0E90B54C460056226
:1031C00004214463C0E905148463FDF7ABFD0720C7
:1031D00000900394CDE90154049469460348059492
:1031E000FDF7FEF907B030BD000100507018002057
:1031F00010B504490448FDF742F90249491E087018
:1032000010BD0000810000206C0000202DE9F0417D
:1032100086B014216846FCF7DAFF3948416941F469
:1032200000114161416901F400110591416941F4C6
:1032300000214161416901F400210591416941F496
:1032400080014161416901F480010591416941F4C6
:1032500000314161416901F400310591416941F456
:1032600080214161416901F480210591416941F466
:10327000801141614069234F00F480104FF60875BA
:103280000590002229463846FEF76AFB0122DFF846
:103290007880560331464046FEF762FB37200090A7
:1032A0001A480024CDE9010469463846FEF794FA2D
:1032B00000950125CDE90154694638460394FEF78F
:1032C0008BFACDE9005469464FF090400294FEF726
:1032D00083FA0096CDE90154694640460394FEF70F
:1032E0007BFAC02000901220CDE901050420CDE931
:1032F000034069464046FEF76FFA06B0BDE8F0812C
:1033000000100240001000480004004800001210A5
:103310000E480D494FF4E06201604FF48271416044
:103320000021C0E902124FF400720161C0E90512E8
:103330002822C0E9072107224162C0E90A1201637D
:1033400008214163FFF706B900300140D81800207A
:1033500010B588B00024124800940194029403949C
:10336000049405944FF08041069401606421C0E903
:1033700001140321C0E903148461FFF7BBF94FF482
:103380008050009069460648FFF750FA20200490CC
:1033900004A906940248FFF781F908B010BD0000A7
:1033A0003C19002010B58EB00024079408940994AD
:1033B0000A940B940C941C2168460D94FCF707FFAB
:1033C0001748164901604FF49651C0E9011440F2C4
:1033D000F311C0E903148461FFF78CF94FF48050B6
:1033E000079007A90E48FFF721FA0D48FFF71DFCCB
:1033F0000B940BA90A480D94FFF750F96020CDE912
:10340000000402940822694605480494FFF779FBFA
:103410000348FFF74DFB0EB010BD00000004004054
:103420007C1900200948084901604FF49641416029
:10343000002181600C22C160C0E904128161C16178
:1034400001624162FFF7EABC004C0040FC19002019
:103450000948084901604FF49641416000218160AC
:103460000C22C160C0E904128161C1610162416244
:10347000FFF7D4BC005000406C1A002009480849EE
:1034800001604FF496414160002181600C22C160CF
:10349000C0E904128161C16101624162FFF7BEBCF3
:1034A00000380140DC1A0020FEE770470907090ECA
:1034B000002806DA00F00F0000F1E02080F8141D6B
:1034C000704700F1E02080F80014704770477047A3
:1034D000FEF752BA30B59FB028210FA8FCF777FE4F
:1034E000142119A8FCF773FE3C216846FCF76FFE17
:1034F0000FAA01204FF4A021002482E813001390AA
:1035000002250004CDE91650000118900FA8FEF71F
:1035100059FD0F20CDE919056802CDE91B401D902A
:10352000012119A8FEF74AFC0648059400904012B4
:10353000099080030E90029406946846FEF732FBD1
:103540001FB030BD990002001448016841F47001B9
:1035500001601348016841F0010101604168114AAE
:10356000114041600168104A11400160016821F476
:1035700080210160416821F4FE014160C16A21F0AF
:103580000F01C162016B094A114001630021816092
:103590000249C003803908607047000088ED00E0F0
:1035A000001002400CC07FF8FFFFF6FECCFC00FFCD
:1035B0000148FFF7BAB900007C19002010B5044893
:1035C000FFF7B3F9BDE810400248FDF7DBBE00008D
:1035D000BC190020C41800202DE9F0430268234BD9
:1035E000234D244E244C4FF08049984207D0484543
:1035F00005D0A84203D0B04201D0A04203D122F0AE
:1036000070074A683A431D4FDFF874C0DFF87480D2
:1036100098420DD048450BD0A84209D0B04207D0FF
:10362000A04205D0B84203D0604501D0404503D147
:1036300022F44075CA682A434D6922F080022A4369
:1036400002608A68C2620A688262984207D0A04219
:1036500005D0B84203D0604501D0404501D1096989
:10366000016301214161BDE8F0830000002C0140AD
:1036700000040040000800400034014000400140C8
:10368000004401400048014010B5846842EA03222A
:1036900024F47F440A432243826010BD826822F0F2
:1036A00070020A4342F00701816070472DE9F04340
:1036B000026A22F001020262056A436882691C4CB8
:1036C00025F0020522400C6822F0030214438A68A8
:1036D000194E2A43174D194FDFF864C0DFF8649084
:1036E000A84207D0B04205D0B84203D0604501D00F
:1036F000484506D122F00808CA6842EA080222F0CA
:103700000402A84207D0B04205D0B84203D06045B9
:1037100001D0484505D14D6923F440731D438B69A1
:103720002B4343608461496841630262BDE8F083D2
:103730008FFFFEFF002C014000340140004001409B
:103740000044014000480140F0B5026A22F0100236
:103750000262056A42688369194C1B4E23400C685B
:1037600023F4407343EA042425F020038D6843EAE0
:103770000513144DA84201D0B04206D1CF6823F002
:10378000800343EA071323F04003A8420AD0B04263
:1037900008D00E4DA84205D00D4DA84202D00D4DC7
:1037A000A84207D14D6922F4406242EA85028D6940
:1037B00042EA850242608461496881630362F0BD28
:1037C000FF8FFFFE002C014000340140004001400B
:1037D0000044014000480140F0B5026A22F48072C2
:1037E0000262056A4368C269194C1B4E22400C688C
:1037F00022F00302144325F400728D6842EA052288
:10380000144DA84201D0B04206D1CF6822F4006224
:1038100042EA072222F48062A8420AD0B04208D0CD
:103820000E4DA84205D00E4DA84202D00D4DA84223
:1038300007D14D6923F4405343EA05138D6943EAE8
:1038400005134360C4614968C1630262F0BD0000B2
:103850008FFFFEFF002C014000340140004001407A
:10386000004401400048014030B5026A22F4805211
:103870000262046A4268C369124D24F400542B406A
:103880000D6823F4407343EA05238D6844EA053448
:103890000D4DA8420BD00D4DA84208D00C4DA842AA
:1038A00005D00C4DA84202D00B4DA84204D14D6961
:1038B00022F4804242EA85124260C3614968016491
:1038C000046230BDFF8FFFFE002C01400034014038
:1038D00000400140004401400048014030B5026A08
:1038E00022F480320262046A4268436D114D2B401B
:1038F0000D681D4324F400330C8943EA04430E4C45
:10390000A0420BD00D4CA04208D00D4CA04205D0D7
:103910000C4CA04202D00C4CA04204D14C6922F4C1
:10392000803242EA0422426045654968816503624B
:1039300030BD00008FFFFEFF002C0140003401402D
:1039400000400140004401400048014030B5026A97
:1039500022F480120262046A4268436D114D24F41D
:1039600000142B400D6843EA05230D8944EA0554F1
:103970000D4DA8420BD00D4DA84208D00C4DA842C9
:1039800005D00C4DA84202D00B4DA84204D14D6980
:1039900022F4802242EA8522426043654968C1657B
:1039A000046230BDFF8FFFFE002C01400034014057
:1039B00000400140004401400048014010B5036A46
:1039C000046A24F001040462846924F0F00444EAE7
:1039D000021423F00A020A438461026210BD10B58A
:1039E000036A23F0100303628369046A23F47043BB
:1039F00043EA023224F0A00343EA0111826101622A
:103A000010BD00000148FFF769B90000FC19002053
:103A10000148FFF763B900006C1A002090F82410E9
:103A2000C90706D001684A68836A22F400321A4343
:103A30004A6090F82410890706D501684A68C36A6D
:103A400022F480321A434A6090F82410490706D5C0
:103A500001684A68036B22F480221A434A6090F896
:103A60002410090706D501684A68436B22F4004216
:103A70001A434A6090F82410C90606D501688A687E
:103A8000836B22F480521A438A6090F824108906CE
:103A900006D501688A68C36B22F400521A438A6013
:103AA00090F82410490611D501684A68036C22F485
:103AB00080121A434A60016CB1F5801F06D101687B
:103AC0004A68436C22F4C0021A434A6090F82410FA
:103AD000090606D501684A68806C22F40022024378
:103AE0004A607047F8B500260446C666FDF73EFFFB
:103AF0000546206800686FF07E47000708D52B4612
:103B000000224FF400112046009700F095F960B9AB
:103B10002068006840070AD52B4600224FF4800138
:103B20002046009700F088F908B10320F8BD202056
:103B300084F8690084F86A0084F868600020F8BDA1
:103B400010B5406A0021A0F85A10A0F85210FFF7F3
:103B5000C3F810BD01680A6822F490720A60016817
:103B60008A6822F001028A60202180F86A1070477A
:103B700010B501680A6822F040020A60202180F82E
:103B80006910FFF7D3FA002010BD10B5B0F85C2023
:103B900090F86A300168222B05D0886940F008004F
:103BA0008861022010BD898C8368B3F5805F01D1E4
:103BB00003696BB11140426D531C43651170B0F83D
:103BC0005A10491E0904090CA0F85A1007D015E034
:103BD000436D11401980416D891C4165EFE7016813
:103BE0000A6822F490720A6001688A6822F0010271
:103BF0008A60202180F86A10FFF712FA002010BDB9
:103C00002DE9F041044610202369A268E6691A43B1
:103C10006369002133431A4323680D461E6849F245
:103C20000C67BE4316431E6022685368E66823F49F
:103C3000405333435360236AA2691A4323689E6842
:103C400026F4306616439E605A4F22685A4B06038C
:103C5000BA420CD11B6B13F0030306D0012B4DD0DD
:103C6000022B4DD0032B4CD146E0012049E0534FAD
:103C7000BA420CD11B6B13F440333BD0B3423DD05E
:103C8000B3F5003F3CD0B3F5403F3AD134E04C4F60
:103C9000BA420DD11B6B13F440232BD0B3F5802F08
:103CA0002CD0B3F5002F2BD0B3F5402F29D123E032
:103CB000444FBA420DD11B6B13F440131AD0B3F525
:103CC000801F1BD0B3F5001F1AD0B3F5401F18D1C9
:103CD00012E03D4FBA4214D11B6B13F4400309D0DC
:103CE000B3F5800F0AD0B3F5000F09D0B3F5400F3C
:103CF00007D101E0002004E0022002E0042000E0FF
:103D00000820E7694FF400439F4226D109281DD2BD
:103D1000DFE800F00508121C151C1C1C1800FEF73B
:103D2000EFF801E0FEF704F94100606801EB500193
:103D3000B1FBF0F081B20AE024496068F6E7FEF7D3
:103D40000FF9F1E7606806EB5001F1E7012521F07A
:103D50000F00C1F3420108431CE0092825D2DFE827
:103D600000F005080B24102424241C00FEF7C8F8DA
:103D700009E0FEF7DDF806E01549606801EB500147
:103D80000EE0FEF7EDF80146606801EB5001B1FB73
:103D9000F0F080B22168C86008E0606803EB500171
:103DA000B1FBF0F080B2D06000E001252846BDE80C
:103DB000F081000000380140001002400044004043
:103DC00000480040004C0040005000400024F40037
:103DD00000127A0090F86910212901D00220704762
:103DE000B0F8521021B18168B1F5805F0BD00CE0C2
:103DF00001680A6822F080020A600068016841F0E8
:103E0000400101600CE0016961B1C16C4A1CC264EF
:103E100002680978A2F8281030F8521F491E018064
:103E200000207047C16C02680988C1F30801118540
:103E3000C16C891CC164EFE72DE9F0419846174633
:103E40000E460446069D1DE0681C1BD02DB1FDF7F3
:103E50008DFDA0EB0800A84214D92068016821F468
:103E6000D07101602068816821F00101816020200B
:103E700084F8690084F86A00002084F86800032050
:103E8000BDE8F0812068C06936EA000004D0002057
:103E9000B842D9D00020F3E70120F9E70148FEF746
:103EA0001DBF0000DC1A00200248012101700078CB
:103EB0007047000068000020012070470020704714
:103EC000024801210170007870470000680000205E
:103ED00000207047FEE702E008C8121F08C1002A50
:103EE000FAD170477047002001E001C1121F002A7B
:103EF000FBD170470020044902460A54401CC0B25E
:103F00001028FAD3704700000C180020C16980689F
:103F10004A68D221162A40D2DFE802F03F0B0D0F8B
:103F200011133F1517191C1F2225282B2E3134374A
:103F30003A3D7D2131E08C212FE09D212DE0A7210C
:103F40002BE0BB2129E0EC2127E0FA2125E04FF40A
:103F50008C7122E040F23B111FE040F24D111CE059
:103F60004FF4BB7119E04FF4D27116E040F2D71153
:103F700013E040F2F31110E04FF40C710DE040F249
:103F800075210AE040F29B2107E04FF43B7104E009
:103F90004FF4527101E040F2AF31C1607047000050
:103FA00030B5C26904464FF6FF70118987B000EA48
:103FB000410329490B81928900EA42004881A168A6
:103FC000012048602046FFF7A1FFA068FEF703FC30
:103FD0000021E068FDF71CFB002501950295039583
:103FE000A068FEF787FB08B1FCF748FA202003958C
:103FF000019001A9A068FEF751FB08B1FCF73EFA59
:10400000049505950695E068FDF7EEF908B1FCF713
:1040100035FA0420CDE90405002204A9E068FDF783
:104020008CF908B1FCF72AFAA068FEF7BBFB002167
:10403000E068FDF743FA00954FF48073074A0021CA
:10404000E068FDF765FA2068FEF7B9FB0021E0683B
:10405000FDF7DEFA07B030BD00000020EC4200089A
:104060000149486170470000000000200EB5FDF7CF
:104070008BFCFFF72FFAFFF7C9F83448416941F08C
:10408000010141614069002200F0010000901146E9
:104090000D20FDF7CFFC0D20FDF7C0FCFFF7A8F8C1
:1040A000FFF7ECF9FFF7BEF9FFF77CF90024294888
:1040B0000094019426490294C0E90014C913C0E990
:1040C00002418461FEF716FB2020009069460294AD
:1040D0002048FEF7E3FA1F490094F83901941E487E
:1040E000029408600846FDF77FF90420CDE900043A
:1040F000184800226946F838FDF71FF91848174993
:1041000001600821416002218160846104620161D3
:10411000FDF7C2FCFFF70CF8FFF73EF8FFF7F8F8E1
:10412000FFF716F9FFF794F90A48B03000F0D8F815
:104130000C48FFF795FF0C48FDF71CF809481C38A0
:1041400000F0ACF8074800F089F8F7E700100240EB
:1041500000100040BC19002000740040005C0040CA
:104160004C1B0020480000201C1800202DE9F041C5
:104170000546C0691C4C00260069A179DFF86C80F7
:104180004FF4807788421DDB2078012817D16078B2
:1041900031460028E8680AD0FDF790F90122394637
:1041A0004046FDF7DDFBA079401CA07106E0FDF75D
:1041B0002FFA002239464046FDF7D2FB2670012037
:1041C000BDE8F0810021E868FDF722FA00223946B7
:1041D0004046FDF7C5FB2868FEF713FBA671267065
:1041E0006670E6810020EBE7000000200010004828
:1041F00070B5084C0025E17919B1FFF7D1FEE571E2
:1042000070BDFFF7B3FF0028FAD165710120E0719E
:1042100070BD00000000002070B50F4C0546A0786E
:10422000002818D1E8694FF6FF710A23008B062297
:1042300000EB800001EA4000A081606904F12201E6
:104240008069FEF719FF2869FCF7ECFE2868FEF785
:10425000B6FA0120A07070BD000000200E494A7916
:104260002AB1012A15D0022A0AD1FFF7D5BFC069A9
:1042700000220378012B04D0037D012B05D04A7165
:10428000704701234B710270704702234B71027516
:104290007047FFF7ADBF0000000000200E4B10B5C7
:1042A0001978002917D00D4901220C78412C0BD028
:1042B000472C0CD102704A7842608A788260CA78B2
:1042C000C2600979016102E002750A218161FFF78C
:1042D00011FE0020187010BD280000200C180020CE
:1042E00001220149FEF75EBE2900002000083208C5
:1042F00064089608C808FA082C095E098F09C009E5
:10430000F109220A520A820AB10AE10A0F0B3D0B97
:104310006B0B980BC50BF10B1C0C470C710C9B0C19
:10432000C30CEB0C130D390D5F0D840DA80DCB0DD7
:10433000ED0D0E0E2F0E4E0E6C0E8A0EA60EC20E38
:10434000DC0EF50E0E0F250F3B0F500F640F760F8E
:10435000880F980FA70FB50FC20FCE0FD80FE10F20
:10436000E90FF00FF60FFA0FFD0FFF0FFF0FFF0F12
:10437000FD0FFA0FF60FF00FE90FE10FD80FCE0F78
:10438000C20FB50FA70F980F880F760F640F500F4D
:104390003B0F250F0E0FF50EDC0EC20EA60E8A0E79
:1043A0006C0E4E0E2F0E0E0EED0DCB0DA80D840DC6
:1043B0005F0D390D130DEB0CC30C9B0C710C470CEE
:1043C0001C0CF10BC50B980B6B0B3D0B0F0BE10A93
:1043D000B10A820A520A220AF109C0098F095E094C
:1043E0002C09FA08C8089608640832080008CD07A6
:1043F0009B07690737070507D306A10670063F0626
:104400000E06DD05AD057D054E051E05F004C20452
:10441000940467043A040E04E303B8038E036403B0
:104420003C031403EC02C602A0027B0257023402D2
:104430001202F101D001B1019301750159013D0151
:1044400023010A01F100DA00C400AF009B008900DB
:104450007700670058004A003D00310027001E0029
:1044600016000F0009000500020000000000000017
:104470000200050009000F0016001E002700310091
:104480003D004A0058006700770089009B00AF009C
:10449000C400DA00F1000A0123013D015901750150
:1044A0009301B101D001F1011202340257027B02E3
:1044B000A002C602EC0214033C0364038E03B8039B
:1044C000E3030E043A0467049404C204F0041E05D6
:1044D0004E057D05AD05DD050E063F067006A106FD
:1044E000D3060507370769079B07CD0702030405B5
:1044F000060708090A0B0C0D0E0F10100102030429
:1045000005060708090A0B0C0D0E0F10000000002D
:104510000000000001020304060708090000000073
:104520000102030444450008000000209C00000034
:10453000D63E0008E04500089C000020AC220000A8
:10454000E63E00080100000000000002F401E8035C
:1045500064000000000000000000000048494748D7
:104560000A53544F500A53544152540A0000000059
:1045700000000000120000001900000032000000DE
:104580001E000000000000000A0000007C1900204E
:104590003C190020BC190020C41800201C18002061
:1045A00070180020FC1900202C00002001000000E1
:1045B000A93E0008C13E0008BD3E0008D13E0008EB
:1045C000B93E0008000000000000000000000000EC
:1045D00001000000100000000000000000127A003E
:040000050800018965
:00000001FF
