:020000040800F2
:10000000E80900209D010008D9300008612D000892
:10001000D530000809020008453D00080000000036
:100020000000000000000000000000001731000880
:10003000FD02000800000000153100081931000819
:10004000B7010008B7010008B7010008B7010008B0
:10005000B7010008B7010008B7010008B7010008A0
:10006000B7010008B7010008B7010008B701000890
:10007000B701000881020008B7010008B7010008B5
:10008000B7010008B7010008B7010008B701000870
:10009000B7010008B7010008B7010008B701000860
:1000A000B7010008B7010008B7010008B701000850
:1000B000B701000831320008B7010008B701000895
:1000C000B7010008B7010008B7010008B701000830
:1000D000B7010008353D0008B7010008B701000866
:1000E000B7010008B7010008B7010008B701000810
:1000F000B7010008B7010008B7010008B701000800
:10010000000000000000000000000000B70100082F
:10011000B7010008B701000841320008B701000824
:10012000B7010008B7010008B7010008B7010008CF
:10013000B7010008B701000800000000000000003F
:10014000B7010008B7010008B7010008000000006F
:10015000000000000000000000000000000000009F
:100160000000000000000000B7010008B70100080F
:10017000B7010008000000000000000000000000BF
:1001800000000000B7010008DFF80CD000F02AF8EA
:10019000004800473D3F0008E80900200648804726
:1001A00006480047FEE7FEE7FEE7FEE7FEE7FEE75C
:1001B000FEE7FEE7FEE7FEE7B5310008890100082B
:1001C000D2B201E000F8012B491EFBD27047002299
:1001D000F6E710B513460A4604461946FFF7F0FF46
:1001E000204610BD064C074D06E0E06840F00103D4
:1001F00094E8070098471034AC42F6D3FFF7C8FFE5
:10020000D0420008F042000800BFFEE770B5044687
:10021000656A284600F0A5F80120287170BD70B508
:100220000446656A284600F06BF80120287170BD0D
:1002300070B505466C6A206940F0040020612046D4
:1002400000F092F80120207170BD70B505466C6A0F
:10025000206940F004002061204600F054F801209D
:10026000207170BD70B50446656A284600F07AF8C2
:1002700070BD70B50446656A284600F042F870BD4E
:1002800010B5024800F032FA10BD00004C0000200A
:100290000D4A016891420BD20C4A0168891A142256
:1002A000B1FBF2F18900016408490839C1630AE031
:1002B000054A0168891A1422B1FBF2F18900016430
:1002C00001490839C1637047080402400800024030
:1002D00030B590F840500124AC40C56B6C600468A8
:1002E00063604468102C04D10468A2600468E16073
:1002F00003E00468A1600468E26030BD70477047A5
:10030000704770477047704770B50346002400255A
:1003100000BF5879012801D1022070BD0120587119
:1003200000BF022018711868046840F6FE70904003
:100330008443D1E9000640EA060505FA02F00443C9
:100340001868046018680668C020904086431868E2
:1003500006600120187100BF0020587100BF00BF67
:10036000DBE7704770477047704710B50446206858
:10037000006800F40050B0F5005F19D12068406BB0
:1003800000F40050B0F5005F12D104202071206904
:1003900040F0010020614FF400502168486320685C
:1003A000006820F48050216808602046FFF7DBFFDA
:1003B0002068006800F00050B0F1005F19D120689B
:1003C000406B00F00050B0F1005F12D104202071AA
:1003D000206940F0020020614FF00050216848631E
:1003E0002068006820F08050216808602046FFF7F0
:1003F00089FF10BD10B504460CB9012010BD20794D
:1004000020B900206071204600F008F80220207119
:1004100000202061012020710020EFE710B586B098
:100420000446142101A8FFF7D2FE2C492068884217
:1004300051D100BF2A48C06940F000502849C86126
:100440000846C06900F00050009000BF00BF00BF28
:100450000846406940F4003048610846406900F4AD
:100460000030009000BF00BF1020019003200290D8
:100470000020039001A94FF0904000F023FA1948A2
:1004800019490860102048600021174881608021C8
:10049000C160490001618900416120218161002121
:1004A000C16100F096F908B1FFF729FF00BF0F48BE
:1004B000006840F400500D49086000BF00BF0A48C2
:1004C000A060446200BF00221146362000F06BFCA1
:1004D000362000F05BFC06B010BD00000074004048
:1004E00000100240300002404C000020000001409B
:1004F000024600BF5079012801D102207047012037
:10050000507100BF022010711068006801238B40F9
:1005100018431368186061B91068006800F03C0067
:100520003C2813D11068406840F0010013685860FF
:100530000CE01068006800F47010B0F5701F05D171
:100540001068406840F00200136858600120107184
:1005500000BF0020507100BF00BFCFE72DE9F0477A
:1005600004460D4616469846089F4FF0000900BF06
:100570006079012802D10220BDE8F0870120607176
:1005800000BF0220207115BB3648A168886236483A
:10059000A168C8623548A16808632068006840F413
:1005A00080502168086027B1042F06D0082F0CD195
:1005B00007E0206800F1080908E0206800F10C0954
:1005C00004E0206800F1100900E000BF22E02848A4
:1005D000E16888622748E168C8622748E1680863E3
:1005E0002068006840F080502168086027B1042F1F
:1005F00006D0082F0CD107E0206800F1140908E0AC
:10060000206800F1180904E0206800F11C0900E0EE
:1006100000BF00BF65B92068006840F40050216841
:10062000086043464A463146A06800F0FDF80BE0FA
:100630002068006840F000502168086043464A4640
:100640003146E06800F0F0F800BF0020607100BFA4
:10065000206800680121A940084321680860002043
:100660008AE700000D020008650200083102000858
:100670001F020008730200084B02000802461068BF
:10068000006801238B4098431368186001201071A3
:100690000020704770B50446002594F82100022818
:1006A00003D00420A06301251EE02068006820F02C
:1006B0000E00216808602068006820F001002168B1
:1006C000086094F8401001208840E16B48600120E8
:1006D00084F8210000BF002084F8200000BF606B78
:1006E00010B12046616B8847284670BD70B504463E
:1006F000E06B05682068066894F840100420884084
:100700002840D0B106F00400B8B12068006800F0BD
:10071000200028B92068006820F0040021680860E3
:1007200094F8401004208840E16B4860E06A00289B
:100730004ED02046E16A88474AE094F840100220F3
:100740008840284008B306F00200F0B12068006835
:1007500000F0200040B92068006820F00A002168FD
:100760000860012084F8210094F84010022088409D
:10077000E16B486000BF002084F8200000BFA06A41
:1007800030B32046A16A884722E094F84010082040
:1007900088402840E0B106F00800C8B12068006831
:1007A00020F00E002168086094F840100120884075
:1007B000E16B48600120A06384F8210000BF0020A5
:1007C00084F8200000BF206B10B12046216B8847C1
:1007D00070BD70B5044600250CB9012070BD022023
:1007E00084F821002068056843F6F0708543D4E959
:1007F00001010843E168084321690843616908432E
:10080000A1690843E1690843054320680560204663
:10081000FFF73EFD0020A063012084F821000020A6
:1008200084F8200000BFD9E72DE9F04104460D46C9
:1008300016461F464FF0000800BF94F8200001281C
:1008400002D10220BDE8F081012084F8200000BF21
:1008500094F8210001282CD1022084F821000020E6
:10086000A0632068006820F00100216808603B4612
:10087000324629462046FFF72BFDE06A30B120685A
:10088000006840F00E00216808600BE020680068F6
:1008900040F00A00216808602068006820F0040029
:1008A000216808602068006840F001002168086045
:1008B00006E000BF002084F8200000BF4FF00208CF
:1008C0004046BFE778B50346002200240020CBE075
:1008D000012696400D6805EA0604002C72D04D688A
:1008E000022D02D04D68122D13D1D60803F1200538
:1008F00055F826005507EE0E0F25B540A8435607BC
:10090000F60E0D69B5402843D60803F1200545F8D9
:100910002600186856000325B540A8430D7905F058
:1009200003055600B540284318604D68012D08D0D6
:100930004D68022D05D04D68112D02D04D68122D45
:1009400013D1986856000325B540A8435600CD68DA
:10095000B54028439860586801259540A8430D7913
:10096000C5F30015954028435860D8685600032504
:10097000B540A84356008D68B5402843D8604D68FF
:1009800005F08055B5F1805F6DD100BF394DAD697F
:1009900045F00105374EB5613546AD6905F00105F5
:1009A000009500BF00BF4FEAB635960855F82600FF
:1009B00095072E0F0F25B540A843B3F1904F02D1F4
:1009C000002515E04FE02C4DAB4201D101250FE091
:1009D0002A4DAB4201D102250AE0294DAB4201D19B
:1009E000032505E0274DAB4201D1042500E0052594
:1009F0009607360FB5402843234D960845F8260044
:100A0000224D2868A0434D6805F48035B5F5803F38
:100A100000D120431D4D28602D1D2868A0434D683E
:100A200005F40035B5F5003F00D12043174D2D1DCD
:100A300028602D1D2868A0434D6805F48015B5F584
:100A4000801F00D12043114D083528602D1D2868D6
:100A5000A0434D6805F40015B5F5001F00D12043F3
:100A60000A4D0C352860521C0D68D540002D7FF4CE
:100A70002FAF78BD00100240000400480008004875
:100A8000000C00480010004808000140000401402C
:100A90000AB1816100E0816270470000014800688E
:100AA0007047000028000020024692F841002028EC
:100AB0002DD100BF92F84000012801D102207047DB
:100AC000012082F8400000BF242082F84100106815
:100AD000006820F00100136818601068006820F4B6
:100AE0008050136818601068006808431368186025
:100AF0001068006840F0010013681860202082F838
:100B0000410000BF002082F8400000BFD7E702206C
:100B1000D5E710B502460B46002192F84100202887
:100B20002AD100BF92F84000012801D1022010BD57
:100B3000012082F8400000BF242082F841001068A4
:100B4000006820F00100146820601068016821F43A
:100B5000706141EA0321106801601068006840F08C
:100B6000010014682060202082F8410000BF0020AE
:100B700082F8400000BFDAE70220D8E710B504464B
:100B80000CB9012010BD94F8410028B9002084F868
:100B90004000204600F054F8242084F841002068EA
:100BA000006820F0010021680860606820F0706033
:100BB000216808612068806820F40040216888600E
:100BC000E068012805D1A06840F4004021688860F1
:100BD00004E0A06840F4044021688860E0680228CE
:100BE00002D18002216848602068406813490843A8
:100BF000216848602068C06820F400402168C8600F
:100C0000D4E904010843A16940EA01202168C860D1
:100C1000D4E907010843216808602068006840F0B3
:100C200001002168086000206064202084F84100F1
:100C30000020206384F8420000BFA3E70080000288
:100C400010B586B00446142101A8FFF7C0FA184970
:100C50002068884229D100BF1648406940F48020AE
:100C6000144948610846406900F48020009000BFA4
:100C700000BFC020019012200290012003900320A9
:100C800004900420059001A90B48FFF71BFE00BF4C
:100C90000848C06940F400100649C8610846C069A8
:100CA00000F40010009000BF00BF06B010BD0000AF
:100CB000005400400010024000040048034800684F
:100CC000034909780844014908607047280000205A
:100CD0003000002010B50848006840F010000649B8
:100CE0000860032000F09EF8002000F007F800F0F4
:100CF0002BF8002010BD00000020024070B5044613
:100D00000E4800784FF47A71B1FBF0F00C49096895
:100D1000B1FBF0F5284601F047FA08B1012070BD9B
:100D2000102C07D200222146501E00F03CF8054846
:100D3000046001E00120F2E70020F0E7300000202D
:100D4000340000202C00002008B500BF0E48806948
:100D500040F001000C4988610846806900F00100FC
:100D6000009000BF00BF00BF0846C06940F080503F
:100D7000C8610846C06900F08050009000BF00BF05
:100D8000072000F04FF808BD0010024000BF00F03F
:100D90001F02012191404209920002F1E022C2F8B3
:100DA000001100BF70472DE9F05F80460D461646E2
:100DB000002702F093F9074639462A46334601F0E8
:100DC0000700C0F1070ABAF1040F02D94FF0040A74
:100DD00001E0C0F1070AD14600F1040ABAF1070F99
:100DE00002D24FF0000A01E0A0F1030AD4464FF00E
:100DF000010A0AFA09FAAAF1010A0AEA020A0AFA37
:100E00000CFA4FF0010B0BFA0CFBABF1010B0BEAE8
:100E1000030B4AEA0B042146404602F067F9BDE89D
:100E2000F09F000000BF00F00702064B19684FF664
:100E3000FF031940044B0B4343EA0221014B1960A5
:100E400000BF70470CED00E00000FA0570B50446E5
:100E5000002500260CB9012070BD94F8710328B953
:100E6000002084F87003204600F07CF8032084F80A
:100E70007103002529E00121C5EBC50204F128001A
:100E800000EB82004170C5EBC50204F1280000F8B8
:100E900022500021C5EBC50200EB8200C170C5EBFA
:100EA000C50204F1280000EB8200C160C5EBC50259
:100EB00004F1280000EB82000161C5EBC50204F1DA
:100EC000280000EB820041616D1C6068A842D2D806
:100ED000002528E00021C5EBC50204F5E67000EB13
:100EE00082004170C5EBC50204F5E67000F822509F
:100EF000C5EBC50200EB8200C170C5EBC50204F56D
:100F0000E67000EB8200C160C5EBC50204F5E67037
:100F100000EB82000161C5EBC50204F5E67000EB51
:100F2000820041616D1C6068A842D3D8012021680D
:100F3000A1F8400000202168A1F840002168A1F834
:100F400044002168A1F850004FF43F462068A0F803
:100F50004060002084F82400012084F87103002000
:100F60007AE7000010B586B00446142101A8FFF707
:100F70002EF91949206888422BD100BF17484069D3
:100F800040F40030154948610846406900F40030DB
:100F9000009000BF00BF4FF4C050019002200290AB
:100FA00000200390032004900E20059001A94FF02B
:100FB0009040FFF787FC00BF0848C06940F400007C
:100FC0000649C8610846C06900F40000009000BFEF
:100FD00000BF06B010BD0000005C004000100240E1
:100FE000F8B5044600260025206800F48030B0F5EE
:100FF000803F75D10027B148C06900F0805070B9BA
:1010000000BFAE48C06940F08050AC49C861084696
:10101000C06900F08050009000BF00BF0127A848C1
:10102000006800F48070B0B9A548006840F4807092
:10103000A3490860FFF732FD064606E0FFF72EFDE4
:10104000801B642801D90320F8BD9D48006800F486
:1010500080700028F2D09948006A00F44075002D95
:101060006CD0A08800F44070A84267D09348006A12
:1010700020F440750120010491FAA1F1B1FA81F147
:10108000904A02EB8101C1F8000400204FF4803146
:1010900091FAA1F1B1FA81F102EB8101C1F80004EA
:1010A0008648056205F00100B8B3FFF7F7FC064675
:1010B00008E0FFF7F3FC801B41F28831884201D938
:1010C0000320C1E74020022191FAA1F1B1FA81F198
:1010D00008430121B1EB601F03D1784800681FE08D
:1010E0003CE04020022191FAA1F1B1FA81F10843DC
:1010F0000221B1EB601F02D17048006A10E040206D
:10110000022191FAA1F1B1FA81F108430421B1EB76
:10111000601F03D16948406802E00FE06748406AF9
:101120004021022292FAA2F2B2FA82F2114301F0B5
:101130001F020121914008400028BAD05F48006A90
:1011400020F44070616808435C490862012F04D1B3
:101150000846C06920F08050C86100BF207800F0C8
:10116000010038B15548006B20F00300A168084326
:1011700052490863207800F00200022807D14F4846
:10118000006B20F44030E16808434C490863207844
:1011900000F00400042807D14848006B20F44020E8
:1011A0002169084345490863207800F02000202881
:1011B00007D14248006B20F01000E16908433F4925
:1011C0000863206800F40030B0F5003F07D13B48C9
:1011D000406820F48000A16B0843384948602078BB
:1011E00000F04000402807D13448006B20F0200078
:1011F000216A084331490863207800F00800082874
:1012000007D12E48006B20F44010616908432B4938
:101210000863207800F01000102807D12748006BE1
:1012200020F44000A169084324490863208800F4A1
:101230000070B0F5007F07D12048406820F400001E
:10124000E16A08431D494860207800F0800080284A
:1012500007D11A48C06A20F4F870616A0843174938
:10126000C862208800F48070B0F5807F07D11348F1
:10127000C06A20F47850A16A08431049C8622088E7
:1012800000F48050B0F5805F07D10C48006B20F46B
:101290008070216B084309490863208800F40050DE
:1012A000B0F5005F07D10548006B20F40070616B5A
:1012B0000843024908630020C6E60000001002400F
:1012C000007000400000424270B504460D46002602
:1012D0000CB9012070BDA248006800F00700A842C8
:1012E0000ED29F48006820F0070028439C49086000
:1012F0000846006800F00700A84201D00120E9E795
:10130000207800F00200022807D19648406820F0BB
:10131000F000A168084393494860207800F001007C
:1013200000287CD0606801283BD12020010391FA7D
:10133000A1F1B1FA81F108430121B1EB601F02D1A3
:10134000884800681DE02020010391FAA1F1B1FA5C
:1013500081F108430221B1EB601F02D18148006A8C
:101360000FE02020010391FAA1F1B1FA81F10843C5
:101370000421B1EB601F02D17A48406801E079484E
:10138000406A20210A0392FAA2F2B2FA82F21143D1
:1013900001F01F0201219140084000287CD101206A
:1013A00098E7606802283BD12020010591FAA1F15D
:1013B000B1FA81F108430121B1EB601F02D1694804
:1013C00000681DE02020010591FAA1F1B1FA81F138
:1013D00008430221B1EB601F02D16248006A0FE0AE
:1013E0002020010591FAA1F1B1FA81F1084304210D
:1013F000B1EB601F02D15B48406801E05948406A88
:1014000020210A0592FAA2F2B2FA82F2114301F007
:101410001F02012191400840E8BB01205AE758E033
:101420002020022191FAA1F1B1FA81F108430121B2
:10143000B1EB601F02D14B4800681DE02020022163
:1014400091FAA1F1B1FA81F108430221B1EB601FD9
:1014500002D14448006A0FE02020022191FAA1F154
:10146000B1FA81F108430421B1EB601F02D13D487C
:10147000406801E03B48406A2021022292FAA2F231
:10148000B2FA82F2114301F01F020121914008409B
:1014900008B901201EE7FFE73248406820F003004A
:1014A000616808432F494860FFF7F8FA064608E0EC
:1014B000FFF7F4FA801B41F28831884201D90320FA
:1014C00008E72848406800F00C006168B0EB810F25
:1014D000EED12348006800F00700A8420ED920484A
:1014E000006820F0070028431D490860084600688E
:1014F00000F00700A84201D00120EBE6207800F0C0
:101500000400042807D11748406820F4E060E1682F
:10151000084314494860207800F00800082808D1E2
:101520001048406820F46050216940EAC1000D492C
:10153000486000F04FF80B49496801F0F001F022D3
:1015400092FAA2F2B2FA82F2D140074A515CC84044
:10155000064908600020FFF7D1FB0020BAE6000032
:101560000020024000100240B84200083400002071
:1015700001480068704700003400002000B5FFF704
:10158000F7FF0749496801F4E0614FF4E06292FA1D
:10159000A2F2B2FA82F2D140024A515CC84000BDC8
:1015A00000100240C842000800B5FFF7E1FF0749FC
:1015B000496801F460514FF4605292FAA2F2B2FA13
:1015C00082F2D140024A515CC84000BD0010024086
:1015D000C842000870B5002100240022002300202A
:1015E0001A4D696801F00C0565B3042D02D0082D71
:1015F00027D101E0164827E001F470154FF470166A
:1016000096FAA6F6B6FA86F6F540124E735D0F4DC1
:10161000ED6A05F00F050F2696FAA6F6B6FA86F6DD
:10162000F5400D4E745D01F480352DB1084DB5FBCC
:10163000F4F505FB03F202E0084D03FB05F210464A
:1016400002E000BF024800BF00BF70BD00100240B2
:1016500000127A0098420008A842000800093D00E4
:10166000F8B504460CB90120F8BD207800F001005F
:1016700000287BD0FA48406800F00C0004280CD009
:10168000F748406800F00C00082845D1F44840684D
:1016900000F48030B0F5803F3ED12020010391FA64
:1016A000A1F1B1FA81F108430121B1EB601F02D130
:1016B000EB4800681DE02020010391FAA1F1B1FA86
:1016C00081F108430221B1EB601F02D1E448006AB6
:1016D0000FE02020010391FAA1F1B1FA81F1084352
:1016E0000421B1EB601F02D1DD48406801E0DC4815
:1016F000406A20210A0392FAA2F2B2FA82F211435E
:1017000001F01F020121914008400028B1D060681B
:1017100000282BD10120A7E700BF6068B0F5803F0B
:1017200006D1CF48006840F48030CD49086029E0F8
:10173000606858B9CA48006820F48030C849086019
:101740000846006820F4802008601BE06068B0F55F
:10175000A02F0CD1C248006840F48020C049086026
:101760000846006840F4803008600BE0A1E0BC4807
:10177000006820F48030BA4908600846006820F408
:101780008020086000BFB648C06A20F00F00A16842
:101790000843B349C8626068A0B3FFF77FF9054604
:1017A00006E0FFF77BF9401B642801D903205BE7C3
:1017B0002020010391FAA1F1B1FA81F1084301213E
:1017C000B1EB601F02D1A64800681EE02020010393
:1017D00091FAA1F1B1FA81F108430221B1EB601F46
:1017E00002D19F48006A10E02020010391FAA1F184
:1017F000B1FA81F108430421B1EB601F03D198488D
:10180000406802E010E09648406A20210A0392FAFC
:10181000A2F2B2FA82F2114301F01F0201219140BB
:1018200008400028BDD044E0FFF738F9054606E03F
:10183000FFF734F9401B642801D9032014E7202066
:10184000010391FAA1F1B1FA81F108430121B1EB51
:10185000601F02D1824800681DE02020010391FA38
:10186000A1F1B1FA81F108430221B1EB601F02D16D
:101870007B48006A0FE02020010391FAA1F1B1FA40
:1018800081F108430421B1EB601F02D17448406824
:1018900001E07348406A20210A0392FAA2F2B2FAE8
:1018A00082F2114301F01F020121914008400028FB
:1018B000BED1207800F0020002285CD16848406860
:1018C00000F00C0050B16648406800F00C00082899
:1018D00052D16348406800F48030E8BB20200221E8
:1018E00091FAA1F1B1FA81F108430121B1EB601F36
:1018F00002D15B4800681DE02020022191FAA1F18D
:10190000B1FA81F108430221B1EB601F02D15448C2
:10191000006A0FE02020022191FAA1F1B1FA81F1D1
:1019200008430421B1EB601F02D14D48406801E03B
:101930004B48406A2021022292FAA2F2B2FA82F2C5
:10194000114301F01F0201219140084028B1206994
:10195000012802D0012087E60EE04148006820F00F
:10196000F800F82292FAA2F2B2FA82F2616991408A
:1019700008433B490860B1E0206970B3012191FA46
:10198000A1F0B0FA80F0374A42F82010FFF786F84D
:10199000054606E0FFF782F8401B022801D9032024
:1019A00062E62020022191FAA1F1B1FA81F1084307
:1019B0000121B1EB601F02D1294800681EE0202000
:1019C000022191FAA1F1B1FA81F108430221B1EBB0
:1019D000601F03D12248006A10E02CE02020022181
:1019E00091FAA1F1B1FA81F108430421B1EB601F32
:1019F00002D11B48406801E01948406A20210222B8
:101A000092FAA2F2B2FA82F2114301F01F0201210E
:101A1000914008400028BDD01148006820F0F8002F
:101A2000F82292FAA2F2B2FA82F261699140084376
:101A30000B49086052E00020012191FAA1F1B1FAAE
:101A400081F1084A42F82100FFF728F805460BE02B
:101A5000FFF724F8401B022806D9032004E6000003
:101A600000100240000042422020022191FAA1F120
:101A7000B1FA81F108430121B1EB601F02D1FB48AB
:101A800000681DE02020022191FAA1F1B1FA81F154
:101A900008430221B1EB601F02D1F448006A0FE055
:101AA0002020022191FAA1F1B1FA81F10843042129
:101AB000B1EB601F02D1ED48406801E0EB48406A9D
:101AC0002021022292FAA2F2B2FA82F2114301F02C
:101AD0001F020121914008400028B9D1207800F070
:101AE0000800082851D1A06980B3012090FAA0F124
:101AF000B1FA81F1DE4A02EB8101C1F88004FEF700
:101B0000CDFF054606E0FEF7C9FF401B022801D9BC
:101B10000320A9E56020022191FAA1F1B1FA81F137
:101B200008430121B1EB601F02D1D04800681EE0DC
:101B30006020022191FAA1F1B1FA81F1084302215A
:101B4000B1EB601F03D1C948006A10E01EE06020BD
:101B5000022191FAA1F1B1FA81F108430421B1EB1C
:101B6000601F02D1C148406801E0C048406A60215E
:101B7000022292FAA2F2B2FA82F2114301F01F029B
:101B80000121914008400028BDD04FE000200121F4
:101B900091FAA1F1B1FA81F1B54A02EB8101C1F8E4
:101BA0008004FEF77BFF054606E0FEF777FF401B4B
:101BB000022801D9032057E56020022191FAA1F102
:101BC000B1FA81F108430121B1EB601F02D1A748AE
:101BD00000681DE06020022191FAA1F1B1FA81F1C3
:101BE00008430221B1EB601F02D1A048006A0FE058
:101BF0006020022191FAA1F1B1FA81F10843042198
:101C0000B1EB601F02D19948406801E09748406AF3
:101C10006021022292FAA2F2B2FA82F2114301F09A
:101C20001F020121914008400028BED1207800F019
:101C30000400042873D100268C48C06900F080504D
:101C400070B900BF8948C06940F080508749C861B9
:101C50000846C06900F08050009000BF00BF012618
:101C60008448006800F48070B0B98248006840F48D
:101C7000807080490860FEF711FF054606E0FEF718
:101C80000DFF401B642801D90320EDE4794800686A
:101C900000F480700028F2D000BFE068012806D16F
:101CA0007248006A40F001007049086227E0E0686D
:101CB00058B96E48006A20F001006C490862084675
:101CC000006A20F00400086219E0E06805280BD1E2
:101CD0006648006A40F00400644908620846006AE9
:101CE00040F0010008620AE06048006A20F001004C
:101CF0005E4908620846006A20F00400086200BFDE
:101D0000E068B8B3FEF7CAFE054609E0FEF7C6FE76
:101D1000401B41F28831884202D90320A4E48BE0C1
:101D20004020022191FAA1F1B1FA81F10843012189
:101D3000B1EB601F02D14D4800681EE04020022137
:101D400091FAA1F1B1FA81F108430221B1EB601FD0
:101D500002D14648006A10E04020022191FAA1F128
:101D6000B1FA81F108430421B1EB601F03D13F4870
:101D7000406802E010E03D48406A4021022292FAA9
:101D8000A2F2B2FA82F2114301F01F020121914046
:101D900008400028BAD046E0FEF780FE054608E07D
:101DA000FEF77CFE401B41F28831884201D90320B6
:101DB0005AE44020022191FAA1F1B1FA81F10843DD
:101DC0000121B1EB601F02D1284800681DE04020CE
:101DD000022191FAA1F1B1FA81F108430221B1EB9C
:101DE000601F02D12148006A0FE04020022191FAD1
:101DF000A1F1B1FA81F108430421B1EB601F02D1D6
:101E00001A48406801E01948406A4021022292FACB
:101E1000A2F2B2FA82F2114301F01F0201219140B5
:101E200008400028BCD1012E05D11048C06920F01F
:101E300080500E49C86100BFE069002874D00B488B
:101E4000406800F00C0008286FD0E06902286DD1CE
:101E500000204FF0807191FAA1F1B1FA81F1044AAA
:101E600042F82100FEF71AFE05460CE00010024081
:101E70000000424200700040FEF710FE401B0228A6
:101E800001D9032047E42020010591FAA1F1B1FA1C
:101E900081F108430121B1EB601F02D16F48006856
:101EA0001DE02020010591FAA1F1B1FA81F108436A
:101EB0000221B1EB601F02D16848006A0FE02020C8
:101EC000010591FAA1F1B1FA81F108430421B1EBC6
:101ED000601F02D16148406801E06048406A2021EB
:101EE0000A0592FAA2F2B2FA82F2114301F01F023D
:101EF0000121914008400028BED1D4E908100843D0
:101F00005649496821F47411084354494860012135
:101F1000080690FAA0F0B0FA80F0514A42F820107A
:101F2000FEF7BCFD054609E095E092E041E0FEF7D2
:101F3000B5FD401B022801D9032038E4202001050B
:101F400091FAA1F1B1FA81F108430121B1EB601FCF
:101F500002D1424800681DE02020010591FAA1F15C
:101F6000B1FA81F108430221B1EB601F02D13B4875
:101F7000006A0FE02020010591FAA1F1B1FA81F188
:101F800008430421B1EB601F02D13448406801E0EE
:101F90003248406A20210A0592FAA2F2B2FA82F28D
:101FA000114301F01F020121914008400028BED0DA
:101FB00051E000214FF0807090FAA0F0B0FA80F06C
:101FC000274A42F82010FEF769FD054606E0FEF7B5
:101FD00065FD401B022801D903202FE420200105C4
:101FE00091FAA1F1B1FA81F108430121B1EB601F2F
:101FF00002D11A4800681DE02020010591FAA1F1E4
:10200000B1FA81F108430221B1EB601F02D11348FC
:10201000006A0FE02020010591FAA1F1B1FA81F1E7
:1020200008430421B1EB601F02D10C48406801E075
:102030000A48406A20210A0592FAA2F2B2FA82F214
:10204000114301F01F020121914008400028BED138
:1020500001E001207FE400207DE400000010024048
:102060000000424270B504460CB9012070BD606AA0
:1020700000B900BF0021A16294F85D0028B90020DA
:1020800084F85C00204600F053F8022084F85D00DC
:102090002068006820F0400021680860E068B0F522
:1020A000E06F01D9002501E04FF48055E068B0F5FC
:1020B000706F05D0E068B0F5E06F01D00021A1623B
:1020C000206B40B9E068B0F5E06F02D902212163CE
:1020D00001E001212163D4E901010843216908439A
:1020E00061690843218B01F400710843E1690843E9
:1020F000216A0843A16A0843216808600421A06995
:1021000001EA1040616A0843616B0843E1680843D3
:102110002843216848602068C06920F40060216875
:10212000C86100202066012084F85D0000209DE742
:1021300010B586B00446142101A8FEF748F81849E6
:102140002068884229D100BF1648806940F4805039
:10215000144988610846806900F48050009000BFEF
:1021600000BF00BF0846406940F40030486108469F
:10217000406900F40030009000BF00BFE0200190F3
:102180000220029000200390032004900520059077
:1021900001A94FF09040FEF795FB06B010BD00007E
:1021A000003001400010024070B504462546681E0C
:1021B000B0F1807F01D301200FE0681E4FF0E021D5
:1021C00048610F214FF0FF3000F090FF00204FF0EA
:1021D000E021886107200861002070BD70477047CA
:1021E0007047000030B502460B4600BF92F83C0035
:1021F000012801D1022030BD012082F83C0000BF3F
:1022000010684168106884680F4D1068A84203D0B8
:102210000E4D1068A84203D121F4700158680143A3
:1022200021F070011868014324F080049868044389
:10223000106841601068846000BF002082F83C0094
:1022400000BF00BFD7E70000002C01400034014070
:1022500010B504460CB9012010BD94F83D0028B912
:10226000002084F83C00204600F00CF8022084F89E
:102270003D00211D206800F0EFFF012084F83D00A3
:102280000020E9E738B504461A492068884216D18B
:1022900000BF1948C06940F002001749C8610846EC
:1022A000C06900F00200009000BF00BF002211468C
:1022B0001D20FEF778FD1D20FEF768FD19E00F498F
:1022C0002068884215D100BF0B48C06940F010005B
:1022D0000949C8610846C06900F01000009000BFBD
:1022E00000BF002211463620FEF75DFD3620FEF7C6
:1022F0004DFD38BD000400400010024000100040B9
:102300000146022081F83D000868006840F00100A5
:102310000A681060012081F83D00002070470146E6
:102320000868C06840F001000A68D060086800686A
:1023300040F001000A68106000207047014602204A
:1023400081F83D0000BF0868006A41F21112104098
:1023500050B90868006A9210104028B908680068EF
:1023600020F001000A68106000BF012081F83D00E4
:10237000002070472DE9F04104460D46002600BFBD
:1023800094F83C00012802D10220BDE8F081012030
:1023900084F83C0000BF022084F83D002068866875
:1023A0004148064026F47F46206886602868502809
:1023B0003CD00CDC202861D004DC002854D010284C
:1023C00066D156E030285ED0402861D142E06028D6
:1023D00036D070280ED0B0F5805F03D0B0F5005F26
:1023E00056D116E0206880682F4970310840216876
:1023F00088604EE0D5E902136A68206800F08AFF21
:10240000206886682848064046F07706206886607F
:102410003FE0D5E902136A68206800F07BFF20687E
:10242000806840F480402168886032E0EA6869682A
:10243000206801F04BF95021206800F077FF28E078
:10244000EA686968206801F056F96021206800F0A8
:102450006DFF1EE0EA686968206801F037F94021E5
:10246000206800F063FF14E00021206800F05EFFA8
:102470000FE01021206800F059FF0AE020212068B9
:1024800000F054FF05E03021206800F04FFF00E02D
:1024900000BF00BF012084F83D0000BF002084F889
:1024A0003C0000BF00BF70E788FFFEFF704710B51B
:1024B000044620680069C0F34000D8B12068C068B5
:1024C000C0F34000B0B16FF0020021680861012044
:1024D00020772068806900F0030018B12046FFF7DC
:1024E000E5FF05E0204600F0EDF8204600F0C0F9D9
:1024F0000020207720680069C0F38000D8B12068F0
:10250000C068C0F38000B0B16FF0040021680861BA
:10251000022020772068806900F4407018B12046BE
:10252000FFF7C4FF05E0204600F0CCF8204600F09D
:102530009FF90020207720680069C0F3C000D8B15F
:102540002068C068C0F3C000B0B16FF00800216817
:102550000861042020772068C06900F0030018B1EA
:102560002046FFF7A3FF05E0204600F0ABF8204629
:1025700000F07EF90020207720680069C0F3001089
:10258000D8B12068C068C0F30010B0B16FF010007F
:1025900021680861082020772068C06900F4407035
:1025A00018B12046FFF782FF05E0204600F08AF8C8
:1025B000204600F05DF9002020772068006900F0D7
:1025C000010058B12068C06800F0010030B16FF020
:1025D000010021680861204600F04CF9206800697C
:1025E000C0F3C01058B12068C068C0F3C01030B14B
:1025F0006FF08000216808612046FFF7F0FD206839
:102600000069C0F3002058B12068C068C0F3C01052
:1026100030B16FF48070216808612046FFF7DEFD5D
:1026200020680069C0F3801058B12068C068C0F30A
:10263000801030B16FF0400021680861204600F042
:1026400059F920680069C0F3401058B12068C0688B
:10265000C0F3401030B16FF02000216808612046BF
:10266000FFF7BEFD10BD000010B586B00446142172
:1026700001A8FDF7ACFD1049206888421AD100BFBF
:102680000E48406940F480200C4948610846406982
:1026900000F48020009000BF00BF012001900220C4
:1026A00002900020039004900220059001A90448A4
:1026B000FEF708F906B010BD00040040001002400B
:1026C00000040048704770B504460D46164600BF2A
:1026D00094F83C00012801D1022070BD012084F84B
:1026E0003C0000BF022084F83D000C2E51D005DCD8
:1026F0004EB1042E1ED0082E7AD133E0102E60D0B9
:10270000142EF9D175E02946206800F019FE2068E2
:10271000806940F00800216888612068806920F0A5
:10272000040021688861206880692969084321685C
:10273000886177E02946206800F05AFE20688069A9
:1027400040F40060216888612068806920F480601E
:102750002168886120688069296940EA0120216830
:1027600088615FE02946206800F0A0FE2068C0690B
:1027700040F008002168C8612068C06920F00400AA
:102780002168C8612068C069296908432168C86157
:1027900048E02946206800F0E5FE2068C06940F462
:1027A00000602168C8612068C06920F480602168E9
:1027B000C8612068C069296940EA01202168C861B0
:1027C00030E02946206800F00BFF2068406D40F0A3
:1027D0000800216848652068406D20F004002168E9
:1027E00048652068406D296908432168486519E0FB
:1027F00017E02946206800F02DFF2068406D40F466
:102800000060216848652068406D20F48060216880
:1028100048652068406D296940EA012021684865C3
:1028200000E000BF00BF012084F83D0000BF002091
:1028300084F83C0000BF00BF4FE710B504460CB958
:10284000012010BD94F83D0028B9002084F83C0018
:10285000204600F00CF8022084F83D00211D20687D
:1028600000F0FAFC012084F83D000020E9E7704701
:1028700070470000194A016891422DD11849097822
:10288000012915D117490988174A1288914209DB95
:102890000021134A11700121144A11700021114ABC
:1028A000118019E00F490988491C0E4A118013E074
:1028B0000C4909880E4A1288914208DB0121084A16
:1028C00011700A4A11700021064A118004E005497E
:1028D0000988491C034A1180704700000004004029
:1028E0001F0000201C000020180000201E000020F7
:1028F0001A00002070477047704700002DE9F04132
:1029000004462068C5692068066805F00F08B8F11C
:10291000000F0AD105F0200038B106F0200020B1E8
:10292000204600F0E0FFBDE8F08120688768B8F13C
:10293000000F7DD007F0010018B906F49070002850
:1029400076D005F0010048B106F4807030B1012066
:1029500021680862E06E40F00100E06605F00200C8
:1029600048B107F0010030B1022021680862E06E32
:1029700040F00400E06605F0040048B107F00100F3
:1029800030B1042021680862E06E40F00200E06689
:1029900005F0080060B106F0200010B907F0010052
:1029A00030B1082021680862E06E40F00800E0665F
:1029B000E06E68B305F0200028B106F0200010B1E9
:1029C000204600F090FFE06E00F0080028B9206873
:1029D000806800F04000402824D1204600F063FFCA
:1029E0002068806800F04000402817D12068806887
:1029F00020F0400021688860606E58B12148616E07
:102A00004863606EFDF746FE10B1606E416B88470B
:102A10000DE00DE02046FFF76FFF08E02046FFF7CE
:102A20006BFF04E02046FFF767FF0020E0667AE7CF
:102A300005F4801078B107F4800060B14FF4801085
:102A400021680862202084F8690084F86A00204622
:102A5000FFF751FF67E705F0800030B106F0800016
:102A600018B1204601F0FAF85DE705F0400030B1FA
:102A700006F0400018B1204600F025FF53E700BFE4
:102A800051E700008F38000810B504460CB901204A
:102A900010BDA06900B100E000BF94F8690028B93A
:102AA000002084F86800204600F02AF8242084F8EA
:102AB00069002068006820F0010021680860204655
:102AC00000F056FF012800D1E2E7606A10B120460D
:102AD00000F027FE2068406820F49040216848609C
:102AE0002068806820F02A002168886020680068DB
:102AF00040F0010021680860204600F08EFEC7E724
:102B000010B586B00446142101A8FDF760FB1B49EF
:102B10002068884230D100BF1948806940F4804065
:102B2000174988610846806900F48040009000BF22
:102B300000BF00BF0846406940F4002048610846D5
:102B4000406900F40020009000BF00BF30200190D9
:102B5000022002900020039003200490072005909B
:102B600001A90848FDF7AEFE002211462520FEF718
:102B70001AF92520FEF70AF906B010BD0038014009
:102B8000001002400008004810B5034693F86A00A0
:102B9000202847D101B10AB9012010BD00BF93F828
:102BA0006800012801D10220F7E7012083F86800BE
:102BB00000BF5965A3F85820A3F85A2000BF9868B1
:102BC000B0F5805F0AD1186920B940F2FF10A3F870
:102BD0005C000EE0FF20A3F85C000AE0986840B9B2
:102BE000186918B9FF20A3F85C0002E07F20A3F861
:102BF0005C0000BF0020D866222083F86A0000BF76
:102C0000002083F8680000BF1868806840F0010069
:102C10001C68A0601868006840F490701C68206010
:102C20000020BAE70220B8E710B50446154800783E
:102C300010BB15492068884223D16423012213491F
:102C4000204600F029F8114800780D280BD00F48D5
:102C500000780F490F4A128888540E480088401C9B
:102C60000C49088002E0012006490870012207494A
:102C70002046FFF789FF04E0012204492046FFF7C0
:102C800083FF10BD240000200038014025000020F3
:102C9000D8050020220000202DE9F84304460D4607
:102CA00016461F464FF0000994F86900202854D1B9
:102CB00005B116B90120BDE8F88300BF94F868009B
:102CC000012801D10220F6E7012084F8680000BF46
:102CD00000205034E06121206076FDF7DFFE814660
:102CE00026806680503C21E0B4F85200401EA4F8D3
:102CF00052004B46002280212046009700F0E3FF5F
:102D000008B10320D7E7A068B0F5805F0AD1206939
:102D100040B9A846B8F80000C0F30800216808854B
:102D2000AD1C03E015F8010B21680885B4F85200CA
:102D30000028D9D14B46002240212046009700F0C0
:102D4000C2FF08B10320B6E7202084F8690000BF65
:102D5000002084F8680000BFADE70220ABE77047B1
:102D600000BFFEE70EB500200090019002900B48D6
:102D70000B4908600846FDF73DFB08B1FDF7BFFAB7
:102D80000420009000200190002269460448FDF7CD
:102D9000BBFA08B1FDF7B3FA0EBD000000740040A5
:102DA0003800002008B500BF0A48406940F0010023
:102DB000084948610846406900F00100009000BFE2
:102DC00000BF002211460D20FDF7EDFF0D20FDF79D
:102DD000DDFF08BD0010024000B587B0142102A835
:102DE000FDF7F5F900BF3448406940F4001032495E
:102DF00048610846406900F40010019000BF00BF20
:102E000000BF0846406940F4002048610846406918
:102E100000F40020019000BF00BF00BF08464069D9
:102E200040F4800048610846406900F48000019049
:102E300000BF00BF00BF0846406940F40030486151
:102E40000846406900F40030019000BF00BF00BF99
:102E50000846406940F4802048610846406900F413
:102E60008020019000BF00BF00224FF60871134878
:102E7000FDF70EFE372002901148039000200490C9
:102E800002A90E48FDF71EFD4FF6087002900120C2
:102E9000039000200490059002A90848FDF712FD58
:102EA0000120029000200390049002A94FF090406E
:102EB000FDF708FD07B000BD0010024000100048FB
:102EC0000000121010B512481249086012484860FC
:102ED0000021104881600121C16000210161416130
:102EE0008161C1610162FDF749FE08B1FDF707FA92
:102EF00000210848FDF7D8FD08B1FDF700FA0021D0
:102F00000448FDF706FE08B1FDF7F9F910BD000011
:102F100000540040900000200E09002010B5124817
:102F2000124908604FF48270486000210F488160A8
:102F30004FF44071C1600021016141614FF40071A3
:102F400081610821C1610021016241628162072122
:102F5000C1620021016308214163FFF783F808B1D2
:102F6000FDF7CDF910BD000000300140DC0000206D
:102F700000B58FB000200B900C900D900E90089033
:102F800009900A901C2101A8FDF721F91F4820494A
:102F900008600720486000211D48816040F6B73175
:102FA000C160002101618161FFF752F908B1FDF7AD
:102FB000A6F94FF480500B900BA91548FFF7DAF9EA
:102FC00008B1FDF79CF91248FFF737FC08B1FDF78F
:102FD00096F9002008900A9008A90D48FFF702F919
:102FE00008B1FDF78CF96020019000200290039059
:102FF0000590082201A90648FFF765FB08B1FDF717
:103000007EF90348FFF730FB0FB000BD000400401D
:10301000400100200EB500200090019002900E4863
:103020000E4908600120486000210C488160D221CF
:10303000C16000218161FFF70BF908B1FDF75FF96D
:10304000202000900020029069460448FFF7CAF84B
:1030500008B1FDF754F90EBD0010004080010020BA
:1030600010B50D480D4908604FF4964048600021A6
:103070000A488160C16001610C21416100218161C8
:10308000C16101620020054948620846FFF7FCFC67
:1030900008B1FDF734F910BD00380140C00100202F
:1030A00010B50A480A49086008204860022108480B
:1030B00081600021C1600221016100218161016202
:1030C000FDF7C4FE08B1FDF71AF910BD005C004021
:1030D0003002002000BFFEE7704700000248006891
:1030E000C0F30220704700000CED00E010B500288E
:1030F00007DA0A07140E054A00F00F031B1FD45409
:1031000003E00A07130E024A135410BD18ED00E045
:1031100000E400E07047704710B5FDF7CFFD10BD2B
:1031200000B59FB0282115A8FDF751F8142110A86B
:10313000FDF74DF83C2101A8FDF749F80320159053
:103140004FF4A02016900020179001201990102015
:103150001A9002201C90C1031D91C1041E9115A854
:10316000FEF77EFA08B1FDF7CAF80F201090022092
:103170001190002012904FF4806013900020149062
:10318000012110A8FEF7A0F808B1FDF7B8F808482B
:1031900001900020039008904FF480000F9001A848
:1031A000FDF71EFF08B1FDF7AAF81FB000BD000033
:1031B000210002001948006840F4700017490860B7
:1031C0001748006840F0010015490860084640684B
:1031D00014490840124948600846006812490840EE
:1031E0000F4908600846006820F4802008600846FF
:1031F000406820F4FE0048600846C06A20F00F00D6
:10320000C8620846006B0949084005490863002068
:103210008860C803014980390860704788ED00E084
:10322000001002400CC07FF8FFFFF6FECCFC00FF50
:1032300010B50248FFF73BF910BD00004001002027
:1032400010B50348FFF733F90248FDF78EF810BDBB
:10325000800100203800002010B500220268264BB3
:1032600098420BD0B0F1804F08D0244B984205D043
:10327000234B984202D0234B984203D122F0700294
:103280004B681A431C4B984214D0B0F1804F11D0B8
:103290001A4B98420ED01A4B98420BD0194B9842B9
:1032A00008D0194B984205D0184B984202D0184BC1
:1032B000984203D122F44072CB681A4322F0800373
:1032C0004C6943EA040202608B68C3620B68836244
:1032D000094B98420BD00B4B984208D00A4B9842AE
:1032E00005D00A4B984202D0094B984201D10B6994
:1032F00003630123436110BD002C01400004004022
:1033000000080040003401400040014000440140FA
:103310000048014030B50C460021816821F47F410E
:1033200042EA032525432943816030BD0A46002136
:10333000816821F0700142F00703194381607047F2
:1033400030B5002400220023056A25F0010505623E
:10335000026A43688469204D2C4024F003040D6800
:103360002C4322F002028D682A431C4DA84200D152
:103370000FE01B4DA84200D10BE01A4DA84200D12E
:1033800007E0194DA84200D103E0184DA84206D12C
:1033900000BF22F00802CD682A4322F004020F4D3C
:1033A000A8420BD00E4DA84208D00E4DA84205D021
:1033B0000D4DA84202D00D4DA84207D123F48073D1
:1033C00023F400734D692B438D692B434360846163
:1033D0004D684563026230BD8FFFFEFF002C014047
:1033E00000340140004001400044014000480140D9
:1033F00030B5002400220023056A25F0100505627F
:10340000026A43688469234D2C4024F440740D689B
:1034100044EA052422F020028D6842EA05121E4D7E
:10342000A84200D10FE01D4DA84200D10BE01C4D79
:10343000A84200D100BF1B4DA84200D100BF1A4DC9
:10344000A84207D106E022F08002CD6842EA0512C8
:1034500022F04002104DA8420BD0104DA84208D0D7
:103460000F4DA84205D00F4DA84202D00E4DA842E4
:1034700009D123F4806323F400634D6943EA850393
:103480008D6943EA8503436084614D688563026208
:1034900030BD0000FF8FFFFE002C014000340140D2
:1034A00000400140004401400048014030B5002484
:1034B00000220023056A25F480750562026A4368CC
:1034C000C469224D2C4024F003040D682C4322F4DF
:1034D00000728D6842EA05221D4DA84200D10FE01E
:1034E0001C4DA84200D10BE01B4DA84200D100BFEB
:1034F0001A4DA84200D100BF194DA84207D106E0DD
:1035000022F40062CD6842EA052222F48062104D66
:10351000A8420BD00F4DA84208D00F4DA84205D0AD
:103520000E4DA84202D00E4DA84209D123F480537B
:1035300023F400534D6943EA05138D6943EA0513EB
:103540004360C4614D68C563026230BD8FFFFEFFFA
:10355000002C014000340140004001400044014083
:103560000048014030B5002200230024056A25F4FC
:1035700080550562036A4468C269134D2A4022F4EB
:1035800040720D6842EA052223F400538D6843EA35
:1035900005330E4DA8420BD00D4DA84208D00D4D5D
:1035A000A84205D00C4DA84202D00C4DA84204D12F
:1035B00024F480444D6944EA85144460C2614D6836
:1035C0000564036230BD0000FF8FFFFE002C014048
:1035D00000340140004001400044014000480140E7
:1035E00030B5002400220023056A25F480350562E9
:1035F000026A4368446D114D2C400D682C4322F43F
:1036000000320D8942EA05420D4DA8420BD00D4D06
:10361000A84208D00C4DA84205D00C4DA84202D0BB
:103620000B4DA84204D123F480334D6943EA0523AE
:10363000436044654D688565026230BD8FFFFEFFC3
:10364000002C014000340140004001400044014092
:103650000048014030B5002400220023056A25F40B
:1036600080150562026A4368446D124D2C400D6856
:1036700044EA052422F400120D8942EA05520E4D57
:10368000A8420BD00D4DA84208D00D4DA84205D040
:103690000C4DA84202D00C4DA84204D123F4802343
:1036A0004D6943EA8523436044654D68C565026200
:1036B00030BD0000FF8FFFFE002C014000340140B0
:1036C00000400140004401400048014030B50B4635
:1036D000144600210022026A056A25F001050562F0
:1036E000816921F0F00141EA041122F00A021A4333
:1036F0008161026230BD30B50B46144600210022C4
:10370000056A25F0100505628169026A21F470419D
:1037100041EA043122F0A00242EA0312816102620E
:1037200030BD90F8241001F0010139B101684968F9
:1037300021F40031826A11430268516090F824102C
:1037400001F00201022907D10168496821F48031A2
:10375000C26A11430268516090F8241001F004011C
:10376000042907D10168496821F48021026B1143C3
:103770000268516090F8241001F00801082907D16F
:103780000168496821F40041426B114302685160AD
:1037900090F8241001F01001102907D10168896800
:1037A00021F48051826B11430268916090F82410DB
:1037B00001F02001202907D10168896821F4005116
:1037C000C26B11430268916090F8241001F040012F
:1037D000402913D10168496821F48011026C11431A
:1037E00002685160016CB1F5801F07D1016849681A
:1037F00021F4C001426C11430268516090F824101A
:1038000001F08001802907D10168496821F4002175
:10381000826C114302685160704738B50446002538
:103820000020E066FDF73AF905462068006800F0E0
:10383000080008280CD16FF07E402B4600224FF480
:1038400000110090204600F03EFA08B1032038BD78
:103850002068006800F0040004280CD16FF07E405E
:103860002B4600224FF480010090204600F02BFAF6
:1038700008B10320EBE7202084F8690084F86A008F
:1038800000BF002084F8680000BF00BFDFE770B50C
:1038900005466C6A0020A4F85A00A4F8520020469D
:1038A000FFF72AF870BD0168096821F49071026879
:1038B00011600168896821F001010268916020218E
:1038C00080F86A10704710B504462068006820F040
:1038D000400021680860202084F869002046FFF736
:1038E0003EFA002010BD2DE9F0410446B4F85C70AA
:1038F00094F86A00222833D12068858CA068B0F53E
:10390000805F09D1206938B9666D05EA070030800B
:10391000606D801C606505E0F8B22840626D511C46
:1039200061651070B4F85A00401E80B2A4F85A00C5
:10393000A0B92068006820F49070216808602068B1
:10394000806820F0010021688860202084F86A00E7
:103950002046FFF769F90020BDE8F0810020FBE771
:103960002068806940F00800216888610220F3E740
:103970002DE9F0470446002510260027A846A94651
:103980002169A068084361690843E16940EA0105CB
:103990002068006849F20C61884328432168086068
:1039A0002068406820F44050E1680843216848607E
:1039B000216AA06940EA01052068806820F430602F
:1039C00028432168886000BF9C492068884216D13E
:1039D0009B48006B00F0030030B1012808D002289A
:1039E00008D0032808D101E0012607E0022605E0FF
:1039F000042603E0082601E0102600BF78E0914984
:103A00002068884219D18E48006B00F4403048B1DC
:103A1000B0F5803F0AD0B0F5003F09D0B0F5403F87
:103A200008D101E0002607E0022605E0042603E0B5
:103A3000082601E0102600BF5AE08349206888422A
:103A400019D17F48006B00F4402048B1B0F5802FB9
:103A50000AD0B0F5002F09D0B0F5402F08D101E011
:103A6000002607E0022605E0042603E0082601E020
:103A7000102600BF3CE075492068884219D1704883
:103A8000006B00F4401048B1B0F5801F0AD0B0F5CB
:103A9000001F09D0B0F5401F08D101E0002607E063
:103AA000022605E0042603E0082601E0102600BFF8
:103AB0001EE067492068884219D16148006B00F414
:103AC000400048B1B0F5800F0AD0B0F5000F09D022
:103AD000B0F5400F08D101E0002607E0022605E01E
:103AE000042603E0082601E0102600BF00E01026AF
:103AF00000BFE069B0F5004F52D1042E2BD005DC99
:103B00004EB1012E12D0022E3BD11AE0082E2DD03C
:103B1000102E36D136E0FDF731FD4000616800EB34
:103B20005100B0FBF1F01FFA80F82EE0FDF73CFDEC
:103B30004000616800EB5100B0FBF1F01FFA80F823
:103B400023E04449606801EB50006168B0FBF1F08C
:103B50001FFA80F819E0FDF73DFD4000616800EBB9
:103B60005100B0FBF1F01FFA80F80EE04FF4803105
:103B7000606801EB50006168B0FBF1F01FFA80F85B
:103B800003E000BF4FF0010900BF00BF4FF6F07027
:103B900008EA0007C8F3420007432068C7604AE00C
:103BA000042E2CD005DC4EB1012E12D0022E3DD1B8
:103BB0001AE0082E2ED0102E38D138E0FDF7DEFCAA
:103BC000616800EB5100B0FBF1F080B22168C86081
:103BD00030E0FDF7E9FC616800EB5100B0FBF1F06B
:103BE00080B22168C86025E01B49606801EB500085
:103BF0006168B0FBF1F080B22168C8601AE0FDF79F
:103C0000E9FC616800EB5100B0FBF1F080B2216883
:103C1000C8600FE04FF40041606801EB500061683C
:103C2000B0FBF1F080B22168C86003E000BF4FF044
:103C3000010900BF00BF4846BDE8F08700380140D9
:103C4000001002400044004000480040004C00408A
:103C5000005000400024F40000127A00014691F860
:103C6000690021282DD1B1F8520068B908680068B0
:103C700020F080000B6818600868006840F0400081
:103C80000B681860002070478868B0F5805F0BD122
:103C9000086948B9CA6C1088C0F308000B68188519
:103CA000C86C801CC86405E0CB6C581CC8641878CC
:103CB0000B681885B1F85200401EA1F85200002090
:103CC000E1E70220DFE72DE9F04104460D46174603
:103CD0009846069E21E0701CF8B12EB1FCF7DEFE7E
:103CE000A0EB0800B04218D92068006820F4D0701A
:103CF000216808602068806820F0010021688860E1
:103D0000202084F8690084F86A0000BF002084F84D
:103D1000680000BF0320BDE8F0812068C06928402A
:103D2000A84201D1012000E00020B842D3D00020F9
:103D3000F1E7000010B50248FEF7E0FD10BD0000FD
:103D4000C001002000BFFEE702E008C8121F08C142
:103D5000002AFAD170477047002001E001C1121F0C
:103D6000002AFBD170470000002000BF04E00021C2
:103D7000034A1154411CC8B21028F8DB70470000F8
:103D8000D8050020C168497816296DD2DFE801F016
:103D90006C0B0F13171B1F23272B30353A3F444959
:103DA0004E53585D62677D224168CA6060E08C2294
:103DB0004168CA605CE09D224168CA6058E0A72261
:103DC0004168CA6054E0BB224168CA6050E0D22218
:103DD0004168CA604CE0EC224168CA6048E0FA22BF
:103DE0004168CA6044E04FF48C724168CA603FE0A9
:103DF00040F23B124168CA603AE040F24D1241681D
:103E0000CA6035E04FF4BB724168CA6030E04FF4DD
:103E1000D2724168CA602BE040F2D7124168CA6092
:103E200026E040F2F3124168CA6021E04FF40C72C0
:103E30004168CA601CE040F275224168CA6017E020
:103E400040F29B224168CA6012E04FF43B72416825
:103E5000CA600DE04FF452724168CA6008E040F257
:103E6000AF324168CA6003E0D2224168CA6000BF35
:103E700000BF704710B588B00446E06880786421C0
:103E800010FB01F02A490880E068C078642110FB2B
:103E900001F0284908800120616848602046FFF74A
:103EA00071FF6068FEF74AFA0021A068FCF7E6FBA4
:103EB00000200590069007906068FEF7C9F908B1E8
:103EC000FCF71DFA202005900020079005A96068E6
:103ED000FEF788F908B1FCF712FA0020029003906F
:103EE0000490A068FCF786FA08B1FCF708FA0420F1
:103EF000029000200390002202A9A068FCF704FAB7
:103F000008B1FCF7FCF96068FEF7FAF90021A06837
:103F1000FCF7EEFA002000904FF48073064A00216F
:103F2000A068FCF71BFB2068FEF7F9F908B010BD8C
:103F3000180000201A00002098400008FCF7CAFE74
:103F4000FFF7EEF8FEF748FFFEF72CFFFEF7BAFF8B
:103F5000FEF7E4FFFFF7A4F8FEF704FFFFF75AF8B7
:103F6000FFF706F8FFF77CF8054800F08BF805E04E
:103F7000044800F051F8044800F06CF8F8E700003D
:103F8000C0010020080000200000002010B50446F9
:103F9000E06800791C490978884224DB1B480078D6
:103FA00001281ED11A48007870B10021A068FCF7E2
:103FB0009FFA012211021748FCF76AFD12480078A7
:103FC000401C1149087009E00021A068FCF756FB6D
:103FD00000224FF480710F48FCF75AFD00200B4976
:103FE0000870012010BD0021A068FCF747FB0022EB
:103FF0004FF480710748FCF74BFD00200249087020
:104000000249087000BFEDE7200000201E000020DC
:104010001F0000200010004810B50446E06800783A
:10402000012813D10A48007830B12046FFF722FF5B
:1040300000200749087009E02046FFF7A7FF28B9CC
:104040000020E168087001200149087010BD0000DF
:104050002100002000B503460848007860B10848F8
:104060000078472802D10120187000BF00BFFFF779
:104070007BFE00200149087000BD000024000020E4
:10408000D805002010B50446012202492046FEF75B
:104090007BFD10BD2500002000083208640896084A
:1040A000C808FA082C095E098F09C009F109220A1B
:1040B000520A820AB10AE10A0F0B3D0B6B0B980BF7
:1040C000C50BF10B1C0C470C710C9B0CC30CEB0CBF
:1040D000130D390D5F0D840DA80DCB0DED0D0E0EDA
:1040E0002F0E4E0E6C0E8A0EA60EC20EDC0EF50EB4
:1040F0000E0F250F3B0F500F640F760F880F980F90
:10410000A70FB50FC20FCE0FD80FE10FE90FF00FB9
:10411000F60FFA0FFD0FFF0FFF0FFF0FFD0FFA0F46
:10412000F60FF00FE90FE10FD80FCE0FC20FB50F4A
:10413000A70F980F880F760F640F500F3B0F250FB6
:104140000E0FF50EDC0EC20EA60E8A0E6C0E4E0E73
:104150002F0E0E0EED0DCB0DA80D840D5F0D390D3C
:10416000130DEB0CC30C9B0C710C470C1C0CF10BCE
:10417000C50B980B6B0B3D0B0F0BE10AB10A820AC2
:10418000520A220AF109C0098F095E092C09FA08AE
:10419000C8089608640832080008CD079B0769071D
:1041A00037070507D306A10670063F060E06DD0594
:1041B000AD057D054E051E05F004C2049404670498
:1041C0003A040E04E303B8038E0364033C031403B0
:1041D000EC02C602A0027B02570234021202F10175
:1041E000D001B1019301750159013D0123010A017B
:1041F000F100DA00C400AF009B008900770067007F
:1042000058004A003D00310027001E0016000F0034
:104210000900050002000000000000000200050087
:1042200009000F0016001E00270031003D004A0063
:1042300058006700770089009B00AF00C400DA00D7
:10424000F1000A0123013D01590175019301B101FA
:10425000D001F1011202340257027B02A002C60211
:10426000EC0214033C0364038E03B803E3030E045F
:104270003A0467049404C204F0041E054E057D054B
:10428000AD05DD050E063F067006A106D30605073F
:10429000370769079B07CD070203040506070809CE
:1042A0000A0B0C0D0E0F101001020304050607087F
:1042B000090A0B0C0D0E0F1000000000000000009A
:1042C00001020304060708090000000001020304BC
:1042D000F04200080000002038000000483D0008BF
:1042E0002843000838000020B0090000583D0008AD
:1042F000002C0A140A000000400100208001002068
:104300003800002000000020F401E8030000010054
:10431000000200000000000000000000100000008B
:084320000100000000127A0008
:040000050800018965
:00000001FF
