:020000040800F2
:10000000F00900209D010008BB220008D72000084D
:10001000B922000809020008A12C00080000000015
:10002000000000000000000000000000DF220008C7
:10003000DF02000800000000DD220008E1220008C5
:10004000B7010008B7010008B7010008B7010008B0
:10005000B7010008B7010008B7010008B7010008A0
:10006000B7010008B7010008B7010008B701000890
:10007000B70100086D020008B7010008B7010008C9
:10008000B7010008B7010008B7010008B701000870
:10009000B7010008B7010008B7010008B701000860
:1000A000B7010008B7010008B7010008B701000850
:1000B000B7010008C1230008B7010008B701000814
:1000C000B7010008B7010008B7010008B701000830
:1000D000B7010008952C0008B7010008B701000817
:1000E000B7010008B7010008B7010008B701000810
:1000F000B7010008B7010008B7010008B701000800
:10010000000000000000000000000000B70100082F
:10011000B7010008B7010008CD230008B7010008A7
:10012000B7010008B7010008B7010008B7010008CF
:10013000B7010008B701000800000000000000003F
:10014000B7010008B7010008B7010008000000006F
:10015000000000000000000000000000000000009F
:100160000000000000000000B7010008B70100080F
:10017000B7010008000000000000000000000000BF
:1001800000000000B7010008DFF80CD000F02AF8EA
:1001900000480047B12D0008F009002006488047BC
:1001A00006480047FEE7FEE7FEE7FEE7FEE7FEE75C
:1001B000FEE7FEE7FEE7FEE7592300088901000895
:1001C000D2B201E000F8012B491EFBD27047002299
:1001D000F6E710B513460A4604461946FFF7F0FF46
:1001E000204610BD064C074D06E0E06840F00103D4
:1001F00094E8070098471034AC42F6D3FFF7C8FFE5
:100200005431000874310008FEE710B5446A2046F6
:1002100000F08CF80120207110BD10B5446A204612
:1002200000F05FF80120207110BD10B5446A20690C
:1002300040F004002061204600F07BF8012020718E
:1002400010BD10B5446A206940F0040020612046CA
:1002500000F04AF80120207110BD406A00F067B834
:1002600010B5406A00F03EF810BD0000014800F0F3
:10027000D7B900009C0500200B4B0168142299425D
:1002800007D20A4B1944B1FBF2F189000164084915
:1002900008E0054B5B421944B1FBF2F189000164AF
:1002A00001490839C163704708040240F8FFFDBFE7
:1002B0000000024030B590F840500124AC40C56BBE
:1002C0006C60046863604368102B036803D0996016
:1002D0000068C26030BD9A600068C16030BD704780
:1002E0007047704770477047704770B54379012B6E
:1002F0001AD0012646710223037105682C6840F666
:10030000FE7393409C43D1E900310B439340234358
:100310002B6001680B68C0249440A3430B600671F6
:1003200000214171084670BD022070BD70477047C2
:100330007047704770B50446006801684FF00405C7
:10034000890411D5416B89040ED52571216941F0CD
:1003500001012161E90241632068016821F48051B3
:1003600001602046FFF7E4FF20680168890012D58C
:10037000416B89000FD52571216941F0020121618E
:100380004FF0005141632068016821F08051016005
:100390002046FFF7A8FF70BD70B5040003D0207998
:1003A000002510B105E0012070BD6571204600F008
:1003B00007F802202071256101202071002070BD06
:1003C000F0B587B0054614216846FFF700FF2249C3
:1003D000286888423ED12149C86940F00050C86170
:1003E000C86900F000500590486940F40030486149
:1003F0004869102700F4003000970590032000267C
:10040000CDE9010669464FF0904000F0BDF9154C6A
:100410001348C4E900078020C4E90260400020615D
:10042000800060612020C4E90606204600F04CF9F7
:1004300008B1FFF755FF0C48016841F40051016015
:10044000AC60002211463620656200F0ADFB36201C
:1004500000F09EFB07B0F0BD0074004000100240A9
:10046000300002409C0500200000014030B5427978
:10047000012A12D0012242710223037103681D6810
:1004800002FA01F425431D60002901680B6806D0BB
:10049000C3F383430F2B0AD00DE0022030BDC3F31A
:1004A00083030F2B07D14B6843F0010302E04B6835
:1004B00043F002034B60027100214171084630BDD8
:1004C0002DE9F04104460D46174661790022069851
:1004D000012920D00126667102212171F5B1D4F8DD
:1004E0000CC03149CCF82810D4F80CC02F49CCF8F6
:1004F0002C10D4F80CC02E49CCF830102168D1F85B
:1005000000C04CF0805CC1F800C090B3042834D027
:10051000082837D134E00220BDE8F081D4F808C0C3
:100520002449CCF82810D4F808C02349CCF82C1062
:10053000D4F808C02149CCF830102168D1F800C0A7
:100540004CF4805CC1F800C020B1042805D0082814
:1005500008D105E02268083204E022680C3201E08C
:10056000226810322068016841F400510160A068DF
:100570000EE0FFE72268143204E02268183201E03E
:1005800022681C322068016841F000510160E06877
:10059000394600F0C0F80020607120680168AE4064
:1005A000314301600020B7E71B0200086102000828
:1005B000430200080B0200085B0200082B0200083F
:1005C00010B502681468012303FA01F18C4314602A
:1005D0000371002010BD10B590F8211000240229ED
:1005E00003D004218163012418E001680A6822F025
:1005F0000E020A6001680A6822F001020A6090F89F
:100600004020C36B012101FA02F25A6080F82110E8
:10061000002180F82010416B01B18847204610BDB1
:10062000F0B4C16B0D6801680C68066C042202FA14
:1006300006F32B420FD063070DD50B689B0603D43E
:100640000B6823F004030B6090F840108A40C16BE4
:100650004A60C16A1BE0022303FA06F72F424FF0FB
:10066000000C4FF0010216D0A70714D50C68A406A1
:1006700005D40C6824F00A040C6080F8212090F85E
:1006800040108B40C16B4B6080F820C0816A00290C
:1006900018D0F0BC08470823B3402B4212D02307E0
:1006A00010D50B6823F00E030B6090F84010C36B5D
:1006B00002FA01F15960826380F8212080F820C09D
:1006C000016BE4E7F0BC704770B5040021D0022054
:1006D00084F821002268116843F6F0708143D4E960
:1006E00001031843D4E903352B43184363691843C6
:1006F000A3691843E3691843084310602046FFF7D5
:10070000BBFD0020A063012184F8211084F82000A3
:1007100070BD012070BD70B5044690F82000002522
:1007200001280CD0012084F8200094F821600020DA
:10073000012E06D084F820000225284670BD022034
:1007400070BD022684F82160A0632068066826F048
:10075000010606602046FFF7ADFDE06A002820682C
:10076000016802D041F00E0106E041F00A0101608B
:100770002068016821F0040101602068016841F0EF
:1007800001010160D9E700002DE9F84FDFF864B1FD
:1007900000234FF0010C4FF0030A4FF00F090BF14B
:1007A000040EA0E00CFA03F6324072D04C68022C22
:1007B00001D0122C0ED1DC0800EB8408D8F82040C0
:1007C0005D07EF0E09FA07F5AC430D69BD402543FF
:1007D000C8F8205007685D0091F804800AFA05F413
:1007E00008F00308A74308FA05F848EA0708C0F824
:1007F00000804F68012F05D0022F03D0112F01D0A8
:10080000122F11D18768D1F80C80A74308FA05F898
:1008100048EA0708C0F808804768B7430E79C6F36E
:1008200000169E403E434660C668A6438C68AC40B6
:100830003443C4604C68E40054D52F4CA56945F09E
:100840000105A561A46923F0030504F001040094E7
:100850002A4C2E19B4689D072F0F09FA07F5AC43EF
:10086000B0F1904F04D0264DA84203D1012512E0EB
:10087000002510E0234DA84201D102250BE0224DB6
:10088000A84201D1032506E0204DA84202D104254B
:1008900001E027E00525BD402543B560DBF80040B9
:1008A0005D464E689443F60300D514432C60DEF891
:1008B000004075464E689443B60300D514432C603F
:1008C0000C4D08352C684E689443F60200D514434D
:1008D0002C60084D0C352C684E689443B60200D548
:1008E00014432C605B1C0A6832FA03F47FF45AAF9D
:1008F000BDE8F88F000401400010024000000140F4
:100900000004004800080048000C0048001000489F
:100910000AB18161704781627047000001488068B8
:10092000704700003000002090F84120202A24D198
:1009300090F84020012A20D0012280F84020242273
:1009400080F841200268136823F0010313600268F5
:10095000136823F480531360026813680B43136019
:1009600001680A6842F001020A60202180F8411003
:10097000002180F84010084670470220704790F828
:100980004120202A22D190F84020012A1ED00122A5
:1009900080F84020242280F841200268136823F068
:1009A000010313600268136823F4706343EA0121B2
:1009B000116001680A6842F001020A60202180F893
:1009C0004110002180F8401008467047022070470F
:1009D00070B5040004D094F84100002510B106E081
:1009E000012070BD84F84050204600F04DF82420CE
:1009F00084F841002068016821F00101016060680D
:100A0000216820F0706008612068816821F400414D
:100A10008160E0680128A06807D040F404402168A4
:100A20008860E068022803D006E040F40040F6E762
:100A300021684FF40060486020684168114A114302
:100A400041602068C16821F40041C160D4E904011B
:100A50000843A16940EA01202168C860D4E9070180
:100A60000843216808602068016841F001010160C5
:100A70006564202084F84100256384F842500020FA
:100A800070BD00000080000210B586B0044614213D
:100A90006846FFF79CFB1249206888421ED1114C22
:100AA000606940F4802060616069694600F48020DC
:100AB0000590C02000901220019001200290032098
:100AC0000390042004900848FFF75EFEE06940F4BC
:100AD0000010E061E06900F40010059006B010BD60
:100AE00000540040001002400004004802488168A1
:100AF000027811448160704730000020074810B52B
:100B0000016841F010010160032000F06DF8002041
:100B100000F006F800F024F8002010BD002002408C
:100B200070B50D4D04464FF47A712878B1FBF0F0A2
:100B30000A490968B1FBF0F000F054FE48B9102CE6
:100B400007D200222146501E00F02EF800206C60D3
:100B500070BD012070BD0000300000203C0000206E
:100B60000A4882B0816941F001018161816901F027
:100B700001010091C16941F08051C161C06900F07B
:100B800080500090072002B000F02EB80010024004
:100B900000F01F02012191404009800000F1E02097
:100BA000C0F8001170470000F0B40E4B1B680C46F3
:100BB000C3F30223C3F10705042D00D90425191D31
:100BC000072901D2002300E0DB1E012606FA05F109
:100BD000491E214099409E40761E16403143F0BC8C
:100BE00001F06CBB0CED00E0064900F0070208685C
:100BF0004FF6FF03184040EA0220034A1043086002
:100C0000704700000CED00E00000FA0570B504002C
:100C10004FF0000604D094F87103002510B106E0EF
:100C2000012070BD84F87053204600F043F8032083
:100C300084F8710301220CE0C6EBC60004EB8000CF
:100C400080F8292000F8286F761CC570C560056102
:100C500045616068B042EFD8002010E0C0EBC001F1
:100C600004EB810181F8CD5181F8CC0181F8CF519D
:100C7000C1F8D851C1F8DC51401CC1F8E05161689D
:100C80008142EBD82068A0F840202068A0F84050AE
:100C90002068A0F844502068A0F8505021684FF414
:100CA0003F40A1F8400084F8245084F871230020CC
:100CB00070BD000010B586B0044614216846FFF7E9
:100CC00086FA13492068884220D1124C606940F4AA
:100CD000003060616069694600F4003005904FF4AF
:100CE000C050009002200190002002900320039049
:100CF0000E2004904FF09040FFF746FDE06940F46D
:100D00000000E061E06900F40000059006B010BD4D
:100D1000005C0040001002402DE9F84F04460068D6
:100D2000804DC0036FD5E8690026C00008D4E8698B
:100D300040F08050E861E869012600F080500090A2
:100D400079480168C90512D40168804641F4807170
:100D50000160FFF7E3FD074605E000BFFFF7DEFD9A
:100D6000C01B642835D8D8F80000C005F6D5286A1D
:100D700010F4407053D0A18801F4407181424ED0EC
:100D8000286A4FF4803191FAA1F2B2FA82F2970008
:100D9000664A4FF00108174420F44070C7F80084F9
:100DA00091FAA1F1B1FA81F102EB81010023C1F8BE
:100DB00000342862C00732D0FFF7B0FD074641F289
:100DC000883A4FF0020907E0FFF7A8FDC11B514523
:100DD00002D90320BDE8F88F99FAA9F1B1FA81F19F
:100DE00041F040014846B8EB511F01D129680CE0A1
:100DF00090FAA0F1B1FA81F141F04001B0EB511F3E
:100E000002D1296A01E015E0696A99FAA9F0B0FAFD
:100E100080F000F01F0008FA00F21142D4D0286AD6
:100E2000616820F44070084328621EB1E86920F030
:100E30008050E8612078C00705D0286BA16820F0B9
:100E40000300084328632078800705D5286BE168F4
:100E500020F44030084328632078400705D5286BEC
:100E6000216920F44020084328632078800605D5B6
:100E7000286BE16920F01000084328632068800394
:100E800005D56868A16B20F480000843686020786D
:100E9000400605D5286B216A20F02000084328630E
:100EA0002078000705D5286B616920F440100843BD
:100EB00028632078C00605D5286BA16920F440007E
:100EC000084328632088800505D56868E16A20F416
:100ED0000000084368602078000605D5E86A616A6A
:100EE00020F4F8700843E8622088C00505D5E86A58
:100EF000A16A20F478500843E8622088C00405D530
:100F0000286B216B20F480700843286320888004BC
:100F100005D5286B616B20F400700843286300201E
:100F200058E70000001002400070004000004242FC
:100F30002DE9F0470F46050069D04A4E306800F0B1
:100F40000700B84209D2306820F00700384330600B
:100F5000306800F00700B84259D12878424C800729
:100F600005D56068A96820F0F00008436060287823
:100F7000C0073DD06968012001290DD0022923D086
:100F80005FF0020393FAA3F2B2FA82F242F0200277
:100F9000520904D0226803E04FF40033F2E7626A9A
:100FA00093FAA3F3B3FA83F303F01F0398400242CA
:100FB0002DD0606820F0030008436060FFF7AEFCAE
:100FC000804641F288390CE04FF00073DAE700BF49
:100FD000FFF7A4FCA0EB0801494502D90320BDE8B6
:100FE000F0876068696800F00C00B0EB810FEFD10A
:100FF000306800F00700B8420BD9306820F00700D5
:1010000038433060306800F00700B84201D001205A
:10101000E5E72878400705D56068E96820F4E060D6
:10102000084360602878000706D56068296920F4C5
:10103000605040EAC100606000F04CF86168F02246
:1010400092FAA2F201F0F001B2FA82F2D140074A1C
:10105000515CC840064908600020FFF761FD002090
:10106000BDE7000000200240001002403C310008B3
:101070003C00002008480949006849684FF4E062D4
:1010800092FAA2F201F4E061B2FA82F2D140044A8B
:10109000515CC840704700003C0000200010024036
:1010A0004C31000808480949006849684FF460520B
:1010B00092FAA2F201F46051B2FA82F2D140044AEB
:1010C000515CC840704700003C0000200010024006
:1010D0004C310008144B10B55A68144802F00C014A
:1010E00004291DD008291BD14FF4701494FAA4F4DC
:1010F00002F47011B4FA84F4E1400D4CDB6A615CD7
:101100000F2494FAA4F403F00F03B4FA84F4E34038
:10111000074C1034D203E35C03D5B0FBF3F0484333
:1011200010BD0448484310BD0010024000127A0070
:101130001C31000800093D002DE9F84F040071D072
:101140002078FB4DC0074FF0010625D06868770472
:10115000C0F38100012807D06868C0F3810002282D
:101160001BD16868C00318D597FAA7F0B0FA80F0D1
:1011700040F02000400901D0286800E0686A97FA32
:10118000A7F1B1FA81F101F01F0106FA01F108425D
:1011900065D060680028D2D061E06068B0F5803F1B
:1011A0000BD010B1B0F5A02F17D0286820F48030F4
:1011B0002860286820F4802002E0286840F480300D
:1011C0002860E86AA16820F00F000843E8626068C0
:1011D00020B3FFF7A3FB80460AE0286840F4802094
:1011E0002860EAE7FFF79AFBA0EB0800642872D8B2
:1011F00097FAA7F0B0FA80F040F02000400901D043
:10120000286800E0686A97FAA7F1B1FA81F101F065
:101210001F0106FA01F10842E4D020E0FFF77EFB4F
:10122000804607E0C7E000BFFFF778FBA0EB0800AF
:101230006428DCD897FAA7F0B0FA80F040F02000DC
:10124000400901D0286800E0686A97FAA7F1B1FA6E
:1012500081F101F01F0106FA01F10842E4D1207882
:10126000DFF8D08280074FF0000A4FF0020759D50F
:1012700068684FF0F80B10F00C0F07D06868C0F3E7
:10128000810002281BD16868C00318D497FAA7F020
:10129000B0FA80F040F02000400901D0286800E05A
:1012A000686A97FAA7F1B1FA81F101F01F0106FA15
:1012B00001F108422BD0206901287CD127E0206968
:1012C00088B396FAA6F0B0FA80F048F82060FFF7ED
:1012D00025FB814606E055E1FFF720FBA0EB090066
:1012E000022884D897FAA7F0B0FA80F040F02000E6
:1012F000400901D0286800E0686A97FAA7F1B1FABE
:1013000081F101F01F0106FA01F10842E4D02868DA
:101310009BFAABF26169B2FA82F220F0F8009140D8
:101320000843286025E0FFE796FAA6F1B1FA81F1BB
:1013300048F821A0FFF7F2FA814605E0FFF7EEFA40
:10134000A0EB09000228CCD897FAA7F0B0FA80F0F9
:1013500040F02000400901D0286800E0686A97FA50
:10136000A7F1B1FA81F101F01F0106FA01F108427B
:10137000E4D1207800076AD5A069A0B396FAA6F058
:10138000B0FA80F008EB8000C0F88064FFF7C6FA7E
:10139000814605E0FFF7C2FAA0EB09000228A0D8B9
:1013A00097FAA7F0B0FA80F040F06000B6EB501F5B
:1013B00002D128680CE077E197FAA7F0B0FA80F044
:1013C00040F06000B7EB501F01D1286A00E0686A66
:1013D00097FAA7F1B1FA81F101F01F0106FA01F2C3
:1013E0001042D7D033E0FFE796FAA6F0B0FA80F0CB
:1013F00008EB8000C0F880A4FFF790FA814605E072
:10140000FFF78CFAA0EB090002289CD897FAA7F006
:10141000B0FA80F040F06000B6EB501F01D12868B0
:101420000BE097FAA7F0B0FA80F040F06000B7EB5D
:10143000501F01D1286A00E0686A97FAA7F1B1FA53
:1014400081F101F01F0106FA01F21042D8D1207893
:10145000400774D5E8694FF00009C00009D4E86975
:1014600040F08050E861E8694FF0010900F08050D9
:10147000009031480168C90512D4016841F48071B7
:101480000160FFF74BFA834606E000BFFFF746FA1C
:10149000A0EB0B00642875D827480068C005F5D577
:1014A000E06801280AD008B1052811D0286A20F088
:1014B00001002862286A20F0040002E0286A40F057
:1014C00001002862E068C8B3FFF728FA83460DE000
:1014D000286A40F004002862F0E700BFFFF71EFA18
:1014E000A0EB0B0141F2883081424BD897FAA7F06C
:1014F000B0FA80F040F04000B6EB501F01D12868F0
:101500000BE097FAA7F0B0FA80F040F04000B7EB9C
:10151000501F01D1286A00E0686A97FAA7F1B1FA72
:1015200081F101F01F0106FA01F21042D6D035E038
:1015300000100240000042420070004000E034E031
:10154000FFF7ECF9834607E0FFF7E8F9A0EB0B01A2
:1015500041F28830814215D897FAA7F0B0FA80F0AE
:1015600040F04000B6EB501F01D128680CE097FA1C
:10157000A7F0B0FA80F040F04000B7EB501F02D166
:10158000286A01E083E0686A97FAA7F1B1FA81F16D
:1015900001F01F0106FA01F21042D5D1B9F1000F96
:1015A00003D0E86920F08050E861E06980B36968A1
:1015B000C1F38101022977D04FF080714F000228DA
:1015C00009D091FAA1F0B0FA80F048F820A0FFF716
:1015D000A5F904465EE050468A4691FAA1F1B1FAB7
:1015E00081F1C14648F82100FFF798F9804605E0EF
:1015F000FFF794F9A0EB0800022848D897FAA7F063
:10160000B0FA80F040F02000400902D0286801E0E4
:1016100056E0686A97FAA7F1B1FA81F101F01F016B
:1016200006FA01F10842E3D1D4E9081008436968D9
:1016300021F47411084368609AFAAAF0B0FA80F0B5
:1016400049F82060FFF76AF9044604E0FFF766F9FD
:10165000001B02281BD897FAA7F0B0FA80F040F0E0
:101660002000400901D0286800E0686A97FAA7F1D5
:10167000B1FA81F101F01F0106FA01F10842E5D04B
:101680001EE000BFFFF74AF9001B022802D9032021
:10169000BDE8F88F97FAA7F0B0FA80F040F020008C
:1016A000400902D0286801E00CE0686A97FAA7F1C7
:1016B000B1FA81F101F01F0106FA01F10842E1D10E
:1016C0000020E5E70120E3E72DE9F041040005D023
:1016D0000025A56294F85D0018B107E00120BDE87F
:1016E000F08184F85C50204600F04AF8022384F828
:1016F0005D302068016821F040010160E0684FF42E
:10170000E066B04201D9002101E04FF48051B0F50C
:10171000706F02D0B04200D0A562276B012227B9BA
:10172000B04201D9236300E02263D4E901031843E6
:10173000D4E9043633431843238B03F4007318436E
:10174000E3691843236A1843A36A1843236818609F
:10175000636B606AA66918430427E36807EA1646C4
:10176000334318430843216848602068C16921F465
:101770000061C161256684F85D200020AFE70000AC
:1017800010B586B0044614216846FEF720FD1349C3
:10179000206888421FD11248816941F480518161DB
:1017A000816901F480510591416941F40031416141
:1017B0004069694600F400300590E0200090022066
:1017C00001900020029003200390052004904FF028
:1017D0009040FEF7D9FF06B010BD00000030014078
:1017E0000010024010B5401EB0F1807F01D30120EF
:1017F00010BD4FF0E02460610F21601700F05EFD26
:101800000020A06107202061002010BD70477047B4
:101810007047000030B590F83C20012A1FD001220B
:1018200080F83C200268536894680E4DAA4202D0AA
:101830000D4DAA4203D123F470054B682B4323F0CE
:1018400070050B6889682B4324F0800421435360A2
:1018500002689160002180F83C10084630BD0220EB
:1018600030BD0000002C01400034014010B50400E0
:1018700003D094F83D0010B107E0012010BD002016
:1018800084F83C00204600F00DF8022084F83D006A
:10189000211D206800F0A8FD012084F83D000020F3
:1018A00010BD000008B5154A0168154891420ED1D7
:1018B000C16941F00201C161C069002200F002006B
:1018C000009011461D20FFF76FF91D2010E00D4A12
:1018D000914211D1C16941F01001C161C06900227A
:1018E00000F01000009011463620FFF75DF9362019
:1018F000BDE80840FFF74CB908BD000000040040F7
:101900000010024000100040022180F83D100168E4
:101910000A6842F001020A60012180F83D100020AF
:1019200070470168CA6842F00102CA600068016835
:1019300041F00101016000207047022180F83D1054
:1019400001680A6A41F211131A4207D10A6A9B1010
:101950001A4203D10A6822F001020A60012180F8CC
:101960003D1000207047000070B5044690F83C0020
:10197000012817D0012584F83C50022084F83D004E
:1019800022689068364E304020F47F4090600868AE
:10199000502839D00DDC20285BD005DC98B3102806
:1019A00043D153E0022070BD302855D040283CD1AF
:1019B00041E0602830D070280CD0B0F5805F03D0B3
:1019C000B0F5005F31D112E020688168244A70329E
:1019D000114016E0CB68D1E90121206800F05CFDE0
:1019E00021688868304040F0770088601DE0CB684F
:1019F000D1E90121206800F04FFD2068816841F4A1
:101A00008041816011E01EE0CA684968206800F0EA
:101A1000DDFE5021206806E0CA684968206800F0B1
:101A2000E6FE6021206800F041FD84F83D50002072
:101A300084F83C0070BDCA684968206800F0C6FEA2
:101A400040212068EFE700212068ECE710212068A2
:101A5000E9E720212068E6E730212068E3E700007D
:101A600088FFFEFF704770B50446006801694FF0BB
:101A70000005C943890715D4C168C943890711D432
:101A8000E91E0161012020772068806980072046D7
:101A900002D0FFF7E7FF04E000F0D0F8204600F0A6
:101AA0007EF9257720680169C943490717D4C168C1
:101AB000C943490713D46FF0040101610220207764
:101AC0002068806910F4407F204602D0FFF7CAFFEB
:101AD00004E000F0B3F8204600F061F925772068B3
:101AE0000169C943090716D4C168C943090712D45B
:101AF0006FF008010161042020772068C069800729
:101B0000204602D0FFF7AEFF04E000F097F8204631
:101B100000F045F9257720680169C943C90617D443
:101B2000C168C943C90613D46FF0100101610820D0
:101B300020772068C06910F4407F204602D0FFF76C
:101B400091FF04E000F07AF8204600F028F92577AC
:101B500020680169C943C90708D1C168C943C907D9
:101B600004D1891E0161204600F01AF9206801693C
:101B7000C943090609D4C168C943090605D46FF0F1
:101B8000800101612046FFF742FE20680169C943D8
:101B9000C90509D4C168C943090605D46FF4807129
:101BA00001612046FFF732FE20680169C9434906FA
:101BB00009D4C168C943490605D46FF040010161E9
:101BC000204600F00DF920680169C94389060BD44D
:101BD000C168C943890607D46FF02001016120461E
:101BE000BDE87040FFF714BE70BD000010B586B0B0
:101BF000044614216846FEF7EAFA0D492068884237
:101C000014D10C48416941F48021416140690021AF
:101C100000F480200590012000900220CDE9010110
:101C2000CDE9031069460448FEF7AEFD06B010BDCD
:101C3000000400400010024000040048704770B5E6
:101C4000044690F83C000D4601280ED0012684F889
:101C50003C60022084F83D000C2A45D007DC5AB1D4
:101C6000042A1BD0082A78D12CE0022070BD102A4B
:101C70004ED0142A71D15DE0206800F01FFC20686E
:101C8000816941F0080181612068816921F00401C6
:101C90008161206881692A69114311E0206800F0A0
:101CA0005BFC2068816941F4006181612068816981
:101CB00021F480618161206881692A6941EA0221F9
:101CC00081614AE0206800F08FFC2068C16941F022
:101CD0000801C1612068C16921F00401C161206867
:101CE000C1692A69114311E0206800F0C5FC206831
:101CF000C16941F40061C1612068C16921F480615A
:101D0000C1612068C1692A6941EA0221C16124E0F8
:101D1000206800F0EBFC2068416D41F0080141654E
:101D20002068416D21F0040141652068416D2A69F8
:101D3000114311E0206800F011FD2068416D41F46D
:101D4000006141652068416D21F480614165206832
:101D5000416D2A6941EA0221416584F83D60002015
:101D600084F83C0070BD10B5040003D094F83D0029
:101D700010B107E0012010BD002084F83C0020468F
:101D800000F00CF8022084F83D00211D206800F0CE
:101D90002BFB012084F83D00002010BD70477047E8
:101DA00010B500680C4988420DD10C48002301464B
:101DB000447801220989012C06D0C488A14202D3AB
:101DC00042700270038110BD8488A14201D3437028
:101DD000F7E7491C018110BD0004004020000020ED
:101DE000704770477047000070B503680446D869B3
:101DF000196810F00F0508D1820606D58A0604D5A9
:101E00002046BDE8704000F0BBBD9A68002D66D04A
:101E100002F0010501F490762E4360D0C60707D08A
:101E2000CE0505D501261E62E36E43F00103E3668D
:101E3000830708D5D30706D0266802233362E36EF2
:101E400043F00403E366430708D5D20706D02368AE
:101E500004221A62E26E42F00202E26602070AD52A
:101E600001F020022A4306D0236808221A62E26E9B
:101E700042F00802E266E26E002A29D0800604D50C
:101E8000880602D5204600F07BFDE06E000703D4F3
:101E90002068806840061CD5204600F056FD20686A
:101EA0008168490611D5816821F040018160606E2A
:101EB00058B11C494163606EFEF78DFB002807D0C6
:101EC000606E416BBDE8704008472046FFF78AFF0F
:101ED00070BD2046FFF786FF0020E06670BDC5029A
:101EE0000ED552020CD54FF480101862202084F8D1
:101EF000690084F86A002046BDE87040FFF771BFB2
:101F0000020606D50A0604D52046BDE8704000F05A
:101F10005DBE4006E2D54806E0D52046BDE87040EB
:101F200000F021BD3729000810B5040003D094F853
:101F3000690010B107E0012010BD002084F868009E
:101F4000204600F027F8242084F869002068016802
:101F500021F001010160204600F04EFD0128EBD088
:101F6000606A10B1204600F054FC2068416821F4FA
:101F7000904141602068816821F02A0181602068D9
:101F8000016841F0010101602046BDE8104000F009
:101F9000A4BC000010B586B0044614216846FEF7C4
:101FA00016F916492068884226D11548816941F4FE
:101FB00080418161816901F480410591416941F469
:101FC000002141614069694600F4002005903020FD
:101FD000009002200190002002900320039007202F
:101FE00004900848FEF7D0FB002211462520FEF79A
:101FF000DBFD2520FEF7CCFD06B010BD003801400A
:10200000001002400008004890F86A30202B36D1BA
:1020100099B192B190F86830012B30D0012380F84B
:1020200068304165A0F85820A0F85A208168FF2246
:10203000B1F5805F03D039B10BE001207047016931
:10204000D1B940F2FF1102E00169A9B17F21A0F8E6
:102050005C100021C166222280F86A2080F8681096
:1020600001688A6842F001028A600068016841F4F0
:102070009071016000207047A0F85C20E9E7022021
:102080007047000038B5104C00218DF80010217801
:1020900021B101226946FFF7B7FF38BD0B4A01683D
:1020A0009142FAD101226946FFF7AEFF9DF8001078
:1020B0000D2905D0064A60881154401C608038BD47
:1020C0000120207038BD00002A00002000380140A7
:1020D000E00500207047FEE770B586B01421684621
:1020E000FEF775F82648416941F4001141614169E4
:1020F00001F400110591416941F4002141614169F8
:1021000001F400210591416941F480014161416977
:1021100001F480010591416941F400314161416957
:1021200001F400310591416941F480214161406928
:10213000144E00F480204FF60875059000222946C1
:102140003046FEF7E5FB372000900F480024CDE92C
:10215000010469463046FEF717FB00950125CDE9DD
:102160000154694630460394FEF70EFBCDE9005456
:1021700069464FF090400294FEF706FB06B070BD32
:102180000010024000100048000012100E4810B568
:102190000C4901600D49416000210122C0E9021291
:1021A000016141618161C1610162FEF711FC0021A1
:1021B0000548FEF7B9FBBDE8104000210248FEF7D4
:1021C000DEBB000000540040540000200E09002037
:1021D0000E480D494FF4407201604FF48271416026
:1021E0000021C0E902124FF400720161C0E905123A
:1021F0000822C0E9072107234162C0E90A13C0E9A8
:102200000C12FFF761BA000000300140A00000206E
:1022100010B58EB000240794089409940A940B9486
:102220000C941C2168460D94FDF7D1FF1648154902
:1022300001600721C0E9011440F6B731C0E9031479
:102240008461FFF713FB4FF48050079007A90E48F5
:10225000FFF78AFB0C48FFF786FD0B940BA90A4891
:102260000D94FFF7D7FA6020CDE90004029408220C
:10227000694605480494FFF7E2FC0348FFF7B6FC03
:102280000EB010BD000400400401002009480849B8
:1022900001604FF496414160002181600C22C160D1
:1022A000C0E904128161C16101624162FFF73CBE75
:1022B0000038014084010020FEE770470907090E3D
:1022C000002806DA00F00F0000F1E02080F8141D6D
:1022D000704700F1E02080F80014704770477047A5
:1022E000FEF704BC30B59FB028210FA8FDF76FFFA3
:1022F000142119A8FDF76BFF3C216846FDF767FF25
:1023000003200F904FF4A0200024CDE910040120F9
:1023100013901020149002250003CDE916500001FF
:1023200018900FA8FEF708FF0F20CDE919056802E5
:10233000CDE91B40012119A81D94FEF7F9FD0548C0
:102340000090680502940E9007946846FEF7E4FC3E
:102350001FB030BD210002001448016841F4700133
:1023600001601348016841F0010101604168114AB0
:10237000114041600168104A11400160016821F478
:1023800080210160416821F4FE014160C16A21F0B1
:102390000F01C162016B094A114001630021816094
:1023A0000249C003803908607047000088ED00E0F2
:1023B000001002400CC07FF8FFFFF6FECCFC00FFCF
:1023C0000148FFF750BB00000401002010B504488D
:1023D000FFF749FBBDE810400248FDF7ABBF000026
:1023E00044010020400000202DE9F0430268234B07
:1023F000234D244E244C4FF08049984207D0484545
:1024000005D0A84203D0B04201D0A04203D122F0AF
:1024100070074A683A431D4FDFF874C0DFF87480D4
:1024200098420DD048450BD0A84209D0B04207D001
:10243000A04205D0B84203D0604501D0404503D149
:1024400022F44075CA682A434D6922F080022A436B
:1024500002608A68C2620A688262984207D0A0421B
:1024600005D0B84203D0604501D0404501D109698B
:10247000016301214161BDE8F0830000002C0140AF
:1024800000040040000800400034014000400140CA
:10249000004401400048014010B5846842EA03222C
:1024A00024F47F440A432243826010BD826822F0F4
:1024B00070020A4342F00701816070472DE9F04342
:1024C000026A22F001020262056A436882691C4CBA
:1024D00025F0020522400C6822F0030214438A68AA
:1024E000194E2A43174D194FDFF864C0DFF8649086
:1024F000A84207D0B04205D0B84203D0604501D011
:10250000484506D122F00808CA6842EA080222F0CB
:102510000402A84207D0B04205D0B84203D06045BB
:1025200001D0484505D14D6923F440731D438B69A3
:102530002B4343608461496841630262BDE8F083D4
:102540008FFFFEFF002C014000340140004001409D
:102550000044014000480140F0B5026A22F0100238
:102560000262056A42688369194C1B4E23400C685D
:1025700023F4407343EA042425F020038D6843EAE2
:102580000513144DA84201D0B04206D1CF6823F004
:10259000800343EA071323F04003A8420AD0B04265
:1025A00008D00E4DA84205D00D4DA84202D00D4DC9
:1025B000A84207D14D6922F4406242EA85028D6942
:1025C00042EA850242608461496881630362F0BD2A
:1025D000FF8FFFFE002C014000340140004001400D
:1025E0000044014000480140F0B5026A22F48072C4
:1025F0000262056A4368C269194C1B4E22400C688E
:1026000022F00302144325F400728D6842EA052289
:10261000144DA84201D0B04206D1CF6822F4006226
:1026200042EA072222F48062A8420AD0B04208D0CF
:102630000E4DA84205D00E4DA84202D00D4DA84225
:1026400007D14D6923F4405343EA05138D6943EAEA
:1026500005134360C4614968C1630262F0BD0000B4
:102660008FFFFEFF002C014000340140004001407C
:10267000004401400048014030B5026A22F4805213
:102680000262046A4268C369124D24F400542B406C
:102690000D6823F4407343EA05238D6844EA05344A
:1026A0000D4DA8420BD00D4DA84208D00C4DA842AC
:1026B00005D00C4DA84202D00B4DA84204D14D6963
:1026C00022F4804242EA85124260C3614968016493
:1026D000046230BDFF8FFFFE002C0140003401403A
:1026E00000400140004401400048014030B5026A0A
:1026F00022F480320262046A4268436D114D2B401D
:102700000D681D4324F400330C8943EA04430E4C46
:10271000A0420BD00D4CA04208D00D4CA04205D0D9
:102720000C4CA04202D00C4CA04204D14C6922F4C3
:10273000803242EA0422426045654968816503624D
:1027400030BD00008FFFFEFF002C0140003401402F
:1027500000400140004401400048014030B5026A99
:1027600022F480120262046A4268436D114D24F41F
:1027700000142B400D6843EA05230D8944EA0554F3
:102780000D4DA8420BD00D4DA84208D00C4DA842CB
:1027900005D00C4DA84202D00B4DA84204D14D6982
:1027A00022F4802242EA8522426043654968C1657D
:1027B000046230BDFF8FFFFE002C01400034014059
:1027C00000400140004401400048014010B5036A48
:1027D000046A24F001040462846924F0F00444EAE9
:1027E000021423F00A020A438461026210BD10B58C
:1027F000036A23F0100303628369046A23F47043BD
:1028000043EA023224F0A00343EA0111826101622B
:1028100010BD90F82410C90706D001684A68836A81
:1028200022F400321A434A6090F82410890706D532
:1028300001684A68C36A22F480321A434A6090F8F9
:102840002410490706D501684A68036B22F48022E8
:102850001A434A6090F82410090706D501684A68AF
:10286000436B22F400421A434A6090F82410C906D0
:1028700006D501688A68836B22F480521A438A6005
:1028800090F82410890606D501688A68C36B22F483
:1028900000521A438A6090F82410490611D5016845
:1028A0004A68036C22F480121A434A60016CB1F545
:1028B000801F06D101684A68436C22F4C0021A43A3
:1028C0004A6090F82410090606D501684A68806CB1
:1028D00022F4002202434A607047F8B500260446FD
:1028E000C666FEF71BF80546206800686FF07E4755
:1028F000000708D52B4600224FF400112046009710
:1029000000F096F960B92068006840070AD52B46A8
:1029100000224FF480012046009700F089F908B1A9
:102920000320F8BD202084F8690084F86A0084F848
:1029300068600020F8BD10B5406A0021A0F85A1068
:10294000A0F85210FFF74EFA10BD01680A6822F491
:1029500090720A6001688A6822F001028A60202170
:1029600080F86A10704710B501680A6822F04002CA
:102970000A60202180F86910FFF7ACFB002010BD31
:1029800010B5B0F85C2090F86A300168222B05D0B1
:10299000886940F008008861022010BD898C836836
:1029A000B3F5805F01D103696BB11140426D531CD7
:1029B00043651170B0F85A10491E0904090CA0F8BB
:1029C0005A1007D015E0436D11401980416D891CE4
:1029D0004165EFE701680A6822F490720A600168B5
:1029E0008A6822F001028A60202180F86A10FFF7CD
:1029F00049FB002010BD00002DE9F04104461020E5
:102A00002369A268E6691A436369002133431A43C4
:102A100023680D461E6849F20C67BE4316431E60CC
:102A200022685368E66823F4405333435360236AB3
:102A3000A2691A4323689E6826F4306616439E6096
:102A40005A4F22685A4B0603BA420CD11B6B13F043
:102A5000030306D0012B4DD0022B4DD0032B4CD1BC
:102A600046E0012049E0534FBA420CD11B6B13F4EE
:102A700040333BD0B3423DD0B3F5003F3CD0B3F53B
:102A8000403F3AD134E04C4FBA420DD11B6B13F4A6
:102A900040232BD0B3F5802F2CD0B3F5002F2BD0B3
:102AA000B3F5402F29D123E0444FBA420DD11B6B1F
:102AB00013F440131AD0B3F5801F1BD0B3F5001FD9
:102AC0001AD0B3F5401F18D112E03D4FBA4214D1CD
:102AD0001B6B13F4400309D0B3F5800F0AD0B3F594
:102AE000000F09D0B3F5400F07D101E0002004E04A
:102AF000022002E0042000E00820E7694FF40043D0
:102B00009F4226D109281DD2DFE800F00508121CDB
:102B1000151C1C1C1800FEF7ADFA01E0FEF7C2FA06
:102B20004100606801EB5001B1FBF0F081B20AE0B6
:102B300024496068F6E7FEF7CDFAF1E7606806EB36
:102B40005001F1E7012521F00F00C1F342010843D4
:102B50001CE0092825D2DFE800F005080B2410242A
:102B600024241C00FEF786FA09E0FEF79BFA06E033
:102B70001549606801EB50010EE0FEF7ABFA014623
:102B8000606801EB5001B1FBF0F080B22168C860D1
:102B900008E0606803EB5001B1FBF0F080B2D06058
:102BA00000E001252846BDE8F08100000038014022
:102BB000001002400044004000480040004C00402B
:102BC000005000400024F40000127A0090F86910D0
:102BD000212901D002207047B0F8521021B181683C
:102BE000B1F5805F0BD00CE001680A6822F080022A
:102BF0000A600068016841F0400101600CE0016971
:102C000061B1C16C4A1CC26402680978A2F828103C
:102C100030F8521F491E018000207047C16C0268C5
:102C20000988C1F308011185C16C891CC164EFE7F3
:102C30002DE9F041984617460E460446069D1DE0D4
:102C4000681C1BD02DB1FDF769FEA0EB0800A8425F
:102C500014D92068016821F4D0710160206881686E
:102C600021F001018160202084F8690084F86A0065
:102C7000002084F868000320BDE8F0812068C06966
:102C800036EA000004D00020B842D9D00020F3E793
:102C90000120F9E70148FFF7A7B8000084010020F0
:102CA000FEE702E008C8121F08C1002AFAD17047E7
:102CB0007047002001E001C1121F002AFBD17047BC
:102CC000816940684268521C5143024AB2FBF1F1EB
:102CD000C1607047006CDC0230B50446018A2548AB
:102CE00087B08180A18AC180616801204860204648
:102CF000FFF7E6FF6068FEF720FE0021A068FDF701
:102D00005FFC00250195029503956068FEF7AEFD16
:102D100008B1FDF7E5FA20200395019001A960684C
:102D2000FEF778FD08B1FDF7DBFA049505950695E9
:102D3000A068FDF731FB08B1FDF7D2FA0420CDE918
:102D40000405002204A9A068FDF7CFFA08B1FDF739
:102D5000C7FA6068FEF7D8FD0021A068FDF786FB82
:102D600000954FF48073044A0021A068FDF7A8FB8A
:102D700007B030BD200000201C2F000838B50446E5
:102D80004068FEF7C1FD0021A068FDF76FFB002041
:102D900000904FF48073054A0021A068FDF790FB76
:102DA0002068BDE83840FEF7BCBD00001C2F0008BD
:102DB0000EB5FDF7A3FEFFF795FAFFF78DF92C4846
:102DC000416941F0010141614069002200F00100C8
:102DD000009011460D20FDF7E7FE0D20FDF7D8FE0F
:102DE000FFF7D4F9FFF7F4F92348224900240160E2
:102DF000082141600221C0E902148461046201617A
:102E0000FDF704FF1E49009401941C4802940860D9
:102E10000846FDF7C1FA0420CDE900040022694606
:102E20001748FDF762FA14480094B0380194154928
:102E300001250294C0E90015D221C0E90241846154
:102E4000FEF714FD202000900B4869460294B0382C
:102E5000FEF7E0FCFFF7DCF9FFF718FA0A48FFF786
:102E60008DFF09480577084800F03EF8FBE70000B1
:102E700000100240005C0040F4010020007400409B
:102E80004000002000100040000000202DE9F0412B
:102E9000134C017B0025A27891421CD32178012993
:102EA00016D161780F4F002980684FF4807629464B
:102EB00003D0FDF7DBFA012202E0FDF781FB0022DF
:102EC00031463846FDF724FD2570A078401CA070DF
:102ED0000120BDE8F081A57025700020F9E7000011
:102EE000200000200010004870B50446007F012833
:102EF00008D1094D0026E8780028204603D0FFF7C6
:102F0000EBFEEE7070BDFFF7C1FF0028FAD1267707
:102F10000120E87070BD0000200000200008320889
:102F200064089608C808FA082C095E098F09C009C8
:102F3000F109220A520A820AB10AE10A0F0B3D0B7B
:102F40006B0B980BC50BF10B1C0C470C710C9B0CFD
:102F5000C30CEB0C130D390D5F0D840DA80DCB0DBB
:102F6000ED0D0E0E2F0E4E0E6C0E8A0EA60EC20E1C
:102F7000DC0EF50E0E0F250F3B0F500F640F760F72
:102F8000880F980FA70FB50FC20FCE0FD80FE10F04
:102F9000E90FF00FF60FFA0FFD0FFF0FFF0FFF0FF6
:102FA000FD0FFA0FF60FF00FE90FE10FD80FCE0F5C
:102FB000C20FB50FA70F980F880F760F640F500F31
:102FC0003B0F250F0E0FF50EDC0EC20EA60E8A0E5D
:102FD0006C0E4E0E2F0E0E0EED0DCB0DA80D840DAA
:102FE0005F0D390D130DEB0CC30C9B0C710C470CD2
:102FF0001C0CF10BC50B980B6B0B3D0B0F0BE10A77
:10300000B10A820A520A220AF109C0098F095E092F
:103010002C09FA08C8089608640832080008CD0789
:103020009B07690737070507D306A10670063F0609
:103030000E06DD05AD057D054E051E05F004C20436
:10304000940467043A040E04E303B8038E03640394
:103050003C031403EC02C602A0027B0257023402B6
:103060001202F101D001B1019301750159013D0135
:1030700023010A01F100DA00C400AF009B008900BF
:103080007700670058004A003D00310027001E000D
:1030900016000F00090005000200000000000000FB
:1030A0000200050009000F0016001E002700310075
:1030B0003D004A0058006700770089009B00AF0080
:1030C000C400DA00F1000A0123013D015901750134
:1030D0009301B101D001F1011202340257027B02C7
:1030E000A002C602EC0214033C0364038E03B8037F
:1030F000E3030E043A0467049404C204F0041E05BA
:103100004E057D05AD05DD050E063F067006A106E0
:10311000D3060507370769079B07CD070203040598
:10312000060708090A0B0C0D0E0F1010010203040C
:1031300005060708090A0B0C0D0E0F100000000011
:103140000000000001020304060708090000000057
:103150000102030474310008000000204000000058
:10316000A22C0008B431000840000020B009000083
:10317000B22C00080401002044010020400000207F
:103180000F000000803E0000F4010000D0070000A6
:103190000000000001000002F401E803000000004C
:1031A000000000000100000010000000000000000E
:0431B00000127A008F
:040000050800018965
:00000001FF
